S12348000C94F0240C940D250C940D250C9469250C940D250C940D250C940D250C940D25C6
S12348200C940D250C940D250C940D250C940D250C9490250C94E6250C940D250C940D2588
S12348400C940D250C940D250C940D250C940D250C940D250C940D250C940D250C940D25C4
S12348600C942F530C940D250C940D250C94B9520C940D250C940D250C940D250C940D257B
S12348800C940D250C940D250C940D250C940D250C940D250C940D250C940D250C940D2584
S12348A00C940D250C940D250C940D250C940D250C940D250C940D250C940D250C940D2564
S12348C00C940D250C940D250C940D250C940D250C940D250C940D250C940D250C9414253D
S12348E00C940D250C940D250C940D250C940D250C940D250C940D250C940D250C940D2524
S123490065269726CC260127362768279D27D22707283C286439513D513D513D513D513D92
S1234920E739F83A9E38513D143A543A963A513D513D513D493BA639513D513D513D513DCC
S1234940513D513DAB3BFC3B513D513D513D3E3C513D513D513D513D2239513D513D513DB9
S1234960513D513D513D513D513D513D513D513D513D513DE038513D513D513D513D513DC9
S1234980513D513D513D513D513D513D513D513D513D7F3CBF3C513D513D513D513D513D99
S12349A0513D513D513D513D513D513D513D513D513D513D013D28423E422242C4413E4256
S12349C00742BF41E3410142FB41F541E941EF41F24CF64C1A4D1E4D224D274D2B4DCF4C8F
S12349E011241FBECFEFCDBFDFE7DEBF14E6A0E0B0E6E2E5F9EC02C005900D92AC31B107AD
S1234A00D9F729E6ACE1B4E601C01D92A930B207E1F70E942A2D0C94A7640C9400240E94A8
S1234A202E540E942F5208951F920F920FB60F9211242F933F934F935F936F937F938F93A5
S1234A409F93AF93BF93EF93FF9380918408887090E09595879595958795959587958130F0
S1234A6061F44FEF60E070E0CB010E94A24FE0E8F8E08481886084831BC08091810880FD2A
S1234A800CC041E060E070E0CB010E94A24FE0E8F8E08481886084830BC040E060E070E027
S1234AA0CB010E94A24FE0E8F8E0848188608483FF91EF91BF91AF919F918F917F916F91FF
S1234AC05F914F913F912F910F900FBE0F901F9018951F920F920FB60F9211242F933F938A
S1234AE04F935F936F937F938F939F93AF93BF93EF93FF930E94745282E080934301FF911D
S1234B00EF91BF91AF919F918F917F916F915F914F913F912F910F900FBE0F901F9018955A
S1234B201F920F920FB60F9211242F933F934F935F936F937F938F939F93AF93BF93EF939E
S1234B40FF9380E00E947B4480916267909163670196809362679093636781E08093060B54
S1234B60FF91EF91BF91AF919F918F917F916F915F914F913F912F910F900FBE0F901F9017
S1234B80189580911C64813001F580911D6490911E648533910598F4880F991FFC01EA5F88
S1234BA0FF49808191810E94745380911D6490911E64019680931D6490931E6408951092E9
S1234BC01D6410921E6410921C6408951F920F920FB60F9211242F933F934F935F936F9316
S1234BE07F938F939F93AF93BF93EF93FF930E94C12581E08093160BFF91EF91BF91AF91E6
S1234C009F918F917F916F915F914F913F912F910F900FBE0F901F9018956093290A0895A6
S1234C20813049F461E082E00E94E82C60E083E00E94E82C089560E082E00E94E82C61E09A
S1234C4083E00E94E82C0895813049F461E084E00E94E82C60E085E00E94E82C089560E019
S1234C6084E00E94E82C61E085E00E94E82C08958091DC6082958F7059F08091DC60982F5D
S1234C8092959F708091A060807F892B8093A060E8EDF0E690818091A06090FB85F980931A
S1234CA0A060958190FB84F98093A060089520E018C2822F90E0FC013497EA30F10508F057
S1234CC00FC2E058FB4D0C943C63822F90E0FC01EE0FFF1FE80FF91FEB59F849308133236C
S1234CE0D9F0FC01EE0FFF1F8E0F9F1FFC01EB59F84931503083A8EDB0E618969C91189709
S1234D008181987F8770892B18968C93E5EDF0E681818E7F8183E4C1E8EDF0E68085887FE7
S1234D208087E5EDF0E681818E7F8183D9C1822F90E0FC01EE0FFF1FE80FF91FEB59F84946
S1234D4030813323F1F0FC01EE0FFF1F8E0F9F1FFC01EB59F84931503083A8EDB0E6189665
S1234D608C9118979181990F990F990F9873877C892B18968C93E5EDF0E681818D7F818310
S1234D80AFC1E8EDF0E68085877C8087E5EDF0E681818D7F8183A4C1822F90E0FC01EE0FAB
S1234DA0FF1FE80FF91FEB59F84930813323F1F0FC01EE0FFF1F8E0F9F1FFC01EB59F84960
S1234DC0315030838181882331F0E8EDF0E680858064808705C0E8EDF0E680858F7B8087AC
S1234DE0E5EDF0E681818B7F81837AC1E8EDF0E680858F7B8087E5EDF0E681818B7F818343
S1234E006FC1822F90E0FC01EE0FFF1FE80FF91FEB59F84930813323F1F0FC01EE0FFF1F91
S1234E208E0F9F1FFC01EB59F849315030838181882331F0E8EDF0E680858068808705C02B
S1234E40E8EDF0E680858F778087E5EDF0E68181877F818345C1E8EDF0E680858F7780871A
S1234E60E5EDF0E68181877F81833AC1822F90E0FC01EE0FFF1FE80FF91FEB59F849308101
S1234E803323D9F0FC01EE0FFF1F8E0F9F1FFC01EB59F84931503083A8EDB0E619969C91BF
S1234EA019978181987F8770892B19968C93E5EDF0E681818F7E818313C1E8EDF0E681856C
S1234EC0887F8187E5EDF0E681818F7E818308C1822F90E0FC01EE0FFF1FE80FF91FEB59AF
S1234EE0F84930813323F1F0FC01EE0FFF1F8E0F9F1FFC01EB59F84931503083A8EDB0E631
S1234F0019968C9119979181990F990F990F9873877C892B19968C93E5EDF0E681818F7DC1
S1234F208183DEC0E8EDF0E68185877C8187E5EDF0E681818F7D8183D3C0822F90E0FC01A4
S1234F40EE0FFF1FE80FF91FEB59F84930813323F1F0FC01EE0FFF1F8E0F9F1FFC01EB5902
S1234F60F849315030838181882331F0E8EDF0E681858064818705C0E8EDF0E681858F7BCD
S1234F808187E5EDF0E681818F7B8183A9C0E8EDF0E681858F7B8187E5EDF0E681818F7B6D
S1234FA081839EC0822F90E0FC01EE0FFF1FE80FF91FEB59F84930813323F1F0FC01EE0FDC
S1234FC0FF1F8E0F9F1FFC01EB59F849315030838181882331F0E8EDF0E682858160828734
S1234FE005C0E8EDF0E682858E7F8287E5EDF0E681818F77818374C0E8EDF0E682858E7F79
S12350008287E5EDF0E681818F77818369C0822F90E0FC01EE0FFF1FE80FF91FEB59F849D9
S123502030813323F1F0FC01EE0FFF1F8E0F9F1FFC01EB59F849315030838181882331F08D
S1235040E8EDF0E682858260828705C0E8EDF0E682858D7F8287E5EDF0E682818E7F828366
S12350603FC0E8EDF0E682858D7F8287E5EDF0E682818E7F828334C0822F90E0FC01EE0F9A
S1235080FF1FE80FF91FEB59F84930813323F1F0FC01EE0FFF1F8E0F9F1FFC01EB59F8497D
S12350A0315030838181882331F0E8EDF0E682858460828705C0E8EDF0E682858B7F8287C1
S12350C0E5EDF0E682818D7F82830AC0E8EDF0E682858B7F8287E5EDF0E682818D7F8283C5
S12350E02F5F2E3008F4E5CD089590E0FC01EE0FFF1F8E0F9F1FFC01EB59F8496083418369
S12351000895CF93DF93809124648093236480E090E00E94855280788093246491E0909377
S1235120AA60882361F080912364811108C081E08093A86041E061E08AE00E947528C0E04C
S1235140D0E008C08C2F90E00E94855288230CF4D1E0CF5FC630B0F3C0E007C08C2F90E07A
S12351600E9494528111D1E0CF5FC230B8F3D093A9600E94172BDF91CF9108958091226441
S12351808093216483E090E00E94855280788093226491E09093A260882361F0809121646E
S12351A0811108C081E08093A16041E061E08AE00E9475280E942D2C089541E063E086E0AF
S12351C00E94752808959091A760911106C0482F63E084E00E9475280895482F63E088E043
S12351E00E94752808959091A760911106C0482F63E085E00E9475280895482F63E089E021
S12352000E9475280895FC01108211821282138214821582168217821086118612861386A7
S12352201486158616861786108A118A128A138A148A0895CF93DF939091206490931F6434
S12352408091A76080932064981721F087E890E60E940329C7E8D0E68C818B8385E090E0D3
S12352600E94855280788C838E818D8384E090E00E94855280788E839C81998B8A8B992323
S123528069F080918A60811109C019821A8282E0888341E061E08AE00E94752880918760B4
S12352A08230C1F4E7E8F0E68181928101968183928321E0248726870F9710F01092876091
S12352C080918B60811106C0E7E8F0E61082148681E0868780918D60882379F080918C6028
S12352E081110BC0E7E8F0E61182128283E0808341E061E08AE00E94752880918760833065
S1235300C1F4E7E8F0E68181928101968183928321E0248725870F9710F0109287608091D2
S12353208D60811106C0E7E8F0E61082148681E08587C7E8D0E688858F8381E090E00E94EF
S1235340945288878B8B81E090E00E94A6528A87988191110FC090918F60992309F466C049
S123536090918E60911162C019821A8294E0988389875CC0943009F051C090918F609111E4
S123538019C0E7E8F0E610829185943638F4873908F44CC0148681E0878748C0973908F448
S12353A045C0843608F042C0E7E8F0E6148681E0808B3CC0E7E8F0E6218132812F5F3F4F73
S12353C021833283992391F190919060943688F4873960F12F30310530F081E0878795E031
S12353E09083848723C0E7E8F0E681E0878784871DC09739D8F08436C8F42F30310540F0D9
S1235400E7E8F0E685E0808381E08487808B0EC0E7E8F0E681E08487808B08C0953031F468
S123542080918F60811102C01092876082E990E60E94812B90911F6480912064981721F063
S123544080E790E60E940329C0E7D0E68C818B8382E090E00E94855280788C838E818D83B4
S123546081E090E00E94855280788E839C81998B8A8B992369F080917360811109C0198290
S12354801A8282E0888341E061E08AE00E947528809170608230C1F4E0E7F0E681819281FA
S12354A001968183928321E0248726870F9710F01092706080917460811106C0E0E7F0E6ED
S12354C01082148681E0868780917660882379F08091756081110BC0E0E7F0E6118212822C
S12354E083E0808341E061E08AE00E947528809170608330C1F4E0E7F0E6818192810196A5
S12355008183928321E0248725870F9710F01092706080917660811106C0E0E7F0E6108290
S1235520148681E08587C0E7D0E688858F8380E090E00E94945288878B8B80E090E00E94F5
S1235540A6528A87988191110FC090917860992309F466C090917760911162C019821A82E9
S123556094E0988389875CC0943009F051C090917860911119C0E0E7F0E61082918594361B
S123558038F4873908F44CC0148681E0878748C0973908F445C0843608F042C0E0E7F0E6E0
S12355A0148681E0808B3CC0E0E7F0E6218132812F5F3F4F21833283992391F19091796046
S12355C0943688F4873960F12F30310530F081E0878795E09083848723C0E0E7F0E681E0D8
S12355E0878784871DC09739D8F08436C8F42F30310540F0E0E7F0E685E0808381E084876D
S1235600808B0EC0E0E7F0E681E08487808B08C0953031F480917860811102C01092706038
S12356208BE790E60E94812BDF91CF9108958091A760882319F08130D9F008958091A860C7
S1235640813009F05DC0E7EAF0E611828381813009F056C01382808314821582168217828B
S12356600084F185E02D309709F44AC0099508958091A960813049F41092AB601092AC60B3
S12356801092AD601092AE600DC0E7EAF0E684819581A681B7810196A11DB11D8483958377
S12356A0A683B7838091AB609091AC60A091AD60B091AE60883B9B40A105B10570F0E7EA82
S12356C0F0E6148215821682178210820084F185E02D309711F080E009958091A860813069
S12356E079F4E7EAF0E611828381813049F4138210820084F185E02D309711F080E0099519
S12357000895CF93DF93EC018881813009F46CC020F0823009F48DC09DC019868B8181307F
S1235720B1F41B828981813049F48987EA85FB85309709F0099581E088838CC083E08987A3
S1235740EA85FB85309709F485C0099583C08A818130B9F41A828981813051F482E08987F5
S1235760EA85FB85309709F0099581E0888372C084E08987EA85FB85309709F46BC009954A
S123578069C08C818130B1F41C828981813049F48987EA85FB85309709F0099582E0888319
S12357A059C083E08987EA85FB85309709F452C0099550C08D81813009F04CC01D82898179
S12357C0813051F482E08987EA85FB85309709F0099582E088833EC084E08987EA85FB8542
S12357E03097C1F1099536C08985823081F49F81992331F0EA85FB85309761F109952AC0D6
S1235800EA85FB85309709F00995188223C0813009F59E81992331F0EA85FB853097D1F098
S1235820099518C0EA85FB85309709F00995188211C08885882339F0EA85FB85309751F05E
S12358408985099507C0EA85FB85309711F0898509951882DF91CF9108958091A1608130A4
S123586069F4E1EAF0E610828181813039F411820480F581E02D309709F00995E091A36048
S1235880F091A460309729F08091A06082958170099508958091A06085FF07C08F7090E080
S12358A022E330E040E050E008C089E090E0A0E0B0E024E630E040E050E0880F991F880F7E
S12358C0991FFC01E050FD4960817181828193810E940A639B01AC01AAE4B0E00E945163E3
S12358E020E137E240E050E00E941A63E0919E60F0919F60309719F0CA01B901099508959C
S123590081B18E7F81B9F894E0E8F8E085818B77858386818973868380B3816080BB81B33F
S12359208E7F81BB0895CF93DF9300D0CDB7DEB7DC0119821A8290E012C0E62FF0E03197BD
S1235940292F30E0E21BF30BEA0FFB1F8081E1E0F0E0EC0FFD1FE20FF31F80839F5F961773
S123596060F320E028C0822F869586958695E1E0F0E0EC0FFD1FE80FF11D308167E070E0F1
S1235980922F9770691B710981E090E002C0880F991F6A95E2F7832321F081B1886081B978
S12359A003C081B1877F81B989B18F7789B989B1806889B92F5F2417B0F281B18B7F81B9E7
S12359C081B1846081B90F900F90DF91CF910895E82FF0E0EE0FFF1FE85DFC498081218199
S12359E0613099F4E82FF0E081E090E0A0E0B0E004C0880F991FAA1FBB1F2A95D2F7EF543C
S1235A00FF492081822B80830895E82FF0E081E090E0A0E0B0E004C0880F991FAA1FBB1FCE
S1235A202A95D2F7EF54FF498095908189238083089540E162E081EB90E60E94932C08959A
S1235A4089B18F7B89B940E162E081EB90E60E94932C08950E940F2578940E94202D61E85F
S1235A6078E284E190E00E94DD526EEB78E284E190E00E94DD526AE179E284E190E00E94AC
S1235A80DD5269E17DE282E390E00E94DD5268E376E28AE090E00E94DD526AE47CE284E620
S1235AA090E00E94DD520E94752D80E00E94772D80E00E94C5450E9402530E943752809178
S1235AC02F668130C1F710922F666AEA80E090E00E946F54809102108370E1F741E068EDA0
S1235AE081E490E00E948B54E6CF80E0089596E1899FF0011124E853F849108A0E94674274
S1235B0008952CE1829FC0011124FC01E85BFC494681578170E0FB01EE0FFF1F660F771F2A
S1235B20660F771F660F771FE60FF71FE40FF51F808181110EC025813681678108C0D901F1
S1235B40AB52BF499FEF9C932F5F3F4F8F5F8617B0F38081813029F50084F185E02D0180DD
S1235B60F281E02D808190E0FC01EE0FFF1F880F991F880F991F880F991F8E0F9F1FFA01D5
S1235B80E80FF91F25813681478180E008C0F901EB52FF499FEF90832F5F3F4F8F5F8417E0
S1235BA0B0F30895CF93C82F90E02CE1289FF001299FF00D1124E85BFC492381211111C0EA
S1235BC02CE1289FF001299FF00D1124E85BFC498081882311F0833021F468E08C2F0E9460
S1235BE0AB328C2F0E94C743CF910895482F50E08CE1849FF001859FF00D1124E85BFC495A
S1235C0094811DC02CE1249FF001259FF00D1124E85BFC490284F385E02DE90FF11D20819D
S1235C2026130CC08CE1849FF001859FF00D1124E85BFC498581890F81500895915091116D
S1235C40E1CF8FEF0895EF92FF920F931F93CF93DF93182F062FC82FD0E086E18C9FF00195
S1235C608D9FF00D1124E853F84981E0858382858F3F51F096E19C9FF0019D9FF00D1124B6
S1235C80E853F8498F5F828786E18C9FF0018D9FF00D1124E853F84982858230A8F086E178
S1235CA08C9FF0018D9FF00D1124E853F849838581110AC086E18C9FF0018D9FF00D1124A5
S1235CC0E853F84981E0838786E18C9FF0018D9FF00D1124E853F8498589882351F086E11B
S1235CE08C9FF0018D9FF00D1124E853F8491682158A602F812F0E94F62DE82E8CE18C9FC1
S1235D00F0018D9FF00D1124E85BFC49F380FF2069F00C3359F486E18C9FF0018D9FF00D85
S1235D201124E853F8498089813021F0F11007C00D3329F4402F62E0812F0E94BF4C83E04D
S1235D408E1550F06E2D812F0E94812DEE2DF0E0EC58F94981E08083F11015C08CE18C9F7E
S1235D60F0018D9FF00D1124E85BFC498081882311F0833041F46E2D812F0E940C3361E046
S1235D80812F0E94AB32DF91CF911F910F91FF90EF900895EF92FF920F931F93CF93DF93CB
S1235DA0082F162FF42EC82FD0E0642F0E94F62DE82E86E18C9FF0018D9FF00D1124E85310
S1235DC0F84982858F3F51F096E19C9FF0019D9FF00D1124E853F8498F5F828786E18C9F52
S1235DE0F0018D9FF00D1124E853F84982858230A8F086E18C9FF0018D9FF00D1124E85367
S1235E00F849838581110AC086E18C9FF0018D9FF00D1124E853F84981E08387133021F0BD
S1235E20A8F1183018F032C0EE24E3948CE18C9FF0018D9FF00D1124E85BFC49268137812C
S1235E408E2D90E0FC01EE0FFF1F880F991F880F991F880F991F8E0F9F1FF901E80FF91FAA
S1235E608081813099F086E18C9FF0018D9FF00D1124E853F84981E0868384EC8F0D82305E
S1235E8028F44F2D64E0802F0E94BF4C8CE18C9FF0018D9FF00D1124E85BFC4983818111C1
S1235EA020C08CE18C9FF0018D9FF00D1124E85BFC498081882311F0833099F486E18C9F10
S1235EC0F0018D9FF00D1124E853F8498681813021F46E2D802F0E940C33612F802F0E941A
S1235EE0AB32DF91CF911F910F91FF90EF9008950F931F93CF93DF93162F042FC82FD0E0AF
S1235F000E94F62D8F3F09F4BBC096E19C9FD0019D9FB00D1124A853B84912964D915C9152
S1235F2013979CE19C9FF0019D9FF00D1124E85BFC4966817781282F30E0F901EE0FFF1FB9
S1235F40220F331F220F331F220F331F2E0F3F1FFB01E20FF31F318114963C936381748116
S1235F60011172C09C9FF0019D9FF00D1124E85BFC499381911184C09CE19C9FF0019D9FD8
S1235F80F00D1124E85BFC49228930E090E01CC0A4E2A29FF001A39FF00D1124EC59FC4986
S1235FA00484F585E02DE90FF11DE0811E130BC096E19C9FF0019D9FF00D1124E853F849DE
S1235FC091E0958B0CC09F5FA4E2A29FF001A39FF00D1124EC59FC49E6859E17C8F2E82FBB
S1235FE0F0E0E059F949A08180E022C0E82FF0E02A2F30E0082E02C0369527950A94E2F7A9
S123600020FF08C0E858F9499081FA01E80FF11D90830DC0282F30E08A01020F131F260FB8
S1236020371FF901E852FF499081F80190838F5F96E19C9FF0019D9FF00D1124E853F849F2
S12360409481891798F21CC08CE18C9FF0018D9FF00D1124E85BFC498381811111C020E04B
S12360600DC0822F90E0FB01E80FF91FDA01A80FB91F8C91E852FF4980832F5F231788F3D4
S1236080DF91CF911F910F910895AF92BF92CF92DF92EF92FF920F931F93CF93DF931F92F0
S12360A0CDB7DEB7B82EA62EE82EF12C0E94F62D9CE19E9DF0019F9DF00D1124E85BFC4972
S12360C0C680D780282F30E08901000F111F220F331F220F331F220F331F020F131F0C0D0A
S12360E01D1D8F3F09F4B9C060E08A2D0E94644296E19E9DF0019F9DF00D1124E853F84952
S12361008187D8018C91813081F020F0813109F470C0A5C0F80182818111A3C040E06A2D5F
S12361208B2D0E94782F82E0A5C08CE18E9DF0018F9DF00D1124E85BFC498381811193C03B
S1236140D8011896ED91FC9119970180F281E02D80818983898190E0FC01EE0FFF1F880FC2
S1236160991F880F991F880F991FE80FF91FEC0DFD1D85819681298130E0A901440F551F5B
S1236180220F331F220F331F220F331F240F351FF601E20FF31F378120E027C0AC014F5FF7
S12361A05F4FFC01EB52FF4980818F3FE1F08CE18E9DD0018F9DB00D1124A85BBC491A96CC
S12361C02D913C911B97898115969C91E82FF0E0E91BF1093196E20FF31F60818B2D0E94B2
S12361E0F33382E047C02F5FCA012317B8F281E041C08CE18E9DF0018F9DF00D1124E85B43
S1236200FC498081823089F1F801828181111EC0FCE3AF1212C086E18E9DF0018F9DF00D7E
S12362201124E853F8498089813009F54A2D60E08B2D0E94BF4C82E01DC04A2D61E08B2D26
S12362400E94BF4C8130A9F082E014C04A2D67E08B2D0E94BF4C81E00DC080E00BC081E030
S123626009C081E007C081E005C080E003C082E001C080E0813019F0823041F00DC0D8011A
S123628011966C918B2D0E942B4409C0F80161818B2D0E94DB4303C08B2D0E94B3430F90BF
S12362A0DF91CF911F910F91FF90EF90DF90CF90BF90AF900895DF92EF92FF920F931F93DC
S12362C0CF93DF93F82ED62EC82FD0E086E18C9FF0018D9FF00D1124E853F84981E085834F
S12362E082858F3F51F096E19C9FF0019D9FF00D1124E853F8498F5F828786E18C9FF0017D
S12363008D9FF00D1124E853F84982858230A8F086E18C9FF0018D9FF00D1124E853F849F1
S1236320838581110AC086E18C9FF0018D9FF00D1124E853F84981E083876D2D8F2D0E9435
S1236340F62DE82E83E08E1508F4B4C08CE18C9FF0018D9FF00D1124E85BFC4906811781FC
S12363608E2D90E0FC01EE0FFF1F880F991F880F991F880F991FE80FF91FE00FF11F8081DA
S1236380813051F018F0813101F140C041E06D2D8F2D0E94782F3AC06D2D8F2D0E948333F3
S12363A086E18C9FF0018D9FF00D1124E853F8490280F381E02D61E080810E946442682F58
S12363C08F2D0E94F62DE82E21C086E18C9FF0018D9FF00D1124E853F8490280F381E02DE1
S12363E0808181110EC086E18C9FF0018D9FF00D1124E853F84981E087838F2D0E94C74308
S123640005C04D2D63E08F2D0E94BF4C83E08E1578F1EE2DF0E0EC58F94981E080838CE1DC
S12364208C9FF0018D9FF00D1124E85BFC49838181111EC08E2D90E0FC01EE0FFF1F880F08
S1236440991F880F991F880F991FE80FF91FE00FF11F25813681478180E008C0F901EB5250
S1236460FF499FEF90832F5F3F4F8F5F8417B0F38CE18C9FF0018D9FF00D1124E85BFC4978
S12364808381811117C08CE18C9FF0018D9FF00D1124E85BFC498081882311F0833029F49F
S12364A062E08F2D0E94AB3205C0813019F48F2D0E948132DF91CF911F910F91FF90EF9099
S12364C0DF900895623099F028F4662341F0613051F00895683090F0683069F00895642F13
S12364E00E9445300895642F0E94232E0895642F0E945B3108950E94D22D08950E94CA2E8B
S12365000895282F30E086E1829FD001839FB00D1124FD01E853F84946811682858153854F
S1236520AC52B8499C91692F6170462B40FB90F991FB442740F9842B80FB91F950FB92F9D3
S12365409C93818585878781882321F0FD01892F886080830895282F30E086E1829FF00114
S1236560839FF00D1124E853F8494681168285819785992311F051E001C050E096E1929F3F
S1236580F001939FF00D1124DF01A853B8491B967C911B97EC52F849908170FB92F9792F28
S12365A07170472B40FB90F991FB442740F9842B80FB91F9908319968C9119971D968C937B
S12365C01D9717968C91882359F086E1829FF001839FF00D1124EC52F849892F8860808356
S12365E0683059F086E1829FF001839FF00D1124EC52F84980818061808386E1829FF0010C
S1236600839FF00D1124EC52F84980818F7D50FB86F98F77808308951F93CF93DF9390E030
S123662026E1289FF001299FF00D1124E853F84916812CE1289FF001299FF00D1124E85B88
S1236640FC49428950E0643008F059C0289FF001299FF00D1124E85BFC498681978170E0A8
S1236660FB01EE0FFF1F660F771F660F771F660F771F6E0F7F1FFC01E60FF71F8081813009
S123668091F53DC084E2849FF001859FF00D1124EC59FC49A089B189862F90E09C01220FC3
S12366A0331F2A0F3B1FA289B389A80FB91FE901E881F981E852FF497081AC9121E030E06D
S12366C00A2E02C0220F331F0A94E2F7812F90E002C0880F991FAA95E2F720952723822BCD
S12366E080836F5F01C060E084E2849FF001859FF00D1124EC59FC498685681718F2DF9166
S1236700CF911F910895CF92DF92EF92FF920F931F93CF93DF93182FC82FD0E00E94F62D09
S1236720082F8F3F09F456C086E18C9FF0018D9FF00D1124E853F8490280F381E02D61E09C
S123674080810E9464429CE19C9FF0019D9FF00D1124E85BFC4946815781202F30E0F90155
S1236760EE0FFF1F220F331F220F331F220F331F2E0F3F1FFA01E20FF31FE084F18420E0FF
S123678025C09CE19C9FD0019D9FB00D1124A85BBC491A96CD90DC901B97F7014181528199
S12367A0FA01E20FF11D908115963C91E92FF0E0E31BF109EC0DFD1D9181891306C041E0CA
S12367C0682F812F0E94782F05C02F5FF70190812917B8F2DF91CF911F910F91FF90EF90B1
S12367E0DF90CF9008950F931F93CF93DF93C82FD62F40E00E94782F86E1C89FF0011124A9
S1236800E853F8490281138160E08D2F0E946442F8018083DF91CF911F910F910895AF92A3
S1236820BF92CF92DF92EF92FF920F931F93CF93DF93CDB7DEB72D97CDBFDEBF082F10E0CA
S12368409CE1909FF001919FF00D1124E85BFC49E288F12C94E3909FD001919FB00D11248D
S1236860AC56B8495496CD90DC9055971B96ED91FC911C97EE0FFF1FEE0FFF1FEE0FFF1FB2
S1236880EC0DFD1D90819E3709F4D8C0D82E84E28E9DD0018F9DB00D1124AC59BC49AD9099
S12368A0BC90D5018C91898383E08A838FE78B836C832D839FEF9E839F839887623B91F0E8
S12368C038F4603B09F479C0613B09F46BC0A5C0663B09F491C0673B09F496C0633B09F013
S12368E09CC082C0413009F098C086E08A83605C6B83211113C084E28E9DF0018F9DF00D67
S12369001124EC59FC49938184819C838D83958186819E838F83878188877FC0213099F4E8
S123692084E28E9DF0018F9DF00D1124EC59FC4980858C8381858D8382858E8383858F838D
S123694085E08A836AC085E0EBEFF2E6DE01199601900D928A95E1F7AE01475F5F4F622F37
S1236960802F0E94374D89858C838A858D838B858E838C858F838D85888785E010C0E82F51
S1236980F0E0319729E030E02C0F3D1FE20FF31F90819F3F19F08F5F8A833FC08150811153
S12369A0EECF3BC0D5018C91898381E08A8381EF8B838FEF8C838D8330C024E22E9DC00111
S12369C02F9D900D11248C599C49DC0112968C9189838781F501808381E08A8380EF8B83B1
S12369E08FEF8C838D8319C081E08A8383EF8B838FEF8C838D8311C081E08A83605C6B83A9
S1236A008FEF8C838D8309C0413039F481E08A83605C6B838FEF8C838D83BE016F5F7F4F5E
S1236A208D2D0E944E4684E3809FF001819FF00D1124EC56F84982E086A30AC084E3809F3B
S1236A40F001819FF00D1124EC56F84981E086A32D96CDBFDEBFDF91CF911F910F91FF9047
S1236A60EF90DF90CF90BF90AF900895CF92DF92EF92FF920F931F93CF93DF93CDB7DEB775
S1236A802597CDBFDEBFE82EF12C9CE19E9DF0019F9DF00D1124E85BFC49028910E094E24A
S1236AA0909F9001919F300D1124F901E959FC4995E0DE01119601900D929A95E1F7D901E3
S1236AC0AC59BC49FD0138961896CC90D1805281438194E39E9DD0019F9DB00D1124AC5637
S1236AE0B84954962D913C9155971B96ED91FC911C97EE0FFF1FEE0FFF1FEE0FFF1FE20F7F
S1236B00F31F3381948175816681332319F03130C1F154C02FEF290F253008F051C022302D
S1236B2090F449815A81292F30E02150304E220F331F220F331F220F331F02C056954795BF
S1236B402A95E2F719C02DEF290F2230A0F42B813C81492F50E04350504E440F551F440F2A
S1236B60551F440F551FF90102C0F695E7954A95E2F7AF0101C04D814627472319F190E0CB
S1236B8026C02FEF290F2430F8F4923059F018F4913031F00CC0933039F0943039F007C010
S1236BA09C2D05C09D2D03C0952F01C0942F292F2627472F422351F090E009C090E007C03D
S1236BC090E005C091E003C090E001C091E0992351F120E041E063EB0E940F3484E2809FCF
S1236BE0F001819FF00D1124EC59FC498081918124E32E9DD0012F9DB00D1124AC56B8494D
S1236C0054962D913C9155971B96ED91FC911C97EE0FFF1FEE0FFF1FEE0FFF1FE20FF31F4C
S1236C202781FC0120832596CDBFDEBFDF91CF911F910F91FF90EF90DF90CF900895CF9329
S1236C40DF93CDB7DEB72D97CDBFDEBF482F50E09CE1949FF001959FF00D1124E85BFC4982
S1236C60E28994E2E99FF0011124E959FC4995E0DE01199601900D929A95E1F790E025C06B
S1236C8024E3249FD001259FB00D1124AC56B84954962D913C9155971B96ED91FC911C97CC
S1236CA0EE0FFF1FEE0FFF1FEE0FFF1FE20FF31F292F30E0E20FF31F6081E1E0F0E0EC0FA4
S1236CC0FD1FE20FF31F60839F5F9830C8F22D8130E0322F22279C81292B6F8170E0762F70
S1236CE066279E81692BE985FA852E173F0719F02F3F3F4741F42B853C856217730769F0E9
S1236D006F3F7F4F51F084E3849FF001859FF00D1124EC56F84912A605C020E041E060EB75
S1236D200E940F342D96CDBFDEBFDF91CF910895AF92BF92DF92EF92FF920F931F93CF9346
S1236D40DF93CDB7DEB72897CDBFDEBFF82E082F10E020E025C084E3809FD001819FB00D56
S1236D601124AC56B84954968D919C9155971B96ED91FC911C97EE0FFF1FEE0FFF1FEE0F14
S1236D80FF1FE80FF91F822F90E0E80FF91F3081E1E0F0E0EC0FFD1FE80FF91F30832F5FE9
S1236DA02830C8F2EC8090E081E002C09F5F842F2CE1209FF001219FF00D1124E85BFC49D6
S1236DC02085318541E0480FE82FF0E0EE0FFF1FE20FF31F208131812F3F3F4F39F76DEFFC
S1236DE0690F4E2D54E017C091E0950FE1E0F0E0EC0FFD1FE50FF11D80818F3F51F0641747
S1236E0040F420E140E067EB8F2D0E940F3480E00BC04F5F592F242F30E08E2D90E004969D
S1236E202817390708F381E08130F1F531C0E1E0F0E0EC0FFD1FED0DF11D8081882319F086
S1236E408F3F21F111C0E3948CE1809FF001819FF00D1124E85BFC490284F385E02DEE0DA9
S1236E60F11D8FEF808312C0E3949CE1909FF001919FF00D1124E85BFC49A284B384AE0C98
S1236E80B11C61E00E946442F5018083D39403C06894DD24D2F8F7E0FD1548F620E041E066
S1236EA067EB8F2D0E940F342896CDBFDEBFDF91CF911F910F91FF90EF90DF90BF90AF90C9
S1236EC00895EF92FF920F931F93CF93DF93CDB7DEB76297CDBFDEBF082F10E09CE1909FC9
S1236EE0F001919FF00D1124E85BFC49428950E090E025C024E3209FD001219FB00D11241A
S1236F00AC56B84954962D913C9155971B96ED91FC911C97EE0FFF1FEE0FFF1FEE0FFF1F49
S1236F20E20FF31F292F30E0E20FF31F6081E6E0F0E0EC0FFD1FE20FF31F60839F5F9830A5
S1236F40C8F294E2949FF001959FF00D1124E959FC4995E0DE01119601900D929A95E1F7BA
S1236F602B8530E0322F22279A85292B4D8550E0542F44279C85492B69817A81261737074B
S1236F8019F02F3F3F4741F42B813C814217530769F04F3F5F4F51F084E3809FF001819F32
S1236FA0F00D1124EC56F84912A666C0F82EE984EE2021F081E0E81639F00DC02E2D41E0B7
S1236FC062EB0E940F3458C02E2D41E062EB8F2D0E940F3451C080EE8E0D803208F046C02F
S1236FE085E0EBEFF2E6DE011E9601900D928A95E1F7AE01425F5F4F6E2D8F2D0E94374D41
S12370008435F9F402C08F5F01C080E0853048F4EEE0F0E0EC0FFD1FE80FF11D90819F3F5B
S123702091F3853038F42E2D41E062EB8F2D0E940F3422C022E140E062EB8F2D0E940F348A
S12370401BC0833539F422E140E062EB8F2D0E940F3412C084E3809FF001819FF00D1124C0
S1237060EC56F84912A682E083A706C022E140E062EB8F2D0E940F346296CDBFDEBFDF91DD
S1237080CF911F910F91FF90EF9008958F929F92AF92BF92CF92DF92EF92FF920F931F9375
S12370A0CF93DF93CDB7DEB72897CDBFDEBFD82E082F10E08CE1809FF001819FF00D1124FB
S12370C0E85BFC49E288F12C20E025C084E3809FD001819FB00D1124AC56B84954968D9144
S12370E09C9155971B96ED91FC911C97EE0FFF1FEE0FFF1FEE0FFF1FE80FF91F822F90E083
S1237100E80FF91F3081E1E0F0E0EC0FFD1FE80FF91F30832F5F2830C8F2EC81F0E0FE2F37
S1237120EE278D81E82BCB80E058F14FE135F10508F0B7C4E657FB4D0C943C6384E28E9D7E
S1237140F0018F9DF00D1124EC59FC49A080B180F5018081898380E18A838AE08B8380E4B4
S12371608C0D8C8381EF8D8388E88E830F2EF0E3FF2EF02DFF8283E38887BE016F5F7F4FB7
S12371808D2D0E944E46F5018081898381E28A838EE28B83FC82FD828E83FF82F886BE013E
S12371A06F5F7F4F8D2D0E944E4684E3809FF001819FF00D1124EC56F84982E086A377C42D
S12371C084E28E9DF0018F9DF00D1124EC59FC49A080B180F5018081898380E18A838AE015
S12371E08B8380E48C0D8C8381EF8D8388E88E830F2EF0E3FF2EF02DFF8283E38887BE0161
S12372006F5F7F4F8D2D0E944E46F5018081898381E28A838EE28B83FC82FD828E83FF825E
S1237220F886BE016F5F7F4F8D2D0E944E4684E3809FF001819FF00D1124EC56F84982E0D3
S123724086A335C484E28E9DF0018F9DF00D1124EC59FC49A080B180F5018081898380E1E9
S12372608A838AE08B8380E48C0D8C8381EF8D8388E88E830F2EF0E3FF2EF02DFF8283E337
S12372808887BE016F5F7F4F8D2D0E944E46F5018081898381E28A838EE28B83FC82FD82A2
S12372A08E83FF82F886BE016F5F7F4F8D2D0E944E4684E3809FF001819FF00D1124EC5664
S12372C0F84982E086A3F3C384E28E9DF0018F9DF00D1124EC59FC49A080B180F501808176
S12372E0898380E18A838AE08B8380E48C0D8C8381EF8D8380E88E830F2EF0E3FF2EF02D39
S1237300FF8283E38887BE016F5F7F4F8D2D0E944E46F5018081898381E28A838EE28B8337
S1237320FC82FD828E83FF82F886BE016F5F7F4F8D2D0E944E4684E3809FF001819FF00D5D
S12373401124EC56F84982E086A3B1C384E28E9DF0018F9DF00D1124EC59FC49E080F18037
S1237360F7018081898380E18A8387E08B8380E48C0D8C8381EF8D8381E98E8388E48F839C
S123738082E38887BE016F5F7F4F8D2D0E944E46F7018081898381E28A838EE28B8380E3D4
S12373A08C8381E38D831E821F821886BE016F5F7F4F8D2D0E944E4684E3809FF001819F85
S12373C0F00D1124EC56F84982E086A370C384E28E9DF0018F9DF00D1124EC59FC4901903B
S12373E0F081E02D8081898380E18A8383E08B8380E48C0D8C8381EF8D8386E88E83809103
S123740093678F831886BE016F5F7F4F8D2D0E944E4684E3809FF001819FF00D1124EC5668
S1237420F84982E086A343C384E28E9DF0018F9DF00D1124EC59FC49A080B180F5018081C4
S1237440898380E18A8385E08B8380E48C0D8C8381EF8D838AE88E830F2EF0E3FF2EF02DD2
S1237460FF82F886BE016F5F7F4F8D2D0E944E46F5018081898381E28A83FB821C821D8291
S12374801E821F821886BE016F5F7F4F8D2D0E944E4684E3809FF001819FF00D1124EC56B3
S12374A0F84982E086A303C384E28E9DF0018F9DF00D1124EC59FC49A080B180F501808184
S12374C0898380E18A8386E08B8380E48C0D8C8381EF8D838BE88E8380E28F830F2EF1E226
S12374E0FF2EF02DF886BE016F5F7F4F8D2D0E944E46F50180818983FA8282E18B8386E21D
S12375008C831D821E821F821886BE016F5F7F4F8D2D0E944E4684E3809FF001819FF00DFB
S12375201124EC56F84982E086A3C1C284E28E9DF0018F9DF00D1124EC59FC49A080B180C6
S1237540F5018081898380E18A838B8384E18C8380E48C0D8D8381EF8E838CE88F830F2EE3
S1237560F0E3FF2EF02DF886BE016F5F7F4F8D2D0E944E46F5018081898381E28A83FB8231
S1237580FC82FD82FE82FF82F886BE016F5F7F4F8D2D0E944E46F5018081898382E28A83AC
S12375A0FB82FC82FD82FE82FF82F886BE016F5F7F4F8D2D0E944E46F5018081898383E21B
S12375C08A83FB82FC82FD82FE82FF821886BE016F5F7F4F8D2D0E944E4684E3809FF001BF
S12375E0819FF00D1124EC56F84982E086A35FC284E28E9DF0018F9DF00D1124EC59FC499C
S1237600A080B180F5018081898380E18A838FE08B8380E48C0D8C8381EF8D8387E88E831B
S12376200F2EF0E3FF2EF02DFF82F886BE016F5F7F4F8D2D0E944E46F5018081898381E23C
S12376408A83FB82FC82FD82FE82FF82F886BE016F5F7F4F8D2D0E944E46F50180818983D2
S123766082E28A83FB82FC82FD82FE82FF821886BE016F5F7F4F8D2D0E944E4684E3809FAB
S1237680F001819FF00D1124EC56F84982E086A30EC284E28E9DF0018F9DF00D1124EC59A0
S12376A0FC49A080B180F5018081898380E18A838B8383E18C8380E48C0D8D8381EF8E83B0
S12376C080E98F830F2EF0E3FF2EF02DF886BE016F5F7F4F8D2D0E944E46F5018081898305
S12376E081E28A83FB82FC82FD82FE82FF82F886BE016F5F7F4F8D2D0E944E46F5018081DB
S1237700898382E28A83FB82FC82FD82FE82FF82F886BE016F5F7F4F8D2D0E944E46F501AE
S12377208081898383E28A83FB82FC82FD82FE821F821886BE016F5F7F4F8D2D0E944E4642
S123774084E3809FF001819FF00D1124EC56F84982E086A3ACC184E28E9DF0018F9DF00D36
S12377601124EC59FC49A080B180F5018081898380E18A838CE08B8380E48C0D8C8381EF8E
S12377808D8388E98E830F2EF0E3FF2EF02DFF82F886BE016F5F7F4F8D2D0E944E46F501B9
S12377A08081898381E28A83FB82FC82FD82FE82FF82F886BE016F5F7F4F8D2D0E944E4604
S12377C0F5018081898382E28A83FB82FC821D821E821F821886BE016F5F7F4F8D2D0E9401
S12377E04E4684E3809FF001819FF00D1124EC56F84982E086A35BC184E28E9DF0018F9D50
S1237800F00D1124EC59FC49A080B180F5018081898380E18A8386E08B8380E48C0D8C8366
S123782081EF8D8389E98E8380E28F830F2EF1E2FF2EF02DF886BE016F5F7F4F8D2D0E943E
S12378404E46F50180818983FA8282E18B8386E28C831D821E821F821886BE016F5F7F4F50
S12378608D2D0E944E4684E3809FF001819FF00D1124EC56F84982E086A319C184E28E9DD2
S1237880F0018F9DF00D1124EC59FC4980809180F4018081898380E18A8386E08B8380E4B2
S12378A08C0D8C8381EF8D838DE98E8380E28F830F2EF1E2BF2EF02DB886BE016F5F7F4FEE
S12378C08D2D0E944E46F40180818983BA8282E18B8386E28C831D821E821F821886BE0151
S12378E06F5F7F4F8D2D0E944E4684E3809FF001819FF00D1124EC56F84982E086A384E2BB
S12379008E9DF0018F9DF00D1124EC59FC49A080B180F5018081898380E18A8387E08B8328
S123792080E48C0D8C8381EF8D838FEB8E8388E48F8382E38887BE016F5F7F4F8D2D0E9483
S12379404E46F5018081898381E28A838EE28B8380E38C8381E38D831E821F821886BE011A
S12379606F5F7F4F8D2D0E944E4684E3809FF001819FF00D1124EC56F84982E086A384E23A
S12379808E9DF0018F9DF00D1124EC59FC49A080B180F5018081898380E18A838AE08B83A5
S12379A080E48C0D8C8381EF8D8380EC8E830F2EF0E3FF2EF02DFF8283E38887BE016F5FDD
S12379C07F4F8D2D0E944E46F5018081898381E28A838EE28B83FC82FD828E83FF82F886E7
S12379E0BE016F5F7F4F8D2D0E944E4684E3809FF001819FF00D1124EC56F84982E086A361
S1237A0056C084E28E9DF0018F9DF00D1124EC59FC49A080B180F5018081898380E18A8320
S1237A208FE08B8380E48C0D8C8381EF8D8380ED8E830F2EF0E3FF2EF02DFF82F886BE01A3
S1237A406F5F7F4F8D2D0E944E46F5018081898381E28A83FB82FC82FD82FE82FF82F8862A
S1237A60BE016F5F7F4F8D2D0E944E46F5018081898382E28A83FB82FC82FD82FE82FF82C8
S1237A801886BE016F5F7F4F8D2D0E944E4684E3809FF001819FF00D1124EC56F84982E04B
S1237AA086A320E040E062E28D2D0E940F342896CDBFDEBFDF91CF911F910F91FF90EF9081
S1237AC0DF90CF90BF90AF909F908F900895FF920F931F93CF93DF93CDB7DEB72897CDBF3E
S1237AE0DEBF082F10E09CE1909FF001919FF00D1124E85BFC49428950E094E3909FD001C5
S1237B00919FB00D1124AC56B84954962D913C9155971B96ED91FC911C97EE0FFF1FEE0F54
S1237B20FF1FEE0FFF1FE20FF31F23812093936791819F70923009F085C0213069F120F0D8
S1237B40223009F451C078C094E2949FF001959FF00D1124EC59FC490190F081E02D9081DF
S1237B6099836894FF24F1F8FA8290E59B832C839FEF9D839E839F839887BE016F5F7F4FB4
S1237B800E944E4684E3809FF001819FF00D1124EC56F849F6A25BC094E2949FF001959FDE
S1237BA0F00D1124EC59FC490190F081E02D908199836894FF24F1F8FA8290E59B832C8303
S1237BC09FEF9D839E839F839887BE016F5F7F4F0E944E4684E3809FF001819FF00D112437
S1237BE0EC56F849F6A233C094E2949FF001959FF00D1124EC59FC490190F081E02D9081C9
S1237C0099836894FF24F1F8FA8290E59B832C839FEF9D839E839F839887BE016F5F7F4F13
S1237C200E944E4684E3809FF001819FF00D1124EC56F849F6A20BC022E140E060E10E9455
S1237C400F3405C023E140E060E10E940F342896CDBFDEBFDF91CF911F910F91FF9008959B
S1237C600F931F93CF93DF93CDB7DEB72897CDBFDEBF082F10E09CE1909FF001919FF00DE6
S1237C801124E85BFC49428950E094E3909FD001919FB00D1124AC56B84954962D913C9117
S1237CA055971B96ED91FC911C97EE0FFF1FEE0FFF1FEE0FFF1FE20FF31F918192959F70C9
S1237CC009F04CC0248130E0322F22279581292B93819130F9F4233062E03607D9F494E2FB
S1237CE0949FF001959FF00D1124EC59FC490190F081E02D9081998395E09A8391E79B8308
S1237D0091E09C8392E09D8323E02E839F839FEF98874FC0933009F04CC02330324009F025
S1237D2048C094E2949FF001959FF00D1124EC59FC490190F081E02D9081998395E09A83DF
S1237D4091E79B8323E02C8392E09D832E839F839FEF988791E090932F662BC0258130E0FB
S1237D60322F22279681292B9481913011F521153F4FF9F421E030E020932D6630932E66AF
S1237D8094E2949FF001959FF00D1124EC59FC490190F081E02D9081998395E09A8391E70F
S1237DA09B8391E09C839FEF9D831E8222E02F839887BE016F5F7F4F0E944E4684E3809FD9
S1237DC0F001819FF00D1124EC56F84982E086A32896CDBFDEBFDF91CF911F910F910895AA
S1237DE0FF920F931F93CF93DF93CDB7DEB72897CDBFDEBF082F10E09CE1909FF001919FD1
S1237E00F00D1124E85BFC49228930E094E3909FD001919FB00D1124AC56B84954964D9185
S1237E205C9155971B96ED91FC911C97EE0FFF1FEE0FFF1FEE0FFF1FE40FF51F93819130C9
S1237E4049F594E2929FF001939FF00D1124EC59FC490190F081E02D908199836894FF24FF
S1237E60F1F8FA8295EC9B8391E09C839FEF9D839E839F839887BE016F5F7F4F0E944E46C9
S1237E8084E3809FF001819FF00D1124EC56F849F6A229C0923039F594E2929FF001939F57
S1237EA0F00D1124EC59FC490190F081E02D908199836894FF24F1F8FA8295EC9B83FC8225
S1237EC09FEF9D839E839F839887BE016F5F7F4F0E944E4684E3809FF001819FF00D112434
S1237EE0EC56F849F6A22896CDBFDEBFDF91CF911F910F91FF9008959F92AF92BF92CF920C
S1237F00DF92EF92FF920F931F93CF93DF93CDB7DEB72897CDBFDEBFC0902764D0902864EA
S1237F20082F10E09CE1909FF001919FF00D1124E85BFC49E288F12C94E3909FF001919F41
S1237F40F00D1124EC56F849A489B5890384F485E02DEE0FFF1FEE0FFF1FEE0FFF1FBF01DF
S1237F606A0F7B1FFB01918192959F7009F4F0C0948042814250B09092679B10D2C0958104
S1237F809601275D3B49F9019083FB0196819601265D3B49F901908396012D5F3F4FFB01C6
S1237FA09781F601E55DFB49908361E070E090E074C0941788F49F5FFB01EE0FFF1FEE0FA7
S1237FC0FF1FEE0FFF1FEA0FFB1FA280F901E75DFB49A0822F5F3F4F941788F49F5FFB014E
S1237FE0EE0FFF1FEE0FFF1FEE0FFF1FEA0FFB1FA380F901E75DFB49A0822F5F3F4F94178B
S123800088F49F5FFB01EE0FFF1FEE0FFF1FEE0FFF1FEA0FFB1FA480F901E75DFB49A082BA
S12380202F5F3F4F941788F49F5FFB01EE0FFF1FEE0FFF1FEE0FFF1FEA0FFB1FA580F9017C
S1238040E75DFB49A0822F5F3F4F941788F49F5FFB01EE0FFF1FEE0FFF1FEE0FFF1FEA0FEB
S1238060FB1FA680F901E75DFB49A0822F5F3F4F941788F49F5FFB01EE0FFF1FEE0FFF1FA5
S1238080EE0FFF1FEA0FFB1FA780F901E75DFB49A0822F5F3F4F6F5F7F4F54E3509FF00114
S12380A0519FF00D1124EC56F8490584F685E02DE617F70708F07DCFB394B0929267242FF2
S12380C030E0C20ED31EC0922764D09228646091256470912664260F371F20932564309371
S12380E02664C114F2E0DF0658F0109227641092286421E030E020932B6630932C6611C048
S1238100203D344570F0109227641092286421E030E020932B6630932C662093296630931B
S12381202A6694E29E9DF0019F9DF00D1124EC59FC490190F081E02D9081998392E09A8346
S123814096E79B839C829FEF9D839E839F839887BE016F5F7F4F0E944E4684E3809FF0014A
S1238160819FF00D1124EC56F84982E086A32896CDBFDEBFDF91CF911F910F91FF90EF9086
S1238180DF90CF90BF90AF909F900895EF92FF920F931F93CF93DF93C82FD0E09CE19C9F1A
S12381A0F0019D9FF00D1124E85BFC49A289B0E094E29A9FF0019B9FF00D1124EC59FC4983
S12381C000A111A1E2A0F3A090E00FC0292F30E0F801E20FF31F4081461306C0F701E20FC7
S12381E0F31F91E090830DC09F5F34E23A9FF0013B9FF00D1124EC59FC49378D931730F313
S123820090E0992309F472C0653809F469C078F4623209F45FC020F4603109F458C079C02D
S1238220613309F45AC0663309F45DC072C0633B71F028F4603BE1F0623B31F06AC0663B9A
S1238240B1F1673B31F165C00E94613762C09CE19C9FF0019D9FF00D1124E85BFC49908183
S1238260992319F0933009F054C00E94363551C09CE19C9FF0019D9FF00D1124E85BFC49A8
S12382809081992319F0933009F043C00E941F3640C09CE19C9FF0019D9FF00D1124E85BF4
S12382A0FC499081911135C00E94983632C096E19C9FF0019D9FF00D1124E853F84991E06D
S12382C0978720E041E066EB0E940F3422C00E94673D1FC00E9446381CC00E94303E19C039
S12382E00E94F03E16C00E947C3F13C021E140E00E940F3484E38C9FF0018D9FF00D1124BC
S1238300EC56F8491786108A118A8585968583879487DF91CF911F910F91FF90EF900895EF
S12383204F925F926F927F928F929F92AF92BF92CF92DF92EF92FF920F931F93CF93DF9365
S12383401F92CDB7DEB7DA011F96CC901F971982FB01EC53FC49D080ED2CF12C5196EC91A8
S12383604E2E512CBDE04B16510408F087C08A014B015C01F201E552FB4D0C943C634C2D10
S123838060E08D2D0E946232F701E295F295F07FFE27E07FFE27E55CF94926853785F701B9
S12383A0EE0FFF1FE55BF94980819181820F931F26E12E9DF0012F9DF00D1124E853F84989
S12383C0818B928B5BC04C2D63E08D2D0E94623255C04C2D61E08D2D0E9462324FC04C2D62
S12383E062E08D2D0E94623249C04C2D65E08D2D0E94623243C04C2D66E08D2D0E946232DE
S12384003DC04C2D64E08D2D0E94623237C04C2D66E08D2D0E946232F701E295F295F07FA3
S1238420FE27E07FFE27E55CF9498685978526E12E9DF0012F9DF00D1124E853F849818B9C
S1238440928B1CC081E0F701E65CF949808316C0FA018789882391F0AE014F5F5F4FC50161
S1238460B4010E941051D80116969C918981891728F44C2D67E08D2D0E9462328CE18E9D80
S1238480F0018F9DF00D1124E85BFC498485958526E12E9DF0012F9DF00D1124E853F849A1
S12384A0838B948B0F90DF91CF911F910F91FF90EF90DF90CF90BF90AF909F908F907F9005
S12384C06F905F904F9008950E94584D08953F924F925F926F927F928F929F92AF92BF92B1
S12384E0EF92FF920F931F93CF93DF93CDB7DEB72697CDBFDEBF082F10E09801220F331FFC
S1238500C801880F991F880F991F880F991F820F931F805D994926E1209FF001219FF00D2B
S12385201124E853F84982839383F801EE0FFF1FEE0FFF1FE054FC4980809180A280B3805D
S12385408CE1809FF001819FF00D1124E85BFC49E488F588F7018581882309F444C0F80134
S1238560EE0FFF1FE55BF94984E190E080839183FF24F39434C08F2D90E09C01215031095C
S123858029833A830196880F991FDC01AA0FBB1FAA0FBB1FAA0FBB1FA81BB90B20E432E451
S12385A04FE050E00E94516320E03FE944E250E00E941A632F5F3F4FC801880F991F880F9A
S12385C0991F880F991F49815A81480F591F440F551F455C5949FA0120833183F394F8E061
S12385E0FF1548F666C0F7012081318142815381A8EEB3E00E9451639B01AC0160E871E5B7
S123860086ED92E00E941A632F5F3F4FF801EE0FFF1FE55BF949208331833324339445C026
S1238620832D90E09C01215031092D833E83F70140805180628073800196880F991FDC013C
S1238640AA0FBB1FAA0FBB1FAA0FBB1FA81BB90B20E432E44FE050E00E94516369837A831E
S12386608B839C83A8EEB3E0A30192010E9451639B01AC0169817A818B819C810E941A639D
S12386802F5F3F4FC801880F991F880F991F880F991F4D815E81480F591F440F551F455C20
S12386A05949FA01208331833394F8E0F31508F0B7CFF801E295F295F07FFE27E07FFE278E
S12386C0E55CF9498685978526E1209FD001219FB00D1124A853B84951968D939C93529788
S12386E08CE1809FF001819FF00D1124E85BFC498485958553968D939C9354978EE1809F4B
S12387009001819F300D1124235B394944895589C501B4010E943D4E89839A83892B51F4BD
S123872040E951E4C501B4010E94954FF801E65CF949108281E029813A81232B09F480E056
S12387402696CDBFDEBFDF91CF911F910F91FF90EF90BF90AF909F908F907F906F905F9029
S12387604F903F900895E82FF0E0EE0FFF1FEE0FFF1FE054FC4960817181828193810E9488
S1238780834F892B11F480E008958FEF0895E82FF0E0EE0FFF1FEE0FFF1FE054FC496081BB
S12387A07181828193810E94744F892B11F480E008958FEF0895CF92DF92EF92FF920F93F0
S12387C01F93CF939FEF960F9830B0F5C62F90E026E1289FF001299FF00D1124E853F84947
S12387E002811381DC01AA0FBB1FAA0FBB1FA054BC49CD90DD90ED90FC906483E62FF0E0C3
S12388003197880F991F880F991F880F991FE80FF91FEE0FFF1FE55CF9492081318140E07F
S123882050E0C701B6010E9402512C2FA801C701B6010E94245002C081E090E0892B11F4AB
S123884080E001C08FEFCF911F910F91FF90EF90DF90CF900895CF92DF92EF92FF921F93B6
S1238860CF93DF93C82FD0E0FE01EE0FFF1FEE0FFF1FE054FC49C080D180E280F3808FEFE7
S1238880860F883048F5162FE62FF0E03197CE01880F991F880F991F880F991FE80FF91F8D
S12388A0EE0FFF1FE55CF9492081318140E050E0C701B6010E94025186E18C9FF0018D9F50
S12388C0F00D1124E853F84942815381212FC701B6010E946F5002C081E090E0892B11F4D3
S12388E080E001C08FEFDF91CF911F91FF90EF90DF90CF9008954F925F926F927F92BF92A7
S1238900CF92DF92EF92FF920F931F93CF93DF93CDB7DEB7A297CDBFDEBF182FE82EF12C52
S1238920F701EE0FFF1FEE0FFF1FE054FC4940805180628073808EE18E9DF0018F9DF00D72
S12389401124E35BF949DE01119601900D928A95E1F7C301B2010E94995040E065E0812F9A
S12389600E94BF4C8B89873030F4833008F0A6C0823029F0F9C0893009F4CCC0F5C086E164
S12389808E9DF0018F9DF00D1124E853F849838994899C0121503109238B348B892BE9F46E
S12389A04FEF68E0812F0E9462328CE18E9DF0018F9DF00D1124E85BFC498485958526E1AE
S12389C02E9DF0012F9DF00D1124E853F849838B948BC301B2010E94744FF701E65CF949D8
S12389E08081882309F4C0C0F701E65CF9491082C0905C63D0905D63F60120813181428100
S1238A005381A8EEB3E00E9451639B01AC0160E871E586ED92E00E941A632F5F3F4FF70100
S1238A20EE0FFF1FE55BF94920833183BB24B39440C08B2D90E08C0101501109F601408041
S1238A405180628073800196880F991FDC01AA0FBB1FAA0FBB1FAA0FBB1FA81BB90B20E465
S1238A6032E44FE050E00E9451636F8F78A389A39AA3A8EEB3E0A30192010E9451639B0153
S1238A80AC016F8D78A189A19AA10E941A632F5F3F4FF701EE0FFF1FEE0FFF1FEE0FFF1F27
S1238AA0E00FF11FEE0FFF1FE55CF94920833183B394F8E0FB1508F0BCCF56C086E18E9D64
S1238AC0F0018F9DF00D1124E853F849818992899C0121503109218B328B892B09F044C040
S1238AE0C301B2010E94604EF701E295F295F07FFE27E07FFE27E55CF9498685978526E1EC
S1238B002E9DF0012F9DF00D1124E853F849818B928B2AC086E18E9DF0018F9DF00D112427
S1238B20E853F849818992899C0121503109218B328B892BC9F4C301B2010E94834FF7018B
S1238B40E295F295F07FFE27E07FFE27E55CF9498685978526E12E9DF0012F9DF00D112490
S1238B60E853F849818B928BA296CDBFDEBFDF91CF911F910F91FF90EF90DF90CF90BF90A0
S1238B807F906F905F904F900895482F50E08CE1849FF001859FF00D1124E85BFC49228DA3
S1238BA0338D2730310548F1F90135979F01ABEABAEA0E94426396958795969587959C011A
S1238BC0220F331F820F931F880F991FE817F90749F49F010E9442639695879596958795CB
S1238BE001960DC09F01ABEABAEA0E9442639695879596958795029602C081E090E02CE127
S1238C00249FD001259FB00D1124A85BBC4956962D913C91579764E3649FF001659FF00D5D
S1238C201124EC56F8492187328758962D913C915997248B358B9A01220F331F220F331F9E
S1238C40420F531F4559594942A353A387839087828B938B108211821282138285E084832C
S1238C601582168213861486158616861786108A118A82E0868B818F148E158E168E15A262
S1238C8014A212A6178E10A211A291E096A383A717A210A611A615A614A60895282F30E0E5
S1238CA09CE1929FF001939FF00D1124E85BFC499381911128C09CE1929FF001939FF00DB9
S1238CC01124E85BFC49908191111DC09CE1929FF001939FF00D1124E85BFC49E28994E2D7
S1238CE0E99FF0011124EC59FC49438D548D94E3929FF001939FF00D1124EC56F84940A324
S1238D0051A391E0978F94E3929FA001939F500D11244C565849FA0192A59F5F92A720E00B
S1238D200E940D49089594E3899FA00111244156584921E00E943F4C089524E3829FC00139
S1238D401124FC01EC56F8498785089590E024E3289FF001299FF00D1124EC56F849278D51
S1238D60223059F524E3289FF001299FF00D1124EC56F84920A131A1A9014150510940A308
S1238D8051A3232BD1F426E1289FF001299FF00D1124E853F849108A24E3289FF001299F72
S1238DA0F00D1124EC56F84923E023A725E0268B14A615A6178E21E026A324E3289FF001D4
S1238DC0299FF00D1124EC56F849278D213049F524E3289FF001299FF00D1124EC56F84993
S1238DE020A131A1A9014150510940A351A3232BC1F426E1289FF001299FF00D1124E85379
S1238E00F849108A24E3289FF001299FF00D1124EC56F84983E083A784E0818F178E81E030
S1238E2086A3089590E06C3361F524E3289FF001299FF00D1124EC56F84923E0268B12A65B
S1238E402CE1289FF001299FF00D1124E85BFC49208121110BC024E3289FF001299FF00DA5
S1238E601124EC56F84922E0278735C024E3289FF001299FF00D1124EC56F84927E02787A0
S1238E802AC024E3289FF001299FF00D1124EC56F84923E0218F2CE1289FF001299FF00D6B
S1238EA01124E85BFC49208121110BC024E3289FF001299FF00D1124EC56F84926E024836A
S1238EC00AC024E3289FF001299FF00D1124EC56F84927E0248324E3289FF001299FF00D56
S1238EE01124EC56F84983E083A7178E089590E024E3289FF001299FF00D1124EC56F8493B
S1238F0010A611A625813681232B19F524E3289FF001299FF00D1124EC56F849178E22E044
S1238F20218F21E023A72CE1289FF001299FF00D1124E85BFC49238121113EC024E3289FC9
S1238F40F001299FF00D1124EC56F84981E086A308952CE1289FF001299FF00D1124E85B76
S1238F60FC492381211128C02CE1289FF001299FF00D1124E85BFC49208121111DC02CE1E6
S1238F80289FF001299FF00D1124E85BFC49E28924E2E29FF0011124EC59FC49238D348D80
S1238FA044E3489FF001499FF00D1124EC56F84920A331A381E0878F08950F931F93CF93B0
S1238FC0C82F082F10E084E3809FF001819FF00D1124EC56F849158216821082118212823B
S1238FE0138285E084838C2F0E949D46813011F0833019F584E3809FD001819FB00D112450
S1239000AC56B84954968D919C9155971B96ED91FC911C97EE0FFF1FEE0FFF1FEE0FFF1F68
S1239020E80FF91F818182958F70813011F4638101C062818C2F0E94C640CF911F910F91B4
S123904008959F92AF92BF92CF92DF92EF92FF920F931F93CF93DF93CDB7DEB72897CDBF3C
S1239060DEBFA82EB12C94E39A9DF0019B9DF00D1124EC56F849E6A4F7A4C0A8D1A802A95F
S123908013A99785992309F4B9C0982EBE016F5F7F4F8A2D0E9493468CE18A9DF0018B9DC2
S12390A0F00D1124E85BFC498381882319F08981F60180838A81982F92959F7019F0913064
S12390C021F191C08F7090E0F80140815181808391834817590708F0AC018B81F7018083AC
S12390E081E090E00EC0D701A80FB91FFC01329621E030E02C0F3D1FE20FF31F20812C9396
S123910001968417950778F36EC08F7090E0982F88272B81820F911DF801C080D180808387
S12391209183C816D90608F06C018C81F701808381E090E00EC0D701A80FB91FFC01339621
S123914021E030E02C0F3D1FE20FF31F20812C9301968530910578F335E0C31AD10805E003
S123916010E01EC0BE016F5F7F4F892D0E94934622E030E00FC0D701A00FB11FE1E0F0E0C8
S1239180EC0FFD1FE20FF31F90819C930F5F1F4F2F5F3F4F2830310570F386E0C81AD10867
S12391A0E7E0CE16D104F0F6C114D104E1F0BE016F5F7F4F892D0E94934680E090E010C09E
S12391C0D701A00FB11FFC01329621E030E02C0F3D1FE20FF31F20812C930F5F1F4F0196F1
S12391E08C159D0568F384E38A9DF0018B9DF00D1124EC56F84914A682E0868B2896CDBFFA
S1239200DEBFDF91CF911F910F91FF90EF90DF90CF90BF90AF909F900895CF93DF93FA0188
S1239220C185D28545815681878190854817590708F05FC0DB014C914E3771F4A081B18107
S1239240AA0FBB1FAA0FBB1FAA0FBB1FAC0FBD1F3C913E3709F44DC03481353011F0311111
S123926008C0211103C084E084831EC081E084831BC04E3771F421110CC020813181232B18
S123928011F480839183808191810197808391830BC0228133812F5F3F4F228333838217BA
S12392A0930711F41282138250E015C082819381880F991F880F991F880F991F8C0F9D1F82
S12392C0252F30E0DB01A20FB31F4C91DC01A20FB31F4C935F5F583048F385819681019676
S12392E085839683278130858217930710F083E08483DF91CF910895FF920F931F93CF939B
S1239300DF93082F10E096E1909FF001919FF00D1124E853F849A281B38111969C91119768
S12393209F70973008F050C094E3909FF001919FF00D1124EC56F849178E91E093A71386E6
S1239340148615861686108A118A17869C919E3759F494E3909FF001919FF00D1124EC56DC
S1239360F84996E096A30AC094E3909FF001919FF00D1124EC56F84995E096A3F82E84E378
S1239380809FE001819FD00D1124AE014156584921E0BD018F2D0E940D49CC56D84981E099
S12393A08DA38CA38F2D0E94DD478CA5882319F08F2D0E94214884E3809FF001819FF00D88
S12393C01124EC56F84915A6DF91CF911F910F91FF9008950F931F93CF93DF93082F10E07B
S12393E096E1909FF001919FF00D1124E853F8490280F381E02DC181CF70D0E0DC2FCC27C2
S12394009281C90FD11DC730D10508F4B7C09CE1909FD001919FB00D1124A85BBC495A9698
S12394202D913C915B972C173D0708F4A7C0909FD001919FB00D1124A85BBC4913969C91C1
S1239440911139C094E3909FD001919FB00D1124AC56B84995E096969C939CE1909FD00184
S1239460919FB00D1124A85BBC499C91911123C09CE1909FD001919FB00D1124A85BBC4965
S12394805296AC9194E2A99FD0011124AC59BC495D962D913C915E9794E3909FD001919FBB
S12394A0B00D1124AC56B84990962D933C93919792E05F969C9394E3909FA001919F500D6C
S12394C01124DA01AC56B8491B961D921C921C971D961D921C921E9750961D921C925197C4
S12394E01F961C924156584921E0BF010E940D4925979E01ABEABAEA0E94426396958795F2
S1239500969587959C01220F331F820F931F880F991FC817D90789F49E010E944263969501
S123952087959695879594E3909FF001919FF00D1124EC56F84984A313C09E01ABEABAEA76
S12395400E94426396958795969587958F5F94E3909FF001919FF00D1124EC56F84984A3A1
S123956084E3809FF001819FF00D1124EC56F84981E085A313A685A710A611A6DF91CF91F0
S12395801F910F910895EF92FF921F93CF93DF93182FC82FD0E086E18C9FF0018D9FF00DA8
S12395A01124E853F849A281B3818CE18C9FF0018D9FF00D1124E85BFC49808181111DC0C0
S12395C08CE18C9FF0018D9FF00D1124E85BFC49E28924E2E29FF0011124EC59FC49858D64
S12395E0968D24E32C9FF0012D9FF00D1124EC56F84980A391A382E0878F11968C911197C5
S12396008F7094E39C9FF0019D9FF00D1124EC56F84995A189132DC09F5F84E38C9FF00173
S12396208D9FF00D1124EC56F84995A3903140F08C9FF0018D9FF00D1124EC56F84915A268
S123964084E38C9FA0018D9F500D1124CA018C5698497C01FC0184A1815084A341565849B8
S123966021E0BD01812F0E940D4985E0F70186A322C084E38C9FF0018D9FF00D1124EC56F4
S1239680F84984A5882349F084E38C9FF0018D9FF00D1124EC56F84914A684E38C9FF001D7
S12396A08D9FF00D1124EC56F84915A686E0868B178E81E086A384E38C9FF0018D9FF00DB8
S12396C01124EC56F84984A1811117C07F01178E81E083A7812F0E94DD47F70184A588234E
S12396E019F0812F0E94214884E38C9FF0018D9FF00D1124EC56F84915A6DF91CF911F9103
S1239700FF90EF900895282F30E09CE1929FF001939FF00D1124E85BFC499381911111C021
S123972094E3929FF001939FF00D1124EC56F84912A695E094831582168222813381208338
S12397403183FB01918192959F70913039F018F0923039F008950E947C4908950E94EA49BA
S123976008950E94C34A0895282F30E096E1929FF001939FF00D1124E853F849A281B381C5
S12397809CE1929FF001939FF00D1124E85BFC49438141113DC0929FF001939FF00D1124A1
S12397A0E85BFC49628970E09C9152E8590F523028F154E2569FF001579FF00D1124EC59EF
S12397C0FC490190F081E02D5081951729F012965C911297503BA1F454E2569FF001579F2B
S12397E0F00D1124EC59FC495281951759F012969C911297903B41F090E007C090E005C0FB
S123980091E003C090E001C091E0592F517001C050E011969C91119792959F7041110EC062
S1239820511102C0933050F084E3829FF001839FF00D1124EC56F84912A6089544E3429F50
S1239840F001439FF00D1124EC56F84946A1453011F0423019F44C914E3781F044E3429FC5
S1239860F001439FF00D1124EC56F84923A5233011F4923019F0BD010E94834B08950F9304
S12398801F93CF93DF93EA0149855A858D819E81892BD1F10881198130E013C0832F90E0DB
S12398A0DB01A80FB91FF801EE0FFF1FEE0FFF1FEE0FFF1FE40FF51FE80FF91F80818C93B9
S12398C03F5F383058F38D819E8101978D839E83892B39F4211103C085E08C8315C01C8280
S12398E013C0211103C084E08C8302C081E08C83888199810196888399832F813885821710
S1239900930711F418821982DF91CF911F910F910895CF93DF93282F30E094E3929FA0012E
S1239920939F500D11244C56584996E1929FE001939FD00D1124C853D8496A817B8120E02C
S12399400E943F4C88E08C83DF91CF910895282F30E094E3929FA001939F500D11244C56DC
S1239960584996E1929FF001939FF00D1124E853F8496281738120E00E943F4C08950F9386
S12399801F93E62F682F70E00E2F10E00830110508F061C0F801E851FB4D0C943C6384E361
S12399A0869FF001879FF00D1124EC56F8498689813009F052C084E3869FF001879FF00D47
S12399C01124EC56F84985A5811149C084E3869FF001879FF00D1124EC56F84981E084A722
S12399E080E042C00E94894C80E03EC094E3969FF001979FF00D1124EC56F84992A59923B1
S1239A0081F124E3269FF001279FF00D1124EC56F84923A5233039F124E3269FF001279FD0
S1239A20F00D1124EC56F849915092A70E94A74C80E01AC00E94774780E016C00E94B44B4D
S1239A4080E012C0642F0E94124780E00DC00E94A64680E009C080E007C080E005C080E0B2
S1239A6003C081E001C081E01F910F9108952CE1829FC0011124FC01E85BFC498381811170
S1239A8013C0603299F481E0860FFA01808382E0860F818383E0860F828384E0860F8383E5
S1239AA06B5F648384E5089583E5089583E50895CF93DF93282F30E0E901D595C795A9014C
S1239AC05595479555954795F901F595E795F595E795F595E795F595E7959C2F98274927EA
S1239AE04E2741704295440F440F407CD901B595A795B595A795B595A79535952795359547
S1239B0027953595279535952795359527959C2F9A279E27922791709095979599279795AB
S1239B20242F292B613031F4982F907C921304C08F7303C0822B01C08FEFDF91CF9108956A
S1239B40FC014C3341F04D3749F04E3F51F04F3B59F050E016C040E050E013C040E050E07D
S1239B6010C040E050E00DC040E050E00AC08191480F511D4F3F510519F010F04F5F51090E
S1239B8061506111F4CF842F80950895CF92DF92EF92FF921F93CF93DF939B01220F331FED
S1239BA0F901E45BF8490190F081E02DD901A25BB849CD91DC912A89263059F52481211147
S1239BC028C0142F6B017C0161E0842F0E94584D8F87188B8F3FA9F086E0898B8C858823DC
S1239BE031F087E08A8B81E08A87898712C01A86ED85FE85309769F0AE01C701B6010995EF
S1239C0008C087E0898BED85FE85AE01C701B6010995DF91CF911F91FF90EF90DF90CF90E0
S1239C2008950F93CF93DF93EA01402F660F771FFB01E45BF8490190F081E02DA085B185C2
S1239C4052855F3F79F0109749F40FC0FD01E90FF11D3081431741F09F5F01C090E0951754
S1239C60A8F303C040E001C040E0622FCE010E94A04DDF91CF910F910895F901660F771F80
S1239C80DB01A25BB8492D933C93DB01A45BB8494D935C93DB01A65BB84983EB90E68D93CA
S1239CA09C9382E0828B10861186128614861386178A138A148A158A168A80E090E0089582
S1239CC0660F771FFB01E25BF8490190F081E02D118A82E0828B128680E090E00895CF927C
S1239CE0DF92EF92FF920F93CF93DF93FB01EE0FFF1FE25BF849C081D1812E8130E05C81A3
S1239D00E52FF0E03196E217F30750F4EA81FB8140832A813B812F5F3F4F2A833B8308C0FD
S1239D202E8130E0251B31092130310509F44F832C8131E0320F3C832E8132133DC06B0175
S1239D407C018E8190E001974A815B81481B590B4A835B832E8121500889C701B6010E9480
S1239D60114E9F81891319C08CE0898B88E08A8BED85FE85309721F0AE01C701B601099555
S1239D808C85811119C01A8619868A898130A1F0C701B6010E94604E0FC08AE0898BED8521
S1239DA0FE85309721F0AE01C701B60109951986C701B6010E94604EDF91CF910F91FF900B
S1239DC0EF90DF90CF900895CF92DF92EF92FF920F931F93CF93DF936B017C01CB01880F3D
S1239DE0991FFC01E25BF849C081D181FC01E65BF849008111818D812C81821B813029F4E1
S1239E009F81941304C090E003C090E001C091E0392F3170E881F9819081491721F08130BF
S1239E2021F490E003C090E001C091E0892F817011F43323A1F089E0898BED85FE85309766
S1239E4021F0AE01C701B60109958B8581110EC01886C701B6010E94604E80E008C0319655
S1239E60E883F9832F5F2C8381E001C080E0882391F12C818D812817C0F48D8190E0821B42
S1239E809109019749F4D8011296ED91FC911397CE01079609951FC0D8011296ED91FC91A4
S1239EA0139788819981099516C08BE0898B8AE08A8BED85FE85309721F0AE01C701B60164
S1239EC009958B85811105C01886198A82E08A8B1A860E945726DF91CF911F910F91FF9053
S1239EE0EF90DF90CF900895660F771FFB01E25BF8490190F081E02D81E0828B0E94802C24
S1239F0080E090E00895CF93DF93FB01EE0FFF1FE25BF849C081D1810E94604E1886198647
S1239F2080E090E0DF91CF910895660F771FFB01E25BF8490190F081E02D8585968545875B
S1239F4056870895CF92DF92EF92FF92CF93DF931F92CDB7DEB76B017C01CB01880F991FFD
S1239F60FC01E45BF84920813181FC01E25BF849A081B181FC01E65BF8496081718141307C
S1239F80D9F4F9018481811157C081E01A968C931A9784E051968C93519786E052968C93A8
S1239FA0DB01ED91FC91CE01019609954981C701B6010E94C64D40C041112AC052968C9173
S1239FC0873039F018F48430B8F51BC0893069F018C0DB01ED91FC91CE01019609954981B6
S1239FE0C701B6010E946F4E27C0DB01ED91FC91CE01019609954981C701B6010E94E44E90
S123A0001BC0DB01ED91FC91CE010196099514C04F3F91F485E051968C9351971D96ED910B
S123A020FC911E97309721F0AD01C701B6010995C701B6010E94604E0F90DF91CF91FF906A
S123A040EF90DF90CF900895CF92DF92EF92FF920F931F93CF93DF93FB01EE0FFF1FDF010F
S123A060A25BB849CD91DC91E65BF849C080D180EA893FEF320F383008F5E13011F13A85E7
S123A080311122C0122F7A0108890E94114E8F83E882F98221E0210F2D831C8289E08A8B56
S123A0A0198A81E08A878887D6011296ED91FC911397C701099580E090E008C081E090E075
S123A0C005C081E090E002C082E090E0DF91CF911F910F91FF90EF90DF90CF900895660F44
S123A0E0771FFB01E25BF8490190F081E02D92898FEF820F8830A0F49130A9F082858111D4
S123A10015C0428353832F5F2683148287E0828B118A81E082878187148680E090E0089576
S123A12081E090E0089581E090E0089582E090E00895CF92DF92EF92FF92CF93DF936B01AC
S123A1407C01FB01EE0FFF1FE25BF849C081D1818A89873051F1893009F04DC08B899C8952
S123A160AD89BE89892B8A2B8B2B99F481E08F8B8B85811140C0ED85FE85309721F0AE0119
S123A180C701B60109951886C701B6010E94604E32C08B899C89AD89BE890197A109B1098D
S123A1A08B8B9C8BAD8BBE8B26C08B899C89AD89BE89892B8A2B8B2B99F481E08F8B8C8509
S123A1C0811119C0ED85FE85309721F0AE01C701B60109951986C701B6010E94604E0BC03E
S123A1E08B899C89AD89BE890197A109B1098B8B9C8BAD8BBE8BDF91CF91FF90EF90DF909E
S123A200CF900895660F771FFB01E25BF8490190F081E02D178A238B348B458B568B08954E
S123A220660F771FFB01E25BF8490190F081E02D86819481891BDA018C939189911108C048
S123A240882349F08789811109C082E090E0089580E090E0089580E090E0089583E090E08F
S123A2600895E4E3F4E08081877F80838081887F84608083E5E3F4E08081877F8083808102
S123A280887F84608083E7E1F4E08081877F80838081887F84608083E7E7F4E08081877F8E
S123A2A080838081887F84608083E4E9F4E08081877F80838081887F84608083E2E7F4E071
S123A2C08081877F80838081887F84608083E5E1F4E08081877F80838081887F84608083EE
S123A2E0E4E1F4E08081877F80838081887F84608083E0E3F4E08081877F80838081887F1F
S123A30084608083E1E3F4E08081877F80838081887F84608083E2E3F4E08081877F80831E
S123A3208081887F84608083E3E3F4E08081877F80838081887F84608083E6E1F4E08081FB
S123A340877F80838081887F84608083E0E7F4E08081877F80838081887F84608083E1E7A5
S123A360F4E08081877F80838081887F84608083E7E3F4E08081877F80838081887F846078
S123A3808083E6E3F4E08081877F80838081887F84608083E3E7F4E08081877F8083808177
S123A3A0887F84608083E4E7F4E08081877F80838081887F84608083E5E7F4E08081877F6C
S123A3C080838081887F84608083089581E08093536708958F5F809351670895CF93DF93F5
S123A3E081E591E60E94DC608BE598E60E949361C0E0D0E00BC0BE0181E591E60E940D6252
S123A400BE0181E591E60E942C622196C431D10590F3C0E0D0E00FC0AE01440F551F440F7F
S123A420551F4C0F5D1F4B5158496C2F83E091E60E947B552196C431D10570F388EE90E6D8
S123A4400E946959DF91CF9108959091410192FDFCCF90E080934A0190934B01089580E22E
S123A4600E9425520E9431510E94EE51089580915467813051F466EE71E581E591E60E9432
S123A4809D61811102C01092546780915367813051F5109253670E945A5E811113C083E0C9
S123A4A091E60E949A55882319F081E00E94EA5188EE90E60E94A959882339F082E00E9436
S123A4C0EA5103C080E00E94EA51E0910361F09104618081882324F481E0809354670895F2
S123A4E081E08093526708958091E4678F5F8093E467843148F01092E46781E080935467DD
S123A50084E190E00E9470550895E0910761F09108619C01220F331F820F931F880F991FE9
S123A520E80FF91F808108952091EC603091ED60FC01EE0FFF1FEE0FFF1FEE0FFF1F8E0F74
S123A5409F1FF901E80FF91F808108952091EC603091ED60FC01EE0FFF1FEE0FFF1FEE0F57
S123A560FF1F8E0F9F1FF901E80FF91F8581968108951F920F920FB60F9211242F933F931A
S123A5804F935F936F937F938F939F93AF93BF93EF93FF930E94B362FF91EF91BF91AF917C
S123A5A09F918F917F916F915F914F913F912F910F900FBE0F901F9018950F931F93CF93BA
S123A5C0DF938C01EB0188E090E00E948663FC01892B99F088E0DF011D928A95E9F7028374
S123A5E01383C483D583809155679091566786839783E0935567F0935667DF91CF911F9165
S123A6000F910895CF93DF93C0915567D091566716C0809162679091636728813981AC014F
S123A620421B530B2A813B814217530728F088839983EC81FD8109950E80DF81C02D2097E7
S123A64041F7DF91CF910895E0E0F6E087E0818381E084879FE79583808380E008951F9295
S123A6600F920FB60F9211242F933F934F935F936F937F938F939F93AF93BF93EF93FF9322
S123A680E0E0F6E0858581608587E0915767F0915867309709F00995FF91EF91BF91AF91BC
S123A6A09F918F917F916F915F914F913F912F910F900FBE0F901F9018951092890080E0E4
S123A6C0089544E268ED88E690E00E948B5480E00895789480E00895E0EAF6E01282138230
S123A6E081E4808380E008950024969587950794969587950794982F802D8093A2069093B7
S123A700A306089580E008C0E82FF0E0E05FFB4F9081986090838F5F8830B0F380E008C0CA
S123A720E82FF0E0E05DFB4F9081986090838F5F8830B0F380E008C0E82FF0E0E05BFB4FAE
S123A7409081986090838F5F8830B0F380E008C0E82FF0E0E059FB4F9081986090838F5FF4
S123A7608830B0F380E008C0E82FF0E0E057FB4F9081986090838F5F8830B0F380E008C05D
S123A780E82FF0E0E055FB4F9081986090838F5F8830B0F380E008C0E82FF0E0E053FB4F5E
S123A7A09081986090838F5F8830B0F3089584B38D7F84BBE1EBF4E08081877F808385B32F
S123A7C08E7F85BB84B3816084BB0E94D654089580B38D7F80BBE1E9F4E08081877F808346
S123A7E081B38E7F81BB80B3816080BB0E94CA540895E6E7F4E08081887F8460808380819B
S123A800877F80830E946C530895E6E9F4E08081887F846080838081877F8083E7E9F4E0ED
S123A8208081887F846080838081877F80830E942453089589B1877F89B988B1886088B981
S123A840E0EEF5E08681826086830E949F5408950E94AE5408950E94BC5408950E94825326
S123A86081B1816081B980B1816080B981B18B7F81B980B1846080B981B1877F81B980B1D5
S123A880886080B989B18F7B89B988B1806488B989B18F7789B988B1806888B981B38F7D8B
S123A8A081BB80B3806280BB0E9461530E94D7530E94E8530E949D540E9469530E94F9532A
S123A8C00E9405540E942B540E941A540E9490540E9428540E9400550E945D5308951F930C
S123A8E0CF93DF93EC01162F809102108370E1F743E16DE980E090E10E948B54DC5E1883BF
S123A90040E06DE980E090E10E948B5480E0DF91CF911F9108951BBEFC0164BF4083089595
S123A920809141018111FCCFE0E4F1E081E88083178282E0828380E0089580E00895E0E0A8
S123A940FAE081E0838380E1818382838FE481A78AE487A389E0808380E00895E0E0FBE011
S123A9608FEB9DE58487958712861386118281E08583808380E00895E0E1FBE080EE9EE2F9
S123A9808487958712861386118281E08583808380E00895E0E8F8E088E893E180879187BC
S123A9A084E8858386EC868380E00895E0E4F8E081E493E08087918780EC86838CEE92E6AD
S123A9C0809305699093066980E008959091440895FFFCCF8093420808950E94E65480E061
S123A9E090E0089520918008FC01208380E090E00895FC0180818093820880E090E00895F8
S123AA00E0EAF0E085E88083828380E00895CF92DF92FF920F931F93CF93DF93EC01AE817F
S123AA20BF81EB01CC0FDD1FC60FD71FCA0FDB1FFA80FC0144815581E6E0E69F9001E79FFD
S123AA40300D11248A01020F131FF80122813381F90121813281F80104811581201B310B88
S123AA60E8812E1B3109EC01EA81FB8100811181FA0140E050E04017510739F14617570720
S123AA80F9F012968C911297F8121AC0808185588230E8F0C480D58082819381EC01898168
S123AAA09A81C816D90660F48C199D09CC91D0E0C817D90728F48C1B9D0B2817390738F03D
S123AAC04F5F5F4F13963696D6CF80E001C081E0DF91CF911F910F91FF90DF90CF90089560
S123AAE02091596730915A67820F931F8093596790935A6708950097D9F041155105C1F00B
S123AB0026E0629FB0011124DC011496ED91FC911597E60FF71F21E0208314968D919C9162
S123AB201597FC01E60FF71F4283538380E008958BE008952F923F924F925F926F927F9247
S123AB408F929F92AF92BF92CF92DF92EF92FF920F931F93CF93DF93009709F47EC3EC013F
S123AB60A12CB12C812C912C212CD12C5524539433E0C32E45E8642E56E8752E62E0362EC9
S123AB8078E0472EEA81FB81808191818816990608F0A6C17501EE0CFF1CEC81FD81EE0DDD
S123ABA0FF1DA281B3819C919E7109F050820C811D810E0D1F1DD8018C91843009F49EC090
S123ABC038F48230D1F008F045C0813059F081C1853809F4BFC0863809F4F5C0873009F040
S123ABE078C136C1911167C1F80130828C819D81FC01EE0DFF1D41825EC1D80111962C914E
S123AC001197222329F11296ED91FC911397253018F0818192810EC0D80114968D919C91BE
S123AC201597418152818417950769F04817590730F4019714968D939C93159704C00196C4
S123AC40F801848395832150D80111962C9333C1F8012DC1D80114962D913C9115971296EB
S123AC60ED91FC911397418152812417350709F430C18E819F8142175307F8F4EA81FB816C
S123AC80241B350BDC01AA0DBB1D8C9190E0058002C0959587950A94E2F7992728173907F5
S123ACA008F417C18481882309F413C187E0F8018083EA81FB8124811AC0FC01EA0DFB1D66
S123ACC0421B530B808190E04817590708F401C18281882331F0B401CE010E9407558111E4
S123ACE0F8C0E4E0D801EC93EA81FB8122818C819D81FC01EE0DFF1D2183DDC0D8011496EF
S123AD002D913C9115971296ED91FC911397818192818217930708F4BBC0EE81FF81EA0DF6
S123AD20FB1D821B930B208130E02817390708F0C5C08281882331F0B401CE010E940755BE
S123AD408111C7C0F8018181882309F46AC081508183B1C0E881F981AA81BB8118968C91AE
S123AD608383EC81FD81EE0DFF1D44815581A281B38111968D919C91129784179507C0F053
S123AD80AE81BF81AA0DBB1D6C91262F30E011967C917F5F02C0359527957A95E2F7841BEE
S123ADA0950B621B262F30E02817390708F48FC07082EA81FB8122818C819D81FC01EE0DA4
S123ADC0FF1D218342C0D80114966D917C9115971296ED91FC911397218132812617370746
S123ADE058F411968C911197811102C0CC926FC08150F80181836BC0EE81FF81EA0DFB1DBF
S123AE008081482F50E091819F5F02C0559547959A95E2F7261B370B841B90E08217930721
S123AE2060F4D8016C92EA81FB8123818C819D81FC01EE0DFF1D21834AC0F80181818111DE
S123AE4002C0C08244C0815081832224239433C0F801248135810280F381E02D81819281B5
S123AE608217930758F5281B390BEE81FF81EA0DFB1D808190E0EA81FB81058002C0959500
S123AE8087950A94E2F799272817390718F4D801CC9216C0F801818181110BC050828C818C
S123AEA09D81FC01EE0DFF1D0280F381E02DC08210C081508183DD24D3940BC0F801C08204
S123AEC08C819D81FC01EE0DFF1D118202C022242394FFEF8F1A9F0A83E0A80EB11C52CE97
S123AEE0E881F981808187FF23C040E050E020E030E0EA81FB81808191812817390798F49C
S123AF00EC81FD81E40FF51FA281B3818C9180FD05C09081977F11F081608C932F5F3F4F41
S123AF204A5F5F4FE6CFE881F98180818F778083D11007C0E881F98121106FC080818E7F1B
S123AF406EC0EA81FB8181858823A1F3E881F981808180688083EA81FB818185813051F7DE
S123AF6040E050E020E030E096E0D92EEA81FB816081718126173707E8F60C811D81FA01B7
S123AF80EE0FFF1FE00FF11F8081982F977FA1F1853811F08330B1F5EE80FF80D701A40F94
S123AFA0B51F1296BC90BB2039F180E090E0C12C86179707F8F428173907D1F0D89ED00155
S123AFC0D99EB00D1124A00FB11FAC91A43011F0A63871F4DC01AA0FBB1FA80FB91FAE0D76
S123AFE0BF1D1296AC91BA1203C0CB01CC24C3940196DECFC11006C00280F381E02D80810B
S123B0008E7F05C00280F381E02D8081816080832F5F3F4F4D5F5F4FA9CF8081816080839F
S123B0208091596790915A67E881F98121813281A90148535F4F4817590738F4821B930B08
S123B040AA24A394A3E0BA2E44C08217930710F080E004C1821B930B0197893C9105C0F33F
S123B060EFCF885C9109E881F9812181328128533F4F218332832381211196C024812223E0
S123B08011F021502483E881F9812581222311F0215025838A809B80D40116962C9116979B
S123B0A021111BC08A809B80F4012781211148C0EA81FB812381222361F020E030E0A0E0D2
S123B0C0B0E0EA81FB8140815181A417B50708F46EC0893C910528F6BBCF08811981F801A2
S123B0E024812111DFCFED90FC9060E070E040E050E04E155F05F1F0EC81FD81E60FF71F40
S123B1002081233011F0283081F424813581C280D380D6011196CD90DC9012972C153D0506
S123B12020F42F5F3F4F248335834F5F5F4F6A5F7F4FDFCFF4012681D80114962C93B2CF7C
S123B14008811981D80115962C912111B1CFE080F18060E070E040E050E04E155F05F1F07C
S123B160EC81FD81E60FF71F2081233011F0283081F424813581C280D380D6011196CD9048
S123B180DC901297C216D30620F421503109248335834F5F5F4F6A5F7F4FDFCFF401278189
S123B1A0D80115962C9384CF2150238381CFA901440F551FEC81FD81E40FF51F60816538AD
S123B1C009F047C06181662319F06150618341C0A0826C817D81FB01E40FF51F0280F3815B
S123B1E0E02DB082EE81FF81E20FF31FD280DD2081F140E050E000E010E0EA81FB81608171
S123B20071810617170728F5EE81FF81E40FF51F6281D61219C0BA01660F771FEC81FD8195
S123B2204F01860E971EF401E280F380F701F080F0FE0AC0F401A082EC81FD81E60FF71F7A
S123B2400280F381E02DB0820F5F1F4F4D5F5F4FD4CF11962D5F3F4F34CF8BE0DF91CF91DD
S123B2601F910F91FF90EF90DF90CF90BF90AF909F908F907F906F905F904F903F902F9058
S123B28008959C016115710509F14F5F37FD06C0442321F04150220F331FF8CF77FD04C057
