S12348000C94BF240C94DE240C94DE240C9468250C94DE240C94DE240C94DE240C94DE2418
S12348200C94DE240C94DE240C94DE240C94DE240C94A0250C9411260C94DE240C94DE246C
S12348400C94DE240C94DE240C94DE240C94EC240C94DE240C94DE240C94DE240C94DE2436
S12348600C9408630C94DE240C94DE240C9435620C94DE240C94DE240C94DE240C94DE2426
S12348800C94DE240C94DE240C94DE240C94DE240C94DE240C94DE240C94DE240C94DE2404
S12348A00C94DE24A526EF263E278D27DC272B287A289239893D893D893D893D893D0D3A71
S12348C01B3BD538893D303A6A3AA53A893D893D893D753BD139893D893D893D893D893DD4
S12348E0893DEA3B413C893D893D893D7C3C893D893D893D893D5339893D893D893D893D86
S1234900893D893D893D893D893D893D893D893D893D1439893D893D893D893D893D893DAC
S1234920893D893D893D893D893D893D893D893DB63CF13C893D893D893D893D893D893D80
S1234940893D893D893D893D893D893D893D893D893D303DC74BE84BBE4B534BE84BA34BE3
S12349604D4B734B9B4B934B8B4B7B4B834B214E254E424E464E4A4E4F4E534E0C4E112444
S12349801FBECFEFCDBFDFE7DEBF12E4A0E0B0E4E0E5F2EF00E00BBF02C007900D92AE3C4D
S12349A0B107D9F727E4AEECB2E401C01D92AB31B207E1F70E94092C0C9426790C94002479
S12349C0CF93DF93CDB7DEB70E940A680E94BD610000DF91CF9108951F920F9200903F0084
S12349E00F92112400903B000F922F933F934F935F936F937F938F939F93AF93BF93EF938B
S1234A00FF93CF93DF931F92CDB7DEB780E098E0FC018481882F90E0887099279595879563
S1234A20959587959595879589838981813081F44FEF60E070E0CB010E948D5980E098E0B0
S1234A4020E038E0F90124812860FC01248328C080E098E0FC0181818170898389818823FE
S1234A6081F441E060E070E0CB010E948D5980E098E020E038E0F90124812860FC012483FD
S1234A800FC040E060E070E0CB010E948D5980E098E020E038E0F90124812860FC01248384
S1234AA00F90DF91CF91FF91EF91BF91AF919F918F917F916F915F914F913F912F910F9084
S1234AC000923B000F9000923F000F901F9018951F920F9200903F000F92112400903B00D8
S1234AE00F922F933F934F935F936F937F938F939F93AF93BF93EF93FF93CF93DF93CDB741
S1234B00DEB70E941B6280E491E022E0FC0123830000DF91CF91FF91EF91BF91AF919F91C3
S1234B208F917F916F915F914F913F912F910F9000923B000F9000923F000F901F9018950A
S1234B401F920F9200903F000F92112400903B000F922F933F934F935F936F937F938F9350
S1234B609F93AF93BF93EF93FF93CF93DF93CDB7DEB780E00E94AE49809111469091124690
S1234B800196809311469093124680E09BE021E0FC0126830000DF91CF91FF91EF91BF91E3
S1234BA0AF919F918F917F916F915F914F913F912F910F9000923B000F9000923F000F9076
S1234BC01F901895CF93DF93CDB7DEB78091D042813019F58091CE429091CF42C597B8F44B
S1234BE08091CE429091CF42880F991F8A5F9F4BFC01808191810E9498638091CE4290914D
S1234C00CF4201968093CE429093CF4206C01092CE421092CF421092D0420000DF91CF91E2
S1234C2008951F920F9200903F000F92112400903B000F922F933F934F935F936F937F93F4
S1234C408F939F93AF93BF93EF93FF93CF93DF93CDB7DEB70E94E22580E19BE021E0FC01E4
S1234C6026830000DF91CF91FF91EF91BF91AF919F918F917F916F915F914F913F912F9157
S1234C800F9000923B000F9000923F000F901F901895CF93DF93CDB7DEB780918D40829557
S1234CA08F70882361F080918D4082958F708F708F7090917040907F892B8093704080919B
S1234CC08940817081708295880F807E909170409F7D892B809370400000DF91CF910895A8
S1234CE0CF93DF9300D000D0CDB7DEB769837A838B839C8380E09AE029813A81FC0124A706
S1234D0035A700002496CDBFDEBFDF91CF910895CF93DF931F92CDB7DEB719823EC2898120
S1234D20882F90E0092E000CAA0BBB0B43E050E026E030E0841B950B2817390708F429C27C
S1234D408E5A9B4DFC010C94B1778981282F30E0C901880F991F820F931F8C5E994BFC0122
S1234D608081882389F18981282F30E0C901880F991F820F931F8C5E994BFC0180814FEF32
S1234D80480FC901880F991F820F931F8C5E994BFC01408380919140482F487F8981282F4D
S1234DA030E0C901880F991F820F931F8B5E994BFC0180818770842B809391408091EF45E9
S1234DC08E7F8093EF45E6C180919140887F809391408091EF458E7F8093EF45DBC18981C8
S1234DE0282F30E0C901880F991F820F931F8C5E994BFC0180818823B1F18981282F30E062
S1234E00C901880F991F820F931F8C5E994BFC0180814FEF480FC901880F991F820F931F75
S1234E208C5E994BFC0140838981282F30E0C901880F991F820F931F8B5E994BFC01808148
S1234E40882331F08091914088608093914005C080919140877F809391408091EF458D7FF2
S1234E608093EF4597C180919140877F809391408091EF458D7F8093EF458CC18981282F7D
S1234E8030E0C901880F991F820F931F8C5E994BFC0180818823B1F18981282F30E0C9014E
S1234EA0880F991F820F931F8B5E994BFC018081882331F08091914080618093914005C059
S1234EC0809191408F7E809391408091EF458B7F8093EF458981282F30E0C901880F991FDB
S1234EE0820F931F8C5E994BFC0180814FEF480FC901880F991F820F931F8C5E994BFC01E3
S1234F00408348C1809191408F7E809391408091EF458B7F8093EF453DC18981282F30E0E9
S1234F20C901880F991F820F931F8C5E994BFC0180818823B1F18981282F30E0C901880F26
S1234F40991F820F931F8C5E994BFC0180814FEF480FC901880F991F820F931F8C5E994BC7
S1234F60FC0140838981282F30E0C901880F991F820F931F8B5E994BFC018081882331F009
S1234F808091914080628093914005C0809191408F7D809391408091EF45877F8093EF453C
S1234FA0F9C0809191408F7D809391408091EF45877F8093EF45EEC08981282F30E0C901E7
S1234FC0880F991F820F931F8C5E994BFC0180818823B1F18981282F30E0C901880F991F98
S1234FE0820F931F8C5E994BFC0180814FEF480FC901880F991F820F931F8C5E994BFC01E2
S123500040838981282F30E0C901880F991F820F931F8B5E994BFC018081882331F0809154
S1235020934081608093934005C0809193408E7F809393408091EF458F7E8093EF45AAC033
S1235040809193408E7F809393408091EF458F7E8093EF459FC08981282F30E0C901880FAB
S1235060991F820F931F8C5E994BFC0180818823B1F18981282F30E0C901880F991F820FFD
S1235080931F8C5E994BFC0180814FEF480FC901880F991F820F931F8C5E994BFC0140830F
S12350A08981282F30E0C901880F991F820F931F8B5E994BFC018081882331F080919340A4
S12350C082608093934005C0809193408D7F809393408091EF458F7D8093EF455BC08091A5
S12350E093408D7F809393408091EF458F7D8093EF4550C08981282F30E0C901880F991FB5
S1235100820F931F8C5E994BFC0180818823B1F18981282F30E0C901880F991F820F931F62
S12351208C5E994BFC0180814FEF480FC901880F991F820F931F8C5E994BFC014083898116
S1235140282F30E0C901880F991F820F931F8B5E994BFC018081882331F080919340846029
S12351608093934005C0809193408B7F809393408091EF458F7B8093EF450CC08091934066
S12351808B7F809393408091EF458F7B8093EF4501C0000089818F5F898389818A3008F400
S12351A0BECD00000F90DF91CF910895CF93DF9300D0CDB7DEB789836A838A81882F90E06C
S12351C081309105E1F08230910571F1892B09F03BC020E030E080E090E0FC018081682FEC
S12351E08981482F50E081E090E002C0880F991F4A95E2F780958623F901808325C020E0C0
S123520030E080E090E0FC018081682F8981482F50E081E090E002C0880F991F4A95E2F7CA
S1235220862BF901808310C08981882F90E0805F9B4F2981222F30E0205F3B4FF901208143
S12352402860FC012083000000000F900F90DF91CF910895CF93DF9300D0CDB7DEB78983AE
S12352606A838A818823A9F020E030E080E090E0FC018181682F8981482F50E081E090E0F6
S123528002C0880F991F4A95E2F7862BF901818315C020E030E080E090E0FC018181682F47
S12352A08981482F50E081E090E002C0880F991F4A95E2F780958623F901818300000F9044
S12352C00F90DF91CF910895CF93DF9300D0CDB7DEB789836A838A818823A9F084E190E0E4
S12352E024E130E0F9012181622F2981422F50E021E030E002C0220F331F4A95E2F7262BBE
S1235300FC01218315C084E190E024E130E0F9012181622F2981422F50E021E030E002C0DE
S1235320220F331F4A95E2F720952623FC01218300000F900F90DF91CF910895CF93DF9310
S12353401F92CDB7DEB78983698180E00E94D62800000F90DF91CF910895CF93DF931F92F8
S1235360CDB7DEB78983698180E00E942A2900000F90DF91CF910895CF93DF931F92CDB7B0
S1235380DEB78983698181E00E94642900000F90DF91CF910895CF93DF93CDB7DEB72E9730
S12353A0CDBFDEBF80E790E489879A871B861C861D861E8619821A821B821C821D821E8279
S12353C01F82188689859A85FC01808180728823B1F082E390E0A0E0B0E089839A83AB83E5
S12353E0BC8389859A85FC0180818F70882F90E0A0E0B0E08D839E83AF83B88710C084E62D
S123540090E0A0E0B0E089839A83AB83BC8389E090E0A0E0B0E08D839E83AF83B8878D81D9
S12354209E81880F991F880F991F8E539E4BFC01208131814281538189819A81AB81BC816C
S1235440BC01CD010E947F779B01AC018FEA94E0DC010E94C977DC01CB0120E137E240E04D
S123546050E0BC01CD010E948F77DA01C9018B879C87AD87BE878091714090917240892B29
S123548061F020917140309172408B859C85AD85BE85BC01CD01F901099500002E96CDBFC9
S12354A0DEBFDF91CF910895CF93DF93CDB7DEB780E00E94BC29F89480E098E020E038E08E
S12354C0F90125812B77FC01258380E098E020E038E0F90126812973FC01268381E00E940B
S12354E09E2980E00E94AD290000DF91CF910895CF93DF9300D0CDB7DEB789836A838A81DB
S12355008823A9F088E090E028E030E0F9012181622F2981422F50E021E030E002C0220FD7
S1235520331F4A95E2F7262BFC01218315C088E090E028E030E0F9012181622F2981422F5E
S123554050E021E030E002C0220F331F4A95E2F720952623FC01218300000F900F90DF91BC
S1235560CF910895CF93DF931F92CDB7DEB78983698181E00E94782A00000F90DF91CF9182
S12355800895CF93DF931F92CDB7DEB78983698182E00E94782A00000F90DF91CF91089524
S12355A0CF93DF931F92CDB7DEB78983698183E00E94782A00000F90DF91CF910895CF933E
S12355C0DF93CDB7DEB72A97CDBFDEBF8F83988769874A871E821B821C821D82198221C06A
S12355E08981882F90E02985222F30E0A901415051092981222F30E0BA01621B730B9B0175
S1235600A9012F813885240F351FF90140819E012A5F3F4F820F931FFC01408389818F5F7C
S12356208983998189859817D8F21A8236C08A818695869586958B838A8187708C838B81A0
S1235640882F90E09E012A5F3F4F820F931FFC018081482F8C81882F90E027E030E0281B23
S1235660390B81E090E002C0880F991F2A95E2F784238D838D81882321F081E00E94D02AEA
S123568003C080E00E94D02A80E00E94B22A81E00E94B22A8A818F5F8A839A818A859817AB
S12356A030F280E00E94C12A81E00E94C12A00002A96CDBFDEBFDF91CF910895CF93DF93BF
S12356C000D000D0CDB7DEB78B836C8319821A828B81882F90E0880F991F86519E4BFC019A
S12356E0808189838B81882F90E0880F991F85519E4BFC0180818A838C81813001F589818F
S1235700282F30E08981882F90E08D589F4BFC0160818A81482F50E081E090E0A0E0B0E0AD
S123572004C0880F991FAA1FBB1F4A95D2F7462F482BC9018D589F4BFC01408320C08981DC
S1235740282F30E08981882F90E08D589F4BFC0160818A81482F50E081E090E0A0E0B0E06D
S123576004C0880F991FAA1FBB1F4A95D2F78095462F4823C9018D589F4BFC014083000079
S12357802496CDBFDEBFDF91CF910895CF93DF93CDB7DEB748E061E083E790E40E94DF2AD6
S12357A00000DF91CF910895CF93DF93CDB7DEB760E082E00E945E2B48E061E083E790E477
S12357C00E94DF2A0000DF91CF910895CF93DF9300D01F92CDB7DEB789839A836B8389811E
S12357E09A814B8168ED0E94956800002396CDBFDEBFDF91CF910895CF93DF93CDB7DEB78E
S123580061E081E490E00E94E62B0000DF91CF910895CF93DF93CDB7DEB70E94E0247894AF
S12358200E94D42B66EC7BE284E690E00E94686269E476E28AE090E00E9468626BEC79E231
S123584084E690E00E9468620E94492C80E00E94512C80E00E94FC4B0E94AC620E94CC61A0
S12358608091D1428130C1F71092D1426AEA80E090E00E946A68000080E090E1FC01828179
S1235880882F90E083709927892BB1F70E94FC2BE3CFCF93DF93CDB7DEB780E0DF91CF9136
S12358A00895CF93DF9300D000D0CDB7DEB78C838C81282F30E046E1429FC001439F900DEF
S12358C011248559994B89839A8389819A81FC01108A8C810E9418478B838B812496CDBF7A
S12358E0DEBFDF91CF910895CF93DF9300D01F92CDB7DEB789836A834B838A81882F90E033
S123590082309105C1F0833091052CF4009749F0019761F01FC088309105B4F0089781F087
S123592019C06B8189810E94B12C14C06B8189810E94142F0FC06B8189810E94EE2D0AC01A
S123594089810E946D3006C04B816A8189810E94C12F000000002396CDBFDEBFDF91CF912F
S12359600895CF93DF93CDB7DEB72F97CDBFDEBF8E876F8719828E85282F30E04CE1429F7C
S1235980C001439F900D11248A599D4B8D839E838E85282F30E046E1429FC001439F900DD0
S12359A011248559994B8F8398876F858E850E94623189878D819E81FC01268137818985D8
S12359C0882F90E0880F991FAC01440F551F440F551F840F951F820F931F8A879B87898547
S12359E08F3F09F4D5C081E0898360E08F850E940847282F8F819885FC0121878A859B8539
S1235A00FC018081882F90E081309105B1F08131910509F48AC0892B09F0BAC08A859B8590
S1235A20FC018281882309F0B0C040E06F858E850E94A53182E08983A8C08D819E81FC01AF
S1235A408381882319F081E08983A2C08A859B85FC0180859185FC0181819281FC01808164
S1235A608D878D819E81FC01268137818D85882F90E0880F991FAC01440F551F440F551FC2
S1235A80840F951F820F931FFC01858196818A839B838D819E81FC01268137818D85882FE1
S1235AA090E0880F991FAC01440F551F440F551F840F951F820F931FFC0187818C871C82A8
S1235AC02FC08A819B819C012F5F3F4F2A833B8382519A4BFC0180818F3FF9F08D819E81EE
S1235AE0FC01228533858D85482F50E08D819E81FC018581882F90E0BA01681B790BCB01A8
S1235B000196820F931FFC018081682F8E850E94293582E0898300003BC08C818F5F8C838C
S1235B209C818C85981768F233C08D819E81FC018081823041F18A859B85FC01828188234E
S1235B40D1F482E089838F858C3361F48F819885FC0180898130D9F44F8560E08E850E946C
S1235B60DE4D15C04F8561E08E850E94DE4D813071F419820CC04F8567E08E850E94DE4DB4
S1235B8081E0898304C0198202C0000001C000008981882F90E08130910519F0029751F057
S1235BA012C08A859B85FC018181682F8E850E9442490DC08A859B85FC018181682F8E8565
S1235BC00E94C24804C08E850E945848000000002F96CDBFDEBFDF91CF910895CF93DF93CD
S1235BE0CDB7DEB72C97CDBFDEBF8B876C878B85282F30E04CE1429FC001439F900D11249D
S1235C008A599D4B8D839E838B85282F30E046E1429FC001439F900D11248559994B8F83BC
S1235C2098878F81988521E0FC0125838F819885FC0182858F3F51F08F819885FC018285FD
S1235C4021E0280F8F819885FC0122878F819885FC018285823058F08F819885FC018385D8
S1235C60882329F48F81988521E0FC0123876C858B850E94623189838981843008F0CDC0FE
S1235C808D819E81FC01268137818981882F90E0880F991FAC01440F551F440F551F840F29
S1235CA0951F820F931FFC018081882F90E08130910561F081319105F1F0892B09F033C063
S1235CC041E06C858B850E94A5312DC06C858B850E949F348F819885FC0182819381FC0185
S1235CE0808161E00E940847898769858B850E946231898318C08F819885FC018281938105
S1235D00FC018081882349F48F81988521E0FC0127838B850E948D4805C04C8563E08B8554
S1235D200E94DE4D00008981843008F054C08981882F90E08F509A4B21E0FC0120838D8124
S1235D409E81FC01938181E08927882309F443C08D819E81FC01268137818981882F90E099
S1235D60880F991FAC01440F551F440F551F840F951F820F931FFC01858196818B839C83C4
S1235D808D819E81FC01268137818981882F90E0880F991FAC01440F551F440F551F840F28
S1235DA0951F820F931FFC0187818A871A820FC08B819C8182519A4B2FEFFC0120838B81BC
S1235DC09C8101968B839C838A818F5F8A839A818A85981768F38D819E81FC01938181E005
S1235DE089278823D1F08D819E81FC018081882331F08D819E81FC018081833029F462E04F
S1235E008B850E943F3309C08D819E81FC018081813019F48B850E94C03200002C96CDBFB6
S1235E20DEBFDF91CF910895CF93DF93CDB7DEB72797CDBFDEBF8E836F838E81282F30E007
S1235E404CE1429FC001439F900D11248A599D4B89839A838E81282F30E046E1429FC00188
S1235E60439F900D11248559994B8B839C838B819C8121E0FC0125838B819C81FC0182857F
S1235E808F3F51F08B819C81FC01828521E0280F8B819C81FC0122878B819C81FC0182858E
S1235EA0823058F08B819C81FC018385882329F48B819C8121E0FC0123878B819C81FC01F7
S1235EC08589882341F08B819C81FC0116828B819C81FC01158A6F818E810E9462318D830D
S1235EE089819A81FC018381882349F08F818C3331F48B819C81FC018089813059F089816D
S1235F009A81FC01938181E08927882341F08F818D3329F44F8162E08E810E94DE4D8D817B
S1235F20843060F46D818E810E94A3308D81882F90E08F509A4B21E0FC01208389819A8124
S1235F40FC01938181E089278823A1F089819A81FC018081882331F089819A81FC018081CD
S1235F60833041F46D818E810E94F13361E08E810E943F3300002796CDBFDEBFDF91CF9158
S1235F800895CF93DF93CDB7DEB72897CDBFDEBF8E836F8348878E81282F30E04CE1429F35
S1235FA0C001439F900D11248A599D4B8A839B838E81282F30E046E1429FC001439F900DB4
S1235FC011248559994B8C839D8368858E810E94623189838C819D81FC0182858F3F51F01C
S1235FE08C819D81FC01828521E0280F8C819D81FC0122878C819D81FC018285823058F03C
S12360008C819D81FC018385882329F48C819D8121E0FC0123878F81882F90E08330910531
S123602031F0833091056CF108975CF502C081E089838A819B81FC01268137818981882F32
S123604090E0880F991FAC01440F551F440F551F840F951F820F931FFC018081813099F080
S12360608C819D8121E0FC01268388858C3319F088858D3341F4488564E08E810E94DE4D86
S123608002C0000001C000008A819B81FC01938181E089278823D1F08A819B81FC0180819F
S12360A0882331F08A819B81FC018081833071F48C819D81FC018681813021F469818E81E5
S12360C00E94F1336F818E810E943F3300002896CDBFDEBFDF91CF910895CF93DF9300D0EB
S12360E01F92CDB7DEB78B838B81282F30E04CE1429FC001439F900D11248A599D4B8983F7
S12361009A8389819A81FC01938181E08927882381F089819A81FC018081882331F0898102
S12361209A81FC018081833021F468E08B810E943F338B810E948D4800002396CDBFDEBFAD
S1236140DF91CF910895CF93DF93CDB7DEB72B97CDBFDEBF8A876B878A85282F30E04CE150
S1236160429FC001439F900D11248A599D4B8C839D838C819D81FC01268137818B85882F7D
S123618090E0880F991FAC01440F551F440F551F840F951F820F931F8E839F838E819F8115
S12361A0FC018081882309F58E819F81FC018581968189839A838E819F81FC01878188877F
S12361C01B820FC089819A8182519A4B2FEFFC01208389819A81019689839A838B818F5FD5
S12361E08B839B818885981768F38C819D81FC01268137818B85882F90E0880F991FAC01A0
S1236200440F551F440F551F840F951F820F931FFC018081813009F04EC08E819F81FC0180
S123622080859185FC0181819281FC01808189878C819D81FC01268137818985882F90E063
S1236240880F991FAC01440F551F440F551F840F951F820F931FFC018581968189839A83E3
S12362608C819D81FC01268137818985882F90E0880F991FAC01440F551F440F551F840F41
S1236280951F820F931FFC01878188871B820FC089819A8182519A4B2FEFFC0120838981DE
S12362A09A81019689839A838B818F5F8B839B818885981768F300002B96CDBFDEBFDF916A
S12362C0CF910895CF93DF93CDB7DEB72697CDBFDEBF8D836E838FEF8A838D81282F30E0E9
S12362E04CE1429FC001439F900D11248A599D4B8B839C838B819C81FC01848189831BC00D
S12363008B819C81FC01228533858981882F90E0820F931FFC0190818E81981749F48B816B
S12363209C81FC0195818981890F81508A8306C08981815089838981882311F78A81269678
S1236340CDBFDEBFDF91CF910895CF93DF93CDB7DEB76097CDBFDEBF8E876F87488B8E85A5
S1236360282F30E04CE1429FC001439F900D11248A599D4B8A839B838E85282F30E046E198
S1236380429FC001439F900D11248559994B8C839D836F858E850E9462318E838E818F3F88
S12363A009F4E7C08C819D81FC01828193818F8398878A819B81FC01268137818E81882F7C
S12363C090E0880F991FAC01440F551F440F551F840F951F820F931FFC0121818C819D816B
S12363E0FC0124838A819B81FC01268137818E81882F90E0880F991FAC01440F551F440F26
S1236400551F840F951F820F931FFC018381948189879A878889882309F083C08A819B8114
S1236420FC01938181E08927882309F4A2C08A819B81FC018289282F30E044E2429FC001CE
S1236440439F900D11248E5B9D4B8B879C87198218C08B859C85FC01248535858981882FB9
S123646090E0820F931FFC0190818F85981731F48C819D8121E0FC01258B0AC089818F5FD4
S123648089838B859C85FC0196858981891708F38E81882F90E08B509A4BFC0180818D87F6
S12364A0198237C08D85882F90E02981222F30E002C0969587952A95E2F781709927892BFC
S12364C089F08981882F90E02F813885820F931F2981222F30E02A513A4BF9012081FC01BB
S12364E0208314C08981882F90E02F813885820F931F2981422F50E029853A85240F351F01
S123650027573F4BF9012081FC01208389818F5F89838C819D81FC0194818981891710F247
S123652028C08A819B81FC01938181E08927882301F1198217C08981282F30E089859A8579
S1236540820F931F2981222F30E04F815885240F351FF901208187579F4BFC0120838981A8
S12365608F5F89838C819D81FC0194818981891710F300006096CDBFDEBFDF91CF910895A7
S1236580CF93DF93CDB7DEB72897CDBFDEBF88878885282F30E046E1429FC001439F900D57
S12365A011248559994B89839A8389819A81FC0186818B8389819A81FC01168289819A81A1
S12365C0FC0185818C8389819A81FC0183858D8389819A810C968E839F838E819F81FC0145
S12365E080818170982F8B81892B282F21708E819F812170FC0130813E7F232BFC0120831D
S12366008E819F81FC01808186958170982F8C81892B282F21708E819F812170220FFC01DF
S123662030813D7F232BFC0120838D81282F21708E819F812170220F220FFC0130813B7F7B
S1236640232BFC01208389819A81FC0121858E819F81FC01218389819A81FC0187818823DB
S123666039F08E819F81FC0120812860FC01208300002896CDBFDEBFDF91CF910895CF9342
S1236680DF93CDB7DEB72A97CDBFDEBF89876A878985282F30E046E1429FC001439F900DC3
S12366A011248559994B89839A8389819A81FC0186818B8389819A81FC01168289819A81A0
S12366C0FC0185818C8389819A81FC018785882311F081E001C080E08D8389819A81FC0116
S12366E083858E8389819A810C968F8398878E81282F21708F8198852170220F220FFC0171
S123670030813B7F232BFC0120838F819885FC0180818170982F8B81892B282F21708F8181
S123672098852170FC0130813E7F232BFC0120838F819885FC01808186958170982F8C8143
S1236740892B282F21708F8198852170220FFC0130813D7F232BFC01208389819A81FC0130
S123676021858F819885FC01218389819A81FC018781882339F08F819885FC012081286050
S1236780FC0120838A85883039F08F819885FC0120812061FC0120838F819885FC012081AE
S12367A02F7DFC0120838D81282F21708F81988521702295220F220F207CFC0130813F7BB8
S12367C0232BFC0120838F819885FC0120812F77FC01208300002A96CDBFDEBFDF91CF91FD
S12367E00895CF93DF93CDB7DEB72C97CDBFDEBF8B876C878B85282F30E046E1429FC001DA
S1236800439F900D11248F58994BFC0180818A838B85282F30E04CE1429FC001439F900D25
S123682011248A599D4B8B839C838B819C81FC018289282F30E044E2429FC001439F900D48
S123684011248E5B9D4B8D839E838C85843008F06FC08B819C81FC01268137818C85882FC4
S123686090E0880F991FAC01440F551F440F551F840F951F820F931FFC018081813009F4E4
S123688057C019824DC08D819E81FC01208931898981882F90E0880F991F820F931F8F83D3
S12368A098878D819E81FC01228933898981882F90E0820F931F89879A878F819885FC0155
S12368C0808191812F813885F9012081318127573F4BF901608129853A85F9012081422F8B
S12368E050E021E030E002C0220F331F4A95E2F7209562232A81222F30E049855A85FA0168
S12369004081442F50E002C0220F331F4A95E2F7262B87579F4BFC01208389818F5F898355
S12369208D819E81FC0196858981891708F4ABCF00002C96CDBFDEBFDF91CF910895CF9334
S1236940DF93CDB7DEB72997CDBFDEBF888769878885282F30E04CE1429FC001439F900DFE
S123696011248A599D4B8A839B83698588850E9462318C838C818F3F09F464C08885282F49
S123698030E046E1429FC001439F900D11248359994BFC0180819181FC01808161E00E94B5
S12369A008478D838A819B81FC01268137818C81882F90E0880F991FAC01440F551F440FA7
S12369C0551F840F951F820F931FFC01808591858E839F8319822FC08A819B81FC01228515
S12369E033858E819F81FC01418152818981882F90E0840F951FFC018081482F50E08A81F2
S1236A009B81FC018581882F90E0BA01681B790BCB010196820F931FFC0190818D819817F9
S1236A2039F441E06D8188850E94A53100000AC089818F5F89838E819F81FC01908189817C
S1236A40891750F200002996CDBFDEBFDF91CF9108950F931F93CF93DF9300D0CDB7DEB7EA
S1236A6089836A8340E06A8189810E94A5318981282F30E046E1429FC001439F900D11249E
S1236A808359994BFC010081118160E08A810E940847F801808300000F900F90DF91CF91DC
S1236AA01F910F910895CF93DF93CDB7DEB76397CDBFDEBF8B8B1A828B89282F30E04CE17B
S1236AC0429FC001439F900D112488589D4BFC018081282F30E044E2429FC001439F900DE8
S1236AE011248E5B9D4B8B839C838B819C8125E0FC013396DE011A9601900D922A95E1F715
S1236B008B819C81FC0180859185A285B3858F87988BA98BBA8B8B89282F30E044E3429F9C
S1236B20C001439F900D11240B96895C994B8D839E838D819E81FC01218532858D819E818D
S1236B40FC0180819181880F991F880F991F880F991F820F931FFC0183818F838D819E81B1
S1236B60FC01218532858D819E81FC0180819181880F991F880F991F880F991F820F931F4A
S1236B80FC01848189838D819E81FC01218532858D819E81FC0180819181880F991F880F39
S1236BA0991F880F991F820F931FFC01858188878D819E81FC01218532858D819E81FC01C4
S1236BC080819181880F991F880F991F880F991F820F931FFC01868189878F81882F90E023
S1236BE0009721F0019709F44BC07DC08981882309F476C08981863008F072C08981882385
S1236C00B9F089818330A0F48A859B852981222F30E02150304E220F331F220F331F220F16
S1236C20331F02C0969587952A95E2F789831CC089818330B8F089818530A0F48C859D858A
S1236C402981222F30E02350304E220F331F220F331F220F331F02C0969587952A95E2F70A
S1236C60898302C08E8589839981898598278885892389838981882399F581E08A8330C0D6
S1236C808981882379F18981853060F58981882F90E08230910579F0833091051CF40197EA
S1236CA039F012C08330910549F0049751F00CC08F85898309C08889898306C089898983C1
S1236CC003C08A89898300009981898598278885892389838981882329F481E08A8302C020
S1236CE0000001C000008A81882309F120E041E063EB8B890E940E458B819C81FC01808180
S1236D0091812D813E81F901418552852D813E81F90120813181220F331F220F331F220F68
S1236D20331F240F351FF9012781FC01208300006396CDBFDEBFDF91CF910895CF93DF93D1
S1236D40CDB7DEB76997CDBFDEBF898F898D282F30E044E3429FC001439F900D1124895CF6
S1236D60994B8A839B83898D282F30E04CE1429FC001439F900D11248A599D4B8C839D8306
S1236D808C819D81FC018289282F30E044E2429FC001439F900D11248B5B9D4B25E0FC0109
S1236DA0DE01549601900D922A95E1F78A819B810B968E839F83198226C08981882F90E092
S1236DC02E813F81F901418552852E813F81F90120813181220F331F220F331F220F331F64
S1236DE0420F531F2981222F30E0240F351FF90140819E01245F3F4F820F931FFC014083CC
S1236E0089818F5F898389818830B8F28889882F90E0982F8827888799878F85882F90E0E6
S1236E2028853985822B932B888799878A89882F90E0982F88278A879B878989882F90E02D
S1236E402A853B85822B932B8A879B872C893D89888599852817390729F0888599858F3FEA
S1236E609F4759F42E893F898A859B852817390749F08A859B85019629F08A819B81FC0172
S1236E8012A606C020E041E060EB898D0E940E4500006996CDBFDEBFDF91CF9108950F93C2
S1236EA01F93CF93DF93CDB7DEB76297CDBFDEBF8A8B1C828A89282F30E04CE1429FC00111
S1236EC0439F900D11248A599D4B8E839F838A89282F30E044E3429FC001439F900D112405
S1236EE00B96895C994B8887998781E08D831A8226C08A81882F90E028853985F9014185A5
S1236F00528528853985F90120813181220F331F220F331F220F331F420F531F2A81222F96
S1236F2030E0240F351FF90140819E01265F3F4F820F931FFC0140838A818F5F8A838A8135
S1236F408830B8F28D858B8381E08A8303C08C818F5F8C838E819F81FC01208531858A81DE
S1236F6091E0980F9A83882F90E0880F991F820F931FFC0180819181019649F78C81835058
S1236F808C8384E08A838B8189831EC08A8191E0980F9A83882F90E09E01265F3F4F820FCD
S1236FA0931FFC0180818F3F61F099818C81891740F420E140E067EB8A890E940E451D82E9
S1236FC00DC089818F5F89838981282F30E08B81882F90E0049628173907C0F28D818130AE
S1236FE009F052C084E08A8345C08A81882F90E09E01265F3F4F820F931FFC018081882F30
S123700090E0009721F08F3F910581F111C08B818F5F8B838E819F81FC01228533858B810E
S1237020882F90E0820F931F2FEFFC0120831FC08B818F5F8B838E819F81FC0122853385B2
S12370408B81882F90E08901080F191F8A81882F90E09E01265F3F4F820F931FFC018081FB
S123706061E00E940847F801808301C000008A818F5F8A838A81883008F4B7CF20E041E0B1
S123708067EB8A890E940E4500006296CDBFDEBFDF91CF911F910F910895CF93DF93CDB75C
S12370A0DEB76597CDBFDEBF8D8B8D89282F30E044E3429FC001439F900D1124895C994B37
S12370C08A839B838D89282F30E04CE1429FC001439F900D11248A599D4B8C839D838C817A
S12370E09D81FC018289282F30E044E2429FC001439F900D11248E5B9D4B8E839F838A8174
S12371009B810B9688879987198226C08981882F90E028853985F901418552852885398560
S1237120F90120813181220F331F220F331F220F331F420F531F2981222F30E0240F351F20
S1237140F90140819E01235F3F4F820F931FFC01408389818F5F898389818830B8F288893D
S1237160882F90E0982F88278A879B878989882F90E02A853B85822B932B8A879B878F85E1
S12371808C878A859B85CC01A0E0B0E040E851EF20E530E0841B950B2817390708F4B9C418
S12371A0875A9B4DFC010C94B1778E819F81FC0180819181FC0180818D8780E18E878AE00C
S12371C08F878C85805C888B81EF898B88E88A8B80E38B8B83E38C8BCE010D96BC018D8951
S12371E00E94274D8E819F81FC0180819181FC0180818D8781E28E878EE28F8780E3888BB0
S123720080E3898B8EE28A8B80E38B8B80E38C8BCE010D96BC018D890E94274D8A819B81F9
S123722022E0FC0126A37CC48E819F81FC0180819181FC0180818D8780E18E878AE08F87FB
S12372408C85805C888B81EF898B88E88A8B80E38B8B83E38C8BCE010D96BC018D890E9444
S1237260274D8E819F81FC0180819181FC0180818D8781E28E878EE28F8780E3888B80E36E
S1237280898B8EE28A8B80E38B8B80E38C8BCE010D96BC018D890E94274D8A819B8122E0DA
S12372A0FC0126A33DC48E819F81FC0180819181FC0180818D8780E18E878AE08F878C85AB
S12372C0805C888B81EF898B88E88A8B80E38B8B83E38C8BCE010D96BC018D890E94274D61
S12372E08E819F81FC0180819181FC0180818D8781E28E878EE28F8780E3888B80E3898B4E
S12373008EE28A8B80E38B8B80E38C8BCE010D96BC018D890E94274D8A819B8122E0FC0170
S123732026A3FEC38E819F81FC0180819181FC0180818D8780E18E878AE08F878C85805C8B
S1237340888B81EF898B80E88A8B80E38B8B83E38C8BCE010D96BC018D890E94274D8E81B5
S12373609F81FC0180819181FC0180818D8781E28E878EE28F8780E3888B80E3898B8EE26C
S12373808A8B80E38B8B80E38C8BCE010D96BC018D890E94274D8A819B8122E0FC0126A397
S12373A0BFC38E819F81FC0180819181FC0180818D8780E18E8787E08F878C85805C888B03
S12373C081EF898B81E98A8B88E48B8B82E38C8BCE010D96BC018D890E94274D8E819F811E
S12373E0FC0180819181FC0180818D8781E28E878EE28F8780E3888B81E3898B1A8A1B8A32
S12374001C8ACE010D96BC018D890E94274D8A819B8122E0FC0126A383C38E819F81FC0106
S123742080819181FC0180818D8780E18E8783E08F878C85805C888B81EF898B86E88A8B2D
S1237440809136468B8B1C8ACE010D96BC018D890E94274D8A819B8122E0FC0126A360C372
S12374608E819F81FC0180819181FC0180818D8780E18E8785E08F878C85805C888B81EF56
S1237480898B8AE88A8B80E38B8B80E38C8BCE010D96BC018D890E94274D8E819F81FC01D3
S12374A080819181FC0180818D8781E28E8780E38F87188A198A1A8A1B8A1C8ACE010D960C
S12374C0BC018D890E94274D8A819B8122E0FC0126A326C38E819F81FC0180819181FC01AB
S12374E080818D8780E18E8786E08F878C85805C888B81EF898B8BE88A8B80E28B8B81E29A
S12375008C8BCE010D96BC018D890E94274D8E819F81FC0180819181FC0180818D8781E241
S12375208E8782E18F8786E2888B198A1A8A1B8A1C8ACE010D96BC018D890E94274D8A8146
S12375409B8122E0FC0126A3EBC28E819F81FC0180819181FC0180818D8780E18E8780E16E
S12375608F8784E1888B8C85805C898B81EF8A8B8CE88B8B80E38C8BCE010D96BC018D89AA
S12375800E94274D8E819F81FC0180819181FC0180818D8781E28E8780E38F8780E3888B19
S12375A080E3898B80E38A8B80E38B8B80E38C8BCE010D96BC018D890E94274D8E819F815B
S12375C0FC0180819181FC0180818D8782E28E8780E38F8780E3888B80E3898B80E38A8B2E
S12375E080E38B8B80E38C8BCE010D96BC018D890E94274D8E819F81FC0180819181FC01FD
S123760080818D8783E28E8780E38F8780E3888B80E3898B80E38A8B80E38B8B1C8ACE010B
S12376200D96BC018D890E94274D8A819B8122E0FC0126A375C28E819F81FC018081918155
S1237640FC0180818D8780E18E878FE08F878C85805C888B81EF898B87E88A8B80E38B8B98
S123766080E38C8BCE010D96BC018D890E94274D8E819F81FC0180819181FC0180818D87E0
S123768081E28E8780E38F8780E3888B80E3898B80E38A8B80E38B8B80E38C8BCE010D962B
S12376A0BC018D890E94274D8E819F81FC0180819181FC0180818D8782E28E8780E38F879A
S12376C080E3888B80E3898B80E38A8B80E38B8B1C8ACE010D96BC018D890E94274D8A81BC
S12376E09B8122E0FC0126A31BC28E819F81FC0180819181FC0180818D8780E18E8780E19D
S12377008F8783E1888B8C85805C898B81EF8A8B80E98B8B80E38C8BCE010D96BC018D8914
S12377200E94274D8E819F81FC0180819181FC0180818D8781E28E8780E38F8780E3888B77
S123774080E3898B80E38A8B80E38B8B80E38C8BCE010D96BC018D890E94274D8E819F81B9
S1237760FC0180819181FC0180818D8782E28E8780E38F8780E3888B80E3898B80E38A8B8C
S123778080E38B8B80E38C8BCE010D96BC018D890E94274D8E819F81FC0180819181FC015B
S12377A080818D8783E28E8780E38F8780E3888B80E3898B80E38A8B1B8A1C8ACE010D969B
S12377C0BC018D890E94274D8A819B8122E0FC0126A3A6C18E819F81FC0180819181FC012A
S12377E080818D8780E18E878CE08F878C85805C888B81EF898B88E98A8B80E38B8B80E392
S12378008C8BCE010D96BC018D890E94274D8E819F81FC0180819181FC0180818D8781E23E
S12378208E8780E38F8780E3888B80E3898B80E38A8B80E38B8B80E38C8BCE010D96BC012F
S12378408D890E94274D8E819F81FC0180819181FC0180818D8782E28E8780E38F8780E352
S1237860888B198A1A8A1B8A1C8ACE010D96BC018D890E94274D8A819B8122E0FC0126A315
S12378804FC18E819F81FC0180819181FC0180818D8780E18E8786E08F878C85805C888B91
S12378A081EF898B89E98A8B80E28B8B81E28C8BCE010D96BC018D890E94274D8E819F813D
S12378C0FC0180819181FC0180818D8781E28E8782E18F8786E2888B198A1A8A1B8A1C8A84
S12378E0CE010D96BC018D890E94274D8A819B8122E0FC0126A314C18E819F81FC01808138
S12379009181FC0180818D8780E18E8786E08F878C85805C888B81EF898B8DE98A8B80E2DC
S12379208B8B81E28C8BCE010D96BC018D890E94274D8E819F81FC0180819181FC0180811B
S12379408D8781E28E8782E18F8786E2888B198A1A8A1B8A1C8ACE010D96BC018D890E942A
S1237960274D8A819B8122E0FC0126A38E819F81FC0180819181FC0180818D8780E18E87D9
S123798087E08F878C85805C888B81EF898B8FEB8A8B88E48B8B82E38C8BCE010D96BC0126
S12379A08D890E94274D8E819F81FC0180819181FC0180818D8781E28E878EE28F8780E3E5
S12379C0888B81E3898B1A8A1B8A1C8ACE010D96BC018D890E94274D8A819B8122E0FC01A8
S12379E026A38E819F81FC0180819181FC0180818D8780E18E878AE08F878C85805C888B73
S1237A0081EF898B80EC8A8B80E38B8B83E38C8BCE010D96BC018D890E94274D8E819F81DD
S1237A20FC0180819181FC0180818D8781E28E878EE28F8780E3888B80E3898B8EE28A8BB0
S1237A4080E38B8B80E38C8BCE010D96BC018D890E94274D8A819B8122E0FC0126A360C0C5
S1237A608E819F81FC0180819181FC0180818D8780E18E878FE08F878C85805C888B81EF46
S1237A80898B80ED8A8B80E38B8B80E38C8BCE010D96BC018D890E94274D8E819F81FC01D2
S1237AA080819181FC0180818D8781E28E8780E38F8780E3888B80E3898B80E38A8B80E3E4
S1237AC08B8B80E38C8BCE010D96BC018D890E94274D8E819F81FC0180819181FC0180817A
S1237AE08D8782E28E8780E38F8780E3888B80E3898B80E38A8B80E38B8B1C8ACE010D9686
S1237B00BC018D890E94274D8A819B8122E0FC0126A320E040E062E28D890E940E4500001A
S1237B2000006596CDBFDEBFDF91CF910895CF93DF93CDB7DEB76297CDBFDEBF8A8B8A8979
S1237B40282F30E044E3429FC001439F900D1124895C994B89839A838A89282F30E04CE1A4
S1237B60429FC001439F900D11248A599D4B8B839C838B819C81FC018289282F30E044E2F5
S1237B80429FC001439F900D11248E5B9D4B8D839E8389819A810B968F8398878F81988565
S1237BA0FC01218532858F819885FC0180819181880F991F880F991F880F991F820F931FFA
S1237BC0FC018381809336468F819885FC01218532858F819885FC0180819181880F991FFE
S1237BE0880F991F880F991F820F931FFC0181818F7089878985823009F07FC0809136460D
S1237C00882F90E08130910551F18230910509F449C0892B09F069C08D819E81FC01808161
S1237C209181FC0180818A8782E08B8780E58C87809136468D878FEF8E878FEF8F878FEFED
S1237C40888B8FEF898BCE010A96BC018A890E94274D89819A8122E0FC0126A354C08D8117
S1237C609E81FC0180819181FC0180818A8782E08B8780E58C87809136468D878FEF8E87A2
S1237C808FEF8F878FEF888B8FEF898BCE010A96BC018A890E94274D89819A8122E0FC01B0
S1237CA026A331C08D819E81FC0180819181FC0180818A8782E08B8780E58C878091364641
S1237CC08D878FEF8E878FEF8F878FEF888B8FEF898BCE010A96BC018A890E94274D8981E3
S1237CE09A8122E0FC0126A30EC022E140E060E18A890E940E45000006C023E140E060E138
S1237D008A890E940E4500006296CDBFDEBFDF91CF910895CF93DF93CDB7DEB76597CDBF54
S1237D20DEBF8D8B8D89282F30E044E3429FC001439F900D1124895C994B89839A838D8988
S1237D40282F30E04CE1429FC001439F900D11248A599D4B8B839C838B819C81FC0182890C
S1237D60282F30E044E2429FC001439F900D11248E5B9D4B8D839E8389819A810B968F8342
S1237D8098878F819885FC01218532858F819885FC0180819181880F991F880F991F880FC7
S1237DA0991F820F931FFC01818182958F7089878985882309F08EC08F819885FC012185CF
S1237DC032858F819885FC0180819181880F991F880F991F880F991F820F931FFC01848179
S1237DE0882F90E0982F88278A879B878F819885FC01218532858F819885FC0180819181EB
S1237E00880F991F880F991F880F991F820F931FFC018581882F90E02A853B85822B932B2A
S1237E208A879B878F819885FC01218532858F819885FC0180819181880F991F880F991FA9
S1237E40880F991F820F931FFC0183818C878C858130E1F48A859B8583309240B9F48D8172
S1237E609E81FC0180819181FC0180818D8785E08E8781E78F8781E0888B82E0898B83E078
S1237E808A8B82E08B8B8FEF8C8B92C08C85833009F08EC08A859B858330924009F088C06A
S1237EA08D819E81FC0180819181FC0180818D8785E08E8781E78F8783E0888B82E0898B8B
S1237EC083E08A8B82E08B8B8FEF8C8B81E08093D1426EC08F819885FC01218532858F81CD
S1237EE09885FC0180819181880F991F880F991F880F991F820F931FFC018581882F90E0F7
S1237F00982F88278A879B878F819885FC01218532858F819885FC0180819181880F991FA1
S1237F20880F991F880F991F820F931FFC018681882F90E02A853B85822B932B8A879B8724
S1237F408F819885FC01218532858F819885FC0180819181880F991F880F991F880F991F6C
S1237F60820F931FFC0184818C878C85813001F58A859B8581159F4FD9F481E090E0809389
S1237F80D2429093D3428D819E81FC0180819181FC0180818D8785E08E8781E78F8781E0E9
S1237FA0888B8FEF898B1A8A82E08B8B8FEF8C8BCE010D96BC018D890E94274D89819A81E7
S1237FC022E0FC0126A300006596CDBFDEBFDF91CF910895CF93DF93CDB7DEB76297CDBFD2
S1237FE0DEBF8A8B8A89282F30E044E3429FC001439F900D1124895C994B89839A838A89CF
S1238000282F30E04CE1429FC001439F900D11248A599D4B8B839C838B819C81FC01828949
S1238020282F30E044E2429FC001439F900D11248E5B9D4B8D839E8389819A810B968F837F
S123804098878F819885FC01218532858F819885FC0180819181880F991F880F991F880F04
S1238060991F820F931FFC01838189878985813011F58D819E81FC0180819181FC018081F0
S12380808A8782E08B8785EC8C8781E08D878FEF8E878FEF8F878FEF888B8FEF898BCE0145
S12380A00A96BC018A890E94274D89819A8122E0FC0126A324C08985823009F58D819E817A
S12380C0FC0180819181FC0180818A8782E08B8785EC8C8782E08D878FEF8E878FEF8F87E8
S12380E08FEF888B8FEF898BCE010A96BC018A890E94274D89819A8122E0FC0126A3000017
S12381006296CDBFDEBFDF91CF910895CF93DF93CDB7DEB76997CDBFDEBF898F19828091F3
S1238120D8449091D9448A839B831C821D82898D282F30E044E3429FC001439F900D11247F
S1238140895C994B8E839F83898D282F30E04CE1429FC001439F900D11248A599D4B888745
S1238160998788859985FC018289282F30E044E2429FC001439F900D11248E5B9D4B8A87E3
S12381809B878E819F810B968C879D878C859D85FC01218532858C859D85FC0180819181E2
S12381A0880F991F880F991F880F991F820F931FFC01818182958F708E878E85882309F4A6
S12381C0DAC18C859D85FC01218532858C859D85FC0180819181880F991F880F991F880FFB
S12381E0991F820F931FFC0184818F878C859D85FC01218532858C859D85FC018081918198
S1238200880F991F880F991F880F991F820F931FFC0182818250888B8C859D85FC01808114
S123822091818C839D83909135468F85981709F08CC18A819B819C012F5F3F4F2A833B8309
S12382402C853D85F901418552852C853D85F90120813181220F331F220F331F220F331FC7
S1238260240F351FF901258188529D4BFC0120838A819B819C012F5F3F4F2A833B832C8575
S12382803D85F901418552852C853D85F90120813181220F331F220F331F220F331F240F05
S12382A0351FF901268188529D4BFC0120838A819B819C012F5F3F4F2A833B832C853D85A5
S12382C0F901418552852C853D85F90120813181220F331F220F331F220F331F240F351F33
S12382E0F901278188529D4BFC01208381E090E08C839D83D7C0998188899817F8F489810F
S12383008F5F89838A819B819C012F5F3F4F2A833B832C853D85F901418552852C813D819F
S1238320220F331F220F331F220F331F240F351FF901228188529D4BFC01208399818889FF
S12383409817F8F489818F5F89838A819B819C012F5F3F4F2A833B832C853D85F9014185FC
S123836052852C813D81220F331F220F331F220F331F240F351FF901238188529D4BFC014A
S12383802083998188899817F8F489818F5F89838A819B819C012F5F3F4F2A833B832C8570
S12383A03D85F901418552852C813D81220F331F220F331F220F331F240F351FF901248146
S12383C088529D4BFC012083998188899817F8F489818F5F89838A819B819C012F5F3F4F8D
S12383E02A833B832C853D85F901418552852C813D81220F331F220F331F220F331F240FDD
S1238400351FF901258188529D4BFC012083998188899817F8F489818F5F89838A819B8111
S12384209C012F5F3F4F2A833B832C853D85F901418552852C813D81220F331F220F331F99
S1238440220F331F240F351FF901268188529D4BFC012083998188899817F8F489818F5F4D
S123846089838A819B819C012F5F3F4F2A833B832C853D85F901418552852C813D81220FFB
S1238480331F220F331F220F331F240F351FF901278188529D4BFC0120838C819D81019633
S12384A08C839D838C859D85FC01228133818C819D812817390708F01ECF809135468F5FF9
S12384C0809335468889282F30E08091D8449091D944820F931F8093D8449093D944888964
S12384E0282F30E08091DA449091DB44820F931F8093DA449093DB448091D8449091D94481
S12385008115924058F01092D8441092D94481E090E08093D4429093D54217C08091DA44F0
S12385209091DB44803D944580F01092D8441092D94481E090E08093D4429093D54281E0DF
S123854090E08093D6429093D7428A859B85FC0180819181FC018081898B82E08A8B86E70B
S12385608B8B8F858C8B8FEF8D8B8FEF8E8B8FEF8F8B8FEF888FCE014196BC01898D0E9441
S1238580274D8E819F8122E0FC0126A300006996CDBFDEBFDF91CF910895CF93DF93CDB77F
S12385A0DEB72E97CDBFDEBF8D876E878D85282F30E04CE1429FC001439F900D11248A594C
S12385C09D4B8B839C838D85282F30E044E3429FC001439F900D1124895C994B8D839E8392
S12385E08B819C81FC018289282F30E044E2429FC001439F900D11248E5B9D4B8F83988761
S123860019828F819885FC0180A191A189879A878F819885FC0182A193A18B879C871A82BB
S12386201CC08A81882F90E029853A85820F931FFC0190818E85981769F48A81882F90E019
S12386402B853C85820F931F21E0FC01208381E089830AC08A818F5F8A838F819885FC015A
S1238660978D8A818917E8F28981882309F48BC08E85882F90E08538910509F47CC08638CC
S123868091059CF48232910509F46DC08332910524F4409709F463C095C08133910509F446
S12386A066C0C69709F46BC08DC0833B9105A9F0843B91053CF4803B910501F1823B9105B6
S12386C041F080C0863B9105A9F1873B910539F179C08D850E94E94375C08B819C81FC013E
S12386E08081882339F08B819C81FC018081833009F063C08D850E9453355FC08B819C8127
S1238700FC018081882339F08B819C81FC018081833009F054C08D850E949E3650C08B81F8
S12387209C81FC018081882309F04BC08D850E944F3747C08D85282F30E046E1429FC001E8
S1238740439F900D11248658994B21E0FC01208320E041E066EB8D850E940E4533C08D8580
S12387600E94973D2FC08D850E944D382BC08D850E948A3E27C08D850E94EA3F23C08D8537
S12387800E9486401FC021E140E06E858D850E940E458D819E81FC0117868D819E81FC0181
S12387A0108A118A8D819E81FC01258536858D819E81FC012387348705C0000003C00000DA
S12387C001C0000000002E96CDBFDEBFDF91CF910895CF93DF93CDB7DEB7A297CDBFDEBF2B
S12387E08AA38AA1282F30E044E3429FC001439F900D1124895C994B8A839B838AA1282FC3
S123880030E04CE1429FC001439F900D11248A599D4B8C839D838C819D81FC018289282F3D
S123882030E044E2429FC001439F900D11248E5B9D4B8E839F838A819B810B9688879987AD
S1238840198226C08981882F90E028853985F9014185528528853985F90120813181220F77
S1238860331F220F331F220F331F420F531F2981222F30E0240F351FF90140819E012B5E64
S12388803F4F820F931FFC01408389818F5F898389818830B8F28E819F8125E0FC013396D9
S12388A0DE01509601900D922A95E1F78A8D882F90E0982F88278A879B87898D882F90E004
S12388C02A853B85822B932B8A879B878C8D882F90E0982F88278C879D878B8D882F90E05B
S12388E02C853D85822B932B8C879D87288939898A859B852817390729F08A859B858F3F28
S12389009F4759F42A893B898C859D852817390749F08C859D85019629F08A819B81FC01B7
S123892012A675C0888D8E878E85882F90E0009719F0019741F00EC02E8541E062EB8AA15F
S12389400E940E4564C02E8541E062EB8AA10E940E455DC08E85803208F451C08E85803403
S123896008F04DC085E0EDEBF1E4DE015D9601900D928A95E1F7CE014D96AC016E858AA166
S12389800E946B578F878F85843529F5198203C089818F5F89838981853060F48981882F38
S12389A090E09E01235E3F4F820F931FFC0180818F3F71F38981853038F42E8541E062EB16
S12389C08AA10E940E4522C022E140E062EB8AA10E940E451BC08F85833539F422E140E00A
S12389E062EB8AA10E940E4511C08A819B81FC0112A68A819B8122E0FC0123A707C022E19F
S1238A0040E062EB8AA10E940E4500C000000000A296CDBFDEBFDF91CF910895CF93DF9363
S1238A20CDB7DEB76F97CDBFDEBF8C8F6D8F4E8F2F8F8C8D282F30E044E3429FC001439F0D
S1238A40900D1124895C994B8A839B838C8D282F30E04CE1429FC001439F900D11248A5966
S1238A609D4B8C839D838C819D81FC018289282F30E044E2429FC001439F900D11248E5BDC
S1238A809D4B8E839F8319828A819B810B968887998788859985FC01218532858885998575
S1238AA0FC0180819181880F991F880F991F880F991F820F931FFC0180818A878A858E378F
S1238AC009F426C18E819F81FC0180819181FC0180818F8783E0888B8FE7898B8D8D8A8B2C
S1238AE08F8D8B8B8FEF8C8B8FEF8D8B8FEF8E8B8D8D882F90E0823B9105C9F0833B9105DD
S1238B004CF4803B910509F4ABC0813B910509F496C0F2C0863B910509F4D4C0873B9105C1
S1238B2009F4DAC0833B910509F4C3C0E5C08E8D813009F0DEC086E0888B8D8D805C898B3B
S1238B408F8D882339F58E819F8103968B879C878B859C85FC01808191818A8B8B859C8598
S1238B60FC0180819181892F99278B8B8B859C85FC01828193818C8B8B859C85FC018281C6
S1238B809381892F99278D8B8B859C85FC0184818E8BAFC08F8D8130E1F48E819F81089603
S1238BA08D879E878D859E85FC0180818A8B8D859E85FC0181818B8B8D859E85FC018281B1
S1238BC08C8B8D859E85FC0183818D8B85E0888B90C085E0EDEBF1E4DE01579601900D9256
S1238BE08A95E1F7CE014796AC016F8D8C8D0E946B578F898A8B888D8B8B898D8C8B8A8D0C
S1238C008D8B8B8D8E8B85E0898315C08981882F90E001979E01295E3F4F820F931FFC0104
S1238C2080818F3F29F089818F5F888B000061C08981815089838981882341F75AC08E811F
S1238C409F81FC0180819181FC0180818F8781E0888B81EF898B8FEF8A8B8FEF8B8B4CC0A1
S1238C608E819F81FC0182818F878E819F81FC018081918128853985F901418552852885BD
S1238C803985F90120813181220F331F220F331F220F331F240F351FF9012781FC01208373
S1238CA081E0888B80EF898B8FEF8A8B8FEF8B8B23C081E0888B83EF898B8FEF8A8B8FEFA4
S1238CC08B8B1AC081E0888B8D8D805C898B8FEF8A8B8FEF8B8B10C08E8D813061F481E0A9
S1238CE0888B8D8D805C898B8FEF8A8B8FEF8B8B02C0000001C00000CE010F96BC018C8D5F
S1238D000E94274D8A819B8122E0FC0126A305C08A819B8121E0FC0126A300006F96CDBF06
S1238D20DEBFDF91CF910895CF93DF9300D000D0CDB7DEB769837A838B839C8329813A811D
S1238D404B815C8188EE93E0DC010E94C9779B01AC0180E891E5A6EDB2E0BC01CD010E9445
S1238D608F77DA01C90101962496CDBFDEBFDF91CF910895EF92FF920F931F93CF93DF9323
S1238D80CDB7DEB72797CDBFDEBF6B837C838D839E834F838F81882F90E00196880F991FC2
S1238DA09C01220F331F220F331F220F331FA901481B590BCA0189839A8389819A81CC0132
S1238DC0A0E0B0E09C01AD0160E472E48FE090E00E947F777B018C012B813C814D815E8104
S1238DE088EE93E0DC010E94C9779B01AC01C801B7010E948F77DA01C90101962796CDBFD0
S1238E00DEBFDF91CF911F910F91FF90EF900895CF93DF9300D0CDB7DEB789836A836A8145
S1238E2089810E94D4570F900F90DF91CF910895EF92FF920F931F93CF93DF93CDB7DEB759
S1238E402C97CDBFDEBF8C8781E090E08A839B838C85282F30E04CE1429FC001439F900D4D
S1238E6011248A599D4B8C839D838C85282F30E046E1429FC001439F900D11248559994B08
S1238E808E839F838C85882F90E0880F991F9C01220F331F220F331F820F931F9C01235F0F
S1238EA03A4B8E819F81FC01228333838C85882F90E0880F991F880F991F8A5F9D4BFC01FE
S1238EC080819181A281B38188879987AA87BB878C819D81FC0184899589FC018581882381
S1238EE0E9F18C85082F10E060E679E080E090E00E9494469C01C801880F991F86509B4B00
S1238F00FC012083318381E0898324C08C85E82EF12C8981882F90E08C0101501109498171
S1238F2060E679E080E090E00E94BA469C01C701880F991F880F991F880F991F800F911F8B
S1238F40880F991F84509B4BFC012083318389818F5F898389818930C8F24CC08C85082FDB
S1238F6010E08C819D81FC0184899589FC0180819181A281B381BC01CD010E9494469C019F
S1238F80C801880F991F86509B4BFC012083318381E089832CC08C85E82EF12C8981882F47
S1238FA090E08C01015011098C819D81FC0184899589FC0180819181A281B3814981BC0104
S1238FC0CD010E94BA469C01C701880F991F880F991F880F991F800F911F880F991F845069
S1238FE09B4BFC012083318389818F5F89838981893088F28C85882F90E082959295907F6D
S12390009827807F9827865F9A4BFC01208131818E819F81FC01218B328B8C819D81FC01F8
S1239020248535858E819F81FC01238B348B8C85282F30E04EE1429FC001439F900D112433
S12390409C0124523B4B8C819D81FC014489558988859985AA85BB85BC01CD010E948358FE
S12390608A839B838A819B81892B89F488859985AA85BB854CEF5AE4BC01CD010E945F5971
S12390808C85882F90E0845F9A4BFC01108221E08A819B81892B09F420E0822F2C96CDBF65
S12390A0DEBFDF91CF911F910F91FF90EF900895CF93DF93CDB7DEB72797CDBFDEBF8F835E
S12390C081E090E089839A838F81882F90E0880F991F880F991F8A5F9D4BFC0180819181DC
S12390E0A281B3818B839C83AD83BE838B819C81AD81BE81BC01CD010E942F5989839A8303
S123910089819A81892B11F480E001C08FEF2796CDBFDEBFDF91CF910895CF93DF93CDB723
S1239120DEB72797CDBFDEBF8F8381E090E089839A838F81882F90E0880F991F880F991FCE
S12391408A5F9D4BFC0180819181A281B3818B839C83AD83BE838B819C81AD81BE81BC01E2
S1239160CD010E940A5989839A8389819A81892B11F480E001C08FEF2796CDBFDEBFDF911C
S1239180CF910895CF93DF93CDB7DEB72A97CDBFDEBF89876A8781E090E089839A838A85ED
S12391A0893008F062C08A85882309F45EC08985282F30E046E1429FC001439F900D112411
S12391C08359994BFC01808191818B839C838985882F90E0880F991F880F991F8A5F9D4BEA
S12391E0FC0180819181A281B3818D839E83AF83B8878985282F30E046E1429FC001439F42
S1239200900D11248159994B2A85FC0120838985282F30E08A85882F90E00197220F331FA5
S1239220220F331F220F331F820F931F880F991F84509B4BFC01808191819C0140E050E0DB
S12392408D819E81AF81B885BC01CD010E945F5F4B815C818D819E81AF81B8852A85BC01D6
S1239260CD010E945F5B89839A8389819A81892B11F480E001C08FEF2A96CDBFDEBFDF91C1
S1239280CF910895CF93DF93CDB7DEB72897CDBFDEBF8F83688781E090E089839A838F81ED
S12392A0882F90E0880F991F880F991F8A5F9D4BFC0180819181A281B3818B839C83AD8350
S12392C0BE8388858930E8F588858823D1F18F81282F30E08885882F90E00197220F331F66
S12392E0220F331F220F331F820F931F880F991F84509B4BFC01808191819C0140E050E01B
S12393008B819C81AD81BE81BC01CD010E945F5F8F81282F30E046E1429FC001439F900D09
S123932011248359994BFC01408151818B819C81AD81BE812885BC01CD010E94185D8983B3
S12393409A8389819A81892B11F480E001C08FEF2896CDBFDEBFDF91CF910895EF92FF9209
S12393600F931F93CF93DF93CDB7DEB7A697CDBFDEBF8EA38EA1882F90E0880F991F880FD5
S1239380991F8A5F9D4BFC0180819181A281B3818A839B83AC83BD838EA1282F30E04EE17A
S12393A0429FC001439F900D112484529B4B2EE1FC01DE01189601900D922A95E1F78EA108
S12393C0282F30E046E1429FC001439F900D11248559994B8E839F838A819B81AC81BD811E
S12393E0BC01CD010E94955E40E065E08EA10E94DE4D8A8D882F90E0873091053CF483307A
S123940091050CF092C0029729F0EBC0099709F4B8C0E7C08E819F81FC0183899489AC0149
S1239420415051092E813F81F901438B548B892B01F54FEF68E08EA10E94742C8EA1282F00
S123944030E04CE1429FC001439F900D11248E589D4BFC01208131818E819F81FC01238B7D
S1239460348B8A819B81AC81BD81BC01CD010E940A598EA1882F90E0845F9A4BFC018081EB
S1239480882309F4A9C08EA1882F90E0845F9A4BFC0110828EA1082F10E080917A429091C6
S12394A07B42FC0180819181A281B381BC01CD010E9494469C01C801880F991F86509B4B0C
S12394C0FC012083318381E089832BC08EA1E82EF12C8981882F90E08C0101501109809140
S12394E07A4290917B42FC0180819181A281B3814981BC01CD010E94BA469C01C701880F74
S1239500991F880F991F880F991F800F911F880F991F84509B4BFC012083318389818F5F5D
S123952089838981893090F257C08E819F81FC0181899289AC01415051092E813F81F9016D
S1239540418B528B892B09F049C08A819B81AC81BD81BC01CD010E94DF588EA1882F90E05C
S123956082959295907F9827807F9827865F9A4BFC01208131818E819F81FC01218B328B6E
S12395802DC08E819F81FC0181899289AC01415051092E813F81F901418B528B892B01F535
S12395A08A819B81AC81BD81BC01CD010E942F598EA1882F90E082959295907F9827807FFF
S12395C09827865F9A4BFC01208131818E819F81FC01218B328B04C0000003C0000001C0D1
S12395E000000000A696CDBFDEBFDF91CF911F910F91FF90EF900895CF93DF93CDB7DEB74A
S12396006097CDBFDEBF6B877C878D879E874F87588B8F85988989839A8389819A81FC01BF
S123962087858B831A868B859C858C5F9D4BFC0180818C838C81282F30E04CE1429FC00118
S1239640439F900D11248A599D4B8D839E838C81282F30E046E1429FC001439F900D112465
S12396608559994B8F83988789819A81FC018189882F90E0092E000CAA0BBB0B40E050E092
S12396802CE030E0841B950B2817390708F4A0C086559B4DFC010C94B17719864B816985AF
S12396A08C810E94742C8C81882F90E082959295907F9827807F9827865F9A4BFC012081F1
S12396C031818C81882F90E0880F991F86509B4BFC0180819181280F391F8F819885FC01CC
S12396E0218B328B78C083E089874B8169858C810E94742C70C081E089874B8169858C81E1
S12397000E94742C68C082E089874B8169858C810E94742C60C085E089874B8169858C8104
S12397200E94742C58C086E089874B8169858C810E94742C50C084E089874B8169858C8101
S12397400E94742C48C086E089874B8169858C810E94742C8C81882F90E082959295907FBB
S12397609827807F9827865F9A4BFC01208131818F819885FC01218B328B2DC08C81882F0A
S123978090E0845F9A4B21E0FC01208324C089819A81FC0187898823E9F09E01265F3F4FA0
S12397A08B859C85AD85BE85A901BC01CD010E948F5F89819A81FC0196818A85891750F40E
S12397C087E089874B8169858C810E94742C02C0000001C000008D819E81FC0124853585F5
S12397E08F819885FC01238B348B00006096CDBFDEBFDF91CF910895CF93DF93CDB7DEB755
S12398002997CDBFDEBF89878985282F30E044E3429FC001439F900D1124895C994B8B8382
S12398209C838985282F30E04CE1429FC001439F900D112480589D4BFC01808191818D832D
S12398409E838D819E81079728F481E090E089839A833AC08D819E81AC01455051099A01A4
S1239860ABEABAEA0E94BA779C013695279536952795C901880F991F820F931F880F991F82
S12398809A01281B390B232B81F48D819E8105979C01ABEABAEA0E94BA77969587959695FB
S12398A08795019689839A830FC08D819E8105979C01ABEABAEA0E94BA7796958795969515
S12398C08795029689839A838985282F30E04CE1429FC001439F900D112484589D4BFC01EE
S12398E0208131818B819C81FC01218732878985282F30E04CE1429FC001439F900D112492
S123990082589D4BFC01208131818B819C81FC01248B358B8985282F30E0C901880F991F0E
S1239920880F991F820F931F9C01295E3A4B8B819C81FC0122A333A38B819C8129813A8199
S1239940FC01278330878B819C8129813A81FC01228B338B8B819C818F8398878F81988528
S1239960FC01108211828F819885FC01128213828F81988525E0FC0124838F819885FC016E
S1239980158216828B819C810B968F8398878F819885FC01108211828F819885FC0112828C
S12399A013828F819885FC0114828F819885FC01158216828B819C8122E0FC01268B8B8110
S12399C09C8122E0FC01218F8B819C81FC01148E8B819C81FC01158E8B819C81FC01168E5C
S12399E08B819C81FC0115A28B819C81FC0114A28B819C81FC0112A68B819C81FC01178E01
S1239A008B819C81FC0110A211A28B819C8121E0FC0126A38B819C8122E0FC0123A78B81C9
S1239A209C81FC0117A28B819C81FC0110A611A68B819C81FC0115A68B819C81FC0114A6FB
S1239A4000002996CDBFDEBFDF91CF910895CF93DF93CDB7DEB72B97CDBFDEBF89876A87D4
S1239A607B878985282F30E044E3429FC001439F900D1124895C994B89839A838985282F97
S1239A8030E04CE1429FC001439F900D11248A599D4B8B839C838B819C81FC01938181E09C
S1239AA08927882371F18B819C81FC018081882341F58985282F30E04CE1429FC001439FB7
S1239AC0900D112488589D4BFC018081282F30E044E2429FC001439F900D11248E5B9D4B36
S1239AE08D839E838D819E81FC01238D348D89819A81FC0120A331A389819A8121E0FC01BA
S1239B00278F89819A818F83988789819A81FC0182A521E0280F89819A81FC0122A74F81F9
S1239B2058858A859B8520E0BC0189850E94685400002B96CDBFDEBFDF91CF910895CF9333
S1239B40DF93CDB7DEB72597CDBFDEBF8B836C837D838B81282F30E044E3429FC001439F76
S1239B60900D11240B96895C994B89839A8349815A818C819D8121E0BC018B810E94535598
S1239B8000002596CDBFDEBFDF91CF910895CF93DF931F92CDB7DEB789838981282F30E055
S1239BA044E3429FC001439F900D11248A5B994BFC0180810F90DF91CF910895CF93DF937D
S1239BC0CDB7DEB72697CDBFDEBF8C836D834E838C81282F30E044E3429FC001439F900DF6
S1239BE01124895C994B8A839B8319828D81882F90E0092E000CAA0BBB0B40E050E027E053
S1239C0030E0841B950B2817390708F44CC089549B4DFC010C94B1778A819B81FC018689AD
S1239C20813009F042C08A819B81FC0195A581E089278823D1F18A819B8121E0FC0124A7A8
S1239C4034C08C810E94295231C08A819B81FC0182A58823A1F08A819B81FC0183A583306B
S1239C6071F08A819B81FC0182A52FEF280F8A819B81FC0122A78C810E945F5217C081E05A
S1239C80898314C08C810E94535310C08C810E9489520CC06E818C810E94C25107C08C81E0
S1239CA00E945D4E03C0000001C0000089812696CDBFDEBFDF91CF910895CF93DF93CDB71B
S1239CC0DEB72597CDBFDEBF8D838D81282F30E044E3429FC001439F900D1124895C994B3B
S1239CE089839A838D81282F30E046E1429FC001439F900D11248559994B8B839C8389814C
S1239D009A81FC01878D823071F589819A81FC0180A191A1AC014150510929813A81F9018F
S1239D2040A351A3892BF9F48B819C81FC01108A89819A8123E0FC0123A789819A8125E0CE
S1239D40FC01268B89819A81FC0114A689819A81FC0115A689819A81FC01178E89819A81AC
S1239D6021E0FC0126A389819A81FC01878D813031F589819A81FC0180A191A1AC01415058
S1239D80510929813A81F90140A351A3892BB9F48B819C81FC01108A89819A8123E0FC01E9
S1239DA023A789819A8124E0FC01218F89819A81FC01178E89819A8121E0FC0126A300004C
S1239DC02596CDBFDEBFDF91CF910895CF93DF93CDB7DEB72897CDBFDEBF88878885282FE6
S1239DE030E046E1429FC001439F900D11248559994B89839A8389819A81FC0182819381AE
S1239E008B839C838885282F30E044E3429FC001439F900D1124895C994B8D839E838B811A
S1239E209C810196FC0180818F708F838F81873008F053C08D819E81FC01178E8D819E818D
S1239E4021E0FC0123A78D819E81FC01138614868D819E81FC01158616868D819E81FC014E
S1239E60108A118A8D819E81FC0117868B819C81FC0180818E3731F48D819E8126E0FC01A1
S1239E8026A305C08D819E8125E0FC0126A38D819E81AC01455F5F4F8B819C8121E0BC0125
S1239EA088850E9468548D819E8121E0FC0125A38D819E8121E0FC0124A388850E94D65376
S1239EC08D819E81FC0184A5882319F088850E94F4558D819E81FC0115A600002896CDBF50
S1239EE0DEBFDF91CF910895CF93DF93CDB7DEB72997CDBFDEBF89878985282F30E044E3D2
S1239F00429FC001439F900D1124895C994B89839A838985282F30E046E1429FC001439FD5
S1239F20900D11248359994BFC01808191818B839C838985282F30E04CE1429FC001439F28
S1239F40900D11248A599D4B8D839E838B819C810196FC018081882F90E08F709927382F24
S1239F6022278B819C810296FC018081882F90E0820F931F8F8398878F819885079708F473
S1239F80B3C08D819E81FC01228D338D8F8198852817390708F4A8C08D819E81FC01938163
S1239FA081E08927882379F189819A8125E0FC0126A38D819E81FC018081882321F589858D
S1239FC0282F30E04CE1429FC001439F900D112488589D4BFC018081282F30E044E2429F5F
S1239FE0C001439F900D1124815A9D4BFC012081318189819A81FC0120A331A389819A81F7
S123A00022E0FC01278F89819A81FC011386148689819A81FC011586168689819A81FC01B7
S123A020108A118A89819A81FC01178689819A81AC01455F5F4F8B819C8121E0BC0189850F
S123A0400E9468548F819885AC01455051099A01ABEABAEA0E94BA779C013695279536953F
S123A0602795C901880F991F820F931F880F991F9A01281B390B232B91F48F8198850597B7
S123A0809C01ABEABAEA0E94BA779695879596958795282F89819A81FC0124A312C08F8163
S123A0A0988505979C01ABEABAEA0E94BA77969587959695879521E0280F89819A81FC0152
S123A0C024A389819A8121E0FC0125A389819A81FC0113A689819A8121E0FC0125A78981F6
S123A0E09A81FC0110A611A600002996CDBFDEBFDF91CF910895CF93DF93CDB7DEB72697D8
S123A100CDBFDEBF8E838E81282F30E044E3429FC001439F900D1124895C994B89839A831C
S123A1208E81282F30E046E1429FC001439F900D11248359994BFC01808191818B839C832B
S123A1408E81282F30E04CE1429FC001439F900D11248A599D4BFC018081882321F58E8169
S123A160282F30E04CE1429FC001439F900D112488589D4BFC018081282F30E044E2429FBD
S123A180C001439F900D1124815A9D4BFC012081318189819A81FC0120A331A389819A8155
S123A1A022E0FC01278F8B819C810196FC0180818F708D8389819A81FC0195A18D81981704
S123A1C081F589819A81FC0185A121E0280F89819A81FC0125A389819A81FC0185A18031A2
S123A1E020F089819A81FC0115A289819A81FC0184A12FEF280F89819A81FC0124A38981E3
S123A2009A81AC01455F5F4F8B819C8121E0BC018E810E94685489819A8125E0FC0126A3DC
S123A2201CC089819A81FC0184A5882321F089819A81FC0114A689819A81FC0115A6898174
S123A2409A8126E0FC01268B89819A81FC01178E89819A8121E0FC0126A389819A81FC0156
S123A26084A18823C9F489819A81FC01178E89819A8121E0FC0123A78E810E94D6538981B5
S123A2809A81FC0184A5882319F08E810E94F45589819A81FC0115A600002696CDBFDEBF09
S123A2A0DF91CF910895CF93DF93CDB7DEB72697CDBFDEBF8C836D837E838C81282F30E0E6
S123A2C044E3429FC001439F900D1124895C994B89839A838C81282F30E04CE1429FC001C8
S123A2E0439F900D112487599D4BFC01908181E08927882309F18C81282F30E044E3429F9E
S123A300C001439F900D11248F59994BFC01108289819A8125E0FC01248389819A81FC0179
S123A3201582168289819A81FC012281338189819A81FC01208331838D819E81FC018181CC
S123A34082958F708B838B81882F90E08130910551F08230910559F0892B09F00CC08C8103
S123A3600E94E64E08C08C810E94744F04C08C810E947B50000000002696CDBFDEBFDF9136
S123A380CF910895CF93DF93CDB7DEB72697CDBFDEBF8D836E838D81282F30E044E3429F6B
S123A3A0C001439F900D1124895C994B89839A838D81282F30E04CE1429FC001439F900D6F
S123A3C011248A599D4B8B839C838E818C33D9F489819A8123E0FC01268B89819A81FC01B9
S123A3E012A68B819C81FC018081882331F489819A8122E0FC0127871CC089819A8127E0D0
S123A400FC01278716C089819A8123E0FC01218F8B819C81FC018081882331F489819A81C6
S123A42026E0FC01248305C089819A8127E0FC01248389819A8123E0FC0123A789819A81C5
S123A440FC01178E00002696CDBFDEBFDF91CF910895CF93DF9300D01F92CDB7DEB78B8388
S123A4608B81282F30E046E1429FC001439F900D11248559994B89839A838B81282F30E08A
S123A48044E3429FC001439F900D1124AC01495C594B89819A81FC018281938120E0BC014F
S123A4A08B810E94535589819A8128E0FC01248300002396CDBFDEBFDF91CF910895CF93C0
S123A4C0DF931F92CDB7DEB789838981282F30E044E3429FC001439F900D1124AC01495CF0
S123A4E0594B8981282F30E066E1629FC001639F900D11248359994BFC018081918120E096
S123A500BC0189810E94535500000F90DF91CF910895CF93DF93CDB7DEB72D97CDBFDEBF40
S123A5208D878D85282F30E044E3429FC001439F900D1124895C994B8A839B838D85282FB0
S123A54030E046E1429FC001439F900D11248559994B8C839D838C819D81FC01828193813A
S123A5608E839F838D85282F30E04CE1429FC001439F900D11248A599D4B88879987198213
S123A58088859985FC01938181E08927882309F448C088859985FC018289282F30E044E2FA
S123A5A0429FC001439F900D11248E5B9D4B8A879B878E819F81FC0180818F3761F18E81E9
S123A5C09F81FC0180818E3731F18A859B85FC0180819181FC0120818E819F81FC01808168
S123A5E0281731F08E819F81FC018281803B81F48A859B85FC0122818E819F81FC0180819C
S123A600281749F08E819F81FC018281803B19F481E090E002C080E090E08983898181705D
S123A62089838E819F81FC01818182958F708C8788859985FC01938181E08927882359F072
S123A6408981882319F48C85833028F08A819B81FC0112A621C08A819B81FC0186A185309B
S123A66031F08A819B81FC0186A1823031F48E819F81FC0180818E3779F08A819B81FC0114
S123A68083A5833019F48C85823031F08E819F81BC018D850E94535100002D96CDBFDEBFBA
S123A6A0DF91CF910895CF93DF93CDB7DEB72597CDBFDEBF8D838D81282F30E044E3429FCA
S123A6C0C001439F900D1124895C994B89839A838D81282F30E04CE1429FC001439F900D4C
S123A6E011248A599D4B8B839C8389819A81FC0110A611A689819A81FC0185819681892BA7
S123A700E1F489819A81FC01178E89819A8122E0FC01218F89819A8121E0FC0123A78B81CC
S123A7209C81FC01938181E089278823C1F189819A8121E0FC0126A332C08B819C81FC0175
S123A740938181E08927882351F18B819C81FC018081882321F58D81282F30E04CE1429F78
S123A760C001439F900D112488589D4BFC018081282F30E044E2429FC001439F900D1124B7
S123A780835A9D4BFC012081318189819A81FC0120A331A389819A8121E0FC01278F00000E
S123A7A02596CDBFDEBFDF91CF910895CF93DF93CDB7DEB72897CDBFDEBF88878885282FFC
S123A7C030E044E3429FC001439F900D11240B96895C994B8A839B838885282F30E044E3B8
S123A7E0429FC001439F900D1124895C994B8C839D838C819D81FC01158216828C819D8185
S123A800FC01108211828C819D81FC01128213828C819D8125E0FC01248388850E94C74D2A
S123A8208E838E81813021F08E81833009F049C08A819B81FC01218532858A819B81FC01C9
S123A84080819181880F991F880F991F880F991F820F931FFC01818182958F708F838F817A
S123A8608130B1F48A819B81FC01218532858A819B81FC0180819181880F991F880F991F28
S123A880880F991F820F931FFC018381898315C08A819B81FC01218532858A819B81FC019B
S123A8A080819181880F991F880F991F880F991F820F931FFC0182818983698188850E94AC
S123A8C0CD4200002896CDBFDEBFDF91CF910895CF93DF93CDB7DEB72997CDBFDEBF8C832C
S123A8E06D837E834F83588729878F819885FC01818592858A839B838F819885FC012581C0
S123A90036818F819885FC01878190852817390708F0C2C08D819E81FC0180818E37A1F4B7
S123A9208F819885FC0180819181880F991F880F991F880F991F2A813B81820F931FFC0142
S123A94080818E3709F4A8C08F819885FC018481853031F08F819885FC018481882379F47C
S123A9608985882331F48F81988524E0FC0124834DC08F81988521E0FC01248347C08D812C
S123A9809E81FC0180818E3711F589858823F9F48F819885FC0180819181892B51F48F81DF
S123A9A09885FC01278130858F819885FC01208331838F819885FC01808191819C01215050
S123A9C031098F819885FC01208331831FC08F819885FC01828193819C012F5F3F4F8F81CF
S123A9E09885FC01228333838F819885FC01278130858F819885FC01828193812817390797
S123AA0029F48F819885FC0112821382198222C08F819885FC0182819381880F991F880F1E
S123AA20991F880F991F2A813B81280F391F8981882F90E04981442F50E06D817E81460F35
S123AA40571FFA014081820F931FFC01408389818F5F898389818830D8F28F819885FC0103
S123AA60858196819C012F5F3F4F8F819885FC01258336838F819885FC01258136818F81DA
S123AA809885FC01878190852817390728F08F81988523E0FC01248300002996CDBFDEBF28
S123AAA0DF91CF910895CF93DF93CDB7DEB72D97CDBFDEBF888769877A874B875C872D87E2
S123AAC08B859C858A839B838A819B81FC01818592858C839D838B859C85FC01858196815B
S123AAE0892B09F47AC08A819B81FC01808191818E839F8319821FC08981882F90E02985A4
S123AB003A85820F931F2E813F81220F331F220F331F220F331F4C815D81420F531F29811F
S123AB20222F30E0240F351FF9012081FC01208389818F5F898389818830F0F28B859C8515
S123AB40FC01858196819C01215031098B859C85FC01258336838B859C85FC0185819681B5
S123AB60892B71F48D85882331F48B859C8525E0FC01248332C08B859C85FC0114822DC059
S123AB808D85882331F48B859C8524E0FC01248305C08B859C8521E0FC0124838B859C852A
S123ABA0FC01808191819C012F5F3F4F8B859C85FC01208331838B859C85FC0120813181C2
S123ABC08B859C85FC01878190852817390729F48B859C85FC011082118200002D96CDBFE8
S123ABE0DEBFDF91CF910895CF93DF93CDB7DEB76A97CDBFDEBF8A8F8A8D282F30E044E372
S123AC00429FC001439F900D1124895C994B8F8398878A8D282F30E04CE1429FC001439FB1
S123AC20900D11248A599D4B89879A871B821C821D821E828F819885FC0186A597A58B8725
S123AC409C878F819885FC0180A991A98D879E878F819885FC0182A993A98F87988B8F812D
S123AC609885FC018785882309F42EC1CE014296BC018A8D0E949F4D89859A85FC018381DC
S123AC80882329F02A898D859E85FC0120838B8982958F70898B8989882F90E0009721F045
S123ACA0019709F44BC007C18B89882F90E08F7099278D839E838F859889FC0180819181B8
S123ACC089839A838F8598892D813E81FC012083318329813A818D819E812817390720F42C
S123ACE089819A818D839E832C898B859C85FC01208381E090E089839A8318C02B853C8531
S123AD0089819A81820F931F29813A812E5F3F4FAE014E5E5F4F240F351FF9012081FC011F
S123AD20208389819A81019689839A8329813A818D819E812817390708F3BDC08B89882F33
S123AD4090E08F709927382F22278C89882F90E0820F931F8D839E838F859889FC0180812D
S123AD60918189839A838F8598892D813E81FC012083318329813A818D819E81281739078D
S123AD8020F489819A818D839E832D898B859C85FC01208381E090E089839A8318C02B853C
S123ADA03C8589819A81820F931F29813A812D5F3F4FAE014E5E5F4F240F351FF9012081BC
S123ADC0FC01208389819A81019689839A8389819A81059720F38D819E8105978D839E831C
S123ADE08B819C8105968B839C832FC0CE014296BC018A8D0E949F4D82E090E089839A836B
S123AE001BC02B853C858B819C81820F931FAE014E5E5F4F29813A81240F351FF9012081E6
S123AE20FC0120838B819C8101968B839C8389819A81019689839A8389819A81089708F3DD
S123AE408D819E8106978D839E838D819E81079768F68D819E81892B69F1CE014296BC012B
S123AE608A8D0E949F4D19821A821DC02B853C858B819C81820F931F29813A812E5F3F4FB8
S123AE80AE014E5E5F4F240F351FF9012081FC0120838B819C8101968B839C8389819A81D1
S123AEA0019689839A8329813A818D819E8128173907E0F200008F819885FC0114A68F81F7
S123AEC0988522E0FC01268B00006A96CDBFDEBFDF91CF910895CF93DF93CDB7DEB7279760
S123AEE0CDBFDEBF8C836D834E835F8383E589838C81282F30E04CE1429FC001439F900D3D
S123AF0011248A599D4B8A839B838A819B81FC01938181E08927882341F18D81803229F5FE
S123AF208D8121E0280F8E819F81FC0120838E819F8101962D812E5FFC0120838E819F8128
S123AF4002962D812D5FFC0120838E819F8103962D812C5FFC0120838E819F8104962D8163
S123AF602B5FFC01208384E5898389812796CDBFDEBFDF91CF910895CF93DF9300D0CDB7A9
S123AF80DEB789836A838981882F90E02A81222F30E002C0959587952A95E2F781700F90B2
S123AFA00F90DF91CF9108950F931F93CF93DF9300D000D0CDB7DEB78B836C8360E08B8157
S123AFC00E94BC57182F61E08B810E94BC57182762E08B810E94BC57182764E08B810E94FC
S123AFE0BC578127182F1295110F110F107C61E08B810E94BC57082F63E08B810E94BC579B
S123B000082764E08B810E94BC57082765E08B810E94BC5780278095879588278795812B74
S123B0208A838C81813099F48B81882F90E09C01207C33278A81882F90E02817390719F034
S123B0408FEF898308C08B818F73898304C09B818A81892B898389812496CDBFDEBFDF9178
S123B060CF911F910F910895CF93DF93CDB7DEB72797CDBFDEBF8C839D836E834F831A821D
S123B0801B828F818C3379F08F818D3761F08F818E3F49F08F818F3B31F08F81882F90E06A
S123B0A08A839B8302C01A821B828E81898320C08C819D81FC018081882F90E02A813B81B4
S123B0C0820F931F8A839B838C819D8101968C839D838A819B818F3F910539F030F08A812E
S123B0E09B818F5F91098A839B8389818150898389818823E9F68A8180952796CDBFDEBFFC
S123B100DF91CF910895CF93DF93CDB7DEB72897CDBFDEBF69837A838B839C834D835E8322
S123B1202F83388789819A81880F991F87509A4B2F813885FC012083318389819A81880FED
S123B140991F85509A4B2D813E81FC012083318389819A81880F991F83509A4B2FE730E462
S123B160FC01208331838F81988522E0FC01228B8F819885FC0110868F819885FC0111861D
S123B1808F819885FC0112868F819885FC0114868F819885FC0113868F819885FC01178A97
S123B1A08F819885FC01138A148A158A168A80E090E02896CDBFDEBFDF91CF910895CF9361
S123B1C0DF93CDB7DEB72697CDBFDEBF6B837C838D839E838B819C81880F991F87509A4BA8
S123B1E0FC018081918189839A8389819A81FC01118A89819A8122E0FC01228B89819A815F
S123B200FC01128680E090E02696CDBFDEBFDF91CF910895CF93DF93CDB7DEB72697CDBF3D
S123B220DEBF6B837C838D839E838B819C81880F991F87509A4BFC018081918189839A83E2
S123B24089819A8121E0FC01228B0E94542A80E090E02696CDBFDEBFDF91CF910895CF9376
S123B260DF93CDB7DEB72897CDBFDEBF6D837E838F83988719821A828D819E81880F991F82
S123B28087509A4BFC01808191818B839C838D819E81AF81B885BC01CD010E94DF588B81A7
