:100000000C948F000C94AE000C94AE000C94AE00D7
:100010000C94AE000C94AE000C94AE000C9407014E
:100020000C94AE000C94AE000C94AE000C94AE0098
:100030000C94AE000C94AE000C94AE000C94AE0088
:100040000C94AE000C94AE000C94AE000C94B30073
:100050000C94AE000C94AE000C94AE000C94AE0068
:100060000C94AE000C94AE000C94AE000C94AE0058
:100070000C94AE000C94AE000C94AE000C94AE0048
:100080000C94AE000C94AE000C94AE000C94AE0038
:100090000C94AE000C94AE000C94AE000C94AE0028
:1000A0000C94AE00E20FE50F0A100A100A100A10B5
:1000B0000A100A100A100A100A100A100A100A1070
:1000C0000A100A100A100A100A100A100A100A1060
:1000D0000A10E80F0A100A100A100A100A100A1073
:1000E0000A100A100A10EB0F0A100A10EE0F0A107D
:1000F000F10FF40F86109C1080109C109C106A1059
:100100004010461064105E1058104C105210F01938
:10011000F419181A1C1A201A251A291ACD19112493
:100120001FBECFEFCDBFDFE7DEBF12E4A0E0B0E43B
:10013000E6E7FFE300E00BBF02C007900D92A23A92
:10014000B107D9F726E4A2EAB2E401C01D92A632B3
:10015000B207E1F70E9435010C94B91F0C9400001E
:100160000E94651E08951F920F920FB60F921124E0
:100170000BB60F922F933F934F935F936F937F93A1
:100180008F939F93AF93BF93EF93FF938091040856
:10019000887090E095958795959587959595879525
:1001A000813061F44FEF60E070E0CB010E947F1C72
:1001B000E0E0F8E084818860848316C080910108C3
:1001C00080FD0CC041E060E070E0CB010E947F1C2C
:1001D000E0E0F8E084818061848306C040E060E074
:1001E00070E0CB010E947F1CFF91EF91BF91AF9116
:1001F0009F918F917F916F915F914F913F912F913F
:100200000F900BBE0F900FBE0F901F9018951F926E
:100210000F920FB60F9211240BB60F922F933F93AC
:100220004F935F936F937F938F939F93AF93BF93FE
:10023000EF93FF9381E080930B0A60E070E0CB01C5
:100240000E94761DFF91EF91BF91AF919F918F9189
:100250007F916F915F914F913F912F910F900BBEC6
:100260000F900FBE0F901F9018950E94B00080E075
:1002700090E00E94811E853541F440E068ED80E108
:1002800091E00E944B1F0C94002440E468ED80E153
:1002900091E00E944B1F0E94B40280E00E94B602CF
:1002A00080E00E94C3128091B5449091B6440197BA
:1002B000B9F460E074E280E090E00E94B41E65E56D
:1002C00072E680E090E00E94B01E90E08093D745F7
:1002D0009093D84582E090E08093B5449093B644E3
:1002E0008091B3449091B4448130910521F560919F
:1002F000054070910640809107409091084041EB85
:1003000052E40E94DC1E8091054090910640A0912D
:100310000740B09108409E5FAF4FBF4F80930540AC
:1003200090930640A0930740B09308401092B344C6
:100330001092B44431C0029779F58091AF42909108
:10034000B04206C0FC01EF54FD4B2FEF2083019615
:10035000811522E09207B4F3609105407091064048
:10036000809107409091084041EB52E40E94DC1ECE
:100370001092B3441092B4441092AF421092B04223
:1003800080E098E4A0E0B0E08093054090930640C0
:10039000A0930740B09308408091A342813009F0B8
:1003A000CCC080E098E4A0E0B0E08093054090935A
:1003B0000640A0930740B0930840CFEFDFEF53C053
:1003C000A801012E000C660B770B809105409091DF
:1003D0000640A0910740B09108406A017B01C80E19
:1003E000D91EEA1EFB1EC701B6010E94B01E8D2752
:1003F000DC2FCC27E82FF0E0EE0FFF1FE25DFF4B74
:1004000080819181C827D9270F5F1F4F02C000E06C
:1004100010E0011522E012079CF2809105409091B6
:100420000640A0910740B09108409E5FAF4FBF4F7C
:100430008093054090930640A0930740B0930840F6
:100440008091A4429091A542A091A642B091A7426A
:100450009250A109B1098093A4429093A542A09320
:10046000A642B093A7428091A4429091A542A09148
:10047000A642B091A742811522E09207A105B105DD
:1004800030F6892B8A2B8B2B19F536C080910540CD
:1004900090910640A0910740B09108406A017B010D
:1004A000C80ED91EEA1EFB1EC701B6010E94B01E6F
:1004B0008D27DC2FCC27E82FF0E0EE0FFF1FE25D49
:1004C000FF4B80819181C827D9270F5F1F4F02C042
:1004D00000E010E0A801012E000C660B770B809164
:1004E000A4429091A542A091A642B091A74248177C
:1004F00059076A077B0750F280E098E4A0E0B0E07B
:100500008093054090930640A0930740B093084025
:100510008091D9459091DA45C817D90759F4892BAC
:1005200049F082E08093A34265E580E090E00E947C
:10053000851E03C083E08093A3428091B1449091D3
:10054000B244019709F0AFCE65E581E090E00E94EA
:10055000851E1092B1441092B24441E068ED81E4EE
:1005600090E00E944B1F9FCE80E0089596E1899F06
:10057000F0011124E05FF94B108A0E94AF1008953A
:100580002CE1829FC0011124FC01E25DFD4B26811C
:10059000378170E0FB01EE0FFF1F660F771F660FBC
:1005A000771F660F771FE60FF71FE20FF31F80819B
:1005B00081110EC045815681978108C0DA01A25091
:1005C000BB4B6FEF6C934F5F5F4F8F5F8917B0F33B
:1005D0008081813029F50084F185E02D0180F28150
:1005E000E02D808190E0FC01EE0FFF1F880F991F26
:1005F000880F991F880F991F8E0F9F1FF901E80F11
:10060000F91F25813681978180E008C0F901E25009
:10061000FB4B4FEF40832F5F3F4F8F5F8917B0F346
:100620000895CF93C82F90E02CE1289FF001299FD7
:10063000F00D1124E25DFD4B2381211111C02CE14D
:10064000289FF001299FF00D1124E25DFD4B808170
:10065000882311F0833021F468E08C2F0E94E40796
:100660008C2F0E940F12CF910895482F50E08CE1FB
:10067000849FF001859FF00D1124E25DFD4B948174
:100680001DC02CE1249FF001259FF00D1124E25D97
:10069000FD4B0284F385E02DE90FF11D2081261327
:1006A0000CC08CE1849FF001859FF00D1124E25D68
:1006B000FD4B8581890F8150089591509111E1CFB3
:1006C0008FEF0895EF92FF920F931F93CF93DF93D5
:1006D000182F062FC82FD0E086E18C9FF0018D9F48
:1006E000F00D1124E05FF94B81E0858382858F3F17
:1006F00051F096E19C9FF0019D9FF00D1124E05F69
:10070000F94B8F5F828786E18C9FF0018D9FF00D02
:100710001124E05FF94B82858230A8F086E18C9F3E
:10072000F0018D9FF00D1124E05FF94B838581115D
:100730000AC086E18C9FF0018D9FF00D1124E05FCF
:10074000F94B81E0838786E18C9FF0018D9FF00D4E
:100750001124E05FF94B8589882351F086E18C9F55
:10076000F0018D9FF00D1124E05FF94B1682158A80
:10077000602F812F0E943503E82E8CE18C9FF001C1
:100780008D9FF00D1124E25DFD4BF380FF2069F099
:100790000C3359F486E18C9FF0018D9FF00D1124EC
:1007A000E05FF94B8089813021F0F11007C00D33F3
:1007B00029F4402F62E0812F0E94BD1981E08E153F
:1007C00050F06E2D812F0E94C002EE2DF0E0E4501B
:1007D000FB4B81E08083F11015C08CE18C9FF00110
:1007E0008D9FF00D1124E25DFD4B8081882311F077
:1007F000833041F46E2D812F0E94450861E0812FE6
:100800000E94E407DF91CF911F910F91FF90EF902D
:100810000895EF92FF920F931F93CF93DF93182FBA
:10082000062FE42EC82FD0E0642F0E943503F82E47
:1008300086E18C9FF0018D9FF00D1124E05FF94B54
:1008400082858F3F51F096E19C9FF0019D9FF00DB6
:100850001124E05FF94B8F5F828786E18C9FF00166
:100860008D9FF00D1124E05FF94B82858230A8F056
:1008700086E18C9FF0018D9FF00D1124E05FF94B14
:10088000838581110AC086E18C9FF0018D9FF00D58
:100890001124E05FF94B81E083878CEF800F843077
:1008A00080F58CE18C9FF0018D9FF00D1124E25DAD
:1008B000FD4B268137818F2D90E0FC01EE0FFF1F4D
:1008C000880F991F880F991F880F991F8E0F9F1FE0
:1008D000F901E80FF91F8081813099F086E18C9F42
:1008E000F0018D9FF00D1124E05FF94B81E08683CC
:1008F00084EC8E0D823028F44E2D64E0812F0E940E
:10090000BD198CE18C9FF0018D9FF00D1124E25DEB
:10091000FD4B8381811120C08CE18C9FF0018D9F64
:10092000F00D1124E25DFD4B8081882311F08330AE
:1009300099F486E18C9FF0018D9FF00D1124E05F0A
:10094000F94B8681813021F46F2D812F0E9445085B
:10095000602F812F0E94E407DF91CF911F910F91AB
:10096000FF90EF9008950F931F93CF93DF93162F6F
:10097000042FC82FD0E00E9435038F3F09F4BBC07D
:1009800096E19C9FD0019D9FB00D1124A05FB94BB3
:1009900012962D913C9113979CE19C9FF0019D9F95
:1009A000F00D1124E25DFD4B66817781482F50E008
:1009B000FA01EE0FFF1F440F551F440F551F440F40
:1009C000551F4E0F5F1FFB01E40FF51F9181149619
:1009D0009C9343815481011173C09CE19C9FF00161
:1009E0009D9FF00D1124E25DFD4B9381911183C019
:1009F0009CE19C9FF0019D9FF00D1124E25DFD4B59
:100A0000628970E090E01CC0A4E2A69FF001A79F5D
:100A1000F00D1124E65BFD4B0484F585E02DE90F14
:100A2000F11DE0811E130BC096E19C9FF0019D9F7C
:100A3000F00D1124E05FF94B91E0958B0CC09F5FA6
:100A4000A4E2A69FF001A79FF00D1124E65BFD4BE9
:100A5000E6859E17C8F2E82FF0E0E650FB4BA08138
:100A600080E022C0E82FF0E06A2F70E0082E02C07C
:100A7000769567950A94E2F760FF08C0E150FB4B5A
:100A80009081F901E80FF11D90830DC0682F70E08F
:100A90008901060F171F640F751FFB01E85DFF4BEF
:100AA0009081F80190838F5F96E19C9FF0019D9F5C
:100AB000F00D1124E05FF94B9481891798F21BC067
:100AC0008CE18C9FF0018D9FF00D1124E25DFD4BB8
:100AD0008381811110C00DC0682F70E0FA01E60F0C
:100AE000F71FD901A60FB71F6C91E85DFF4B60831C
:100AF0008F5F891788F3DF91CF911F910F91089530
:100B0000AF92BF92CF92DF92EF92FF920F931F931B
:100B1000CF93DF931F92CDB7DEB7B82EA62EE82E67
:100B2000F12C0E9435039CE19E9DF0019F9DF00DEC
:100B30001124E25DFD4BC680D780282F30E089016B
:100B4000000F111F220F331F220F331F220F331FDD
:100B5000020F131F0C0D1D1D8F3F09F4B9C060E07B
:100B60008A2D0E94AC1096E19E9DF0019F9DF00D94
:100B70001124E05FF94B8187D8018C91813081F09D
:100B800020F0813109F470C0A5C0F8018281811183
:100B9000A3C040E06A2D8B2D0E94B30482E0A5C063
:100BA0008CE18E9DF0018F9DF00D1124E25DFD4BD7
:100BB0008381811193C0D8011896ED91FC9119970A
:100BC0000180F281E02D80818983898190E0FC01A0
:100BD000EE0FFF1F880F991F880F991F880F991F0D
:100BE000E80FF91FEC0DFD1D85819681298130E00C
:100BF000A901440F551F220F331F220F331F220F4D
:100C0000331F240F351FF601E20FF31F378120E059
:100C100027C0AC014F5F5F4FFC01E250FB4B80816E
:100C20008F3FE1F08CE18E9DD0018F9DB00D11249E
:100C3000A25DBD4B1A962D913C911B97898115960B
:100C40009C91E82FF0E0E91BF1093196E20FF31FC8
:100C500060818B2D0E942C0982E047C02F5FCA0162
:100C60002317B8F281E041C08CE18E9DF0018F9D89
:100C7000F00D1124E25DFD4B8081823089F1F80195
:100C8000828181111EC0FCE3AF1212C086E18E9DED
:100C9000F0018F9DF00D1124E05FF94B80898130C8
:100CA00009F54A2D60E08B2D0E94BD1982E01DC020
:100CB0004A2D61E08B2D0E94BD198130A9F082E0A0
:100CC00014C04A2D67E08B2D0E94BD1981E00DC034
:100CD00080E00BC081E009C081E007C081E005C071
:100CE00080E003C082E001C080E0813019F08230F2
:100CF00041F00DC0D80111966C918B2D0E9473129A
:100D000009C0F80161818B2D0E94231203C08B2D35
:100D10000E94FB110F90DF91CF911F910F91FF90D7
:100D2000EF90DF90CF90BF90AF900895DF92EF9259
:100D3000FF920F931F93CF93DF93182FD62EC82FB8
:100D4000D0E086E18C9FF0018D9FF00D1124E05FD3
:100D5000F94B81E0858382858F3F51F096E19C9F1E
:100D6000F0019D9FF00D1124E05FF94B8F5F8287AA
:100D700086E18C9FF0018D9FF00D1124E05FF94B0F
:100D800082858230A8F086E18C9FF0018D9FF00D66
:100D90001124E05FF94B838581110AC086E18C9FA5
:100DA000F0018D9FF00D1124E05FF94B81E0838706
:100DB0006D2D812F0E943503082F823008F0B3C0BB
:100DC0008CE18C9FF0018D9FF00D1124E25DFD4BB5
:100DD000E680F780802F90E0FC01EE0FFF1F880F68
:100DE000991F880F991F880F991FE80FF91FEE0DA3
:100DF000FF1D8081813051F018F0813101F140C038
:100E000041E06D2D812F0E94B3043AC06D2D812FDA
:100E10000E94BC0886E18C9FF0018D9FF00D11248B
:100E2000E05FF94B0280F381E02D61E080810E9458
:100E3000AC10682F812F0E943503082F21C086E156
:100E40008C9FF0018D9FF00D1124E05FF94B028023
:100E5000F381E02D808181110EC086E18C9FF0012D
:100E60008D9FF00D1124E05FF94B81E08783812F86
:100E70000E940F1205C04D2D63E0812F0E94BD1905
:100E8000023078F5E02FF0E0E450FB4B81E0808306
:100E90008CE18C9FF0018D9FF00D1124E25DFD4BE4
:100EA000838181111EC0802F90E0FC01EE0FFF1F97
:100EB000880F991F880F991F880F991FE80FF91F36
:100EC000EE0DFF1D25813681978180E008C0F90174
:100ED000E250FB4B4FEF40832F5F3F4F8F5F8917EF
:100EE000B0F38CE18C9FF0018D9FF00D1124E25D39
:100EF000FD4B8381811117C08CE18C9FF0018D9F88
:100F0000F00D1124E25DFD4B8081882311F08330C8
:100F100029F462E0812F0E94E40705C0813019F4B2
:100F2000812F0E94BA07DF91CF911F910F91FF90FF
:100F3000EF90DF900895623099F028F4662341F035
:100F4000613051F00895683090F0683069F008958C
:100F5000642F0E9480050895642F0E946203089503
:100F6000642F0E94960608950E94110308950E941E
:100F700009040895282F30E086E1829FD001839FE5
:100F8000B00D1124FD01E05FF94B46811682858189
:100F90005385A45EB94B9C91692F6170462B40FB31
:100FA00090F991FB442740F9842B80FB91F950FB89
:100FB00092F99C93818585878781882321F0FD01A3
:100FC000892F886080830895282F30E086E1829FF2
:100FD000F001839FF00D1124E05FF94B46811682EA
:100FE00085819785992311F051E001C050E096E189
:100FF000929FF001939FF00D1124DF01A05FB94B88
:101000001B967C911B97E45EF94B908170FB92F9E3
:10101000792F7170472B40FB90F991FB442740F9E1
:10102000842B80FB91F9908319968C9119971D96CA
:101030008C931D9717968C91882359F086E1829F97
:10104000F001839FF00D1124E45EF94B892F886035
:101050008083683059F086E1829FF001839FF00D14
:101060001124E45EF94B80818061808386E1829F58
:10107000F001839FF00D1124E45EF94B80818F7D98
:1010800050FB86F98F77808308951F93CF93DF936A
:1010900090E026E1289FF001299FF00D1124E05FE8
:1010A000F94B16812CE1289FF001299FF00D1124A6
:1010B000E25DFD4B428950E0623008F059C0289F44
:1010C000F001299FF00D1124E25DFD4B868197818F
:1010D00070E0FB01EE0FFF1F660F771F660F771F93
:1010E000660F771F6E0F7F1FFC01E60FF71F8081D1
:1010F000813091F53DC084E2849FF001859FF00D21
:101100001124E65BFD4BA089B189862F90E09C01FC
:10111000220F331F2A0F3B1FA289B389A80FB91FC3
:10112000E901E881F981E85DFF4B7081AC9121E034
:1011300030E00A2E02C0220F331F0A94E2F7812FFB
:1011400090E002C0880F991FAA95E2F72095272307
:10115000822B80836F5F01C060E084E2849FF00196
:10116000859FF00D1124E65BFD4B8685681718F20C
:10117000DF91CF911F910895CF92DF92EF92FF926E
:101180000F931F93CF93DF93182FC82FD0E00E94A7
:101190003503082F8F3F09F456C086E18C9FF0017C
:1011A0008D9FF00D1124E05FF94B0280F381E02D5B
:1011B00061E080810E94AC109CE19C9FF0019D9FAA
:1011C000F00D1124E25DFD4B46815781202F30E068
:1011D000F901EE0FFF1F220F331F220F331F220FC3
:1011E000331F2E0F3F1FFA01E20FF31FE084F1843B
:1011F00020E025C09CE19C9FD0019D9FB00D112453
:10120000A25DBD4B1A96CD90DC901B97F7014181F2
:101210005281FA01E20FF11D908115963C91E92F60
:10122000F0E0E31BF109EC0DFD1D9181891306C06F
:1012300041E0682F812F0E94B30405C02F5FF701A2
:1012400090812917B8F2DF91CF911F910F91FF90F4
:10125000EF90DF90CF9008950F931F93CF93DF937C
:10126000C82FD62F40E00E94B30486E1C89FF0014A
:101270001124E05FF94B0281138160E08D2F0E9401
:10128000AC10F8018083DF91CF911F910F910895E9
:10129000AF92BF92CF92DF92EF92FF920F931F9384
:1012A000CF93DF93CDB7DEB72D97CDBFDEBF082F2D
:1012B00010E09CE1909FF001919FF00D1124E25D00
:1012C000FD4BE288F12C94E3909FD001919FB00DEB
:1012D0001124A452BA4B5496CD90DC9055971B968E
:1012E000ED91FC911C97EE0FFF1FEE0FFF1FEE0F0D
:1012F000FF1FEC0DFD1D90819E3709F4D8C0D82E3C
:1013000084E28E9DD0018F9DB00D1124A65BBD4B54
:10131000AD90BC90D5018C91898383E08A838FE75F
:101320008B836C832D839FEF9E839F839887623B83
:1013300091F038F4603B09F479C0613B09F46BC06B
:10134000A5C0663B09F491C0673B09F496C0633BB6
:1013500009F09CC082C0413009F098C086E08A83C1
:10136000605C6B83211113C084E28E9DF0018F9D20
:10137000F00D1124E65BFD4B938184819C838D836A
:10138000958186819E838F83878188877FC0213066
:1013900099F484E28E9DF0018F9DF00D1124E65B9F
:1013A000FD4B80858C8381858D8382858E838385AB
:1013B0008F8385E08A836AC085E0E9E2F0E4DE019C
:1013C000199601900D928A95E1F7AE01475F5F4F44
:1013D000622F802F0E94351A89858C838A858D83A0
:1013E0008B858E838C858F838D85888785E010C063
:1013F000E82FF0E0319729E030E02C0F3D1FE20F9D
:10140000F31F90819F3F19F08F5F8A833FC0815007
:101410008111EECF3BC0D5018C91898381E08A8315
:1014200081EF8B838FEF8C838D8330C024E22E9DE0
:10143000C0012F9D900D1124865B9D4BDC011296FF
:101440008C9189838781F501808381E08A8380EF95
:101450008B838FEF8C838D8319C081E08A8383EF28
:101460008B838FEF8C838D8311C081E08A83605CD6
:101470006B838FEF8C838D8309C0413039F481E019
:101480008A83605C6B838FEF8C838D83BE016F5F7B
:101490007F4F8D2D0E944C1384E3809FF001819F2C
:1014A000F00D1124E452FA4B82E086A30AC084E3D3
:1014B000809FF001819FF00D1124E452FA4B81E0EE
:1014C00086A32D96CDBFDEBFDF91CF911F910F91E7
:1014D000FF90EF90DF90CF90BF90AF900895FF9274
:1014E0000F931F93CF93DF93CDB7DEB72897CDBF70
:1014F000DEBF082F10E09CE1909FF001919FF00D5E
:101500001124E25DFD4B228930E094E3909FD001ED
:10151000919FB00D1124A452BA4B54964D915C91F9
:1015200055971B96ED91FC911C97EE0FFF1FEE0F48
:10153000FF1FEE0FFF1FE40FF51F438191819F7086
:10154000923091F5423051F594E2929FF001939FD1
:10155000F00D1124E65BFD4B0190F081E02D9081B0
:1015600099836894FF24F1F8FA8290E59B834C8379
:101570009FEF9D839E839F839887BE016F5F7F4F00
:101580000E944C1384E3809FF001819FF00D112491
:10159000E452FA4BF6A2F09204400BC022E140E084
:1015A00060E10E94480905C023E140E060E10E943B
:1015B00048092896CDBFDEBFDF91CF911F910F91D3
:1015C000FF9008958F929F92AF92BF92CF92DF9239
:1015D000EF92FF920F931F93CF93DF93CDB7DEB7B8
:1015E0002897CDBFDEBF082F10E09CE1909FF0014F
:1015F000919FF00D1124E25DFD4B428950E094E390
:10160000909FF001919FF00D1124E452FA4B6489F0
:101610007589A385B485FD01EE0FFF1FEE0FFF1F37
:10162000EE0FFF1FE60FF71F918192959F7009F053
:1016300057C0248130E0322F22279581292B9381B6
:10164000923009F521306FEF3607E9F41092A3428A
:1016500094E2949FF001959FF00D1124E65BFD4B01
:101660000190F081E02D9081998395E09A8391E734
:101670009B8392E09C839FEF9D8321E02E8324E057
:101680002F83988736C1933009F033C121303F4F03
:1016900009F02FC194E2949FF001959FF00D112461
:1016A000E65BFD4B0190F081E02D9081998395E000
:1016B0009A8391E79B8393E09C839FEF9D8321E036
:1016C0002E8398879091A342913019F493E09F83E1
:1016D00010C1923011F49F830CC195E09F8309C122
:1016E000258130E0322F22279681292B9481913059
:1016F00049F52115EFEF3E0729F59091AC4299236A
:1017000009F4F7C021E030E02093B5443093B644AB
:1017100094E2949FF001959FF00D1124E65BFD4B40
:101720000190F081E02D9081998395E09A8391E773
:101730009B8391E09C839FEF9D831E8222E02F83F9
:101740009887D7C0933011F52115EFEF3E07F1F4DC
:101750001092B5441092B64494E2949FF001959F84
:10176000F00D1124E65BFD4B0190F081E02D90819E
:10177000998395E09A8391E79B8392E09C839FEF06
:101780009D831E8224E02F839887B3C0933091F508
:101790002115EFEF3E0771F594E2949FF001959FBC
:1017A000F00D1124E65BFD4B0190F081E02D90815E
:1017B000998395E09A8391E79B8393E09C839FEFC5
:1017C0009D831E8298872091B5443091B64421159F
:1017D000310519F495E09F838CC02130310519F44F
:1017E00093E09F8386C02230310509F082C092E0E9
:1017F0009F837FC0913009F07CC021303F4F09F0BA
:1018000078C01196AA0FBB1FAA0FBB1FAA0FBB1F40
:10181000A60FB71F1596CC901597D12CE12CF12C63
:10182000BC2CAA249924882416969C911697C92E1C
:10183000D12CE12CF12C7601DD24CC24C828D92828
:10184000EA28FB2817968C90912CA12CB12CBA2C4D
:10185000A92C982C8824C828D928EA28FB28C092CB
:10186000A442D092A542E092A642F092A74294E30D
:10187000909FF001919FF00D1124E452FA4B0584E2
:10188000F685E02DEE0FFF1FEE0FFF1FEE0FFF1F7F
:10189000E60FF71F9281C92AC092A442D092A542B6
:1018A000E092A642F092A742238130E0322F222715
:1018B0009481292B2093D9453093DA4591E0909378
:1018C000A34224E2249FF001259FF00D1124E65B42
:1018D000FD4B0190F081E02D2081298325E02A83B2
:1018E00021E72B839C832FEF2D839E8392E09F83A0
:1018F0002887BE016F5F7F4F0E944C1384E3809F57
:10190000F001819FF00D1124E452FA4B82E086A38E
:101910002896CDBFDEBFDF91CF911F910F91FF9031
:10192000EF90DF90CF90BF90AF909F908F900895F1
:101930008F929F92AF92BF92CF92DF92EF92FF92DF
:101940000F931F93CF93DF93CDB7DEB72897CDBF0B
:10195000DEBFE090AF42F090B042082F10E09CE173
:10196000909FF001919FF00D1124E25DFD4B2289C3
:1019700030E094E3909FF001919FF00D1124E45228
:10198000FA4B44895589A385B485AA0FBB1FAA0FBA
:10199000BB1FAA0FBB1FA40FB51F11969C911197D7
:1019A00092959F7009F426C19091AC42913009F054
:1019B00021C19091A242913009F01CC114969C90D3
:1019C00014971296EC9112970F2EFEEF8F2EF02D9A
:1019D0008E0EB090DB459B10E6C015969C91159736
:1019E000B7016F547D4BFB01908316969C9116971F
:1019F000B7016E547D4BFB019083B7016D5F7F4F44
:101A000017969C91D701AD54BD4B9C93A1E0B0E0DB
:101A100090E079C0981590F49F5F6D01CC0CDD1CAF
:101A2000CC0CDD1CCC0CDD1CC40ED51EF601A28036
:101A3000FB01EF54FD4BA0826F5F7F4F981590F430
:101A40009F5F6D01CC0CDD1CCC0CDD1CCC0CDD1CB7
:101A5000C40ED51EF601A380FB01EF54FD4BA082FE
:101A60006F5F7F4F981590F49F5F6D01CC0CDD1C6C
:101A7000CC0CDD1CCC0CDD1CC40ED51EF601A480E4
:101A8000FB01EF54FD4BA0826F5F7F4F981590F4E0
:101A90009F5F6D01CC0CDD1CCC0CDD1CCC0CDD1C67
:101AA000C40ED51EF601A580FB01EF54FD4BA082AC
:101AB0006F5F7F4F981590F49F5F6D01CC0CDD1C1C
:101AC000CC0CDD1CCC0CDD1CC40ED51EF601A68092
:101AD000FB01EF54FD4BA0826F5F7F4F981590F490
:101AE0009F5F6D01CC0CDD1CCC0CDD1CCC0CDD1C17
:101AF000C40ED51EF601A780FB01EF54FD4BA0825A
:101B00006F5F7F4F1196F4E3F09F6001F19FD00C5F
:101B10001124F601E452FA4BC584D684CA16DB06BA
:101B200008F078CFB394B092DB45482D50E0E40E36
:101B3000F51EE092AF42F092B0426091AD427091DA
:101B4000AE42460F571F4093AD425093AE42E11450
:101B5000F2E0FF0658F01092AF421092B04241E01E
:101B600050E04093B3445093B4441DC0052E000C84
:101B7000660B770BC090A842D090A942E090AA4291
:101B8000F090AB424C155D056E057F0560F042E0BC
:101B900050E04093B3445093B4441092AD4210923D
:101BA000AE421092DB4594E2929FD001939FB00D1C
:101BB0001124A65BBD4B0D90BC91A02D9C919983E7
:101BC0006894FF24F1F8FA8296E79B839C829FEF4A
:101BD0009D839E839F839887BE016F5F7F4F0E9486
:101BE0004C1384E3809FF001819FF00D1124E45297
:101BF000FA4BF6A22896CDBFDEBFDF91CF911F91A1
:101C00000F91FF90EF90DF90CF90BF90AF909F909B
:101C10008F900895FF920F931F93CF93DF93CDB7CB
:101C2000DEB72897CDBFDEBF082F10E09CE1909F64
:101C3000F001919FF00D1124E25DFD4B228930E00F
:101C400094E3909FD001919FB00D1124A452BA4B00
:101C500054964D915C9155971B96ED91FC911C9774
:101C6000EE0FFF1FEE0FFF1FEE0FFF1FE40FF51F1C
:101C7000918192959F7009F058C09381913169F5D7
:101C800094E2929FF001939FF00D1124E65BFD4BCF
:101C90000190F081E02D9081998396E09A8397E6F8
:101CA0009B8391E19C83E0E0F0E490819D839181AE
:101CB0009E8392819F8393819887BE016F5F7F4F40
:101CC0000E944C1384E3809FF001819FF00D11244A
:101CD000E452FA4B82E086A328C0923131F5948118
:101CE000278130E0290F311D25303105F1F491E0D5
:101CF0009093AC426894FF24F1F8FA8297E69B83B4
:101D000092E19C839FEF9D839E839F839887BE0172
:101D10006F5F7F4F0E944C1384E3809FF001819F8F
:101D2000F00D1124E452FA4BF6A22896CDBFDEBF87
:101D3000DF91CF911F910F91FF9008958F929F9205
:101D4000AF92BF92EF92FF920F931F93CF93DF93C7
:101D5000CDB7DEB72897CDBFDEBF282F30E09CE19E
:101D6000929FF001939FF00D1124E25DFD4B42899B
:101D700050E094E3929FF001939FF00D1124E45200
:101D8000FA4B648975890384F485E02DEE0FFF1FFB
:101D9000EE0FFF1FEE0FFF1FE60FF71F91819295C9
:101DA0009F7009F465C094E3929FF001939FF00D3A
:101DB00011249F0124523A4B7901D9011D96ED91CE
:101DC000FC911E97EE0FFF1FEE0FFF1FEE0FFF1F80
:101DD000E60FF71F048110E020E030E0B02EAA24C7
:101DE000992488249581092F10E020E030E09801A3
:101DF00011270027082919292A293B298680912C97
:101E0000A12CB12CBA2CA92C982C8824082919298A
:101E10002A293B299781092B0093A8421093A942B4
:101E20002093AA423093AB4291E09093A24294E275
:101E3000949FF001959FF00D1124E65BFD4B0190FE
:101E4000F081E02D9081998394E09A8394E79B83BD
:101E500090E29C831D8290E49E839FEF9F839887EE
:101E6000BE016F5F7F4F0E944C1382E0F70186A393
:101E70002896CDBFDEBFDF91CF911F910F91FF90CC
:101E8000EF90BF90AF909F908F900895FF920F9327
:101E90001F93CF93DF93CDB7DEB72897CDBFDEBFBB
:101EA000082F10E09CE1909FF001919FF00D11240C
:101EB000E25DFD4BE28994E2E99FF0011124E65BCB
:101EC000FD4B0190F081E02D908199836894FF246F
:101ED000F1F8FA8297E79B831C829FEF9D839E8394
:101EE0009F8398871092A242BE016F5F7F4F0E942E
:101EF0004C1384E3809FF001819FF00D1124E45284
:101F0000FA4BF6A22896CDBFDEBFDF91CF911F918D
:101F10000F91FF90089581E090E08093B1449093F9
:101F2000B2440895CF92DF92EF92FF920F931F93E6
:101F3000CF93DF93C82FD0E09CE19C9FD0019D9F61
:101F4000B00D1124A25DBD4B52960C9110E094E2AD
:101F5000909FD001919FB00D1124A65BBD4B909630
:101F6000ED90FC9091979296CD90DC90939790E0B5
:101F70000FC0292F30E0D701A20FB31F4C91461399
:101F800006C0F601E20FF31F91E090830EC09F5F41
:101F900034E2309FD001319FB00D1124A65BBD4BC0
:101FA0005F963C91931728F390E0992301F1462F17
:101FB00050E0FA017097E832F10560F5EE5AFF4FF4
:101FC0000C94961F0E946F0A25C00E948B0F22C09E
:101FD0000E940A0E1FC00E94E20A1CC00E949E0EB0
:101FE00019C00E94980C16C00E94460F13C021E130
:101FF00040E00E94480984E38C9FF0018D9FF00D22
:102000001124E452FA4B1786108A118A8585968529
:1020100083879487DF91CF911F910F91FF90EF906D
:10202000DF90CF9008954F925F926F927F928F9240
:102030009F92AF92BF92EF92FF920F931F93CF9315
:10204000DF931F92CDB7DEB7DA011F96EC901F9792
:102050001982FB01EA56FD4BF0802F2D30E051969E
:10206000EC914E2E512CBDE04B16510408F064C08B
:102070008A014B015C01F201E658FF4F0C94961F58
:102080004E2D60E08F2D0E949B0756C04E2D63E0C1
:102090008F2D0E949B0750C04E2D61E08F2D0E9416
:1020A0009B074AC04E2D62E08F2D0E949B0744C0C3
:1020B0004E2D65E08F2D0E949B073EC04E2D66E0A1
:1020C0008F2D0E949B0738C04E2D64E08F2D0E94FB
:1020D0009B0732C0F901E295F295F07FFE27E07F81
:1020E000FE27EE53FB4B8685978546E1429FF00124
:1020F000439FF00D1124E05FF94B818B928B1CC044
:10210000F901EF53FB4B81E0808316C0FA01878908
:10211000882391F0AE014F5F5F4FC501B4010E946B
:10212000ED1DD80116969C918981891728F44E2DB2
:1021300067E08F2D0E949B070F90DF91CF911F9139
:102140000F91FF90EF90BF90AF909F908F907F90F6
:102150006F905F904F9008950E94561A08953F9295
:102160004F925F926F927F928F929F92AF92BF92A7
:10217000EF92FF920F931F93CF93DF93CDB7DEB70C
:102180002697CDBFDEBF082F10E09801220F331F26
:10219000C801880F991F880F991F880F991F820FF8
:1021A000931F89549B4B26E1209FF001219FF00D46
:1021B0001124E05FF94B82839383F801EE0FFF1F38
:1021C000EE0FFF1FEE56FD4B80809180A280B38002
:1021D0008CE1809FF001819FF00D1124E25DFD4BA9
:1021E000E488F588F7018581882309F444C0F80163
:1021F000EE0FFF1FEE52FB4B88E290E0808391834D
:10220000FF24F39434C08F2D90E09C0121503109BC
:1022100029833A830196880F991FDC01AA0FBB1FFF
:10222000AA0FBB1FAA0FBB1FA81BB90B20E432E4E7
:102230004FE050E00E94AE1F20E83FE442E150E052
:102240000E94741F2F5F3F4FC801880F991F880F8E
:10225000991F880F991F49815A81480F591F440FB0
:10226000551F4E535B4BFA0120833183F394F8E002
:10227000FF1548F666C0F701208131814281538104
:10228000A4EFB1E00E94AE1F9B01AC0160E871E5D4
:1022900086ED92E00E94741F2F5F3F4FF801EE0F12
:1022A000FF1FEE52FB4B208331833324339445C010
:1022B000832D90E09C01215031092D833E83F7014D
:1022C00040805180628073800196880F991FDC01E5
:1022D000AA0FBB1FAA0FBB1FAA0FBB1FA81BB90BBE
:1022E00020E432E44FE050E00E94AE1F69837A831D
:1022F0008B839C83A4EFB1E0A30192010E94AE1FE7
:102300009B01AC0169817A818B819C810E94741F41
:102310002F5F3F4FC801880F991F880F991F880FA3
:10232000991F4D815E81480F591F440F551F4E5311
:102330005B4BFA01208331833394F8E0F31508F006
:10234000B7CFF801E295F295F07FFE27E07FFE27F8
:10235000EE53FB4B8685978526E1209FD001219F78
:10236000B00D1124A05FB94B51968D939C93529759
:102370008CE1809FF001819FF00D1124E25DFD4B07
:102380008485958553968D939C9354978EE1809F79
:102390009001819F300D11242C523B4B448955896B
:1023A000C501B4010E94AC1B89839A83892B51F427
:1023B00043E150E1C501B4010E94721CF801EF53E2
:1023C000FB4B108281E029813A81232B09F480E0C4
:1023D0002696CDBFDEBFDF91CF911F910F91FF9069
:1023E000EF90BF90AF909F908F907F906F905F9095
:1023F0004F903F900895E82FF0E0EE0FFF1FEE0F93
:10240000FF1FEE56FD4B60817181828193810E9496
:10241000601C892B11F480E008958FEF0895E82F58
:10242000F0E0EE0FFF1FEE0FFF1FEE56FD4B608139
:102430007181828193810E94531C892B11F480E069
:1024400008958FEF0895CF92DF92EF92FF920F934E
:102450001F93CF939FEF960F9830B0F5C62F90E063
:1024600026E1289FF001299FF00D1124E05FF94B30
:1024700002811381DC01AA0FBB1FAA0FBB1FAE563E
:10248000BD4BCD90DD90ED90FC906483E62FF0E0A5
:102490003197880F991F880F991F880F991FE80F90
:1024A000F91FEE0FFF1FEE53FB4B2081318140E0FF
:1024B00050E0C701B6010E94DF1D2C2FA801C70103
:1024C000B6010E94011D02C081E090E0892B11F449
:1024D00080E001C08FEFCF911F910F91FF90EF909F
:1024E000DF90CF900895CF92DF92EF92FF921F93EB
:1024F000CF93DF93C82FD0E0FE01EE0FFF1FEE0F4A
:10250000FF1FEE56FD4BC080D180E280F3808FEF3D
:10251000860F883048F5162FE62FF0E03197CE0170
:10252000880F991F880F991F880F991FE80FF91FAF
:10253000EE0FFF1FEE53FB4B2081318140E050E056
:10254000C701B6010E94DF1D86E18C9FF0018D9FBF
:10255000F00D1124E05FF94B42815381212FC70117
:10256000B6010E944C1D02C081E090E0892B11F45D
:1025700080E001C08FEFDF91CF911F91FF90EF902E
:10258000DF90CF900895482F50E08CE1849FF001B8
:10259000859FF00D1124E25DFD4B228D338D273098
:1025A000310548F1F90135979F01ABEABAEA0E947B
:1025B0009F1F96958795969587959C01220F331FAF
:1025C000820F931F880F991FE817F90749F49F019D
:1025D0000E949F1F969587959695879501960DC0A9
:1025E0009F01ABEABAEA0E949F1F96958795969540
:1025F0008795029602C081E090E02CE1249FD001F3
:10260000259FB00D1124A25DBD4B56962D913C9196
:10261000579764E3649FF001659FF00D1124E45225
:10262000FA4B2187328758962D913C915997248BEC
:10263000358B9A01220F331F220F331F420F531F76
:102640004E505B4B42A353A387839087828B938B1F
:10265000108211821282138285E084831582168291
:1026600013861486158616861786108A118A82E0CC
:10267000868B818F148E158E168E15A214A212A62B
:10268000178E10A211A291E096A383A717A210A6FD
:1026900011A615A614A60895282F30E09CE1929F5C
:1026A000F001939FF00D1124E25DFD4B9381911198
:1026B00028C09CE1929FF001939FF00D1124E25DF0
:1026C000FD4B908191111DC09CE1929FF001939F61
:1026D000F00D1124E25DFD4BE28994E2E99FF001E7
:1026E0001124E65BFD4B438D548D94E3929FF001E2
:1026F000939FF00D1124E452FA4B40A351A391E0B3
:10270000978F94E3929FA001939F500D1124445200
:102710005A4BFA0192A59F5F92A720E00E940B16E8
:10272000089594E3899FA001112449515A4B21E057
:102730000E943D19089524E3829FC0011124FC01E9
:10274000E452FA4B8785089590E024E3289FF00136
:10275000299FF00D1124E452FA4B278D223059F5B0
:1027600024E3289FF001299FF00D1124E452FA4B35
:1027700020A131A1A9014150510940A351A3232B0C
:10278000D1F426E1289FF001299FF00D1124E05F8C
:10279000F94B108A24E3289FF001299FF00D1124A2
:1027A000E452FA4B23E023A725E0268B14A615A6B6
:1027B000178E21E026A324E3289FF001299FF00D26
:1027C0001124E452FA4B278D213049F524E3289F48
:1027D000F001299FF00D1124E452FA4B20A131A100
:1027E000A9014150510940A351A3232BC1F426E173
:1027F000289FF001299FF00D1124E05FF94B108A0A
:1028000024E3289FF001299FF00D1124E452FA4B94
:1028100083E083A784E0818F178E81E086A30895EB
:1028200090E06C3361F524E3289FF001299FF00DBF
:102830001124E452FA4B23E0268B12A62CE1289FA8
:10284000F001299FF00D1124E25DFD4B2081211143
:102850000BC024E3289FF001299FF00D1124E452BE
:10286000FA4B22E0278735C024E3289FF001299FF7
:10287000F00D1124E452FA4B27E027872AC024E305
:10288000289FF001299FF00D1124E452FA4B23E018
:10289000218F2CE1289FF001299FF00D1124E25D8A
:1028A000FD4B208121110BC024E3289FF001299FBB
:1028B000F00D1124E452FA4B26E024830AC024E3ED
:1028C000289FF001299FF00D1124E452FA4B27E0D4
:1028D000248324E3289FF001299FF00D1124E45262
:1028E000FA4B83E083A7178E089590E024E3289F96
:1028F000F001299FF00D1124E452FA4B10A611A605
:1029000025813681232B19F524E3289FF001299F87
:10291000F00D1124E452FA4B178E22E0218F21E0B2
:1029200023A72CE1289FF001299FF00D1124E25DDF
:10293000FD4B238121113EC024E3289FF001299FF4
:10294000F00D1124E452FA4B81E086A308952CE1A6
:10295000289FF001299FF00D1124E25DFD4B23819A
:10296000211128C02CE1289FF001299FF00D11248E
:10297000E25DFD4B208121111DC02CE1289FF0015B
:10298000299FF00D1124E25DFD4BE28924E2E29FD4
:10299000F0011124E65BFD4B238D348D44E3489F09
:1029A000F001499FF00D1124E452FA4B20A331A30A
:1029B00081E0878F08950F931F93CF93C82F082F1F
:1029C00010E084E3809FF001819FF00D1124E45218
:1029D000FA4B15821682108211821282138285E0D0
:1029E00084838C2F0E949B13813011F0833019F562
:1029F00084E3809FD001819FB00D1124A452BA4B73
:102A000054968D919C9155971B96ED91FC911C9736
:102A1000EE0FFF1FEE0FFF1FEE0FFF1FE80FF91F56
:102A2000818182958F70813011F4638101C0628150
:102A30008C2F0E94920FCF911F910F9108959F921A
:102A4000AF92BF92CF92DF92EF92FF920F931F93BC
:102A5000CF93DF93CDB7DEB72897CDBFDEBFA82ECB
:102A6000B12C94E39A9DF0019B9DF00D1124E4524A
:102A7000FA4BE6A4F7A4C0A8D1A802A913A9978588
:102A8000992309F4B9C0982EBE016F5F7F4F8A2D3C
:102A90000E9491138CE18A9DF0018B9DF00D112411
:102AA000E25DFD4B8381882319F08981F6018083E3
:102AB0008A81982F92959F7019F0913021F191C0E1
:102AC0008F7090E0F8014081518180839183481795
:102AD000590708F0AC018B81F701808381E090E019
:102AE0000EC0D701A80FB91FFC01329621E030E0DB
:102AF0002C0F3D1FE20FF31F20812C9301968417AA
:102B0000950778F36EC08F7090E0982F88272B81FF
:102B1000820F911DF801C080D18080839183C816F7
:102B2000D90608F06C018C81F701808381E090E088
:102B30000EC0D701A80FB91FFC01339621E030E089
:102B40002C0F3D1FE20FF31F20812C93019685303F
:102B5000910578F335E0C31AD10805E010E01EC0F6
:102B6000BE016F5F7F4F892D0E94911322E030E0FC
:102B70000FC0D701A00FB11FE1E0F0E0EC0FFD1F87
:102B8000E20FF31F90819C930F5F1F4F2F5F3F4F0A
:102B90002830310570F386E0C81AD108E7E0CE1678
:102BA000D104F0F6C114D104E1F0BE016F5F7F4F94
:102BB000892D0E94911380E090E010C0D701A00FF2
:102BC000B11FFC01329621E030E02C0F3D1FE20FD7
:102BD000F31F20812C930F5F1F4F01968C159D05CD
:102BE00068F384E38A9DF0018B9DF00D1124E4527B
:102BF000FA4B14A682E0868B2896CDBFDEBFDF910C
:102C0000CF911F910F91FF90EF90DF90CF90BF90E9
:102C1000AF909F900895CF93DF93FA01C185D2853D
:102C200045815681878190854817590708F05FC014
:102C3000DB014C914E3771F4A081B181AA0FBB1F0B
:102C4000AA0FBB1FAA0FBB1FAC0FBD1F3C913E3785
:102C500009F44DC03481353011F0311108C0211113
:102C600003C084E084831EC081E084831BC04E3790
:102C700071F421110CC020813181232B11F4808348
:102C80009183808191810197808391830BC0228100
:102C900033812F5F3F4F228333838217930711F4D1
:102CA0001282138250E015C082819381880F991F90
:102CB000880F991F880F991F8C0F9D1F252F30E0BB
:102CC000DB01A20FB31F4C91DC01A20FB31F4C9389
:102CD0005F5F583048F3858196810196858396839E
:102CE000278130858217930710F083E08483DF917A
:102CF000CF910895FF920F931F93CF93DF93082FE7
:102D000010E096E1909FF001919FF00D1124E05F9B
:102D1000F94BA281B38111969C9111979F709730C6
:102D200008F050C094E3909FF001919FF00D1124A2
:102D3000E452FA4B178E91E093A7138614861586FA
:102D40001686108A118A17869C919E3759F494E34F
:102D5000909FF001919FF00D1124E452FA4B96E000
:102D600096A30AC094E3909FF001919FF00D112467
:102D7000E452FA4B95E096A3F82E84E3809FE0019D
:102D8000819FD00D1124AE0149515A4B21E0BD0164
:102D90008F2D0E940B16C452DA4B81E08DA38CA3B9
:102DA0008F2D0E94DB148CA5882319F08F2D0E9493
:102DB0001F1584E3809FF001819FF00D1124E452E0
:102DC000FA4B15A6DF91CF911F910F91FF900895B7
:102DD0000F931F93CF93DF93082F10E096E1909FFE
:102DE000F001919FF00D1124E05FF94B0280F38117
:102DF000E02DC181CF70D0E0DC2FCC279281C90FAC
:102E0000D11DC730D10508F4B7C09CE1909FD00117
:102E1000919FB00D1124A25DBD4B5A962D913C910E
:102E20005B972C173D0708F4A7C0909FD001919F96
:102E3000B00D1124A25DBD4B13969C91911139C028
:102E400094E3909FD001919FB00D1124A452BA4BEE
:102E500095E096969C939CE1909FD001919FB00D38
:102E60001124A25DBD4B9C91911123C09CE1909FC8
:102E7000D001919FB00D1124A25DBD4B5296AC9133
:102E800094E2A99FD0011124A65BBD4B5D962D91C4
:102E90003C915E9794E3909FD001919FB00D1124D7
:102EA000A452BA4B90962D933C93919792E05F96E3
:102EB0009C9394E3909FA001919F500D1124DA01FF
:102EC000A452BA4B1B961D921C921C971D961D92E4
:102ED0001C921E9750961D921C9251971F961C9201
:102EE00049515A4B21E0BF010E940B1625979E01C4
:102EF000ABEABAEA0E949F1F9695879596958795AB
:102F00009C01220F331F820F931F880F991FC81730
:102F1000D90789F49E010E949F1F969587959695E3
:102F2000879594E3909FF001919FF00D1124E45256
:102F3000FA4B84A313C09E01ABEABAEA0E949F1F1A
:102F400096958795969587958F5F94E3909FF0016E
:102F5000919FF00D1124E452FA4B84A384E3809FE7
:102F6000F001819FF00D1124E452FA4B81E085A31A
:102F700013A685A710A611A6DF91CF911F910F91DF
:102F80000895EF92FF921F93CF93DF93182FC82FCE
:102F9000D0E086E18C9FF0018D9FF00D1124E05F61
:102FA000F94BA281B3818CE18C9FF0018D9FF00DD4
:102FB0001124E25DFD4B808181111DC08CE18C9F4D
:102FC000F0018D9FF00D1124E25DFD4BE28924E2BA
:102FD000E29FF0011124E65BFD4B858D968D24E385
:102FE0002C9FF0012D9FF00D1124E452FA4B80A389
:102FF00091A382E0878F11968C9111978F7094E343
:103000009C9FF0019D9FF00D1124E452FA4B95A175
:1030100089132DC09F5F84E38C9FF0018D9FF00D7D
:103020001124E452FA4B95A3903140F08C9FF001AB
:103030008D9FF00D1124E452FA4B15A284E38C9F6E
:10304000A0018D9F500D1124CA0184529A4B7C011E
:10305000FC0184A1815084A349515A4B21E0BD0158
:10306000812F0E940B1685E0F70186A322C084E31E
:103070008C9FF0018D9FF00D1124E452FA4B84A532
:10308000882349F084E38C9FF0018D9FF00D11247B
:10309000E452FA4B14A684E38C9FF0018D9FF00D4F
:1030A0001124E452FA4B15A686E0868B178E81E038
:1030B00086A384E38C9FF0018D9FF00D1124E452D0
:1030C000FA4B84A1811117C07F01178E81E083A77D
:1030D000812F0E94DB14F70184A5882319F0812F2A
:1030E0000E941F1584E38C9FF0018D9FF00D112429
:1030F000E452FA4B15A6DF91CF911F91FF90EF900C
:103100000895282F30E09CE1929FF001939FF00DED
:103110001124E25DFD4B9381911111C094E3929FC4
:10312000F001939FF00D1124E452FA4B12A695E0A2
:103130009483158216822281338120833183FB019F
:10314000918192959F70913039F018F0923039F05A
:1031500008950E947A1608950E94E81608950E9424
:10316000C1170895282F30E096E1929FF001939FB8
:10317000F00D1124E05FF94BA281B3819CE1929F95
:10318000F001939FF00D1124E25DFD4B438141114D
:103190003DC0929FF001939FF00D1124E25DFD4B25
:1031A000628970E09C9152E8590F523028F154E244
:1031B000569FF001579FF00D1124E65BFD4B0190E7
:1031C000F081E02D5081951729F012965C911297AD
:1031D000503BA1F454E2569FF001579FF00D11248B
:1031E000E65BFD4B5281951759F012969C91129710
:1031F000903B41F090E007C090E005C091E003C033
:1032000090E001C091E0592F517001C050E011963B
:103210009C91119792959F7041110EC0511102C05F
:10322000933050F084E3829FF001839FF00D1124CE
:10323000E452FA4B12A6089544E3429FF001439FE3
:10324000F00D1124E452FA4B46A1453011F0423002
:1032500019F44C914E3781F044E3429FF001439FB3
:10326000F00D1124E452FA4B23A5233011F49230CF
:1032700019F0BD010E94811808950F931F93CF93F9
:10328000DF93EA0149855A858D819E81892BD1F191
:103290000881198130E013C0832F90E0DB01A80F73
:1032A000B91FF801EE0FFF1FEE0FFF1FEE0FFF1FFC
:1032B000E40FF51FE80FF91F80818C933F5F3830D2
:1032C00058F38D819E8101978D839E83892B39F4DC
:1032D000211103C085E08C8315C01C8213C021110D
:1032E00003C084E08C8302C081E08C838881998153
:1032F0000196888399832F8138858217930711F46B
:1033000018821982DF91CF911F910F910895CF9369
:10331000DF93282F30E094E3929FA001939F500DFC
:10332000112444525A4B96E1929FE001939FD00D95
:103330001124C05FD94B6A817B8120E00E943D1936
:1033400088E08C83DF91CF910895282F30E094E3BB
:10335000929FA001939F500D112444525A4B96E125
:10336000929FF001939FF00D1124E05FF94B628171
:10337000738120E00E943D1908950F931F93E62F5B
:10338000682F70E00E2F10E00830110508F061C0C2
:10339000F801E957FF4F0C94961F84E3869FF001D4
:1033A000879FF00D1124E452FA4B8689813009F091
:1033B00052C084E3869FF001879FF00D1124E452F0
:1033C000FA4B85A5811149C084E3869FF001879F50
:1033D000F00D1124E452FA4B81E084A780E042C052
:1033E0000E94871980E03EC094E3969FF001979F6A
:1033F000F00D1124E452FA4B92A5992381F124E3B4
:10340000269FF001279FF00D1124E452FA4B23A5CB
:10341000233039F124E3269FF001279FF00D11247A
:10342000E452FA4B915092A70E94A51980E01AC06D
:103430000E94751480E016C00E94B21880E012C08D
:10344000642F0E94101480E00DC00E94A41380E03D
:1034500009C080E007C080E005C080E003C081E0D3
:1034600001C081E01F910F9108952CE1829FC0015E
:103470001124FC01E25DFD4B8381811113C0603298
:1034800099F481E0860FFA01808382E0860F8183C0
:1034900083E0860F828384E0860F83836B5F64837F
:1034A00084E5089583E5089583E50895CF93DF9338
:1034B000282F30E0E901D595C795A9015595479585
:1034C00055954795F901F595E795F595E795F595A6
:1034D000E795F595E7959C2F982749274E2741704A
:1034E0004295440F440F407CD901B595A795B595F9
:1034F000A795B595A7953595279535952795359534
:10350000279535952795359527959C2F9A279E27A2
:10351000922791709095979599279795242F292B0D
:10352000613031F4982F907C921304C08F7303C0E4
:10353000822B01C08FEFDF91CF910895FC014C33B6
:1035400041F04D3749F04E3F51F04F3B59F050E0BC
:1035500016C040E050E013C040E050E010C040E032
:1035600050E00DC040E050E00AC08191480F511D6D
:103570004F3F510519F010F04F5F51096150611133
:10358000F4CF842F809508951F93CF93DF939B01F1
:10359000220F331FF901EB52FA4BC081D181F9019F
:1035A000EF52FA4B0190F081E02D2D815C81322F9A
:1035B000351B313029F42F81241304C0A0E003C04F
:1035C000A0E001C0A1E02A2F2170A881B9811C913F
:1035D000411721F0313021F440E003C040E001C048
:1035E00041E0342F317011F4222339F029E0298B86
:1035F0002B85211109C0188608C01196A883B983AC
:103600005F5F5C8321E001C020E0222351F12C8127
:103610003D812317A0F48D8190E0821B91090197D1
:1036200039F40280F381E02DCE010796099519C087
:103630000280F381E02D88819981099512C02BE0E9
:10364000298B2AE02A8BED85FE85309711F0AE019B
:1036500009958B85811105C01886198A82E08A8BAD
:103660001A86DF91CF911F910895CF92DF92EF924A
:10367000FF921F93CF93DF939B01220F331FF9011A
:10368000ED52FA4B0190F081E02DD901AB52BA4BCB
:10369000CD91DC912A89263059F52481211128C049
:1036A000142F6B017C0161E0842F0E94561A8F87D2
:1036B000188B8F3FA9F086E0898B8C85882331F0A9
:1036C00087E08A8B81E08A87898712C01A86ED8518
:1036D000FE85309769F0AE01C701B601099508C0B3
:1036E00087E0898BED85FE85AE01C701B60109959E
:1036F000DF91CF911F91FF90EF90DF90CF900895D1
:103700000F93CF93DF93EA01402F660F771FFB01E2
:10371000ED52FA4B0190F081E02DA085B1855285E4
:103720005F3F79F0109749F40FC0FD01E90FF11DDB
:103730003081431741F09F5F01C090E09517A8F3D7
:1037400003C040E001C040E0622FCE010E949E1AFB
:10375000DF91CF910F910895F901660F771FDB017B
:10376000AB52BA4B2D933C93DB01AD52BA4B4D9308
:103770005C93DB01AF52BA4B89E090E48D939C934C
:1037800082E0828B10861186128614861386178A31
:10379000138A148A158A168A80E090E00895660FCD
:1037A000771FFB01EB52FA4B0190F081E02D118A5B
:1037B00082E0828B128680E090E00895CF92DF92C3
:1037C000EF92FF920F93CF93DF93FB01EE0FFF1F5A
:1037D000EB52FA4BC081D1812E8130E05C81E52F24
:1037E000F0E03196E217F30750F4EA81FB81408361
:1037F0002A813B812F5F3F4F2A833B8308C02E8164
:1038000030E0251B31092130310509F44F832C812B
:1038100031E0320F3C832E8132133DC06B017C01BD
:103820008E8190E001974A815B81481B590B4A8346
:103830005B832E8121500889C701B6010E94801B3D
:103840009F81891319C08CE0898B88E08A8BED8574
:10385000FE85309721F0AE01C701B60109958C8530
:10386000811119C01A8619868A898130A1F0C70191
:10387000B6010E94CF1B0FC08AE0898BED85FE85C3
:10388000309721F0AE01C701B60109951986C7012D
:10389000B6010E94CF1BDF91CF910F91FF90EF9067
:1038A000DF90CF900895660F771FFB01EB52FA4B24
:1038B0000190F081E02D81E0828B80E090E008951E
:1038C000CF93DF93FB01EE0FFF1FEB52FA4BC0814A
:1038D000D1810E94CF1B1886198680E090E0DF918D
:1038E000CF910895660F771FFB01EB52FA4B0190C1
:1038F000F081E02D85859685458756870895CF927E
:10390000DF92EF92FF92CF93DF931F92CDB7DEB796
:103910006B017C01CB01880F991FFC01ED52FA4B22
:1039200020813181FC01EB52FA4BA081B181FC0175
:10393000EF52FA4B608171814130D9F4F9018481F1
:10394000811157C081E01A968C931A9784E05196A2
:103950008C93519786E052968C93DB01ED91FC910C
:10396000CE01019609954981C701B6010E94351B18
:1039700040C041112AC052968C91873039F018F41A
:103980008430B8F51BC0893069F018C0DB01ED91B7
:10399000FC91CE01019609954981C701B6010E94AB
:1039A000DE1B27C0DB01ED91FC91CE01019609954C
:1039B0004981C701B6010E94C41A1BC0DB01ED9109
:1039C000FC91CE010196099514C04F3F91F485E01A
:1039D00051968C9351971D96ED91FC911E973097BF
:1039E00021F0AD01C701B6010995C701B6010E94DA
:1039F000CF1B0F90DF91CF91FF90EF90DF90CF9092
:103A00000895CF92DF92EF92FF920F931F93CF937F
:103A1000DF93FB01EE0FFF1FDF01AB52BA4BCD91DD
:103A2000DC91EF52FA4BC080D180EA893FEF320F30
:103A3000383008F5E13011F13A85311122C0122FEA
:103A40007A0108890E94801B8F83E882F98221E035
:103A5000210F2D831C8289E08A8B198A81E08A8755
:103A60008887D6011296ED91FC911397C7010995AD
:103A700080E090E008C081E090E005C081E090E047
:103A800002C082E090E0DF91CF911F910F91FF90F3
:103A9000EF90DF90CF900895660F771FFB01EB52F8
:103AA000FA4B0190F081E02D92898FEF820F8830E0
:103AB000A0F49130A9F08285811115C0428353830F
:103AC0002F5F2683148287E0828B118A81E08287B0
:103AD0008187148680E090E0089581E090E0089569
:103AE00081E090E0089582E090E00895CF92DF9227
:103AF000EF92FF92CF93DF936B017C01FB01EE0FFE
:103B0000FF1FEB52FA4BC081D1818A89873051F176
:103B1000893009F04DC08B899C89AD89BE89892B7C
:103B20008A2B8B2B99F481E08F8B8B85811140C080
:103B3000ED85FE85309721F0AE01C701B6010995EC
:103B40001886C701B6010E94CF1B32C08B899C89A1
:103B5000AD89BE890197A109B1098B8B9C8BAD8B77
:103B6000BE8B26C08B899C89AD89BE89892B8A2B07
:103B70008B2B99F481E08F8B8C85811119C0ED8599
:103B8000FE85309721F0AE01C701B601099519866F
:103B9000C701B6010E94CF1B0BC08B899C89AD89E0
:103BA000BE890197A109B1098B8B9C8BAD8BBE8B14
:103BB000DF91CF91FF90EF90DF90CF900895660F47
:103BC000771FFB01EB52FA4B0190F081E02D178A31
:103BD000238B348B458B568B0895660F771FFB0123
:103BE000EB52FA4B0190F081E02D86819481891B84
:103BF000DA018C939189911108C0882349F0878953
:103C0000811109C082E090E0089580E090E008957D
:103C100080E090E0089583E090E00895109289009C
:103C200080E0089544E268ED88E690E00E944B1F32
:103C300080E00895789480E0089580E008C0E82F3F
:103C4000F0E0E05FFB4F9081986090838F5F883059
:103C5000B0F380E008C0E82FF0E0E05BFB4F90811C
:103C6000986090838F5F8830B0F380E008C0E82FC1
:103C7000F0E0E059FB4F9081986090838F5F88302F
:103C8000B0F380E008C0E82FF0E0E055FB4F9081F2
:103C9000986090838F5F8830B0F3089580B18D7FF6
:103CA00080B9E1E1F4E08081877F808381B18E7FFC
:103CB00081B980B1816080B90E945E1F08950E9421
:103CC000521F08950E947C1E08950E941D1E85B3F8
:103CD000826085BB84B3826084BB0E94121E0E94F6
:103CE0004E1E0E94501F0E941A1E0E945F1E0E94BC
:103CF000621E0E940E1E089581E08093011080E0F4
:103D000008959C5EFC01808108951F93CF93DF93FB
:103D1000EC01162F809102108370E1F743E16DE909
:103D200080E090E10E944B1FDC5E188340E06DE96B
:103D300080E090E10E944B1F80E0DF91CF911F91C6
:103D400008950F9200903B000F920A01FB018093AF
:103D50003B00E89511240F9000923B000F900895CE
:103D60008BBFFB0187910895CF92DF92EF92FF9274
:103D70006B017C01809102108370E1F748E06DE9EE
:103D800080E090E10E944B1F40E050E0C701B60187
:103D90000E94A11E40E06DE980E090E10E944B1F6F
:103DA00080910210807711F081E001C080E0FF90E7
:103DB000EF90DF90CF9008958F929F92AF92BF9235
:103DC000CF92DF92EF92FF920F931F93CF93DF93E7
:103DD0006B017C01DC01CB019170AA27BB27892BE9
:103DE0008A2B8B2B09F047C0809102108370E1F77A
:103DF0008A0148E06DE980E090E10E944B1F40E0BD
:103E000050E0C701B6010E94A11E8091021080FD02
:103E1000FCCF40E06DE980E090E10E944B1F42E062
:103E20006DE980E090E10E944B1FC0E0D0E013C03C
:103E3000CE01880F991FF801E80FF91F40815181C9
:103E400046015701880E991EA11CB11CC501B40181
:103E50000E94A11E2196CF3FD10551F348F340E0C7
:103E60006DE980E090E10E944B1F80910210807705
:103E700021F081E003C081E001C080E0DF91CF91BB
:103E80001F910F91FF90EF90DF90CF90BF90AF9078
:103E90009F908F9008951BBEFC0164BF40830895DE
:103EA00080E00895E0E0FAE081E082878BED95E024
:103EB00086A397A387E0808380E00895E0E0F8E0A0
:103EC00088E893E18087918784E8858386EC868300
:103ED00080E0089520910008FC0120830895FC01F2
:103EE0008081809302080895A1E21A2EAA1BBB1BB1
:103EF000FD010DC0AA1FBB1FEE1FFF1FA217B307B6
:103F0000E407F50720F0A21BB30BE40BF50B661FCB
:103F1000771F881F991F1A9469F76095709580958F
:103F200090959B01AC01BD01CF010895EE0FFF1FDD
:103F30000024001C0BBE0790F691E02D0994A29F6F
:103F4000B001B39FC001A39F700D811D1124911D6D
:103F5000B29F700D811D1124911D08950E949F1F15
:103F6000A59F900DB49F900DA49F800D911D1124CD
:063F70000895F894FFCF54
:103F76000102030402004800006A1F6F1F000000D0
:103F8600000000004B00000001000000000021506E
:103F9600003C3DFF00000000FFFFFFFFFFFF0000A9
:103FA6002110422063308440A550C660E770088126
:103FB60029914AA16BB18CC1ADD1CEE1EFF131129D
:103FC600100273325222B5529442F772D662399376
:103FD60018837BB35AA3BDD39CC3FFF3DEE36224ED
:103FE600433420040114E664C774A44485546AA5C6
:103FF6004BB528850995EEE5CFF5ACC58DD553367D
:10400600722611163006D776F6669556B4465BB715
:104016007AA719973887DFF7FEE79DD7BCC7C4484C
:10402600E5588668A7784008611802282338CCC965
:10403600EDD98EE9AFF9488969990AA92BB9F55ADC
:10404600D44AB77A966A711A500A333A122AFDDBB5
:10405600DCCBBFFB9EEB799B588B3BBB1AABA66CAC
:10406600877CE44CC55C222C033C600C411CAEED05
:104076008FFDECCDCDDD2AAD0BBD688D499D977EBC
:10408600B66ED55EF44E133E322E511E700E9FFF55
:10409600BEEFDDDFFCCF1BBF3AAF599F788F88910B
:1040A600A981CAB1EBA10CD12DC14EF16FE18010EF
:1040B600A100C230E3200450254046706760B983F2
:1040C6009893FBA3DAB33DC31CD37FE35EF3B1023F
:1040D6009012F322D2323542145277625672EAB502
:1040E600CBA5A89589856EF54FE52CD50DC5E2348F
:1040F600C324A01481046674476424540544DBA7D2
:10410600FAB79987B8975FE77EF71DC73CD7D326DE
:10411600F2369106B01657667676154634564CD961
:104126006DC90EF92FE9C899E9898AB9ABA944582E
:10413600654806782768C018E1088238A3287DCB31
:104146005CDB3FEB1EFBF98BD89BBBAB9ABB754A7E
:10415600545A376A167AF10AD01AB32A923A2EFDC1
:104166000FED6CDD4DCDAABD8BADE89DC98D267CCE
:10417600076C645C454CA23C832CE01CC10C1FEF11
:104186003EFF5DCF7CDF9BAFBABFD98FF89F176E1E
:10419600367E554E745E932EB23ED10EF01E000052
:1041A600030002007E426E422040102700000000FD
:1041B60000FF13406745074545001F4050000000BB
:1041C6000000010101011E400103F844F74400000C
:1041D6000064001400D007D0070A9842C7450000C3
:1041E6003C003D00FFFF0000000000000000110839
:1041F600010000000000000011080000000000009F
:1042060000000000000000FF1011272E3134363761
:024216003E0068
:00000001FF
