:100400000C9467020C9486020C9486020C9486026B
:100410000C9486020C9486020C9486020C94E402DE
:100420000C9486020C9486020C9486020C9486022C
:100430000C9486020C9486020C9486020C9486021C
:100440000C9486020C9486020C9486020C948B0207
:100450000C9486020C9486020C9486020C948602FC
:100460000C9486020C9486020C9486020C948602EC
:100470000C9486020C9486020C9486020C948602DC
:100480000C9486020C9486020C9486020C948602CC
:100490000C9486020C9486020C9486020C948602BC
:1004A0000C9486029113A7138B13A713A71375132C
:1004B0004B1351136F136913631357135D13FB1C15
:1004C000FF1C231D271D2B1D301D341DD81C11247E
:1004D0001FBECFEFCDBFDFE7DEBF10E4A0E0B0E48A
:1004E000E6E3F5E400E00BBF02C007900D92A43CE8
:1004F000B107D9F724E4A4ECB0E401C01D92AE33F7
:10050000B207E1F70E9412030C9499220C940002A6
:100510000E94652108951F920F920FB60F92112429
:100520000BB60F922F933F934F935F936F937F93ED
:100530008F939F93AF93BF93EF93FF9380910408A2
:10054000887090E095958795959587959595879571
:10055000813061F44FEF60E070E0CB010E948A1FB0
:10056000E0E0F8E08481886084831BC0809101080A
:1005700080FD0CC041E060E070E0CB010E948A1F6A
:10058000E0E0F8E08481886084830BC040E060E0B4
:1005900070E0CB010E948A1FE0E0F8E0848188606F
:1005A0008483FF91EF91BF91AF919F918F917F9144
:1005B0006F915F914F913F912F910F900BBE0F90D4
:1005C0000FBE0F901F9018951F920F920FB60F92AB
:1005D00011240BB60F922F933F934F935F936F931A
:1005E0007F938F939F93AF93BF93EF93FF9381E09C
:1005F00080930B0A60E070E0CB010E947620FF91AF
:10060000EF91BF91AF919F918F917F916F915F918A
:100610004F913F912F910F900BBE0F900FBE0F90F7
:100620001F9018950E9488020E94780380E00E9423
:100630007A0380E090E00E94CE158091CC429091A8
:10064000CD420197F1F41092CC421092CD4260E07D
:1006500072E680E090E00E94942165E572E680E019
:1006600090E00E94902190E08093F1439093F243B8
:100670008F3F910531F48FEF90E08093CC429093BF
:10068000CD428091CA429091CB420197B1F610922F
:10069000CA421092CB42609100407091014080911B
:1006A00002409091034048EC50E40E94BC218091AC
:1006B000004090910140A0910240B09103409E5FA4
:1006C000AF4FBF4F8093004090930140A0930240F2
:1006D000B09303408091C8429091C942019709F0BC
:1006E000ACCF1092C8421092C9420C940031A5CFF1
:1006F00080E0089596E1899FF0011124E85DFB4BAD
:10070000108A0E94BA1308952CE1829FC00111241F
:10071000FC01E55CFF4B4681578170E0FB01EE0F69
:10072000FF1F660F771F660F771F660F771FE60F95
:10073000F71FE40FF51F808181110EC025813681DE
:10074000678108C0D901AA5EBC4B9FEF9C932F5FC5
:100750003F4F8F5F8617B0F38081813029F5008489
:10076000F185E02D0180F281E02D808190E0FC0197
:10077000EE0FFF1F880F991F880F991F880F991F71
:100780008E0F9F1FFA01E80FF91F258136814781DF
:1007900080E008C0F901EA5EFC4B9FEF90832F5F79
:1007A0003F4F8F5F8417B0F30895CF93C82F90E029
:1007B0002CE1289FF001299FF00D1124E55CFF4BEF
:1007C0002381211111C02CE1289FF001299FF00DF8
:1007D0001124E55CFF4B8081882311F0833021F4E4
:1007E00068E08C2F0E94AA088C2F0E941A15CF91C6
:1007F0000895482F50E08CE1849FF001859FF00D13
:100800001124E55CFF4B94811DC02CE1249FF00175
:10081000259FF00D1124E55CFF4B0284F385E02D4C
:10082000E90FF11D208126130CC08CE1849FF0019B
:10083000859FF00D1124E55CFF4B8581890F815068
:10084000089591509111E1CF8FEF0895EF92FF92AB
:100850000F931F93CF93DF93182F062FC82FD0E04D
:1008600086E18C9FF0018D9FF00D1124E85DFB4B1C
:1008700081E0858382858F3F51F096E19C9FF00156
:100880009D9FF00D1124E85DFB4B8F5F828786E111
:100890008C9FF0018D9FF00D1124E85DFB4B82854C
:1008A0008230A8F086E18C9FF0018D9FF00D11241D
:1008B000E85DFB4B838581110AC086E18C9FF001C6
:1008C0008D9FF00D1124E85DFB4B81E0838786E16D
:1008D0008C9FF0018D9FF00D1124E85DFB4B858905
:1008E000882351F086E18C9FF0018D9FF00D11243B
:1008F000E85DFB4B1682158A602F812F0E94F90359
:10090000E82E8CE18C9FF0018D9FF00D1124E55CA9
:10091000FF4BF380FF2069F00C3359F486E18C9F84
:10092000F0018D9FF00D1124E85DFB4B8089813033
:1009300021F0F11007C00D3329F4402F62E0812F20
:100940000E94C81C83E08E1550F06E2D812F0E94EE
:100950008403EE2DF0E0EE5EFC4B81E08083F1102D
:1009600015C08CE18C9FF0018D9FF00D1124E55C8A
:10097000FF4B8081882311F0833041F46E2D812F4D
:100980000E940B0961E0812F0E94AA08DF91CF919C
:100990001F910F91FF90EF900895EF92FF920F93A8
:1009A0001F93CF93DF93182F062FE42EC82FD0E08C
:1009B000642F0E94F903F82E86E18C9FF0018D9F31
:1009C000F00D1124E85DFB4B82858F3F51F096E1DD
:1009D0009C9FF0019D9FF00D1124E85DFB4B8F5F04
:1009E000828786E18C9FF0018D9FF00D1124E85DD8
:1009F000FB4B82858230A8F086E18C9FF0018D9FB1
:100A0000F00D1124E85DFB4B838581110AC086E15E
:100A10008C9FF0018D9FF00D1124E85DFB4B81E070
:100A200083878CEF800F843080F58CE18C9FF00100
:100A30008D9FF00D1124E55CFF4B268137818F2DB2
:100A400090E0FC01EE0FFF1F880F991F880F991F80
:100A5000880F991F8E0F9F1FF901E80FF91F8081E2
:100A6000813099F086E18C9FF0018D9FF00D11246B
:100A7000E85DFB4B81E0868384EC8E0D823028F4A8
:100A80004E2D64E0812F0E94C81C8CE18C9FF001E8
:100A90008D9FF00D1124E55CFF4B8381811120C0F7
:100AA0008CE18C9FF0018D9FF00D1124E55CFF4BD4
:100AB0008081882311F0833099F486E18C9FF001C6
:100AC0008D9FF00D1124E85DFB4B8681813021F470
:100AD0006F2D812F0E940B09602F812F0E94AA0881
:100AE000DF91CF911F910F91FF90EF9008950F9399
:100AF0001F93CF93DF93162F042FC82FD0E00E94AF
:100B0000F9038F3F09F4BBC096E19C9FD0019D9FE4
:100B1000B00D1124A85DBB4B12964D915C911397BB
:100B20009CE19C9FF0019D9FF00D1124E55CFF4B23
:100B300066817781282F30E0F901EE0FFF1F220F29
:100B4000331F220F331F220F331F2E0F3F1FFB01B6
:100B5000E20FF31F318114963C936381748101117C
:100B600072C09C9FF0019D9FF00D1124E55CFF4B2E
:100B70009381911184C09CE19C9FF0019D9FF00D99
:100B80001124E55CFF4B228930E090E01CC0A4E218
:100B9000A29FF001A39FF00D1124E95AFF4B04849A
:100BA000F585E02DE90FF11DE0811E130BC096E1E4
:100BB0009C9FF0019D9FF00D1124E85DFB4B91E09F
:100BC000958B0CC09F5FA4E2A29FF001A39FF00D44
:100BD0001124E95AFF4BE6859E17C8F2E82FF0E092
:100BE000E25FFC4BA08180E022C0E82FF0E02A2FDA
:100BF00030E0082E02C0369527950A94E2F720FFD0
:100C000008C0E75EFC4B9081FA01E80FF11D90836C
:100C10000DC0282F30E08A01020F131F260F371F47
:100C2000F901EA5DFF4B9081F80190838F5F96E1B7
:100C30009C9FF0019D9FF00D1124E85DFB4B94817A
:100C4000891798F21CC08CE18C9FF0018D9FF00DEC
:100C50001124E55CFF4B8381811111C020E00DC0A0
:100C6000822F90E0FB01E80FF91FDA01A80FB91FEE
:100C70008C91EA5DFF4B80832F5F231788F3DF9110
:100C8000CF911F910F910895AF92BF92CF92DF92B3
:100C9000EF92FF920F931F93CF93DF931F92CDB7E5
:100CA000DEB7B82EA62EE82EF12C0E94F9039CE1A7
:100CB0009E9DF0019F9DF00D1124E55CFF4BC680C9
:100CC000D780282F30E08901000F111F220F331F1A
:100CD000220F331F220F331F020F131F0C0D1D1D78
:100CE0008F3F09F4B9C060E08A2D0E94B71396E1E6
:100CF0009E9DF0019F9DF00D1124E85DFB4B8187C7
:100D0000D8018C91813081F020F0813109F470C0DC
:100D1000A5C0F80182818111A3C040E06A2D8B2D0E
:100D20000E94770582E0A5C08CE18E9DF0018F9D29
:100D3000F00D1124E55CFF4B8381811193C0D80134
:100D40001896ED91FC9119970180F281E02D808138
:100D50008983898190E0FC01EE0FFF1F880F991FA6
:100D6000880F991F880F991FE80FF91FEC0DFD1DC3
:100D700085819681298130E0A901440F551F220FFA
:100D8000331F220F331F220F331F240F351FF6018D
:100D9000E20FF31F378120E027C0AC014F5F5F4FA8
:100DA000FC01EA5EFC4B80818F3FE1F08CE18E9D7F
:100DB000D0018F9DB00D1124A55CBF4B1A962D91CB
:100DC0003C911B97898115969C91E82FF0E0E91BD7
:100DD000F1093196E20FF31F60818B2D0E94F20919
:100DE00082E047C02F5FCA012317B8F281E041C0FB
:100DF0008CE18E9DF0018F9DF00D1124E55CFF4B81
:100E00008081823089F1F801828181111EC0FCE36A
:100E1000AF1212C086E18E9DF0018F9DF00D11245E
:100E2000E85DFB4B8089813009F54A2D60E08B2D10
:100E30000E94C81C82E01DC04A2D61E08B2D0E94DB
:100E4000C81C8130A9F082E014C04A2D67E08B2DC8
:100E50000E94C81C81E00DC080E00BC081E009C089
:100E600081E007C081E005C080E003C082E001C0EE
:100E700080E0813019F0823041F00DC0D801119628
:100E80006C918B2D0E947E1509C0F80161818B2D1C
:100E90000E942E1503C08B2D0E9406150F90DF9126
:100EA000CF911F910F91FF90EF90DF90CF90BF9067
:100EB000AF900895DF92EF92FF920F931F93CF931D
:100EC000DF93F82ED62EC82FD0E086E18C9FF0015C
:100ED0008D9FF00D1124E85DFB4B81E085838285B9
:100EE0008F3F51F096E19C9FF0019D9FF00D1124E2
:100EF000E85DFB4B8F5F828786E18C9FF0018D9FC1
:100F0000F00D1124E85DFB4B82858230A8F086E16C
:100F10008C9FF0018D9FF00D1124E85DFB4B8385C4
:100F200081110AC086E18C9FF0018D9FF00D112484
:100F3000E85DFB4B81E083876D2D8F2D0E94F903C7
:100F4000E82E83E08E1508F4B4C08CE18C9FF0018C
:100F50008D9FF00D1124E55CFF4B068117818E2DCE
:100F600090E0FC01EE0FFF1F880F991F880F991F5B
:100F7000880F991FE80FF91FE00FF11F8081813062
:100F800051F018F0813101F140C041E06D2D8F2DFD
:100F90000E9477053AC06D2D8F2D0E94820986E14F
:100FA0008C9FF0018D9FF00D1124E85DFB4B0280BA
:100FB000F381E02D61E080810E94B713682F8F2DAF
:100FC0000E94F903E82E21C086E18C9FF0018D9FDD
:100FD000F00D1124E85DFB4B0280F381E02D808150
:100FE00081110EC086E18C9FF0018D9FF00D1124C0
:100FF000E85DFB4B81E087838F2D0E941A1505C0A9
:101000004D2D63E08F2D0E94C81C83E08E1578F172
:10101000EE2DF0E0EE5EFC4B81E080838CE18C9F56
:10102000F0018D9FF00D1124E55CFF4B8381811150
:101030001EC08E2D90E0FC01EE0FFF1F880F991F40
:10104000880F991F880F991FE80FF91FE00FF11FF4
:1010500025813681478180E008C0F901EA5EFC4BBA
:101060009FEF90832F5F3F4F8F5F8417B0F38CE12A
:101070008C9FF0018D9FF00D1124E55CFF4B838167
:10108000811117C08CE18C9FF0018D9FF00D112410
:10109000E55CFF4B8081882311F0833029F462E006
:1010A0008F2D0E94AA0805C0813019F48F2D0E944F
:1010B0008008DF91CF911F910F91FF90EF90DF900B
:1010C0000895623099F028F4662341F0613051F0C0
:1010D0000895683090F0683069F00895642F0E9498
:1010E00044060895642F0E9426040895642F0E94E8
:1010F0005A0708950E94D50308950E94CD040895CB
:10110000282F30E086E1829FD001839FB00D11240B
:10111000FD01E85DFB4B4681168285815385AC5C01
:10112000BB4B9C91692F6170462B40FB90F991FB62
:10113000442740F9842B80FB91F950FB92F99C9352
:10114000818585878781882321F0FD01892F88602B
:1011500080830895282F30E086E1829FF001839FED
:10116000F00D1124E85DFB4B468116828581978541
:10117000992311F051E001C050E096E1929FF001F7
:10118000939FF00D1124DF01A85DBB4B1B967C9152
:101190001B97EC5CFB4B908170FB92F9792F71707F
:1011A000472B40FB90F991FB442740F9842B80FBAF
:1011B00091F9908319968C9119971D968C931D9790
:1011C00017968C91882359F086E1829FF001839FC6
:1011D000F00D1124EC5CFB4B892F88608083683014
:1011E00059F086E1829FF001839FF00D1124EC5CA1
:1011F000FB4B80818061808386E1829FF001839F29
:10120000F00D1124EC5CFB4B80818F7D50FB86F947
:101210008F77808308951F93CF93DF9390E026E12B
:10122000289FF001299FF00D1124E85DFB4B1681EA
:101230002CE1289FF001299FF00D1124E55CFF4B64
:10124000428950E0643008F059C0289FF001299F7E
:10125000F00D1124E55CFF4B8681978170E0FB0166
:10126000EE0FFF1F660F771F660F771F660F771F42
:101270006E0F7F1FFC01E60FF71F8081813091F513
:101280003DC084E2849FF001859FF00D1124E95A4E
:10129000FF4BA089B189862F90E09C01220F331F5C
:1012A0002A0F3B1FA289B389A80FB91FE901E88162
:1012B000F981EA5DFF4B7081AC9121E030E00A2EAC
:1012C00002C0220F331F0A94E2F7812F90E002C080
:1012D000880F991FAA95E2F720952723822B8083F8
:1012E0006F5F01C060E084E2849FF001859FF00D94
:1012F0001124E95AFF4B8685681718F2DF91CF91C8
:101300001F910895CF92DF92EF92FF920F931F9358
:10131000CF93DF93182FC82FD0E00E94F903082F36
:101320008F3F09F456C086E18C9FF0018D9FF00D30
:101330001124E85DFB4B0280F381E02D61E08081A8
:101340000E94B7139CE19C9FF0019D9FF00D11241A
:10135000E55CFF4B46815781202F30E0F901EE0F0D
:10136000FF1F220F331F220F331F220F331F2E0F99
:101370003F1FFA01E20FF31FE084F18420E025C053
:101380009CE19C9FD0019D9FB00D1124A55CBF4B9B
:101390001A96CD90DC901B97F70141815281FA019A
:1013A000E20FF11D908115963C91E92FF0E0E31BCF
:1013B000F109EC0DFD1D9181891306C041E0682FF4
:1013C000812F0E94770505C02F5FF70190812917B3
:1013D000B8F2DF91CF911F910F91FF90EF90DF90C6
:1013E000CF9008950F931F93CF93DF93C82FD62FDD
:1013F00040E00E94770586E1C89FF0011124E85D76
:10140000FB4B0281138160E08D2F0E94B713F8011E
:101410008083DF91CF911F910F910895AF92BF927A
:10142000CF92DF92EF92FF920F931F93CF93DF93B0
:10143000CDB7DEB72D97CDBFDEBF082F10E09CE102
:10144000909FF001919FF00D1124E55CFF4BE28825
:10145000F12C94E3909FD001919FB00D1124AC50DA
:10146000BC4B5496CD90DC9055971B96ED91FC911A
:101470001C97EE0FFF1FEE0FFF1FEE0FFF1FEC0D6F
:10148000FD1D90819E3709F4D8C0D82E84E28E9D30
:10149000D0018F9DB00D1124A95ABF4BAD90BC90C7
:1014A000D5018C91898383E08A838FE78B836C835A
:1014B0002D839FEF9E839F839887623B91F038F442
:1014C000603B09F479C0613B09F46BC0A5C0663B81
:1014D00009F491C0673B09F496C0633B09F09CC0D6
:1014E00082C0413009F098C086E08A83605C6B83DB
:1014F000211113C084E28E9DF0018F9DF00D112407
:10150000E95AFF4B938184819C838D8395818681E9
:101510009E838F83878188877FC0213099F484E2FE
:101520008E9DF0018F9DF00D1124E95AFF4B8085AF
:101530008C8381858D8382858E8383858F8385E0EF
:101540008A836AC085E0E6E3F0E4DE011996019043
:101550000D928A95E1F7AE01475F5F4F622F802FB2
:101560000E94401D89858C838A858D838B858E831F
:101570008C858F838D85888785E010C0E82FF0E00B
:10158000319729E030E02C0F3D1FE20FF31F9081CF
:101590009F3F19F08F5F8A833FC081508111EECF4A
:1015A0003BC0D5018C91898381E08A8381EF8B8355
:1015B0008FEF8C838D8330C024E22E9DC0012F9D40
:1015C000900D1124895A9F4BDC0112968C918983CE
:1015D0008781F501808381E08A8380EF8B838FEFA1
:1015E0008C838D8319C081E08A8383EF8B838FEF97
:1015F0008C838D8311C081E08A83605C6B838FEF65
:101600008C838D8309C0413039F481E08A83605C2A
:101610006B838FEF8C838D83BE016F5F7F4F8D2D2A
:101620000E94571684E3809FF001819FF00D1124E2
:10163000EC50FC4B82E086A30AC084E3809FF0015B
:10164000819FF00D1124EC50FC4B81E086A32D9678
:10165000CDBFDEBFDF91CF911F910F91FF90EF9033
:10166000DF90CF90BF90AF900895CF92DF92EF922E
:10167000FF920F931F93CF93DF93CDB7DEB72597DC
:10168000CDBFDEBFE82EF12C9CE19E9DF0019F9D19
:10169000F00D1124E55CFF4B028910E094E2909F6D
:1016A0009001919F300D1124F901E65AFF4B95E00E
:1016B000DE01119601900D929A95E1F7D901A95A90
:1016C000BF4BFD0138961896CC90D1805281438152
:1016D00094E39E9DD0019F9DB00D1124AC50BC4B56
:1016E00054962D913C9155971B96ED91FC911C972A
:1016F000EE0FFF1FEE0FFF1FEE0FFF1FE20FF31F96
:101700003381948175816681332319F03130C1F1C1
:1017100054C02FEF290F253008F051C0223090F42B
:1017200049815A81292F30E02150304E220F331F3A
:10173000220F331F220F331F02C0569547952A955B
:10174000E2F719C02DEF290F2230A0F42B813C8144
:10175000492F50E04350504E440F551F440F551F22
:10176000440F551FF90102C0F695E7954A95E2F737
:10177000AF0101C04D814627472319F190E026C0F3
:101780002FEF290F2430F8F4923059F018F49130EB
:1017900031F00CC0933039F0943039F007C09C2DF3
:1017A00005C09D2D03C0952F01C0942F292F2627FA
:1017B000472F422351F090E009C090E007C090E02D
:1017C00005C091E003C090E001C091E0992351F180
:1017D00020E041E063EB0E940E0A84E2809FF0016A
:1017E000819FF00D1124E95AFF4B8081918124E300
:1017F0002E9DD0012F9DB00D1124AC50BC4B5496A2
:101800002D913C9155971B96ED91FC911C97EE0FF5
:10181000FF1FEE0FFF1FEE0FFF1FE20FF31F2781C9
:10182000FC0120832596CDBFDEBFDF91CF911F91B4
:101830000F91FF90EF90DF90CF900895CF93DF93BB
:10184000CDB7DEB72D97CDBFDEBF482F50E09CE16E
:10185000949FF001959FF00D1124E55CFF4BE28908
:1018600094E2E99FF0011124E65AFF4B95E0DE0176
:10187000199601900D929A95E1F790E025C024E326
:10188000249FD001259FB00D1124AC50BC4B549621
:101890002D913C9155971B96ED91FC911C97EE0F65
:1018A000FF1FEE0FFF1FEE0FFF1FE20FF31F292F89
:1018B00030E0E20FF31F6081E1E0F0E0EC0FFD1F8C
:1018C000E20FF31F60839F5F9830C8F22D8130E0F4
:1018D000322F22279C81292B6F8170E0762F66277B
:1018E0009E81692BE985FA852E173F0719F02F3F56
:1018F0003F4741F42B853C856217730769F06F3FC2
:101900007F4F51F084E3849FF001859FF00D1124F7
:10191000EC50FC4B12A605C020E041E060EB0E94B9
:101920000E0A2D96CDBFDEBFDF91CF910895AF9205
:10193000BF92DF92EF92FF920F931F93CF93DF93AB
:10194000CDB7DEB72897CDBFDEBFF82E082F10E049
:1019500020E025C084E3809FD001819FB00D112439
:10196000AC50BC4B54968D919C9155971B96ED9124
:10197000FC911C97EE0FFF1FEE0FFF1FEE0FFF1FD6
:10198000E80FF91F822F90E0E80FF91F3081E1E0A6
:10199000F0E0EC0FFD1FE80FF91F30832F5F2830B8
:1019A000C8F2EC8090E081E002C09F5F842F2CE1C0
:1019B000209FF001219FF00D1124E55CFF4B208555
:1019C000318541E0480FE82FF0E0EE0FFF1FE20FF6
:1019D000F31F208131812F3F3F4F39F76DEF690FA2
:1019E0004E2D54E017C091E0950FE1E0F0E0EC0FD0
:1019F000FD1FE50FF11D80818F3F51F0641740F40A
:101A000020E140E067EB8F2D0E940E0A80E00BC0C2
:101A10004F5F592F242F30E08E2D90E00496281729
:101A2000390708F381E08130F1F531C0E1E0F0E001
:101A3000EC0FFD1FED0DF11D8081882319F08F3F04
:101A400021F111C0E3948CE1809FF001819FF00DA2
:101A50001124E55CFF4B0284F385E02DEE0DF11DB2
:101A60008FEF808312C0E3949CE1909FF001919FDF
:101A7000F00D1124E55CFF4BA284B384AE0CB11CC5
:101A800061E00E94B713F5018083D39403C068948A
:101A9000DD24D2F8F7E0FD1548F620E041E067EBE1
:101AA0008F2D0E940E0A2896CDBFDEBFDF91CF9109
:101AB0001F910F91FF90EF90DF90BF90AF9008952E
:101AC000EF92FF920F931F93CF93DF93CDB7DEB7C3
:101AD0006297CDBFDEBF082F10E09CE1909FF00120
:101AE000919FF00D1124E55CFF4B428950E090E09E
:101AF00025C024E3209FD001219FB00D1124AC50BC
:101B0000BC4B54962D913C9155971B96ED91FC91B1
:101B10001C97EE0FFF1FEE0FFF1FEE0FFF1FE20FD0
:101B2000F31F292F30E0E20FF31F6081E6E0F0E0C1
:101B3000EC0FFD1FE20FF31F60839F5F9830C8F228
:101B400094E2949FF001959FF00D1124E65AFF4B0B
:101B500095E0DE01119601900D929A95E1F72B85A3
:101B600030E0322F22279A85292B4D8550E0542FC3
:101B700044279C85492B69817A812617370719F0FC
:101B80002F3F3F4741F42B813C814217530769F0B7
:101B90004F3F5F4F51F084E3809FF001819FF00D34
:101BA0001124EC50FC4B12A666C0F82EE984EE20FE
:101BB00021F081E0E81639F00DC02E2D41E062EBF6
:101BC0000E940E0A58C02E2D41E062EB8F2D0E941C
:101BD0000E0A51C080EE8E0D803208F046C085E0BE
:101BE000E6E3F0E4DE011E9601900D928A95E1F79E
:101BF000AE01425F5F4F6E2D8F2D0E94401D8435D8
:101C0000F9F402C08F5F01C080E0853048F4EEE057
:101C1000F0E0EC0FFD1FE80FF11D90819F3F91F365
:101C2000853038F42E2D41E062EB8F2D0E940E0A94
:101C300022C022E140E062EB8F2D0E940E0A1BC001
:101C4000833539F422E140E062EB8F2D0E940E0AC9
:101C500012C084E3809FF001819FF00D1124EC50AD
:101C6000FC4B12A682E083A706C022E140E062EBB3
:101C70008F2D0E940E0A6296CDBFDEBFDF91CF91FD
:101C80001F910F91FF90EF900895CF92DF92EF9206
:101C9000FF920F931F93CF93DF93CDB7DEB72897B3
:101CA000CDBFDEBF082F10E09CE1909FF001919F17
:101CB000F00D1124E55CFF4B428950E090E025C017
:101CC00024E3209FD001219FB00D1124AC50BC4BC8
:101CD00054962D913C9155971B96ED91FC911C9734
:101CE000EE0FFF1FEE0FFF1FEE0FFF1FE20FF31FA0
:101CF000292F30E0E20FF31F6081E1E0F0E0EC0F0C
:101D0000FD1FE20FF31F60839F5F9830C8F22C81A4
:101D100030E0322F22279D81292B9B81213961EFD1
:101D2000360709F45BC0E82E223981EF380748F402
:101D30002038E1EF3E0709F451C02838314F41F017
:101D400047C02859314F2230310508F041C046C004
:101D500084E2849FF001859FF00D1124E95AFF4B26
:101D6000C080D180F6018081898380E18A838BE005
:101D70008B83905C9C8381EF8D8388E88E830F2E0C
:101D8000F0E3FF2EF02DFF82F886BE016F5F7F4FDC
:101D90008E2D0E945716F6018081898381E28A8305
:101DA0008EE28B83FC82FD828E83FF82F886BE01E9
:101DB0006F5F7F4F8E2D0E94571684E3809FF00146
:101DC000819FF00D1124EC50FC4B82E086A306C0ED
:101DD00020E040E062E28E2D0E940E0A2896CDBFE0
:101DE000DEBFDF91CF911F910F91FF90EF90DF90B9
:101DF000CF900895FF920F931F93CF93DF93CDB7AA
:101E0000DEB72897CDBFDEBF082F10E09CE1909F82
:101E1000F001919FF00D1124E55CFF4B228930E029
:101E200094E3909FD001919FB00D1124AC50BC4B16
:101E300054964D915C9155971B96ED91FC911C9792
:101E4000EE0FFF1FEE0FFF1FEE0FFF1FE40FF51F3A
:101E5000438191819F70923009F085C0413069F1D2
:101E600020F0423009F451C078C094E2929FF00112
:101E7000939FF00D1124E95AFF4B0190F081E02D62
:101E8000908199836894FF24F1F8FA8290E59B830E
:101E90004C839FEF9D839E839F839887BE016F5FD6
:101EA0007F4F0E94571684E3809FF001819FF00DC1
:101EB0001124EC50FC4BF6A25BC094E2929FF0011F
:101EC000939FF00D1124E95AFF4B0190F081E02D12
:101ED000908199836894FF24F1F8FA8290E59B83BE
:101EE0004C839FEF9D839E839F839887BE016F5F86
:101EF0007F4F0E94571684E3809FF001819FF00D71
:101F00001124EC50FC4BF6A233C094E2929FF001F6
:101F1000939FF00D1124E95AFF4B0190F081E02DC1
:101F2000908199836894FF24F1F8FA8290E59B836D
:101F30004C839FEF9D839E839F839887BE016F5F35
:101F40007F4F0E94571684E3809FF001819FF00D20
:101F50001124EC50FC4BF6A20BC022E140E060E102
:101F60000E940E0A05C023E140E060E10E940E0AD3
:101F70002896CDBFDEBFDF91CF911F910F91FF90CB
:101F800008950F931F93CF93DF93CDB7DEB72897B4
:101F9000CDBFDEBF082F10E09CE1909FF001919F24
:101FA000F00D1124E55CFF4B428950E094E3909FD3
:101FB000D001919FB00D1124AC50BC4B54962D9183
:101FC0003C9155971B96ED91FC911C97EE0FFF1FCE
:101FD000EE0FFF1FEE0FFF1FE20FF31F918192958F
:101FE0009F7009F049C0248130E0322F222795816B
:101FF000292B93819130F9F4233062E03607D9F42C
:1020000094E2949FF001959FF00D1124E95AFF4B43
:102010000190F081E02D9081998395E09A8391E77A
:102020009B8391E09C8392E09D8323E02E839F839A
:102030009FEF98874CC0933009F049C0233032405D
:1020400009F045C094E2949FF001959FF00D112492
:10205000E95AFF4B0190F081E02D9081998395E042
:102060009A8391E79B8323E02C8392E09D832E83C8
:102070009F839FEF98872BC0258130E0322F222746
:102080009681292B9481913011F521153F4FF9F458
:1020900021E030E02093CC423093CD4294E2949FF3
:1020A000F001959FF00D1124E95AFF4B0190F0814A
:1020B000E02D9081998395E09A8391E79B8391E04D
:1020C0009C839FEF9D831E8222E02F839887BE0111
:1020D0006F5F7F4F0E94571684E3809FF001819FBE
:1020E000F00D1124EC50FC4B82E086A32896CDBF66
:1020F000DEBFDF91CF911F910F910895FF920F9353
:102100001F93CF93DF93CDB7DEB72897CDBFDEBF48
:10211000082F10E09CE1909FF001919FF00D112499
:10212000E55CFF4B228930E094E3909FD001919FC2
:10213000B00D1124AC50BC4B54964D915C91559709
:102140001B96ED91FC911C97EE0FFF1FEE0FFF1FEA
:10215000EE0FFF1FE40FF51F9381913049F594E2D4
:10216000929FF001939FF00D1124E95AFF4B0190CB
:10217000F081E02D908199836894FF24F1F8FA8230
:1021800095EC9B8391E09C839FEF9D839E839F832F
:102190009887BE016F5F7F4F0E94571684E3809F30
:1021A000F001819FF00D1124EC50FC4BF6A229C0E8
:1021B000923039F594E2929FF001939FF00D112433
:1021C000E95AFF4B0190F081E02D9081998368944A
:1021D000FF24F1F8FA8295EC9B83FC829FEF9D83AC
:1021E0009E839F839887BE016F5F7F4F0E94571623
:1021F00084E3809FF001819FF00D1124EC50FC4B93
:10220000F6A22896CDBFDEBFDF91CF911F910F912F
:10221000FF9008959F92AF92BF92CF92DF92EF927C
:10222000FF920F931F93CF93DF93CDB7DEB728971D
:10223000CDBFDEBFC090C640D090C740082F10E091
:102240009CE1909FF001919FF00D1124E55CFF4B04
:10225000E288F12C94E3909FF001919FF00D1124FE
:10226000EC50FC4BA489B5890384F485E02DEE0F76
:10227000FF1FEE0FFF1FEE0FFF1FBF016A0F7B1F37
:10228000FB01918192959F7009F4F0C09480428186
:102290004250B090F3439B10D2C0958196012853D1
:1022A0003F4BF9019083FB019681960127533F4BE9
:1022B000F901908396012D5F3F4FFB019781F60155
:1022C000E653FF4B908361E070E090E074C0941798
:1022D00088F49F5FFB01EE0FFF1FEE0FFF1FEE0F55
:1022E000FF1FEA0FFB1FA280F901E853FF4BA082FA
:1022F0002F5F3F4F941788F49F5FFB01EE0FFF1F86
:10230000EE0FFF1FEE0FFF1FEA0FFB1FA380F90167
:10231000E853FF4BA0822F5F3F4F941788F49F5FD5
:10232000FB01EE0FFF1FEE0FFF1FEE0FFF1FEA0F67
:10233000FB1FA480F901E853FF4BA0822F5F3F4FA2
:10234000941788F49F5FFB01EE0FFF1FEE0FFF1F36
:10235000EE0FFF1FEA0FFB1FA580F901E853FF4BAB
:10236000A0822F5F3F4F941788F49F5FFB01EE0F11
:10237000FF1FEE0FFF1FEE0FFF1FEA0FFB1FA680D0
:10238000F901E853FF4BA0822F5F3F4F941788F469
:102390009F5FFB01EE0FFF1FEE0FFF1FEE0FFF1FF2
:1023A000EA0FFB1FA780F901E853FF4BA0822F5FC4
:1023B0003F4F6F5F7F4F54E3509FF001519FF00DEF
:1023C0001124EC50FC4B0584F685E02DE617F70749
:1023D00008F07DCFB394B092F343242F30E0C20EC7
:1023E000D31EC092C640D092C7406091C440709145
:1023F000C540260F371F2093C4403093C540C114F9
:10240000F2E0DF0658F01092C6401092C74021E07B
:1024100030E02093CA423093CB4211C0283D314472
:1024200070F01092C6401092C74021E030E0209337
:10243000CA423093CB422093C8423093C94294E2BF
:102440009E9DF0019F9DF00D1124E95AFF4B0190D4
:10245000F081E02D9081998392E09A8396E79B83A7
:102460009C829FEF9D839E839F839887BE016F5FB1
:102470007F4F0E94571684E3809FF001819FF00DEB
:102480001124EC50FC4B82E086A32896CDBFDEBF22
:10249000DF91CF911F910F91FF90EF90DF90CF9040
:1024A000BF90AF909F900895EF92FF920F931F936C
:1024B000CF93DF93C82FD0E09CE19C9FF0019D9FBC
:1024C000F00D1124E55CFF4BA289B0E094E29A9FE5
:1024D000F0019B9FF00D1124E95AFF4B00A111A1BF
:1024E000E2A0F3A090E00FC0292F30E0F801E20F46
:1024F000F31F4081461306C0F701E20FF31F91E07E
:1025000090830DC09F5F34E23A9FF0013B9FF00D36
:102510001124E95AFF4B378D931730F390E099233C
:1025200009F472C0653809F469C078F4623209F4BC
:102530005FC020F4603109F458C079C0613309F4F8
:102540005AC0663309F45DC072C0633B71F028F471
:10255000603BE1F0623B31F06AC0663BB1F1673B42
:1025600031F165C00E94600D62C09CE19C9FF0014A
:102570009D9FF00D1124E55CFF4B9081992319F08C
:10258000933009F054C00E94350B51C09CE19C9FD0
:10259000F0019D9FF00D1124E55CFF4B9081992384
:1025A00019F0933009F043C00E941E0C40C09CE11A
:1025B0009C9FF0019D9FF00D1124E55CFF4B9081E5
:1025C000911135C00E94970C32C096E19C9FF0019A
:1025D0009D9FF00D1124E85DFB4B91E0978720E073
:1025E00041E066EB0E940E0A22C00E94FA0E1FC054
:1025F0000E94450E1CC00E94C10F19C00E947E108F
:1026000016C00E940A1113C021E140E00E940E0A88
:1026100084E38C9FF0018D9FF00D1124EC50FC4B56
:102620001786108A118A8585968583879487DF911E
:10263000CF911F910F91FF90EF9008954F925F926D
:102640006F927F928F929F92AF92BF92EF92FF9282
:102650000F931F93CF93DF931F92CDB7DEB7DA01AD
:102660001F96EC901F971982FB01E954FF4BF080F5
:102670002F2D30E05196EC914E2E512CBDE04B1693
:10268000510408F064C08A014B015C01F201EE5A6A
:10269000FD4F0C9476224E2D60E08F2D0E94610834
:1026A00056C04E2D63E08F2D0E94610850C04E2D04
:1026B00061E08F2D0E9461084AC04E2D62E08F2D8F
:1026C0000E94610844C04E2D65E08F2D0E94610874
:1026D0003EC04E2D66E08F2D0E94610838C04E2D01
:1026E00064E08F2D0E94610832C0F901E295F295F5
:1026F000F07FFE27E07FFE27E752FD4B868597851A
:1027000046E1429FF001439FF00D1124E85DFB4B31
:10271000818B928B1CC0F901E852FD4B81E08083D4
:1027200016C0FA018789882391F0AE014F5F5F4F91
:10273000C501B4010E94ED20D80116969C918981B3
:10274000891728F44E2D67E08F2D0E9461080F90A5
:10275000DF91CF911F910F91FF90EF90BF90AF90BD
:102760009F908F907F906F905F904F9008950E9400
:10277000611D08953F924F925F926F927F928F9268
:102780009F92AF92BF92EF92FF920F931F93CF93BE
:10279000DF93CDB7DEB72697CDBFDEBF082F10E0A1
:1027A0009801220F331FC801880F991F880F991FA6
:1027B000880F991F820F931F82539D4B26E1209F04
:1027C000F001219FF00D1124E85DFB4B8283938380
:1027D000F801EE0FFF1FEE0FFF1FED54FF4B80803F
:1027E0009180A280B3808CE1809FF001819FF00DE9
:1027F0001124E55CFF4BE488F588F7018581882387
:1028000009F444C0F801EE0FFF1FE751FD4B88E2C9
:1028100090E080839183FF24F39434C08F2D90E067
:102820009C012150310929833A830196880F991F11
:10283000DC01AA0FBB1FAA0FBB1FAA0FBB1FA81B3F
:10284000B90B20E432E44FE050E00E948E2220E8F1
:102850003FE442E150E00E9454222F5F3F4FC80105
:10286000880F991F880F991F880F991F49815A81D6
:10287000480F591F440F551F47525D4BFA012083E3
:102880003183F394F8E0FF1548F666C0F701208124
:10289000318142815381A4EFB1E00E948E229B01DD
:1028A000AC0160E871E586ED92E00E9454222F5F52
:1028B0003F4FF801EE0FFF1FE751FD4B208331839F
:1028C0003324339445C0832D90E09C01215031097D
:1028D0002D833E83F7014080518062807380019692
:1028E000880F991FDC01AA0FBB1FAA0FBB1FAA0FDD
:1028F000BB1FA81BB90B20E432E44FE050E00E945C
:102900008E2269837A838B839C83A4EFB1E0A30139
:1029100092010E948E229B01AC0169817A818B8198
:102920009C810E9454222F5F3F4FC801880F991F3E
:10293000880F991F880F991F4D815E81480F591F7D
:10294000440F551F47525D4BFA0120833183339466
:10295000F8E0F31508F0B7CFF801E295F295F07FB3
:10296000FE27E07FFE27E752FD4B8685978526E10F
:10297000209FD001219FB00D1124A85DBB4B519623
:102980008D939C9352978CE1809FF001819FF00D75
:102990001124E55CFF4B8485958553968D939C931C
:1029A00054978EE1809F9001819F300D1124255115
:1029B0003D4B44895589C501B4010E94B71E8983E6
:1029C0009A83892B51F44EE153E1C501B4010E9471
:1029D0007D1FF801E852FD4B108281E029813A8188
:1029E000232B09F480E02696CDBFDEBFDF91CF9187
:1029F0001F910F91FF90EF90BF90AF909F908F909D
:102A00007F906F905F904F903F900895E82FF0E097
:102A1000EE0FFF1FEE0FFF1FED54FF4B6081718122
:102A2000828193810E946B1F892B11F480E00895AD
:102A30008FEF0895E82FF0E0EE0FFF1FEE0FFF1F5E
:102A4000ED54FF4B60817181828193810E945E1FF2
:102A5000892B11F480E008958FEF0895CF92DF92D3
:102A6000EF92FF920F931F93CF939FEF960F9830A3
:102A7000B0F5C62F90E026E1289FF001299FF00DC8
:102A80001124E85DFB4B02811381DC01AA0FBB1FFF
:102A9000AA0FBB1FAD54BF4BCD90DD90ED90FC90C5
:102AA0006483E62FF0E03197880F991F880F991FF4
:102AB000880F991FE80FF91FEE0FFF1FE752FD4B1C
:102AC0002081318140E050E0C701B6010E94DF2043
:102AD0002C2FA801C701B6010E94012002C081E08D
:102AE00090E0892B11F480E001C08FEFCF911F910E
:102AF0000F91FF90EF90DF90CF900895CF92DF92EB
:102B0000EF92FF921F93CF93DF93C82FD0E0FE0187
:102B1000EE0FFF1FEE0FFF1FED54FF4BC080D18063
:102B2000E280F3808FEF860F883048F5162FE62F6E
:102B3000F0E03197CE01880F991F880F991F880FF9
:102B4000991FE80FF91FEE0FFF1FE752FD4B208181
:102B5000318140E050E0C701B6010E94DF2086E1EC
:102B60008C9FF0018D9FF00D1124E85DFB4B42819D
:102B70005381212FC701B6010E944C2002C081E081
:102B800090E0892B11F480E001C08FEFDF91CF91AD
:102B90001F91FF90EF90DF90CF900895482F50E065
:102BA0008CE1849FF001859FF00D1124E55CFF4BC3
:102BB000228D338D2730310548F1F90135979F017A
:102BC000ABEABAEA0E947F229695879596958795FB
:102BD0009C01220F331F820F931F880F991FE81744
:102BE000F90749F49F010E947F2296958795969553
:102BF000879501960DC09F01ABEABAEA0E947F2239
:102C00009695879596958795029602C081E090E00B
:102C10002CE1249FD001259FB00D1124A55CBF4B52
:102C200056962D913C91579764E3649FF001659F00
:102C3000F00D1124EC50FC4B2187328758962D91D2
:102C40003C915997248B358B9A01220F331F220F09
:102C5000331F420F531F475F5C4B42A353A387832D
:102C60009087828B938B108211821282138285E06F
:102C70008483158216821386148615861686178617
:102C8000108A118A82E0868B818F148E158E168EA3
:102C900015A214A212A6178E10A211A291E096A35B
:102CA00083A717A210A611A615A614A60895282F6B
:102CB00030E09CE1929FF001939FF00D1124E55CC0
:102CC000FF4B9381911128C09CE1929FF001939F4B
:102CD000F00D1124E55CFF4B908191111DC09CE12A
:102CE000929FF001939FF00D1124E55CFF4BE28968
:102CF00094E2E99FF0011124E95AFF4B438D548D72
:102D000094E3929FF001939FF00D1124EC50FC4B43
:102D100040A351A391E0978F94E3929FA001939FCA
:102D2000500D11244C505C4BFA0192A59F5F92A765
:102D300020E00E941619089594E3899FA0011124B0
:102D400041505C4B21E00E94481C089524E3829F7F
:102D5000C0011124FC01EC50FC4B8785089590E0E4
:102D600024E3289FF001299FF00D1124EC50FC4B27
:102D7000278D223059F524E3289FF001299FF00D7B
:102D80001124EC50FC4B20A131A1A9014150510963
:102D900040A351A3232BD1F426E1289FF001299FC2
:102DA000F00D1124E85DFB4B108A24E3289FF0010D
:102DB000299FF00D1124EC50FC4B23E023A725E0C4
:102DC000268B14A615A6178E21E026A324E3289FA0
:102DD000F001299FF00D1124EC50FC4B278D213080
:102DE00049F524E3289FF001299FF00D1124EC50B0
:102DF000FC4B20A131A1A9014150510940A351A38D
:102E0000232BC1F426E1289FF001299FF00D112406
:102E1000E85DFB4B108A24E3289FF001299FF00D09
:102E20001124EC50FC4B83E083A784E0818F178E44
:102E300081E086A3089590E06C3361F524E3289F38
:102E4000F001299FF00D1124EC50FC4B23E0268B60
:102E500012A62CE1289FF001299FF00D1124E55CBA
:102E6000FF4B208121110BC024E3289FF001299FF3
:102E7000F00D1124EC50FC4B22E0278735C024E3F1
:102E8000289FF001299FF00D1124EC50FC4B27E006
:102E900027872AC024E3289FF001299FF00D1124E1
:102EA000EC50FC4B23E0218F2CE1289FF001299F5F
:102EB000F00D1124E55CFF4B208121110BC024E3B0
:102EC000289FF001299FF00D1124EC50FC4B26E0C7
:102ED00024830AC024E3289FF001299FF00D1124C8
:102EE000EC50FC4B27E0248324E3289FF001299F2A
:102EF000F00D1124EC50FC4B83E083A7178E08954E
:102F000090E024E3289FF001299FF00D1124EC505C
:102F1000FC4B10A611A625813681232B19F524E33D
:102F2000289FF001299FF00D1124EC50FC4B178EC7
:102F300022E0218F21E023A72CE1289FF001299F87
:102F4000F00D1124E55CFF4B238121113EC024E3E9
:102F5000289FF001299FF00D1124EC50FC4B81E0DB
:102F600086A308952CE1289FF001299FF00D1124DC
:102F7000E55CFF4B2381211128C02CE1289FF00143
:102F8000299FF00D1124E55CFF4B208121111DC00C
:102F90002CE1289FF001299FF00D1124E55CFF4BE7
:102FA000E28924E2E29FF0011124E95AFF4B238DCC
:102FB000348D44E3489FF001499FF00D1124EC50FB
:102FC000FC4B20A331A381E0878F08950F931F93BB
:102FD000CF93C82F082F10E084E3809FF001819FDA
:102FE000F00D1124EC50FC4B1582168210821182D8
:102FF0001282138285E084838C2F0E94A616813072
:1030000011F0833019F584E3809FD001819FB00DCA
:103010001124AC50BC4B54968D919C9155971B96A6
:10302000ED91FC911C97EE0FFF1FEE0FFF1FEE0FAF
:10303000FF1FE80FF91F818182958F70813011F495
:10304000638101C062818C2F0E945412CF911F9125
:103050000F9108959F92AF92BF92CF92DF92EF921D
:10306000FF920F931F93CF93DF93CDB7DEB72897CF
:10307000CDBFDEBFA82EB12C94E39A9DF0019B9D9D
:10308000F00D1124EC50FC4BE6A4F7A4C0A8D1A885
:1030900002A913A99785992309F4B9C0982EBE01F6
:1030A0006F5F7F4F8A2D0E949C168CE18A9DF001F4
:1030B0008B9DF00D1124E55CFF4B8381882319F073
:1030C0008981F60180838A81982F92959F7019F0EB
:1030D000913021F191C08F7090E0F80140815181D1
:1030E000808391834817590708F0AC018B81F70161
:1030F000808381E090E00EC0D701A80FB91FFC01CA
:10310000329621E030E02C0F3D1FE20FF31F2081AB
:103110002C9301968417950778F36EC08F7090E01A
:10312000982F88272B81820F911DF801C080D180B4
:1031300080839183C816D90608F06C018C81F70151
:10314000808381E090E00EC0D701A80FB91FFC0179
:10315000339621E030E02C0F3D1FE20FF31F20815A
:103160002C9301968530910578F335E0C31AD10888
:1031700005E010E01EC0BE016F5F7F4F892D0E94E9
:103180009C1622E030E00FC0D701A00FB11FE1E094
:10319000F0E0EC0FFD1FE20FF31F90819C930F5F97
:1031A0001F4F2F5F3F4F2830310570F386E0C81A5C
:1031B000D108E7E0CE16D104F0F6C114D104E1F055
:1031C000BE016F5F7F4F892D0E949C1680E090E0CA
:1031D00010C0D701A00FB11FFC01329621E030E0F2
:1031E0002C0F3D1FE20FF31F20812C930F5F1F4F09
:1031F00001968C159D0568F384E38A9DF0018B9DF3
:10320000F00D1124EC50FC4B14A682E0868B28961E
:10321000CDBFDEBFDF91CF911F910F91FF90EF9057
:10322000DF90CF90BF90AF909F900895CF93DF93A2
:10323000FA01C185D28545815681878190854817DD
:10324000590708F05FC0DB014C914E3771F4A08143
:10325000B181AA0FBB1FAA0FBB1FAA0FBB1FAC0FC8
:10326000BD1F3C913E3709F44DC03481353011F01B
:10327000311108C0211103C084E084831EC081E0A5
:1032800084831BC04E3771F421110CC02081318121
:10329000232B11F480839183808191810197808316
:1032A00091830BC0228133812F5F3F4F2283338371
:1032B0008217930711F41282138250E015C08281A5
:1032C0009381880F991F880F991F880F991F8C0F62
:1032D0009D1F252F30E0DB01A20FB31F4C91DC01B5
:1032E000A20FB31F4C935F5F583048F385819681DE
:1032F000019685839683278130858217930710F086
:1033000083E08483DF91CF910895FF920F931F9301
:10331000CF93DF93082F10E096E1909FF001919FEB
:10332000F00D1124E85DFB4BA281B38111969C91B5
:1033300011979F70973008F050C094E3909FF00170
:10334000919FF00D1124EC50FC4B178E91E093A748
:103350001386148615861686108A118A17869C9104
:103360009E3759F494E3909FF001919FF00D112442
:10337000EC50FC4B96E096A30AC094E3909FF001BA
:10338000919FF00D1124EC50FC4B95E096A3F82E84
:1033900084E3809FE001819FD00D1124AE01415054
:1033A0005C4B21E0BD018F2D0E941619CC50DC4BE7
:1033B00081E08DA38CA38F2D0E94E6178CA5882316
:1033C00019F08F2D0E942A1884E3809FF001819FBD
:1033D000F00D1124EC50FC4B15A6DF91CF911F91FD
:1033E0000F91FF9008950F931F93CF93DF93082FB2
:1033F00010E096E1909FF001919FF00D1124E85D9F
:10340000FB4B0280F381E02DC181CF70D0E0DC2F37
:10341000CC279281C90FD11DC730D10508F4B7C0A0
:103420009CE1909FD001919FB00D1124A55CBF4BF2
:103430005A962D913C915B972C173D0708F4A7C035
:10344000909FD001919FB00D1124A55CBF4B1396A6
:103450009C91911139C094E3909FD001919FB00D40
:103460001124AC50BC4B95E096969C939CE1909FA8
:10347000D001919FB00D1124A55CBF4B9C9191117F
:1034800023C09CE1909FD001919FB00D1124A55CB9
:10349000BF4B5296AC9194E2A99FD0011124A95A36
:1034A000BF4B5D962D913C915E9794E3909FD00128
:1034B000919FB00D1124AC50BC4B90962D933C9332
:1034C000919792E05F969C9394E3909FA001919FC7
:1034D000500D1124DA01AC50BC4B1B961D921C926E
:1034E0001C971D961D921C921E9750961D921C9221
:1034F00051971F961C9241505C4B21E0BF010E94E6
:10350000161925979E01ABEABAEA0E947F2296958A
:103510008795969587959C01220F331F820F931FE5
:10352000880F991FC817D90789F49E010E947F222E
:10353000969587959695879594E3909FF001919F36
:10354000F00D1124EC50FC4B84A313C09E01ABEA98
:10355000BAEA0E947F2296958795969587958F5F08
:1035600094E3909FF001919FF00D1124EC50FC4BDF
:1035700084A384E3809FF001819FF00D1124EC501F
:10358000FC4B81E085A313A685A710A611A6DF91A9
:10359000CF911F910F910895EF92FF921F93CF93B8
:1035A000DF93182FC82FD0E086E18C9FF0018D9F0C
:1035B000F00D1124E85DFB4BA281B3818CE18C9F5F
:1035C000F0018D9FF00D1124E55CFF4B808181118E
:1035D0001DC08CE18C9FF0018D9FF00D1124E55CE6
:1035E000FF4BE28924E2E29FF0011124E95AFF4BEC
:1035F000858D968D24E32C9FF0012D9FF00D1124D5
:10360000EC50FC4B80A391A382E0878F11968C91A4
:1036100011978F7094E39C9FF0019D9FF00D1124F2
:10362000EC50FC4B95A189132DC09F5F84E38C9FC8
:10363000F0018D9FF00D1124EC50FC4B95A39031BF
:1036400040F08C9FF0018D9FF00D1124EC50FC4B4D
:1036500015A284E38C9FA0018D9F500D1124CA01F7
:103660008C509C4B7C01FC0184A1815084A341506F
:103670005C4B21E0BD01812F0E94161985E0F70106
:1036800086A322C084E38C9FF0018D9FF00D11244E
:10369000EC50FC4B84A5882349F084E38C9FF00117
:1036A0008D9FF00D1124EC50FC4B14A684E38C9FED
:1036B000F0018D9FF00D1124EC50FC4B15A686E017
:1036C000868B178E81E086A384E38C9FF0018D9F0B
:1036D000F00D1124EC50FC4B84A1811117C07F0127
:1036E000178E81E083A7812F0E94E617F70184A53A
:1036F000882319F0812F0E942A1884E38C9FF001FF
:103700008D9FF00D1124EC50FC4B15A6DF91CF914D
:103710001F91FF90EF900895282F30E09CE1929F39
:10372000F001939FF00D1124E55CFF4B9381911103
:1037300011C094E3929FF001939FF00D1124EC507F
:10374000FC4B12A695E09483158216822281338168
:1037500020833183FB01918192959F70913039F0E4
:1037600018F0923039F008950E94851908950E944A
:10377000F31908950E94CC1A0895282F30E096E19D
:10378000929FF001939FF00D1124E85DFB4BA28105
:10379000B3819CE1929FF001939FF00D1124E55CB1
:1037A000FF4B438141113DC0929FF001939FF00D6B
:1037B0001124E55CFF4B628970E09C9152E8590F3F
:1037C000523028F154E2569FF001579FF00D11241A
:1037D000E95AFF4B0190F081E02D5081951729F0B7
:1037E00012965C911297503BA1F454E2569FF0015F
:1037F000579FF00D1124E95AFF4B5281951759F04C
:1038000012969C911297903B41F090E007C090E097
:1038100005C091E003C090E001C091E0592F5170C4
:1038200001C050E011969C91119792959F704111A3
:103830000EC0511102C0933050F084E3829FF0011A
:10384000839FF00D1124EC50FC4B12A6089544E325
:10385000429FF001439FF00D1124EC50FC4B46A118
:10386000453011F0423019F44C914E3781F044E369
:10387000429FF001439FF00D1124EC50FC4B23A517
:10388000233011F4923019F0BD010E948C1B089571
:103890000F931F93CF93DF93EA0149855A858D815A
:1038A0009E81892BD1F10881198130E013C0832FCB
:1038B00090E0DB01A80FB91FF801EE0FFF1FEE0F1C
:1038C000FF1FEE0FFF1FE40FF51FE80FF91F8081A8
:1038D0008C933F5F383058F38D819E8101978D83A3
:1038E0009E83892B39F4211103C085E08C8315C098
:1038F0001C8213C0211103C084E08C8302C081E0CC
:103900008C83888199810196888399832F8138855A
:103910008217930711F418821982DF91CF911F91BA
:103920000F910895CF93DF93282F30E094E3929F77
:10393000A001939F500D11244C505C4B96E1929F37
:10394000E001939FD00D1124C85DDB4B6A817B8120
:1039500020E00E94481C88E08C83DF91CF9108957D
:10396000282F30E094E3929FA001939F500D1124E3
:103970004C505C4B96E1929FF001939FF00D112407
:10398000E85DFB4B6281738120E00E94481C089532
:103990000F931F93E62F682F70E00E2F10E0083072
:1039A000110508F061C0F801E15AFD4F0C94762230
:1039B00084E3869FF001879FF00D1124EC50FC4BAF
:1039C0008689813009F052C084E3869FF001879F89
:1039D000F00D1124EC50FC4B85A5811149C084E306
:1039E000869FF001879FF00D1124EC50FC4B81E085
:1039F00084A780E042C00E94921C80E03EC094E315
:103A0000969FF001979FF00D1124EC50FC4B92A56E
:103A1000992381F124E3269FF001279FF00D1124C3
:103A2000EC50FC4B23A5233039F124E3269FF00111
:103A3000279FF00D1124EC50FC4B915092A70E944F
:103A4000B01C80E01AC00E94801780E016C00E945F
:103A5000BD1B80E012C0642F0E941B1780E00DC0C8
:103A60000E94AF1680E009C080E007C080E005C07A
:103A700080E003C081E001C081E01F910F910895B3
:103A80002CE1829FC0011124FC01E55CFF4B838186
:103A9000811113C0603299F481E0860FFA018083AE
:103AA00082E0860F818383E0860F828384E0860F25
:103AB00083836B5F648384E5089583E5089583E5DC
:103AC0000895CF93DF93282F30E0E901D595C7956E
:103AD000A9015595479555954795F901F595E795B0
:103AE000F595E795F595E795F595E7959C2F98273A
:103AF00049274E2741704295440F440F407CD9011D
:103B0000B595A795B595A795B595A795359527959D
:103B1000359527953595279535952795359527958D
:103B20009C2F9A279E279227917090959795992779
:103B30009795242F292B613031F4982F907C921384
:103B400004C08F7303C0822B01C08FEFDF91CF9130
:103B50000895FC014C3341F04D3749F04E3F51F090
:103B60004F3B59F050E016C040E050E013C040E039
:103B700050E010C040E050E00DC040E050E00AC00E
:103B80008191480F511D4F3F510519F010F04F5FC3
:103B9000510961506111F4CF842F809508951F93CE
:103BA000CF93DF939B01220F331FF901E151FC4BAF
:103BB000C081D181F901E551FC4B0190F081E02DEC
:103BC0002D815C81322F351B313029F42F81241354
:103BD00004C0A0E003C0A0E001C0A1E02A2F217032
:103BE000A881B9811C91411721F0313021F440E0C6
:103BF00003C040E001C041E0342F317011F42223B2
:103C000039F029E0298B2B85211109C0188608C0BD
:103C10001196A883B9835F5F5C8321E001C020E037
:103C2000222351F12C813D812317A0F48D8190E056
:103C3000821B9109019739F40280F381E02DCE01B6
:103C40000796099519C00280F381E02D888199813A
:103C5000099512C02BE0298B2AE02A8BED85FE8581
:103C6000309711F0AE0109958B85811105C018863A
:103C7000198A82E08A8B1A86DF91CF911F9108956D
:103C8000CF92DF92EF92FF921F93CF93DF939B012E
:103C9000220F331FF901E351FC4B0190F081E02D1D
:103CA000D901A151BC4BCD91DC912A89263059F51F
:103CB0002481211128C0142F6B017C0161E0842F25
:103CC0000E94611D8F87188B8F3FA9F086E0898B3A
:103CD0008C85882331F087E08A8B81E08A87898709
:103CE00012C01A86ED85FE85309769F0AE01C701D6
:103CF000B601099508C087E0898BED85FE85AE0188
:103D0000C701B6010995DF91CF911F91FF90EF9008
:103D1000DF90CF9008950F93CF93DF93EA01402F68
:103D2000660F771FFB01E351FC4B0190F081E02D02
:103D3000A085B18552855F3F79F0109749F40FC097
:103D4000FD01E90FF11D3081431741F09F5F01C074
:103D500090E09517A8F303C040E001C040E0622F57
:103D6000CE010E94A91DDF91CF910F910895F90115
:103D7000660F771FDB01A151BC4B2D933C93DB01F8
:103D8000A351BC4B4D935C93DB01A551BC4B84E02C
:103D900090E48D939C9382E0828B1086118612862C
:103DA00014861386178A138A148A158A168A80E065
:103DB00090E00895660F771FFB01E151FC4B0190E5
:103DC000F081E02D118A82E0828B128680E090E003
:103DD0000895CF92DF92EF92FF920F93CF93DF93EC
:103DE000FB01EE0FFF1FE151FC4BC081D1812E8101
:103DF00030E05C81E52FF0E03196E217F30750F4F4
:103E0000EA81FB8140832A813B812F5F3F4F2A83D8
:103E10003B8308C02E8130E0251B3109213031055C
:103E200009F44F832C8131E0320F3C832E81321311
:103E30003DC06B017C018E8190E001974A815B81DE
:103E4000481B590B4A835B832E8121500889C70187
:103E5000B6010E948B1E9F81891319C08CE0898B4B
:103E600088E08A8BED85FE85309721F0AE01C70191
:103E7000B60109958C85811119C01A8619868A891F
:103E80008130A1F0C701B6010E94DA1E0FC08AE09E
:103E9000898BED85FE85309721F0AE01C701B60113
:103EA00009951986C701B6010E94DA1EDF91CF91EC
:103EB0000F91FF90EF90DF90CF900895660F771FDE
:103EC000FB01E151FC4B0190F081E02D81E0828B00
:103ED00080E090E00895CF93DF93FB01EE0FFF1F8A
:103EE000E151FC4BC081D1810E94DA1E18861986EF
:103EF00080E090E0DF91CF910895660F771FFB017E
:103F0000E151FC4B0190F081E02D85859685458738
:103F100056870895CF92DF92EF92FF92CF93DF936F
:103F20001F92CDB7DEB76B017C01CB01880F991FC3
:103F3000FC01E351FC4B20813181FC01E151FC4B40
:103F4000A081B181FC01E551FC4B60817181413060
:103F5000D9F4F901848181114CC081E01A968C93C7
:103F60001A9784E051968C93519786E052968C93E1
:103F7000DB01ED91FC91CE01019609954981C701C4
:103F8000B6010E94401E35C041111FC052968C914F
:103F9000873019F0893069F02CC0DB01ED91FC917C
:103FA000CE01019609954981C701B6010E94E91E1B
:103FB00020C0DB01ED91FC91CE010196099549816C
:103FC000C701B6010E94CF1D14C04F3F91F485E098
:103FD00051968C9351971D96ED91FC911E973097B9
:103FE00021F0AD01C701B6010995C701B6010E94D4
:103FF000DA1E0F90DF91CF91FF90EF90DF90CF907E
:104000000895CF92DF92EF92FF920F931F93CF9379
:10401000DF93FB01EE0FFF1FDF01A151BC4BCD91E0
:10402000DC91E551FC4BC080D180EA893FEF320F33
:10403000383008F5E13011F13A85311122C0122FE4
:104040007A0108890E948B1E8F83E882F98221E021
:10405000210F2D831C8289E08A8B198A81E08A874F
:104060008887D6011296ED91FC911397C7010995A7
:1040700080E090E008C081E090E005C081E090E041
:1040800002C082E090E0DF91CF911F910F91FF90ED
:10409000EF90DF90CF900895660F771FFB01E151FD
:1040A000FC4B0190F081E02D92898FEF820F8830D8
:1040B000A0F49130A9F08285811115C04283538309
:1040C0002F5F2683148287E0828B118A81E08287AA
:1040D0008187148680E090E0089581E090E0089563
:1040E00081E090E0089582E090E00895CF92DF9221
:1040F000EF92FF92CF93DF936B017C01FB01EE0FF8
:10410000FF1FE151FC4BC081D1818A89873051F179
:10411000893009F04DC08B899C89AD89BE89892B76
:104120008A2B8B2B99F481E08F8B8B85811140C07A
:10413000ED85FE85309721F0AE01C701B6010995E6
:104140001886C701B6010E94DA1E32C08B899C898D
:10415000AD89BE890197A109B1098B8B9C8BAD8B71
:10416000BE8B26C08B899C89AD89BE89892B8A2B01
:104170008B2B99F481E08F8B8C85811119C0ED8593
:10418000FE85309721F0AE01C701B6010995198669
:10419000C701B6010E94DA1E0BC08B899C89AD89CC
:1041A000BE890197A109B1098B8B9C8BAD8BBE8B0E
:1041B000DF91CF91FF90EF90DF90CF900895660F41
:1041C000771FFB01E151FC4B0190F081E02D178A34
:1041D000238B348B458B568B0895660F771FFB011D
:1041E000E151FC4B0190F081E02D86819481891B87
:1041F000DA018C939189911108C0882349F087894D
:10420000811109C082E090E0089580E090E0089577
:1042100080E090E0089583E090E008951092890096
:1042200080E0089544E268ED88E690E00E942B2249
:1042300080E00895789480E0089580E008C0E82F39
:10424000F0E0E05FFB4F9081986090838F5F883053
:10425000B0F380E008C0E82FF0E0E05BFB4F908116
:10426000986090838F5F8830B0F380E008C0E82FBB
:10427000F0E0E059FB4F9081986090838F5F883029
:10428000B0F380E008C0E82FF0E0E055FB4F9081EC
:10429000986090838F5F8830B0F3089580B18D7FF0
:1042A00080B9E1E1F4E08081877F808381B18E7FF6
:1042B00081B980B1816080B90E943E2208950E9438
:1042C000322208950E947C2108950E941D2185B309
:1042D000826085BB84B3826084BB0E9412210E94ED
:1042E0004E210E9430220E941A210E945F210E94CA
:1042F00062210E940E21089581E08093011080E0E8
:1043000008950F9200903B000F920A01FB018093E9
:104310003B00E89511240F9000923B000F90089508
:104320008BBFFB0187910895CF92DF92EF92FF92AE
:104330006B017C01809102108370E1F748E06DE928
:1043400080E090E10E942B2240E050E0C701B601DE
:104350000E94812140E06DE980E090E10E942B22E3
:1043600080910210807711F081E001C080E0FF9021
:10437000EF90DF90CF9008958F929F92AF92BF926F
:10438000CF92DF92EF92FF920F931F93CF93DF9321
:104390006B017C01DC01CB019170AA27BB27892B23
:1043A0008A2B8B2B09F047C0809102108370E1F7B4
:1043B0008A0148E06DE980E090E10E942B2240E014
:1043C00050E0C701B6010E9481218091021080FD5A
:1043D000FCCF40E06DE980E090E10E942B2242E0BA
:1043E0006DE980E090E10E942B22C0E0D0E013C094
:1043F000CE01880F991FF801E80FF91F4081518104
:1044000046015701880E991EA11CB11CC501B401BB
:104410000E9481212196CF3FD10551F348F340E01E
:104420006DE980E090E10E942B228091021080775C
:1044300021F081E003C081E001C080E0DF91CF91F5
:104440001F910F91FF90EF90DF90CF90BF90AF90B2
:104450009F908F9008951BBEFC0164BF4083089518
:1044600080E00895E0E0FAE081E082878BED95E05E
:1044700086A397A387E0808380E00895E0E0F8E0DA
:1044800088E893E18087918784E8858386EC86833A
:1044900080E0089520910008FC0120830895FC012C
:1044A0008081809302080895A1E21A2EAA1BBB1BEB
:1044B000FD010DC0AA1FBB1FEE1FFF1FA217B307F0
:1044C000E407F50720F0A21BB30BE40BF50B661F06
:1044D000771F881F991F1A9469F7609570958095CA
:1044E00090959B01AC01BD01CF010895EE0FFF1F18
:1044F0000024001C0BBE0790F691E02D0994A29FAA
:10450000B001B39FC001A39F700D811D1124911DA7
:10451000B29F700D811D1124911D08950E947F226C
:10452000A59F900DB49F900DA49F800D911D112407
:064530000895F894FFCF8E
:10453600006200004A224F22000000000000004BEB
:10454600000000010000000000070F0021500010CD
:10455600213C3DFF0000FEFFFFFF4FFEFFFF0080F6
:10456600F8FFFFFFFF7FFFFFFFFFFF0000030004D0
:10457600008B407B401E4010270000000000FF0E0D
:10458600408143214345001D4050000000000001CA
:104596000101011C4001031A40194000000064009B
:1045A6001400D007D0070AB940E1430000100021EB
:1045B600003C003D00FFFF00000000000801000075
:1045C60000000100000008000800010002000011C0
:1045D60008010000000000000011080000000000B3
:1045E6000000000000000000FFB2B3B6B722103191
:0445F6008536000006
:0400000300000400F5
:00000001FF
