S0180000415652313238444132385F46525F52522E737265639F
S11348000C946E240C948D240C948D240C941725F4
S11348100C948D240C948D240C948D240C948D2450
S11348200C948D240C948D240C948D240C948D2440
S11348300C944F250C94C0250C948D240C948D2439
S11348400C948D240C948D240C948D240C949B2412
S11348500C948D240C948D240C948D240C948D2410
S11348600C9433640C948D240C948D240C94606308
S11348700C948D240C948D240C948D240C948D24F0
S11348800C948D240C948D240C948D240C948D24E0
S11348900C948D240C948D240C948D240C948D24D0
S11348A00C948D24A326ED263C278B27DA27292870
S11348B07828AC4CCD4CA34C3F4CCD4C8F4C394C50
S11348C05F4C874C7F4C774C674C6F4C064F0A4FBC
S11348D0274F2B4F2F4F344F384FF14E11241FBE0B
S11348E0CFEFCDBFDFE7DEBF13E4A0E0B0E4E6EA3C
S11348F0F4EF00E00BBF02C007900D92A230B107A5
S1134900D9F727E4A2E0B3E401C01D92A035B207B1
S1134910E1F70E9497300C94517A0C940024CF93C1
S1134920DF93CDB7DEB70E9435690E948C62000028
S1134930DF91CF9108951F920F9200903F000F9244
S1134940112400903B000F922F933F934F935F935A
S11349506F937F938F939F93AF93BF93EF93FF9343
S1134960CF93DF931F92CDB7DEB780E098E0FC01D0
S11349708481882F90E088709927959587959595DF
S113498087959595879589838981813081F44FEF47
S113499060E070E0CB010E94725A80E098E020E071
S11349A038E0F90124812860FC01248328C080E0D8
S11349B098E0FC018181817089838981882381F455
S11349C041E060E070E0CB010E94725A80E098E020
S11349D020E038E0F90124812860FC0124830FC021
S11349E040E060E070E0CB010E94725A80E098E001
S11349F020E038E0F90124812860FC0124830F9031
S1134A00DF91CF91FF91EF91BF91AF919F918F91E2
S1134A107F916F915F914F913F912F910F900092F1
S1134A203B000F9000923F000F901F9018951F922B
S1134A300F9200903F000F92112400903B000F92C0
S1134A402F933F934F935F936F937F938F939F9392
S1134A50AF93BF93EF93FF93CF93DF93CDB7DEB7BD
S1134A600E94EA6280E491E022E0FC0123830000DA
S1134A70DF91CF91FF91EF91BF91AF919F918F9172
S1134A807F916F915F914F913F912F910F90009281
S1134A903B000F9000923F000F901F9018951F92BB
S1134AA00F9200903F000F92112400903B000F9250
S1134AB02F933F934F935F936F937F938F939F9322
S1134AC0AF93BF93EF93FF93CF93DF93CDB7DEB74D
S1134AD080E00E949A4A8091474690914846019608
S1134AE0809347469093484680E09BE021E0FC0198
S1134AF026830000DF91CF91FF91EF91BF91AF9199
S1134B009F918F917F916F915F914F913F912F91E1
S1134B100F9000923B000F9000923F000F901F9067
S1134B201895CF93DF93CDB7DEB7809104438130DE
S1134B3019F58091024390910343C597B8F480918D
S1134B40024390910343880F991F8A5F9F4BFC0196
S1134B50808191810E94C3648091024390910343B8
S1134B600196809302439093034306C0109202433C
S1134B7010920343109204430000DF91CF910895F3
S1134B801F920F9200903F000F92112400903B005F
S1134B900F922F933F934F935F936F937F938F93D2
S1134BA09F93AF93BF93EF93FF93CF93DF93CDB7CF
S1134BB0DEB70E94912580E19BE021E0FC01268381
S1134BC00000DF91CF91FF91EF91BF91AF919F9141
S1134BD08F917F916F915F914F913F912F910F90A2
S1134BE000923B000F9000923F000F901F90189589
S1134BF0CF93DF931F92CDB7DEB78983898181304C
S1134C0049F461E087E00E94E52F60E086E00E94BD
S1134C10E52F08C060E087E00E94E52F61E086E0B0
S1134C200E94E52F00000F90DF91CF910895CF935C
S1134C30DF93CDB7DEB7809105438093064382E0CE
S1134C4090E00E94046380788093054381E0809320
S1134C50714080910543882339F08091064388236D
S1134C6019F481E0809370400E94072E0000DF91C8
S1134C70CF910895CF93DF93CDB7DEB741E063E0E2
S1134C8084E00E94D4280000DF91CF910895CF934F
S1134C90DF93CDB7DEB78091C14082958F708823B2
S1134CA061F08091C14082958F708F708F70909168
S1134CB07640907F892B809376408091BD408170AF
S1134CC081708295880F807E909176409F7D892B9C
S1134CD0809376400000DF91CF910895CF93DF93C6
S1134CE000D000D0CDB7DEB769837A838B839C83F1
S1134CF080E09AE029813A81FC0124A735A70000CD
S1134D002496CDBFDEBFDF91CF910895CF93DF937B
S1134D101F92CDB7DEB719823EC28981882F90E0F9
S1134D20092E000CAA0BBB0B43E050E026E030E058
S1134D30841B950B2817390708F429C28E5A9B4DFA
S1134D40FC010C94DC788981282F30E0C901880F9C
S1134D50991F820F931F865B994BFC0180818823E6
S1134D6089F18981282F30E0C901880F991F820FAA
S1134D70931F865B994BFC0180814FEF480FC9015B
S1134D80880F991F820F931F865B994BFC01408308
S1134D908091C540482F487F8981282F30E0C90180
S1134DA0880F991F820F931F855B994BFC018081AB
S1134DB08770842B8093C540809125468E7F809395
S1134DC02546E6C18091C540887F8093C540809187
S1134DD025468E7F80932546DBC18981282F30E0CC
S1134DE0C901880F991F820F931F865B994BFC01A1
S1134DF080818823B1F18981282F30E0C901880F8F
S1134E00991F820F931F865B994BFC0180814FEFA2
S1134E10480FC901880F991F820F931F865B994B16
S1134E20FC0140838981282F30E0C901880F991F34
S1134E30820F931F855B994BFC018081882331F09D
S1134E408091C54088608093C54005C08091C5406D
S1134E50877F8093C540809125468D7F809325462A
S1134E6097C18091C540877F8093C5408091254636
S1134E708D7F809325468CC18981282F30E0C9011C
S1134E80880F991F820F931F865B994BFC018081C9
S1134E908823B1F18981282F30E0C901880F991F37
S1134EA0820F931F855B994BFC018081882331F02D
S1134EB08091C54080618093C54005C08091C54004
S1134EC08F7E8093C540809125468B7F80932546B5
S1134ED08981282F30E0C901880F991F820F931F01
S1134EE0865B994BFC0180814FEF480FC901880F05
S1134EF0991F820F931F865B994BFC01408348C125
S1134F008091C5408F7E8093C540809125468B7FDC
S1134F10809325463DC18981282F30E0C901880F3F
S1134F20991F820F931F865B994BFC018081882314
S1134F30B1F18981282F30E0C901880F991F820FB0
S1134F40931F865B994BFC0180814FEF480FC90189
S1134F50880F991F820F931F865B994BFC01408336
S1134F608981282F30E0C901880F991F820F931F70
S1134F70855B994BFC018081882331F08091C54089
S1134F8080628093C54005C08091C5408F7D809329
S1134F90C54080912546877F80932546F9C080913E
S1134FA0C5408F7D8093C54080912546877F80933F
S1134FB02546EEC08981282F30E0C901880F991F4A
S1134FC0820F931F865B994BFC0180818823B1F18A
S1134FD08981282F30E0C901880F991F820F931F00
S1134FE0865B994BFC0180814FEF480FC901880F04
S1134FF0991F820F931F865B994BFC014083898123
S1135000282F30E0C901880F991F820F931F855BF9
S1135010994BFC018081882331F08091C7408160E5
S11350208093C74005C08091C7408E7F8093C7405E
S1135030809125468F7E80932546AAC08091C740E3
S11350408E7F8093C740809125468F7E809325462E
S11350509FC08981282F30E0C901880F991F820FD2
S1135060931F865B994BFC0180818823B1F1898170
S1135070282F30E0C901880F991F820F931F865B88
S1135080994BFC0180814FEF480FC901880F991F8C
S1135090820F931F865B994BFC0140838981282FE3
S11350A030E0C901880F991F820F931F855B994BCC
S11350B0FC018081882331F08091C7408260809315
S11350C0C74005C08091C7408D7F8093C7408091C1
S11350D025468F7D809325465BC08091C7408D7F98
S11350E08093C740809125468F7D8093254650C08C
S11350F08981282F30E0C901880F991F820F931FDF
S1135100865B994BFC0180818823B1F18981282F2A
S113511030E0C901880F991F820F931F865B994B5A
S1135120FC0180814FEF480FC901880F991F820F3E
S1135130931F865B994BFC0140838981282F30E0C3
S1135140C901880F991F820F931F855B994BFC013E
S11351508081882331F08091C74084608093C74068
S113516005C08091C7408B7F8093C74080912546BE
S11351708F7B809325460CC08091C7408B7F8093A2
S1135180C740809125468F7B8093254601C000004F
S113519089818F5F898389818A3008F4BECD0000BC
S11351A00F90DF91CF910895CF93DF9300D01F929A
S11351B0CDB7DEB789836A834B838981282F30E09A
S11351C0C901880F991F820F931F865B994B2A810F
S11351D0FC0120838981282F30E0C901880F991FA1
S11351E0820F931F855B994B2B81FC012083000068
S11351F02396CDBFDEBFDF91CF910895CF93DF9388
S11352001F92CDB7DEB7898300000F90DF91CF9155
S11352100895CF93DF931F92CDB7DEB78983498179
S113522063E083E00E94D42800000F90DF91CF91C7
S11352300895CF93DF9300D000D0CDB7DEB789E7D0
S113524090E489839A8384E890E48B839C8380E947
S113525090E489839A838BE990E48B839C8389818E
S11352609A81FC01248189819A81FC01238380E055
S113527090E00E940463282F207889819A81FC01A0
S1135280248389819A81FC01268189819A81FC0188
S1135290258381E090E00E940463282F207889818F
S11352A09A81FC01268389819A81FC0124818B8166
S11352B09C81FC01268389819A81FC0126818B8152
S11352C09C81FC01278389819A81FC018481882344
S11352D081F089819A81FC018381882351F4898139
S11352E09A81FC011182128289819A8122E0FC0157
S11352F0208389819A81FC018081823009F03FC03A
S113530089819A81FC01818192819C012F5F3F4FA9
S113531089819A81FC01218332838B819C8121E0E4
S1135320FC0121838B819C8121E0FC012383898101
S11353309A81FC0181819281C29770F089819A815E
S1135340FC0110828B819C8121E0FC0121838B81F3
S11353509C8121E0FC01238389819A81FC01848161
S1135360882369F489819A81FC0110828B819C8154
S1135370FC0111828B819C8121E0FC0123838981C2
S11353809A81FC018681882381F089819A81FC01BC
S11353908581882351F489819A81FC0111821282CA
S11353A089819A8123E0FC01208389819A81FC010F
S11353B08081833009F03FC089819A81FC01818119
S11353C092819C012F5F3F4F89819A81FC01218347
S11353D032838B819C8121E0FC0121838B819C8120
S11353E021E0FC01228389819A81FC0181819281DF
S11353F0C29770F089819A81FC0110828B819C8113
S113540021E0FC0121838B819C8121E0FC0122832A
S113541089819A81FC018681882369F489819A8132
S1135420FC0110828B819C81FC0111828B819C8107
S113543021E0FC01228389819A81FC0120858981F4
S11354409A81FC01278380E090E00E942163282F49
S113545089819A81FC01208789819A81FC012085B8
S11354608B819C81FC01208780E090E00E94406356
S1135470282F89819A81FC01228789819A81FC01E4
S11354808081882309F589819A81FC01808588239C
S113549009F4DBC089819A81FC018781882309F0A2
S11354A0D4C089819A81FC011182128289819A81F6
S11354B024E0FC01208389819A81FC012285898171
S11354C09A81FC012187C1C089819A81FC01808174
S11354D0843009F0AAC089819A81FC0180858823DF
S11354E099F589819A81FC01108289819A81FC0154
S11354F08185843688F489819A81FC018285873983
S113550008F4A3C08B819C81FC0111828B819C8156
S113551021E0FC01248399C089819A81FC01818561
S1135520873908F492C089819A81FC018285843686
S113553008F08BC08B819C81FC0111828B819C8142
S113554021E0FC01258381C089819A81FC0181814C
S113555092819C012F5F3F4F89819A81FC012183B5
S1135560328389819A81FC018085882309F46DC086
S113557089819A81FC018185843648F589819A81E3
S1135580FC018285873908F460C089819A81FC0115
S113559081819281C29780F08B819C8121E0FC0102
S11355A0248389819A8125E0FC0120838B819C815D
S11355B021E0FC01218349C08B819C8121E0FC0115
S11355C024838B819C8121E0FC0121833EC089815D
S11355D09A81FC0181858739C0F189819A81FC0116
S11355E08285843690F589819A81FC01818192813A
S11355F0C29780F089819A8125E0FC0120838B8108
S11356009C8121E0FC0121838B819C8121E0FC01B0
S113561025831BC08B819C8121E0FC0121838B812C
S11356209C8121E0FC01258310C089819A81FC01C1
S11356308081853051F489819A81FC018085882399
S113564021F489819A81FC0110828B819C810E94C2
S1135650252C00002496CDBFDEBFDF91CF910895A5
S1135660CF93DF9300D0CDB7DEB789836A838A8175
S1135670882F90E081309105E1F08230910571F13D
S1135680892B09F03BC020E030E080E090E0FC0191
S11356908081682F8981482F50E081E090E002C02A
S11356A0880F991F4A95E2F780958623F901808334
S11356B025C020E030E080E090E0FC018081682F8C
S11356C08981482F50E081E090E002C0880F991F43
S11356D04A95E2F7862BF901808310C08981882FCF
S11356E090E0805F9B4F2981222F30E0205F3B4F69
S11356F0F90120812860FC012083000000000F9044
S11357000F90DF91CF910895CF93DF9300D0CDB761
S1135710DEB789836A838A818823A9F020E030E098
S113572080E090E0FC018181682F8981482F50E05E
S113573081E090E002C0880F991F4A95E2F7862B1A
S1135740F901818315C020E030E080E090E0FC01A5
S11357508181682F8981482F50E081E090E002C068
S1135760880F991F4A95E2F780958623F901818372
S113577000000F900F90DF91CF910895CF93DF93A6
S113578000D0CDB7DEB789836A838A818823A9F0E4
S113579084E190E024E130E0F9012181622F298144
S11357A0422F50E021E030E002C0220F331F4A951F
S11357B0E2F7262BFC01218315C084E190E024E16B
S11357C030E0F9012181622F2981422F50E021E04C
S11357D030E002C0220F331F4A95E2F720952623BA
S11357E0FC01218300000F900F90DF91CF91089569
S11357F0CF93DF931F92CDB7DEB78983698180E0B1
S11358000E94302B00000F90DF91CF910895CF9329
S1135810DF931F92CDB7DEB78983698180E00E9450
S1135820842B00000F90DF91CF910895CF93DF93E5
S11358301F92CDB7DEB78983698181E00E94BE2BB8
S113584000000F90DF91CF910895CF93DF9300D0A4
S1135850CDB7DEB789839A8389819A81FC018081DF
S1135860882F90E08130910509F427C18230910599
S113587009F492C1892B09F0C4C189819A81FC0180
S1135880118689819A81FC018381813009F040C0AD
S113589089819A81FC01138289819A81FC01818129
S11358A08130E9F489819A8121E0FC012187898191
S11358B09A81FC0182859385892B59F089819A818B
S11358C0FC012285338589819A81FC018185F90156
S11358D0099589819A8121E0FC0120838DC1898108
S11358E09A8123E0FC01218789819A81FC018285C8
S11358F09385892B09F480C189819A81FC012285D1
S1135900338589819A81FC018185F901099574C1E6
S113591089819A81FC018281813009F040C08981AA
S11359209A81FC01128289819A81FC0181818130F2
S1135930E9F489819A8122E0FC01218789819A8195
S1135940FC0182859385892B59F089819A81FC0118
S11359502285338589819A81FC018185F901099524
S113596089819A8121E0FC01208346C189819A8141
S113597024E0FC01218789819A81FC018285938539
S1135980892B09F439C189819A81FC0122853385E7
S113599089819A81FC018185F90109952DC189814B
S11359A09A81FC018481813009F040C089819A8107
S11359B0FC01148289819A81FC0181818130E9F49E
S11359C089819A8121E0FC01218789819A81FC01E6
S11359D082859385892B59F089819A81FC012285DE
S11359E0338589819A81FC018185F9010995898131
S11359F09A8122E0FC012083FFC089819A8123E0FF
S1135A00FC01218789819A81FC0182859385892BF8
S1135A1009F4F2C089819A81FC0122853385898148
S1135A209A81FC018185F9010995E6C089819A81F1
S1135A30FC018581813009F0DFC089819A81FC01F4
S1135A40158289819A81FC0181818130E9F48981FF
S1135A509A8122E0FC01218789819A81FC01828557
S1135A609385892B59F089819A81FC01228533859C
S1135A7089819A81FC018185F901099589819A813D
S1135A8022E0FC012083B8C089819A8124E0FC01D2
S1135A90218789819A81FC0182859385892B09F468
S1135AA0ABC089819A81FC012285338589819A81E1
S1135AB0FC018185F90109959FC089819A81FC01C6
S1135AC08185823089F589819A81FC0187818823C7
S1135AD0A1F089819A81FC0182859385892B09F43F
S1135AE08DC089819A81FC012285338589819A81BF
S1135AF0FC018185F901099581C089819A81FC01A4
S1135B0082859385892B59F089819A81FC012285AC
S1135B10338589819A81FC018185F90109958981FF
S1135B209A81FC0110826AC089819A81FC01818575
S1135B30813009F063C089819A81FC0186818823C0
S1135B40A1F089819A81FC0182859385892B09F4CE
S1135B5055C089819A81FC012285338589819A8186
S1135B60FC018185F901099549C089819A81FC016B
S1135B7082859385892B59F089819A81FC0122853C
S1135B80338589819A81FC018185F901099589818F
S1135B909A81FC01108232C089819A81FC0180853E
S1135BA0882399F089819A81FC0182859385892BC8
S1135BB039F189819A81FC012285338589819A8111
S1135BC0FC018185F90109951BC089819A81FC0139
S1135BD082859385892B59F089819A81FC012285DC
S1135BE0338589819A81FC018185F901099589812F
S1135BF09A81FC01108204C0000003C0000001C0AF
S1135C00000000000F900F90DF91CF910895CF9383
S1135C10DF9300D000D0CDB7DEB780E790E489836E
S1135C209A8386E790E48B839C8389819A81FC0123
S1135C3080818130E1F489819A81FC01108289811B
S1135C409A81FC018181813091F489819A81FC01DE
S1135C50118289819A81FC0184819581892B39F093
S1135C6089819A81FC0184819581FC01099589814E
S1135C709A81FC0182819381892B69F089819A81BF
S1135C80FC01228133818B819C81FC01808182957E
S1135C908170F901099500002496CDBFDEBFDF9124
S1135CA0CF910895CF93DF93CDB7DEB72E97CDBFB5
S1135CB0DEBF86E790E489879A871B861C861D864B
S1135CC01E8619821A821B821C821D821E821F82DA
S1135CD0188689859A85FC01808180728823B1F0B9
S1135CE082E390E0A0E0B0E089839A83AB83BC8335
S1135CF089859A85FC0180818F70882F90E0A0E0CF
S1135D00B0E08D839E83AF83B88710C084E690E0B3
S1135D10A0E0B0E089839A83AB83BC8389E090E000
S1135D20A0E0B0E08D839E83AF83B8878D819E8190
S1135D30880F991F880F991F8A509E4BFC01208160
S1135D4031814281538189819A81AB81BC81BC01BB
S1135D50CD010E94AA789B01AC018FEA94E0DC019A
S1135D600E94F478DC01CB0120E137E240E050E00E
S1135D70BC01CD010E94BA78DA01C9018B879C87E6
S1135D80AD87BE878091774090917840892B61F0F0
S1135D9020917740309178408B859C85AD85BE8578
S1135DA0BC01CD01F901099500002E96CDBFDEBFDF
S1135DB0DF91CF910895CF93DF93CDB7DEB780E025
S1135DC00E94162CF89480E098E020E038E0F90175
S1135DD025812B77FC01258380E098E020E038E0E2
S1135DE0F90126812973FC01268381E00E94F82BA6
S1135DF080E00E94072C0000DF91CF910895CF939B
S1135E00DF9300D0CDB7DEB789836A838A81882384
S1135E10A9F088E090E028E030E0F9012181622FC8
S1135E202981422F50E021E030E002C0220F331FCD
S1135E304A95E2F7262BFC01218315C088E090E007
S1135E4028E030E0F9012181622F2981422F50E0BE
S1135E5021E030E002C0220F331F4A95E2F720957B
S1135E602623FC01218300000F900F90DF91CF9136
S1135E700895CF93DF931F92CDB7DEB789836981ED
S1135E8081E00E94FF2E00000F90DF91CF910895D2
S1135E90CF93DF931F92CDB7DEB78983698182E008
S1135EA00E94FF2E00000F90DF91CF910895CF93B1
S1135EB0DF931F92CDB7DEB78983698183E00E94A7
S1135EC0FF2E00000F90DF91CF910895CF93DF93C1
S1135ED0CDB7DEB72A97CDBFDEBF8F83988769879A
S1135EE04A871E821B821C821D82198221C08981DD
S1135EF0882F90E02985222F30E0A90141505109D3
S1135F002981222F30E0BA01621B730B9B01A90186
S1135F102F813885240F351FF90140819E012A5FA6
S1135F203F4F820F931FFC01408389818F5F8983D8
S1135F30998189859817D8F21A8236C08A81869504
S1135F40869586958B838A8187708C838B81882F35
S1135F5090E09E012A5F3F4F820F931FFC018081D6
S1135F60482F8C81882F90E027E030E0281B390BE4
S1135F7081E090E002C0880F991F2A95E2F78423FC
S1135F808D838D81882321F081E00E94572F03C0E7
S1135F9080E00E94572F80E00E94392F81E00E9408
S1135FA0392F8A818F5F8A839A818A85981730F284
S1135FB080E00E94482F81E00E94482F00002A962A
S1135FC0CDBFDEBFDF91CF910895CF93DF9300D093
S1135FD000D0CDB7DEB78B836C8319821A828B8194
S1135FE0882F90E0880F991F825E9D4BFC01808171
S1135FF089838B81882F90E0880F991F815E9D4B48
S1136000FC0180818A838C81813001F58981282F6C
S113601030E08981882F90E089559F4BFC01608195
S11360208A81482F50E081E090E0A0E0B0E004C015
S1136030880F991FAA1FBB1F4A95D2F7462F482BDA
S1136040C90189559F4BFC01408320C08981282FB9
S113605030E08981882F90E089559F4BFC01608155
S11360608A81482F50E081E090E0A0E0B0E004C0D5
S1136070880F991FAA1FBB1F4A95D2F78095462FF8
S11360804823C90189559F4BFC0140830000249695
S1136090CDBFDEBFDF91CF910895CF93DF93CDB70E
S11360A0DEB748E061E087EA90E40E94662F0000D2
S11360B0DF91CF910895CF93DF93CDB7DEB780E022
S11360C09AE02CE132E0FC0124A735A760E080E0EF
S11360D00E94E52F48E061E087EA90E40E94662F81
S11360E00000DF91CF910895CF93DF9300D01F92EA
S11360F0CDB7DEB789839A836B8389819A814B817B
S113610068ED0E94C06900002396CDBFDEBFDF9119
S1136110CF910895CF93DF93CDB7DEB761E081E4EB
S113612090E00E9474300000DF91CF910895CF93E6
S1136130DF93CDB7DEB70E948F2478940E945B3042
S11361406DE470E384E690E00E94936367E176E295
S113615084E190E00E94936369E179E284E190E054
S11361600E94936367E476E28AE090E00E9493637E
S113617062E57EE284E690E00E9493630E94E83048
S113618080E00E94F03080E00E94E14C60E681E013
S113619090E00E9495690E94D7630E949B6280915F
S11361A007438130C1F7109207436AEA80E090E028
S11361B00E949569000080E090E1FC018281882FB3
S11361C090E083709927892BB1F70E948A30E3CF3E
S11361D0CF93DF93CDB7DEB780E0DF91CF91089501
S11361E0CF93DF9300D000D0CDB7DEB78C838C8102
S11361F0282F30E046E1429FC001439F900D1124B7
S11362008056994B89839A8389819A81FC01108AEB
S11362108C810E9404488B838B812496CDBFDEBF82
S1136220DF91CF910895CF93DF9300D01F92CDB724
S1136230DEB789836A834B838A81882F90E082301A
S11362409105C1F0833091052CF4009749F0019732
S113625061F01FC088309105B4F0089781F019C02F
S11362606B8189810E94503114C06B8189810E94A5
S1136270B3330FC06B8189810E948D320AC089813A
S11362800E940B3506C04B816A8189810E9460346B
S1136290000000002396CDBFDEBFDF91CF910895AB
S11362A0CF93DF93CDB7DEB72F97CDBFDEBF8E87F9
S11362B06F8719828E85282F30E04CE1429FC00100
S11362C0439F900D112486569D4B8D839E838E850E
S11362D0282F30E046E1429FC001439F900D1124D6
S11362E08056994B8F8398876F858E850E940036E0
S11362F089878D819E81FC01268137818985882F3C
S113630090E0880F991FAC01440F551F440F551F8F
S1136310840F951F820F931F8A879B8789858F3FE0
S113632009F4D5C081E0898360E08F850E94F44739
S1136330282F8F819885FC0121878A859B85FC0104
S11363408081882F90E081309105B1F081319105F1
S113635009F48AC0892B09F0BAC08A859B85FC019F
S11363608281882309F0B0C040E06F858E850E9449
S1136370433682E08983A8C08D819E81FC0183819C
S1136380882319F081E08983A2C08A859B85FC015A
S113639080859185FC0181819281FC0180818D87BA
S11363A08D819E81FC01268137818D85882F90E027
S11363B0880F991FAC01440F551F440F551F840FBC
S11363C0951F820F931FFC01858196818A839B838D
S11363D08D819E81FC01268137818D85882F90E0F7
S11363E0880F991FAC01440F551F440F551F840F8C
S11363F0951F820F931FFC0187818C871C822FC0FD
S11364008A819B819C012F5F3F4F2A833B838C5D54
S1136410994BFC0180818F3FF9F08D819E81FC01B5
S1136420228533858D85482F50E08D819E81FC0126
S11364308581882F90E0BA01681B790BCB01019606
S1136440820F931FFC018081682F8E850E94C739BB
S113645082E0898300003BC08C818F5F8C839C81A8
S11364608C85981768F233C08D819E81FC018081F0
S1136470823041F18A859B85FC0182818823D1F495
S113648082E089838F858C3361F48F819885FC0148
S113649080898130D9F44F8560E08E850E94C34E97
S11364A015C04F8561E08E850E94C34E813071F422
S11364B019820CC04F8567E08E850E94C34E81E02F
S11364C0898304C0198202C0000001C000008981D0
S11364D0882F90E08130910519F0029751F012C095
S11364E08A859B85FC018181682F8E850E942E4AB6
S11364F00DC08A859B85FC018181682F8E850E9451
S1136500AE4904C08E850E944449000000002F96C5
S1136510CDBFDEBFDF91CF910895CF93DF93CDB789
S1136520DEB72C97CDBFDEBF8B876C878B85282F7A
S113653030E04CE1429FC001439F900D11248656E8
S11365409D4B8D839E838B85282F30E046E1429FAF
S1136550C001439F900D11248056994B8F839887D7
S11365608F81988521E0FC0125838F819885FC012A
S113657082858F3F51F08F819885FC01828521E0CF
S1136580280F8F819885FC0122878F819885FC01D3
S11365908285823058F08F819885FC018385882319
S11365A029F48F81988521E0FC0123876C858B85F4
S11365B00E94003689838981843008F0CDC08D81A2
S11365C09E81FC01268137818981882F90E0880F84
S11365D0991FAC01440F551F440F551F840F951F7D
S11365E0820F931FFC018081882F90E081309105F8
S11365F061F081319105F1F0892B09F033C041E05C
S11366006C858B850E9443362DC06C858B850E94DA
S11366103D398F819885FC0182819381FC018081C1
S113662061E00E94F447898769858B850E94003662
S1136630898318C08F819885FC0182819381FC0134
S11366408081882349F48F81988521E0FC01278388
S11366508B850E94794905C04C8563E08B850E9437
S1136660C34E00008981843008F054C08981882F8A
S113667090E0895D994B21E0FC0120838D819E810E
S1136680FC01938181E08927882309F443C08D812B
S11366909E81FC01268137818981882F90E0880FB3
S11366A0991FAC01440F551F440F551F840F951FAC
S11366B0820F931FFC01858196818B839C838D813E
S11366C09E81FC01268137818981882F90E0880F83
S11366D0991FAC01440F551F440F551F840F951F7C
S11366E0820F931FFC0187818A871A820FC08B81D6
S11366F09C818C5D994B2FEFFC0120838B819C81C5
S113670001968B839C838A818F5F8A839A818A8591
S1136710981768F38D819E81FC01938181E089271C
S11367208823D1F08D819E81FC018081882331F002
S11367308D819E81FC018081833029F462E08B8508
S11367400E94DD3709C08D819E81FC0180818130EA
S113675019F48B850E945E3700002C96CDBFDEBFF6
S1136760DF91CF910895CF93DF93CDB7DEB727970D
S1136770CDBFDEBF8E836F838E81282F30E04CE146
S1136780429FC001439F900D112486569D4B8983DF
S11367909A838E81282F30E046E1429FC001439FB7
S11367A0900D11248056994B8B839C838B819C8103
S11367B021E0FC0125838B819C81FC0182858F3F34
S11367C051F08B819C81FC01828521E0280F8B8113
S11367D09C81FC0122878B819C81FC018285823013
S11367E058F08B819C81FC018385882329F48B815B
S11367F09C8121E0FC0123878B819C81FC0185899C
S1136800882341F08B819C81FC0116828B819C81C1
S1136810FC01158A6F818E810E9400368D838981E7
S11368209A81FC018381882349F08F818C3331F470
S11368308B819C81FC018089813059F089819A8106
S1136840FC01938181E08927882341F08F818D3376
S113685029F44F8162E08E810E94C34E8D81843081
S113686060F46D818E810E9441358D81882F90E086
S1136870895D994B21E0FC01208389819A81FC0187
S1136880938181E089278823A1F089819A81FC0181
S11368908081882331F089819A81FC018081833051
S11368A041F46D818E810E948F3861E08E810E9457
S11368B0DD3700002796CDBFDEBFDF91CF9108956D
S11368C0CF93DF93CDB7DEB72897CDBFDEBF8E83DE
S11368D06F8348878E81282F30E04CE1429FC001AE
S11368E0439F900D112486569D4B89839A838E81F4
S11368F0282F30E046E1429FC001439F900D1124B0
S11369008056994B8B839C8368858E810E940036C8
S11369108D838B819C81FC0182858F3F51F08B811B
S11369209C81FC01828521E0280F8B819C81FC01E4
S113693022878B819C81FC018285823058F08B8177
S11369409C81FC018385882329F48B819C8121E02F
S1136950FC0123878F81882F90E08330910569F1B2
S11369608330910564F1089754F589819A81FC017B
S1136970268137818D81882F90E0880F991FAC0183
S1136980440F551F440F551F840F951F820F931FEB
S1136990FC0180818130A9F08B819C8121E0FC0184
S11369A0268388858C3319F088858D3351F4488586
S11369B064E08E810E94C34E04C0000003C0000046
S11369C001C0000089819A81FC01938181E08927BB
S11369D08823D1F089819A81FC018081882331F058
S11369E089819A81FC018081833071F48B819C813F
S11369F0FC018681813021F46D818E810E948F3863
S1136A006F818E810E94DD3700002896CDBFDEBFE6
S1136A10DF91CF910895CF93DF9300D01F92CDB72C
S1136A20DEB78B838B81282F30E04CE1429FC0017D
S1136A30439F900D112486569D4B89839A838981A7
S1136A409A81FC01938181E08927882381F08981DF
S1136A509A81FC018081882331F089819A81FC012B
S1136A608081833021F468E08B810E94DD378B8143
S1136A700E94794900002396CDBFDEBFDF91CF91FC
S1136A800895CF93DF93CDB7DEB72B97CDBFDEBF8D
S1136A908A876B878A85282F30E04CE1429FC001AA
S1136AA0439F900D112486569D4B8C839D838C812E
S1136AB09D81FC01268137818B85882F90E0880F8A
S1136AC0991FAC01440F551F440F551F840F951F88
S1136AD0820F931F8E839F838E819F81FC0180810F
S1136AE0882309F58E819F81FC01858196818983A4
S1136AF09A838E819F81FC01878188871B820FC0C6
S1136B0089819A818C5D994B2FEFFC0120838981C7
S1136B109A81019689839A838B818F5F8B839B8172
S1136B208885981768F38C819D81FC0126813781C3
S1136B308B85882F90E0880F991FAC01440F551F57
S1136B40440F551F840F951F820F931FFC018081F2
S1136B50813009F04EC08E819F81FC018085918532
S1136B60FC0181819281FC01808189878C819D81D6
S1136B70FC01268137818985882F90E0880F991F31
S1136B80AC01440F551F440F551F840F951F820FEE
S1136B90931FFC018581968189839A838C819D81D1
S1136BA0FC01268137818985882F90E0880F991F01
S1136BB0AC01440F551F440F551F840F951F820FBE
S1136BC0931FFC01878188871B820FC089819A816A
S1136BD08C5D994B2FEFFC01208389819A8101966A
S1136BE089839A838B818F5F8B839B818885981798
S1136BF068F300002B96CDBFDEBFDF91CF910895DF
S1136C00CF93DF93CDB7DEB72697CDBFDEBF8D839D
S1136C106E838FEF8A838D81282F30E04CE1429F71
S1136C20C001439F900D112486569D4B8B839C83FA
S1136C308B819C81FC01848189831BC08B819C8115
S1136C40FC01228533858981882F90E0820F931F70
S1136C50FC0190818E81981749F48B819C81FC0101
S1136C6095818981890F81508A8306C089818150E9
S1136C7089838981882311F78A812696CDBFDEBF57
S1136C80DF91CF910895CF93DF93CDB7DEB76097AF
S1136C90CDBFDEBF8E876F87488B8E85282F30E06F
S1136CA04CE1429FC001439F900D112486569D4B99
S1136CB08A839B838E85282F30E046E1429FC00162
S1136CC0439F900D11248056994B8C839D836F852F
S1136CD08E850E9400368E838E818F3F09F4E7C033
S1136CE08C819D81FC01828193818F8398878A8125
S1136CF09B81FC01268137818E81882F90E0880F4B
S1136D00991FAC01440F551F440F551F840F951F45
S1136D10820F931FFC0121818C819D81FC012483BE
S1136D208A819B81FC01268137818E81882F90E0A6
S1136D30880F991FAC01440F551F440F551F840F32
S1136D40951F820F931FFC018381948189879A8701
S1136D508889882309F083C08A819B81FC019381FF
S1136D6081E08927882309F4A2C08A819B81FC01E0
S1136D708289282F30E044E2429FC001439F900D56
S1136D8011248A589D4B8B879C87198218C08B8548
S1136D909C85FC01248535858981882F90E0820FAC
S1136DA0931FFC0190818F85981731F48C819D810C
S1136DB021E0FC01258B0AC089818F5F89838B8543
S1136DC09C85FC0196858981891708F38E81882F1B
S1136DD090E0855D994BFC0180818D87198237C0D5
S1136DE08D85882F90E02981222F30E002C096956E
S1136DF087952A95E2F781709927892B89F08981F3
S1136E00882F90E02F813885820F931F2981222FAC
S1136E1030E0245E394BF9012081FC01208314C049
S1136E208981882F90E02F813885820F931F2981D3
S1136E30422F50E029853A85240F351F23543F4BB8
S1136E40F9012081FC01208389818F5F89838C81F2
S1136E509D81FC0194818981891710F228C08A815F
S1136E609B81FC01938181E08927882301F11982A8
S1136E7017C08981282F30E089859A85820F931F56
S1136E802981222F30E04F815885240F351FF901C5
S1136E90208183549F4BFC01208389818F5F8983E8
S1136EA08C819D81FC0194818981891710F30000F4
S1136EB06096CDBFDEBFDF91CF910895CF93DF936E
S1136EC0CDB7DEB72897CDBFDEBF88878885282F4A
S1136ED030E046E1429FC001439F900D112480564B
S1136EE0994B89839A8389819A81FC0186818B835A
S1136EF089819A81FC01168289819A81FC018581AC
S1136F008C8389819A81FC0183858D8389819A810F
S1136F100C968E839F838E819F81FC01808181707A
S1136F20982F8B81892B282F21708E819F8121702E
S1136F30FC0130813E7F232BFC0120838E819F81C5
S1136F40FC01808186958170982F8C81892B282F54
S1136F5021708E819F812170220FFC0130813D7F41
S1136F60232BFC0120838D81282F21708E819F810A
S1136F702170220F220FFC0130813B7F232BFC0167
S1136F80208389819A81FC0121858E819F81FC0166
S1136F90218389819A81FC018781882339F08E813C
S1136FA09F81FC0120812860FC0120830000289639
S1136FB0CDBFDEBFDF91CF910895CF93DF93CDB7DF
S1136FC0DEB72A97CDBFDEBF89876A878985282FD8
S1136FD030E046E1429FC001439F900D112480564A
S1136FE0994B89839A8389819A81FC0186818B8359
S1136FF089819A81FC01168289819A81FC018581AB
S11370008C8389819A81FC018785882311F081E032
S113701001C080E08D8389819A81FC0183858E8300
S113702089819A810C968F8398878E81282F21706D
S11370308F8198852170220F220FFC0130813B7FC4
S1137040232BFC0120838F819885FC018081817032
S1137050982F8B81892B282F21708F8198852170FF
S1137060FC0130813E7F232BFC0120838F81988596
S1137070FC01808186958170982F8C81892B282F23
S113708021708F8198852170220FFC0130813D7F12
S1137090232BFC01208389819A81FC0121858F8126
S11370A09885FC01218389819A81FC018781882349
S11370B039F08F819885FC0120812860FC012083B0
S11370C08A85883039F08F819885FC012081206180
S11370D0FC0120838F819885FC0120812F7DFC0198
S11370E020838D81282F21708F819885217022958E
S11370F0220F220F207CFC0130813F7B232BFC01DB
S113710020838F819885FC0120812F77FC012083C7
S113711000002A96CDBFDEBFDF91CF910895CF93B3
S1137120DF93CDB7DEB72C97CDBFDEBF8B876C87DF
S11371308B85282F30E046E1429FC001439F900D8C
S113714011248A55994BFC0180818A838B85282FD1
S113715030E04CE1429FC001439F900D11248656BC
S11371609D4B8B839C838B819C81FC018289282F7E
S113717030E044E2429FC001439F900D11248A589D
S11371809D4B8D839E838C85843008F06FC08B81EA
S11371909C81FC01268137818C85882F90E0880FA3
S11371A0991FAC01440F551F440F551F840F951FA1
S11371B0820F931FFC018081813009F457C019822A
S11371C04DC08D819E81FC01208931898981882F60
S11371D090E0880F991F820F931F8F8398878D816A
S11371E09E81FC01228933898981882F90E0820F56
S11371F0931F89879A878F819885FC01808191816B
S11372002F813885F9012081318123543F4BF901C5
S1137210608129853A85F9012081422F50E021E0DF
S113722030E002C0220F331F4A95E2F72095622313
S11372302A81222F30E049855A85FA014081442F62
S113724050E002C0220F331F4A95E2F7262B8354E5
S11372509F4BFC01208389818F5F89838D819E816F
S1137260FC0196858981891708F4ABCF00002C9620
S1137270CDBFDEBFDF91CF910895CF93DF93CDB71C
S1137280DEB72997CDBFDEBF888769878885282F19
S113729030E04CE1429FC001439F900D112486567B
S11372A09D4B8A839B83698588850E9400368C83E5
S11372B08C818F3F09F464C08885282F30E046E133
S11372C0429FC001439F900D11248E55994BFC01A0
S11372D080819181FC01808161E00E94F4478D836B
S11372E08A819B81FC01268137818C81882F90E0E3
S11372F0880F991FAC01440F551F440F551F840F6D
S1137300951F820F931FFC01808591858E839F8337
S113731019822FC08A819B81FC01228533858E814D
S11373209F81FC01418152818981882F90E0840FE3
S1137330951FFC018081482F50E08A819B81FC01CC
S11373408581882F90E0BA01681B790BCB010196E7
S1137350820F931FFC0190818D81981739F441E0CD
S11373606D8188850E94433600000AC089818F5F41
S113737089838E819F81FC0190818981891750F2D4
S113738000002996CDBFDEBFDF91CF9108950F9302
S11373901F93CF93DF9300D0CDB7DEB789836A8381
S11373A040E06A8189810E9443368981282F30E038
S11373B046E1429FC001439F900D11248E55994B85
S11373C0FC010081118160E08A810E94F447F80188
S11373D0808300000F900F90DF91CF911F910F9148
S11373E00895CF93DF93CDB7DEB76397CDBFDEBFEC
S11373F08B8B1A828B89282F30E04CE1429FC0018D
S1137400439F900D112484559D4BFC018081282FAE
S113741030E044E2429FC001439F900D11248A58FA
S11374209D4B8B839C838B819C8125E0FC0133964F
S1137430DE011A9601900D922A95E1F78B819C81C9
S1137440FC0180859185A285B3858F87988BA98B54
S1137450BA8B8B89282F30E044E3429FC001439FBD
S1137460900D11240B968459994B8D839E838D81A5
S11374709E81FC01218532858D819E81FC01808164
S11374809181880F991F880F991F880F991F820F68
S1137490931FFC0183818F838D819E81FC01218553
S11374A032858D819E81FC0180819181880F991F95
S11374B0880F991F880F991F820F931FFC018481E5
S11374C089838D819E81FC01218532858D819E81F8
S11374D0FC0180819181880F991F880F991F880F63
S11374E0991F820F931FFC01858188878D819E815E
S11374F0FC01218532858D819E81FC0180819181F1
S1137500880F991F880F991F880F991F820F931F47
S1137510FC01868189878F81882F90E0009721F074
S1137520019709F44BC07DC08981882309F476C092
S11375308981863008F072C089818823B9F08981F5
S11375408330A0F48A859B852981222F30E0215045
S1137550304E220F331F220F331F220F331F02C05E
S1137560969587952A95E2F789831CC08981833093
S1137570B8F089818530A0F48C859D852981222FDE
S113758030E02350304E220F331F220F331F220FBF
S1137590331F02C0969587952A95E2F7898302C026
S11375A08E8589839981898598278885892389830C
S11375B08981882399F581E08A8330C08981882371
S11375C079F18981853060F58981882F90E0823056
S11375D0910579F0833091051CF4019739F012C0BC
S11375E08330910549F0049751F00CC08F8589834D
S11375F009C08889898306C08989898303C08A89E7
S113760089830000998189859827888589238983BE
S11376108981882329F481E08A8302C0000001C0A3
S113762000008A81882309F120E041E063EB8B8923
S11376300E94FA458B819C81FC01808191812D817E
S11376403E81F901418552852D813E81F9012081D8
S11376503181220F331F220F331F220F331F240FB8
S1137660351FF9012781FC01208300006396CDBFFB
S1137670DEBFDF91CF910895CF93DF93CDB7DEB70F
S11376806997CDBFDEBF898F898D282F30E044E311
S1137690429FC001439F900D11248459994B8A83C2
S11376A09B83898D282F30E04CE1429FC001439F8A
S11376B0900D112486569D4B8C839D838C819D81D6
S11376C0FC018289282F30E044E2429FC001439F9D
S11376D0900D112487589D4B25E0FC01DE01549642
S11376E001900D922A95E1F78A819B810B968E83F6
S11376F09F83198226C08981882F90E02E813F8143
S1137700F901418552852E813F81F9012081318122
S1137710220F331F220F331F220F331F420F531F19
S11377202981222F30E0240F351FF90140819E0169
S1137730245F3F4F820F931FFC01408389818F5F39
S1137740898389818830B8F28889882F90E0982FBE
S11377508827888799878F85882F90E028853985A1
S1137760822B932B888799878A89882F90E0982F7A
S113777088278A879B878989882F90E02A853B857B
S1137780822B932B8A879B872C893D8988859985B1
S11377902817390729F0888599858F3F9F4759F421
S11377A02E893F898A859B852817390749F08A8560
S11377B09B85019629F08A819B81FC0112A606C053
S11377C020E041E060EB898D0E94FA450000699653
S11377D0CDBFDEBFDF91CF9108950F931F93CF9359
S11377E0DF93CDB7DEB76297CDBFDEBF8A8B1C8235
S11377F08A89282F30E04CE1429FC001439F900DBD
S1137800112486569D4B8E839F838A89282F30E0CE
S113781044E3429FC001439F900D11240B96845969
S1137820994B8887998781E08D831A8226C08A8143
S1137830882F90E028853985F9014185528528856E
S11378403985F90120813181220F331F220F331F23
S1137850220F331F420F531F2A81222F30E0240F9F
S1137860351FF90140819E01265F3F4F820F931F10
S1137870FC0140838A818F5F8A838A818830B8F2D1
S11378808D858B8381E08A8303C08C818F5F8C8399
S11378908E819F81FC01208531858A8191E0980F3A
S11378A09A83882F90E0880F991F820F931FFC0101
S11378B080819181019649F78C8183508C8384E087
S11378C08A838B8189831EC08A8191E0980F9A8371
S11378D0882F90E09E01265F3F4F820F931FFC018B
S11378E080818F3F61F099818C81891740F420E178
S11378F040E067EB8A890E94FA451D820DC08981A8
S11379008F5F89838981282F30E08B81882F90E0D5
S1137910049628173907C0F28D81813009F052C0CE
S113792084E08A8345C08A81882F90E09E01265F87
S11379303F4F820F931FFC018081882F90E00097B6
S113794021F08F3F910581F111C08B818F5F8B8373
S11379508E819F81FC01228533858B81882F90E065
S1137960820F931F2FEFFC0120831FC08B818F5F39
S11379708B838E819F81FC01228533858B81882FA7
S113798090E08901080F191F8A81882F90E09E01D9
S1137990265F3F4F820F931FFC01808161E00E94AC
S11379A0F447F801808301C000008A818F5F8A83D5
S11379B08A81883008F4B7CF20E041E067EB8A89F8
S11379C00E94FA4500006296CDBFDEBFDF91CF91E1
S11379D01F910F910895CF93DF93CDB7DEB76597CD
S11379E0CDBFDEBF8D8B8D89282F30E044E3429FCD
S11379F0C001439F900D11248459994B8A839B8322
S1137A008D89282F30E04CE1429FC001439F900DA7
S1137A10112486569D4B8C839D838C819D81FC0112
S1137A208289282F30E044E2429FC001439F900D99
S1137A3011248A589D4B8E839F838A819B810B9648
S1137A4088879987198226C08981882F90E02885A4
S1137A503985F9014185528528853985F9012081C7
S1137A603181220F331F220F331F220F331F420F86
S1137A70531F2981222F30E0240F351FF901408143
S1137A809E01235F3F4F820F931FFC014083898136
S1137A908F5F898389818830B8F28889882F90E044
S1137AA0982F88278A879B878989882F90E02A8541
S1137AB03B85822B932B8A879B878F858C878A852E
S1137AC09B858139F1EF9F0709F4D4C0823921EFF6
S1137AD0920748F48038E1EF9E0709F48CC0883897
S1137AE0914F59F006C1883921EF920709F408C172
S1137AF08939914F09F440C0FCC08E819F81FC01FB
S1137B0080819181FC0180818D8780E18E878AE06C
S1137B108F878C85805C888B81EF898B88E88A8B42
S1137B2080E38B8B82E38C8BCE010D96BC018D8917
S1137B300E940C4E8E819F81FC0180819181FC0109
S1137B4080818D8781E28E878EE28F8780E3888BA8
S1137B5082E3898B8EE28A8B80E38B8B80E38C8B30
S1137B60CE010D96BC018D890E940C4E8A819B81A9
S1137B7022E0FC0126A3C5C08E819F81FC01808187
S1137B809181FC0180818D8780E18E8786E08F87DB
S1137B908C85805C888B81EF898B89E98A8B84E171
S1137BA08B8B80E18C8BCE010D96BC018D890E945C
S1137BB00C4E8E819F81FC0180819181FC0180812A
S1137BC08D8781E28E878BE08F878CE0888B8FEFA7
S1137BD0898B8FEF8A8B8FEF8B8B8FEF8C8BCE0102
S1137BE00D96BC018D890E940C4E8A819B8122E0F6
S1137BF0FC0126A386C08E819F81FC018081918136
S1137C00FC0180818D8780E18E878AE08F878C8557
S1137C10805C888B81EF898B80E88A8B80E38B8BF7
S1137C2082E38C8BCE010D96BC018D890E940C4E93
S1137C308E819F81FC0180819181FC0180818D87EF
S1137C4081E28E878EE28F8780E3888B82E3898B43
S1137C508EE28A8B80E38B8B80E38C8BCE010D9636
S1137C60BC018D890E940C4E8A819B8122E0FC011B
S1137C7026A347C08E819F81FC0180819181FC01F4
S1137C8080818D8780E18E8787E08F878C85805CFB
S1137C90888B81EF898B81E98A8B88E48B8B81E2E5
S1137CA08C8BCE010D96BC018D890E940C4E8E8169
S1137CB09F81FC0180819181FC0180818D8781E21B
S1137CC08E878EE28F8780E3888B81E3898B8FEFA9
S1137CD08A8B8FEF8B8B8FEF8C8BCE010D96BC0133
S1137CE08D890E940C4E8A819B8122E0FC0126A38F
S1137CF008C020E040E062E28D890E94FA4501C09C
S1137D00000000006596CDBFDEBFDF91CF910895DE
S1137D10CF93DF93CDB7DEB76397CDBFDEBF8B8B39
S1137D208B89282F30E044E3429FC001439F900D8C
S1137D3011248459994B89839A838B89282F30E0A5
S1137D404CE1429FC001439F900D112486569D4BE8
S1137D508B839C838B819C81FC018289282F30E05A
S1137D6044E2429FC001439F900D11248A589D4BC9
S1137D708D839E8389819A810B968F8398878F81C7
S1137D809885FC01218532858F819885FC0180814D
S1137D909181880F991F880F991F880F991F820F4F
S1137DA0931FFC01838189878F819885FC0121853C
S1137DB032858F819885FC0180819181880F991F7C
S1137DC0880F991F880F991F820F931FFC018181CF
S1137DD08F708A878A85823009F07BC08985882FD5
S1137DE090E08130910549F18230910509F447C052
S1137DF0892B09F066C08D819E81FC01808191816F
S1137E00FC0180818B8782E08C8780E58D87898562
S1137E108E878FEF8F878FEF888B8FEF898B8FEF14
S1137E208A8BCE010B96BC018B890E940C4E8981F2
S1137E309A8122E0FC0126A352C08D819E81FC011F
S1137E4080819181FC0180818B8782E08C8780E531
S1137E508D8789858E878FEF8F878FEF888B8FEF44
S1137E60898B8FEF8A8BCE010B96BC018B890E9484
S1137E700C4E89819A8122E0FC0126A330C08D81B9
S1137E809E81FC0180819181FC0180818B8782E04D
S1137E908C8780E58D8789858E878FEF8F878FEF1D
S1137EA0888B8FEF898B8FEF8A8BCE010B96BC0169
S1137EB08B890E940C4E89819A8122E0FC0126A3C1
S1137EC00EC022E140E060E18B890E94FA45000087
S1137ED006C023E140E060E18B890E94FA4500007E
S1137EE06396CDBFDEBFDF91CF910895CF93DF932B
S1137EF0CDB7DEB76597CDBFDEBF8D8B8D89282FBB
S1137F0030E044E3429FC001439F900D1124845903
S1137F10994B89839A838D89282F30E04CE1429FC5
S1137F20C001439F900D112486569D4B8B839C83E7
S1137F308B819C81FC018289282F30E044E2429F9E
S1137F40C001439F900D11248A589D4B8D839E83BD
S1137F5089819A810B968F8398878F819885FC01FC
S1137F60218532858F819885FC0180819181880FDC
S1137F70991F880F991F880F991F820F931FFC0167
S1137F80818182958F7089878985882309F08EC0C5
S1137F908F819885FC01218532858F819885FC012C
S1137FA080819181880F991F880F991F880F991FCD
S1137FB0820F931FFC018481882F90E0982F8827DB
S1137FC08A879B878F819885FC01218532858F81E3
S1137FD09885FC0180819181880F991F880F991FD2
S1137FE0880F991F820F931FFC018581882F90E0D1
S1137FF02A853B85822B932B8A879B878F81988543
S1138000FC01218532858F819885FC0180819181D5
S1138010880F991F880F991F880F991F820F931F2C
S1138020FC0183818C878C858130E1F48A859B8572
S113803083309240B9F48D819E81FC0180819181CD
S1138040FC0180818D8785E08E8781E78F8781E0C1
S1138050888B82E0898B83E08A8B82E08B8B8FEF25
S11380608C8B92C08C85833009F08EC08A859B8569
S11380708330924009F088C08D819E81FC0180810B
S11380809181FC0180818D8785E08E8781E78F87D0
S113809083E0888B82E0898B83E08A8B82E08B8B00
S11380A08FEF8C8B81E0809307436EC08F8198851E
S11380B0FC01218532858F819885FC018081918125
S11380C0880F991F880F991F880F991F820F931F7C
S11380D0FC018581882F90E0982F88278A879B87C9
S11380E08F819885FC01218532858F819885FC01DB
S11380F080819181880F991F880F991F880F991F7C
S1138100820F931FFC018681882F90E02A853B858E
S1138110822B932B8A879B878F819885FC012185ED
S113812032858F819885FC0180819181880F991F08
S1138130880F991F880F991F820F931FFC01848158
S11381408C878C85813001F58A859B8581159F4FAD
S1138150D9F481E090E080930843909309438D81A2
S11381609E81FC0180819181FC0180818D8785E065
S11381708E8781E78F8781E0888B8FEF898B1A8ABE
S113818082E08B8B8FEF8C8BCE010D96BC018D8999
S11381900E940C4E89819A8122E0FC0126A30000F2
S11381A06596CDBFDEBFDF91CF910895CF93DF9366
S11381B0CDB7DEB76297CDBFDEBF8A8B8A89282F01
S11381C030E044E3429FC001439F900D1124845941
S11381D0994B89839A838A89282F30E04CE1429F06
S11381E0C001439F900D112486569D4B8B839C8325
S11381F08B819C81FC018289282F30E044E2429FDC
S1138200C001439F900D11248A589D4B8D839E83FA
S113821089819A810B968F8398878F819885FC0139
S1138220218532858F819885FC0180819181880F19
S1138230991F880F991F880F991F820F931FFC01A4
S1138240838189878985813011F58D819E81FC0127
S113825080819181FC0180818A8782E08B8785EC13
S11382608C8781E08D878FEF8E878FEF8F878FEFDD
S1138270888B8FEF898BCE010A96BC018A890E9474
S11382800C4E89819A8122E0FC0126A324C08985B1
S1138290823009F58D819E81FC0180819181FC01F0
S11382A080818A8782E08B8785EC8C8782E08D874A
S11382B08FEF8E878FEF8F878FEF888B8FEF898B70
S11382C0CE010A96BC018A890E940C4E89819A814A
S11382D022E0FC0126A300006296CDBFDEBFDF9141
S11382E0CF910895CF93DF93CDB7DEB76997CDBF14
S11382F0DEBF898F198280910E4590910F458A8344
S11383009B831C821D82898D282F30E044E3429F89
S1138310C001439F900D11248459994B8E839F83F0
S1138320898D282F30E04CE1429FC001439F900D7E
S1138330112486569D4B8887998788859985FC01E9
S11383408289282F30E044E2429FC001439F900D70
S113835011248A589D4B8A879B878E819F810B9617
S11383608C879D878C859D85FC01218532858C8534
S11383709D85FC0180819181880F991F880F991F29
S1138380880F991F820F931FFC01818182958F7042
S11383908E878E85882309F4DAC18C859D85FC013E
S11383A0218532858C859D85FC0180819181880F92
S11383B0991F880F991F880F991F820F931FFC0123
S11383C084818F878C859D85FC01218532858C85F0
S11383D09D85FC0180819181880F991F880F991FC9
S11383E0880F991F820F931FFC0182818250888B12
S11383F08C859D85FC01808191818C839D839091E6
S11384006B468F85981709F08CC18A819B819C01EA
S11384102F5F3F4F2A833B832C853D85F90141859E
S113842052852C853D85F90120813181220F331F2E
S1138430220F331F220F331F240F351FF90125810B
S1138440825F9C4BFC0120838A819B819C012F5F6E
S11384503F4F2A833B832C853D85F9014185528515
S11384602C853D85F90120813181220F331F220F94
S1138470331F220F331F240F351FF9012681825F1A
S11384809C4BFC0120838A819B819C012F5F3F4F81
S11384902A833B832C853D85F901418552852C85B2
S11384A03D85F90120813181220F331F220F331FB3
S11384B0220F331F240F351FF9012781825F9C4B44
S11384C0FC01208381E090E08C839D83D7C0998157
S11384D088899817F8F489818F5F89838A819B81C1
S11384E09C012F5F3F4F2A833B832C853D85F901F7
S11384F0418552852C813D81220F331F220F331F6A
S1138500220F331F240F351FF9012281825F9C4BF8
S1138510FC012083998188899817F8F489818F5FF9
S113852089838A819B819C012F5F3F4F2A833B83F0
S11385302C853D85F901418552852C813D81220F91
S1138540331F220F331F220F331F240F351FF9014E
S11385502381825F9C4BFC01208399818889981731
S1138560F8F489818F5F89838A819B819C012F5FC5
S11385703F4F2A833B832C853D85F90141855285F4
S11385802C813D81220F331F220F331F220F331FF3
S1138590240F351FF9012481825F9C4BFC01208349
S11385A0998188899817F8F489818F5F89838A81F2
S11385B09B819C012F5F3F4F2A833B832C853D8504
S11385C0F901418552852C813D81220F331F220FF1
S11385D0331F220F331F240F351FF9012581825FBA
S11385E09C4BFC012083998188899817F8F4898130
S11385F08F5F89838A819B819C012F5F3F4F2A83F0
S11386003B832C853D85F901418552852C813D8133
S1138610220F331F220F331F220F331F240F351F46
S1138620F9012681825F9C4BFC0120839981888912
S11386309817F8F489818F5F89838A819B819C01D3
S11386402F5F3F4F2A833B832C853D85F90141856C
S113865052852C813D81220F331F220F331F220F9D
S1138660331F240F351FF9012781825F9C4BFC01C6
S113867020838C819D8101968C839D838C859D852F
S1138680FC01228133818C819D812817390708F0F0
S11386901ECF80916B468F5F80936B468889282F0D
S11386A030E080910E4590910F45820F931F809387
S11386B00E4590930F458889282F30E0809110450E
S11386C090911145820F931F80931045909311450B
S11386D080910E4590910F458115924058F010926B
S11386E00E4510920F4581E090E080930A439093E9
S11386F00B4317C08091104590911145803D9445DE
S113870080F010920E4510920F4581E090E0809326
S11387100A4390930B4381E090E080930C43909341
S11387200D438A859B85FC0180819181FC018081B8
S1138730898B82E08A8B86E78B8B8F858C8B8FEF7E
S11387408D8B8FEF8E8B8FEF8F8B8FEF888FCE017A
S11387504196BC01898D0E940C4E8E819F8122E03E
S1138760FC0126A300006996CDBFDEBFDF91CF9147
S11387700895CF93DF93CDB7DEB72E97CDBFDEBF7D
S11387808D876E878D85282F30E04CE1429FC00194
S1138790439F900D112486569D4B8B839C838D851E
S11387A0282F30E044E3429FC001439F900D1124E1
S11387B08459994B8D839E838B819C81FC01828992
S11387C0282F30E044E2429FC001439F900D1124C2
S11387D08A589D4B8F83988719828F819885FC01D5
S11387E080A191A189879A878F819885FC0182A1B4
S11387F093A18B879C871A821CC08A81882F90E062
S113880029853A85820F931FFC0190818E859817E4
S113881069F48A81882F90E02B853C85820F931F11
S113882021E0FC01208381E089830AC08A818F5F73
S11388308A838F819885FC01978D8A818917E8F254
S11388408981882309F48BC08E85882F90E0853830
S1138850910509F47CC0863891059CF48232910517
S113886009F46DC08332910524F4409709F463C080
S113887095C08133910509F466C0C69709F46BC0AD
S11388808DC0833B9105A9F0843B91053CF4803B6A
S1138890910501F1823B910541F080C0863B910531
S11388A0A9F1873B910539F179C08D850E94D544A2
S11388B075C08B819C81FC018081882339F08B8178
S11388C09C81FC018081833009F063C08D850E9406
S11388D0F1395FC08B819C81FC018081882339F050
S11388E08B819C81FC018081833009F054C08D858B
S11388F00E943C3B50C08B819C81FC018081882379
S113890009F04BC08D850E94ED3B47C08D85282F13
S113891030E046E1429FC001439F900D11248155F0
S1138920994B21E0FC01208320E041E066EB8D853A
S11389300E94FA4533C08D850E94883E2FC08D85E4
S11389400E94EB3C2BC08D850E94763F27C08D850D
S11389500E94D64023C08D850E9472411FC021E130
S113896040E06E858D850E94FA458D819E81FC01D3
S113897017868D819E81FC01108A118A8D819E81CA
S1138980FC01258536858D819E81FC0123873487F2
S113899005C0000003C0000001C0000000002E96C6
S11389A0CDBFDEBFDF91CF910895CF93DF93CDB7D5
S11389B0DEB7A297CDBFDEBF8AA38AA1282F30E0FD
S11389C044E3429FC001439F900D11248459994B65
S11389D08A839B838AA1282F30E04CE1429FC00107
S11389E0439F900D112486569D4B8C839D838C81CF
S11389F09D81FC018289282F30E044E2429FC0011E
S1138A00439F900D11248A589D4B8E839F838A81A6
S1138A109B810B9688879987198226C08981882F24
S1138A2090E028853985F901418552852885398565
S1138A30F90120813181220F331F220F331F220FAE
S1138A40331F420F531F2981222F30E0240F351F7B
S1138A50F90140819E012B5E3F4F820F931FFC0161
S1138A60408389818F5F898389818830B8F28E81C0
S1138A709F8125E0FC013396DE01509601900D9212
S1138A802A95E1F78A8D882F90E0982F88278A8786
S1138A909B87898D882F90E02A853B85822B932B99
S1138AA08A879B878C8D882F90E0982F88278C87C6
S1138AB09D878B8D882F90E02C853D85822B932B71
S1138AC08C879D87288939898A859B85281739074A
S1138AD029F08A859B858F3F9F4759F42A893B89D2
S1138AE08C859D852817390749F08C859D850196CD
S1138AF029F08A819B81FC0112A675C0888D8E871E
S1138B008E85882F90E0009719F0019741F00EC0F0
S1138B102E8541E062EB8AA10E94FA4564C02E854D
S1138B2041E062EB8AA10E94FA455DC08E858032E5
S1138B3008F451C08E85803408F04DC085E0E1EF23
S1138B40F1E4DE015D9601900D928A95E1F7CE0184
S1138B504D96AC016E858AA10E9450588F878F85EF
S1138B60843529F5198203C089818F5F89838981BE
S1138B70853060F48981882F90E09E01235E3F4F09
S1138B80820F931FFC0180818F3F71F389818530AF
S1138B9038F42E8541E062EB8AA10E94FA4522C096
S1138BA022E140E062EB8AA10E94FA451BC08F8556
S1138BB0833539F422E140E062EB8AA10E94FA4550
S1138BC011C08A819B81FC0112A68A819B8122E0CB
S1138BD0FC0123A707C022E140E062EB8AA10E94C6
S1138BE0FA4500C000000000A296CDBFDEBFDF91B1
S1138BF0CF910895CF93DF93CDB7DEB76F97CDBFF5
S1138C00DEBF8C8F6D8F4E8F2F8F8C8D282F30E091
S1138C1044E3429FC001439F900D11248459994B12
S1138C208A839B838C8D282F30E04CE1429FC001C6
S1138C30439F900D112486569D4B8C839D838C817C
S1138C409D81FC018289282F30E044E2429FC001CB
S1138C50439F900D11248A589D4B8E839F831982C4
S1138C608A819B810B968887998788859985FC01E1
S1138C702185328588859985FC0180819181880FC1
S1138C80991F880F991F880F991F820F931FFC014A
S1138C9080818A878A858E3709F426C18E819F81D7
S1138CA0FC0180819181FC0180818F8783E0888B26
S1138CB08FE7898B8D8D8A8B8F8D8B8B8FEF8C8B30
S1138CC08FEF8D8B8FEF8E8B8D8D882F90E0823B75
S1138CD09105C9F0833B91054CF4803B910509F45F
S1138CE0ABC0813B910509F496C0F2C0863B910567
S1138CF009F4D4C0873B910509F4DAC0833B91059C
S1138D0009F4C3C0E5C08E8D813009F0DEC086E071
S1138D10888B8D8D805C898B8F8D882339F58E812E
S1138D209F8103968B879C878B859C85FC01808122
S1138D3091818A8B8B859C85FC0180819181892F0F
S1138D4099278B8B8B859C85FC01828193818C8BED
S1138D508B859C85FC0182819381892F99278D8B3A
S1138D608B859C85FC0184818E8BAFC08F8D813077
S1138D70E1F48E819F8108968D879E878D859E85DF
S1138D80FC0180818A8B8D859E85FC0181818B8B82
S1138D908D859E85FC0182818C8B8D859E85FC0151
S1138DA083818D8B85E0888B90C085E0E1EFF1E4D1
S1138DB0DE01579601900D928A95E1F7CE01479610
S1138DC0AC016F8D8C8D0E9450588F898A8B888D51
S1138DD08B8B898D8C8B8A8D8D8B8B8D8E8B85E087
S1138DE0898315C08981882F90E001979E01295EAF
S1138DF03F4F820F931FFC0180818F3F29F08981AF
S1138E008F5F888B000061C089818150898389814B
S1138E10882341F75AC08E819F81FC018081918112
S1138E20FC0180818F8781E0888B81EF898B8FEFB4
S1138E308A8B8FEF8B8B4CC08E819F81FC0182814A
S1138E408F878E819F81FC0180819181288539855E
S1138E50F9014185528528853985F90120813181BF
S1138E60220F331F220F331F220F331F240F351FEE
S1138E70F9012781FC01208381E0888B80EF898BB5
S1138E808FEF8A8B8FEF8B8B23C081E0888B83EFEE
S1138E90898B8FEF8A8B8FEF8B8B1AC081E0888B45
S1138EA08D8D805C898B8FEF8A8B8FEF8B8B10C0BD
S1138EB08E8D813061F481E0888B8D8D805C898B0F
S1138EC08FEF8A8B8FEF8B8B02C0000001C00000F4
S1138ED0CE010F96BC018C8D0E940C4E8A819B8121
S1138EE022E0FC0126A305C08A819B8121E0FC01CC
S1138EF026A300006F96CDBFDEBFDF91CF9108950A
S1138F00CF93DF9300D000D0CDB7DEB769837A83E7
S1138F108B839C8329813A814B815C8188EE93E029
S1138F20DC010E94F4789B01AC0180E891E5A6ED98
S1138F30B2E0BC01CD010E94BA78DA01C901019600
S1138F402496CDBFDEBFDF91CF910895EF92FF92BB
S1138F500F931F93CF93DF93CDB7DEB72797CDBF82
S1138F60DEBF6B837C838D839E834F838F81882FA9
S1138F7090E00196880F991F9C01220F331F220F46
S1138F80331F220F331FA901481B590BCA018983C0
S1138F909A8389819A81CC01A0E0B0E09C01AD0163
S1138FA060E472E48FE090E00E94AA787B018C0177
S1138FB02B813C814D815E8188EE93E0DC010E942F
S1138FC0F4789B01AC01C801B7010E94BA78DA01B8
S1138FD0C90101962796CDBFDEBFDF91CF911F91C6
S1138FE00F91FF90EF900895CF93DF9300D0CDB70A
S1138FF0DEB789836A836A8189810E94B9580F9098
S11390000F90DF91CF910895EF92FF920F931F93EA
S1139010CF93DF93CDB7DEB72C97CDBFDEBF8C8760
S113902081E090E08A839B838C85282F30E04CE19B
S1139030429FC001439F900D112486569D4B8C8303
S11390409D838C85282F30E046E1429FC001439FD9
S1139050900D11248056994B8E839F838C85882F85
S113906090E0880F991F9C01220F331F220F331F9A
S1139070820F931F9C012D5B3A4B8E819F81FC01D3
S1139080228333838C85882F90E0880F991F880F63
S1139090991F865C9D4BFC0180819181A281B381E3
S11390A088879987AA87BB878C819D81FC018489E5
S11390B09589FC0185818823E9F18C85082F10E0CE
S11390C060E679E080E090E00E9480479C01C8015E
S11390D0880F991F805D9A4BFC012083318381E0C6
S11390E0898324C08C85E82EF12C8981882F90E017
S11390F08C0101501109498160E679E080E090E03B
S11391000E94A6479C01C701880F991F880F991FC9
S1139110880F991F800F911F880F991F8E5C9A4B9F
S1139120FC012083318389818F5F89838981893020
S1139130C8F24CC08C85082F10E08C819D81FC0105
S113914084899589FC0180819181A281B381BC01CC
S1139150CD010E9480479C01C801880F991F805D42
S11391609A4BFC012083318381E089832CC08C8558
S1139170E82EF12C8981882F90E08C01015011098F
S11391808C819D81FC0184899589FC018081918178
S1139190A281B3814981BC01CD010E94A6479C01F3
S11391A0C701880F991F880F991F880F991F800F77
S11391B0911F880F991F8E5C9A4BFC012083318389
S11391C089818F5F89838981893088F28C85882F92
S11391D090E082959295907F9827807F9827805C75
S11391E09A4BFC01208131818E819F81FC01218B6E
S11391F0328B8C819D81FC01248535858E819F81F4
S1139200FC01238B348B8C85282F30E04EE1429F68
S1139210C001439F900D11249C012E5E3A4B8C811A
S11392209D81FC014489558988859985AA85BB85DA
S1139230BC01CD010E9468598A839B838A819B81EA
S1139240892B89F488859985AA85BB8548EE5BE4DA
S1139250BC01CD010E94445A8C85882F90E08E5B1E
S11392609A4BFC01108221E08A819B81892B09F4AD
S113927020E0822F2C96CDBFDEBFDF91CF911F91CE
S11392800F91FF90EF900895CF93DF93CDB7DEB7A2
S11392902797CDBFDEBF8F8381E090E089839A83D7
S11392A08F81882F90E0880F991F880F991F865C03
S11392B09D4BFC0180819181A281B3818B839C832E
S11392C0AD83BE838B819C81AD81BE81BC01CD0108
S11392D00E94145A89839A8389819A81892B11F473
S11392E080E001C08FEF2796CDBFDEBFDF91CF9125
S11392F00895CF93DF93CDB7DEB72797CDBFDEBFF9
S11393008F8381E090E089839A838F81882F90E016
S1139310880F991F880F991F865C9D4BFC018081E3
S11393209181A281B3818B839C83AD83BE838B8126
S11393309C81AD81BE81BC01CD010E94EF5989831E
S11393409A8389819A81892B11F480E001C08FEF7F
S11393502796CDBFDEBFDF91CF910895CF93DF93E2
S1139360CDB7DEB72A97CDBFDEBF89876A8781E094
S113937090E089839A838A85893008F062C08A855F
S1139380882309F45EC08985282F30E046E1429F96
S1139390C001439F900D11248E55994BFC0180818F
S11393A091818B839C838985882F90E0880F991FF6
S11393B0880F991F865C9D4BFC0180819181A2815D
S11393C0B3818D839E83AF83B8878985282F30E04E
S11393D046E1429FC001439F900D11248C55994B47
S11393E02A85FC0120838985282F30E08A85882FEF
S11393F090E00197220F331F220F331F220F331FD8
S1139400820F931F880F991F8E5C9A4BFC018081F9
S113941091819C0140E050E08D819E81AF81B885AF
S1139420BC01CD010E9426604B815C818D819E81AF
S1139430AF81B8852A85BC01CD010E94445C898333
S11394409A8389819A81892B11F480E001C08FEF7E
S11394502A96CDBFDEBFDF91CF910895CF93DF93DE
S1139460CDB7DEB72897CDBFDEBF8F83688781E095
S113947090E089839A838F81882F90E0880F991FC9
S1139480880F991F865C9D4BFC0180819181A2818C
S1139490B3818B839C83AD83BE8388858930E8F553
S11394A088858823D1F18F81282F30E08885882F03
S11394B090E00197220F331F220F331F220F331F17
S11394C0820F931F880F991F8E5C9A4BFC01808139
S11394D091819C0140E050E08B819C81AD81BE81F3
S11394E0BC01CD010E9426608F81282F30E046E127
S11394F0429FC001439F900D11248E55994BFC014E
S1139500408151818B819C81AD81BE812885BC01C4
S1139510CD010E94DF5D89839A8389819A81892B99
S113952011F480E001C08FEF2896CDBFDEBFDF913C
S1139530CF910895EF92FF920F931F93CF93DF93F0
S1139540CDB7DEB7A697CDBFDEBF8EA38EA1882F81
S113955090E0880F991F880F991F865C9D4BFC0132
S113956080819181A281B3818A839B83AC83BD83F3
S11395708EA1282F30E04EE1429FC001439F900D01
S113958011248E5E9A4B2EE1FC01DE0118960190A7
S11395900D922A95E1F78EA1282F30E046E1429FF3
S11395A0C001439F900D11248056994B8E839F8355
S11395B08A819B81AC81BD81BC01CD010E945C5F2D
S11395C040E065E08EA10E94C34E8A8D882F90E012
S11395D0873091053CF4833091050CF092C00297DA
S11395E029F0EBC0099709F4B8C0E7C08E819F81C8
S11395F0FC0183899489AC01415051092E813F813A
S1139600F901438B548B892B01F54FEF68E08EA150
S11396100E9413318EA1282F30E04CE1429FC001FB
S1139620439F900D11248A559D4BFC01208131816B
S11396308E819F81FC01238B348B8A819B81AC8139
S1139640BD81BC01CD010E94EF598EA1882F90E00D
S11396508E5B9A4BFC018081882309F4A9C08EA1FA
S1139660882F90E08E5B9A4BFC0110828EA1082F0C
S113967010E08091AE429091AF42FC0180819181D3
S1139680A281B381BC01CD010E9480479C01C80125
S1139690880F991F805D9A4BFC012083318381E000
S11396A089832BC08EA1E82EF12C8981882F90E02C
S11396B08C01015011098091AE429091AF42FC019E
S11396C080819181A281B3814981BC01CD010E9435
S11396D0A6479C01C701880F991F880F991F880FFF
S11396E0991F800F911F880F991F8E5C9A4BFC0164
S11396F02083318389818F5F89838981893090F2C6
S113970057C08E819F81FC0181899289AC014150AF
S113971051092E813F81F901418B528B892B09F02C
S113972049C08A819B81AC81BD81BC01CD010E946D
S1139730C4598EA1882F90E082959295907F9827A6
S1139740807F9827805C9A4BFC01208131818E8137
S11397509F81FC01218B328B2DC08E819F81FC0166
S113976081899289AC01415051092E813F81F901CF
S1139770418B528B892B01F58A819B81AC81BD8100
S1139780BC01CD010E94145A8EA1882F90E08295CD
S11397909295907F9827807F9827805C9A4BFC0154
S11397A0208131818E819F81FC01218B328B04C009
S11397B0000003C0000001C000000000A696CDBF59
S11397C0DEBFDF91CF911F910F91FF90EF9008952D
S11397D0CF93DF93CDB7DEB76097CDBFDEBF6B8786
S11397E07C878D879E874F87588B8F85988989833F
S11397F09A8389819A81FC0187858B831A868B855C
S11398009C85885C9D4BFC0180818C838C81282FF6
S113981030E04CE1429FC001439F900D11248656D5
S11398209D4B8D839E838C81282F30E046E1429F9F
S1139830C001439F900D11248056994B8F839887C4
S113984089819A81FC018189882F90E0092E000C7E
S1139850AA0BBB0B40E050E02CE030E0841B950BDE
S11398602817390708F499C0875A9B4DFC010C94BA
S1139870DC7819864B8169858C810E9413318C8137
S1139880882F90E082959295907F9827807F9827E3
S1139890805C9A4BFC01208131818C81882F90E07F
S11398A0880F991F805D9A4BFC0180819181280F5C
S11398B0391F8F819885FC01218B328B71C083E025
S11398C089874B8169858C810E94133169C081E04D
S11398D089874B8169858C810E94133161C082E044
S11398E089874B8169858C810E94133159C085E039
S11398F089874B8169858C810E94133151C086E030
S113990089874B8169858C810E94133149C084E029
S113991089874B8169858C810E94133141C08C8178
S1139920882F90E082959295907F9827807F982742
S1139930805C9A4BFC01208131818F819885FC01E8
S1139940218B328B2DC08C81882F90E08E5B9A4BBB
S113995021E0FC01208324C089819A81FC0187894C
S11399608823E9F09E01265F3F4F8B859C85AD855A
S1139970BE85A901BC01CD010E94566089819A81EE
S1139980FC0196818A85891750F487E089874B8189
S113999069858C810E94133102C0000001C000005F
S11399A08D819E81FC01248535858F819885FC01FC
S11399B0238B348B00006096CDBFDEBFDF91CF9147
S11399C00895CF93DF93CDB7DEB72997CDBFDEBF20
S11399D089878985282F30E044E3429FC001439F53
S11399E0900D11248459994B8B839C838985282F4E
S11399F030E04CE1429FC001439F900D11248C54F0
S1139A009D4BFC01808191818D839E838D819E81FC
S1139A10079728F481E090E089839A833AC08D8186
S1139A209E81AC01455051099A01ABEABAEA0E9401
S1139A30E5789C013695279536952795C901880FB9
S1139A40991F820F931F880F991F9A01281B390BA6
S1139A50232B81F48D819E8105979C01ABEABAEAA0
S1139A600E94E578969587959695879501968983C2
S1139A709A830FC08D819E8105979C01ABEABAEA57
S1139A800E94E578969587959695879502968983A1
S1139A909A838985282F30E04CE1429FC001439F7F
S1139AA0900D112480559D4BFC01208131818B81C7
S1139AB09C81FC01218732878985282F30E04CE185
S1139AC0429FC001439F900D11248E549D4BFC0175
S1139AD0208131818B819C81FC01248B358B89858C
S1139AE0282F30E0C901880F991F880F991F820F12
S1139AF0931F9C01235B3A4B8B819C81FC0122A325
S1139B0033A38B819C8129813A81FC01278330878F
S1139B108B819C8129813A81FC01228B338B8B813F
S1139B209C818F8398878F819885FC011082118294
S1139B308F819885FC01128213828F81988525E09C
S1139B40FC0124838F819885FC01158216828B8108
S1139B509C810B968F8398878F819885FC01108256
S1139B6011828F819885FC01128213828F819885DE
S1139B70FC0114828F819885FC01158216828B81E9
S1139B809C8122E0FC01268B8B819C8122E0FC01DC
S1139B90218F8B819C81FC01148E8B819C81FC0123
S1139BA0158E8B819C81FC01168E8B819C81FC011E
S1139BB015A28B819C81FC0114A28B819C81FC01E8
S1139BC012A68B819C81FC01178E8B819C81FC01E8
S1139BD010A211A28B819C8121E0FC0126A38B8120
S1139BE09C8122E0FC0123A78B819C81FC0117A2AC
S1139BF08B819C81FC0110A611A68B819C81FC01A8
S1139C0015A68B819C81FC0114A600002996CDBF6A
S1139C10DEBFDF91CF910895CF93DF93CDB7DEB749
S1139C202B97CDBFDEBF89876A877B878985282FDD
S1139C3030E044E3429FC001439F900D11248459B6
S1139C40994B89839A838985282F30E04CE1429F80
S1139C50C001439F900D112486569D4B8B839C839A
S1139C608B819C81FC01938181E08927882371F198
S1139C708B819C81FC018081882341F58985282F73
S1139C8030E04CE1429FC001439F900D1124845564
S1139C909D4BFC018081282F30E044E2429FC001AB
S1139CA0439F900D11248A589D4B8D839E838D81F3
S1139CB09E81FC01238D348D89819A81FC0120A32E
S1139CC031A389819A8121E0FC01278F89819A81BE
S1139CD08F83988789819A81FC0182A521E0280FCE
S1139CE089819A81FC0122A74F8158858A859B85A9
S1139CF020E0BC0189850E944D5500002B96CDBF04
S1139D00DEBFDF91CF910895CF93DF93CDB7DEB758
S1139D102597CDBFDEBF8B836C837D838B81282FFA
S1139D2030E044E3429FC001439F900D11240B9601
S1139D308459994B89839A8349815A818C819D8165
S1139D4021E0BC018B810E94385600002596CDBFCE
S1139D50DEBFDF91CF910895CF93DF931F92CDB7EC
S1139D60DEB789838981282F30E044E3429FC00114
S1139D70439F900D11248558994BFC0180810F90CD
S1139D80DF91CF910895CF93DF93CDB7DEB72697B8
S1139D90CDBFDEBF8C836D834E838C81282F30E052
S1139DA044E3429FC001439F900D11248459994B71
S1139DB08A839B8319828D81882F90E0092E000C61
S1139DC0AA0BBB0B40E050E027E030E0841B950B6E
S1139DD02817390708F44CC08A599B4DFC010C9490
S1139DE0DC788A819B81FC018689813009F042C03C
S1139DF08A819B81FC0195A581E089278823D1F183
S1139E008A819B8121E0FC0124A734C08C810E94BB
S1139E100E5331C08A819B81FC0182A58823A1F065
S1139E208A819B81FC0183A5833071F08A819B81A7
S1139E30FC0182A52FEF280F8A819B81FC0122A7B8
S1139E408C810E94445317C081E0898314C08C81A3
S1139E500E94385410C08C810E946E530CC06E81D5
S1139E608C810E94A75207C08C810E94424F03C07C
S1139E70000001C0000089812696CDBFDEBFDF91BE
S1139E80CF910895CF93DF93CDB7DEB72597CDBF9C
S1139E90DEBF8D838D81282F30E044E3429FC001D3
S1139EA0439F900D11248459994B89839A838D8102
S1139EB0282F30E046E1429FC001439F900D1124BA
S1139EC08056994B8B839C8389819A81FC01878D71
S1139ED0823071F589819A81FC0180A191A1AC0144
S1139EE04150510929813A81F90140A351A3892B99
S1139EF0F9F48B819C81FC01108A89819A8123E089
S1139F00FC0123A789819A8125E0FC01268B8981A4
S1139F109A81FC0114A689819A81FC0115A6898184
S1139F209A81FC01178E89819A8121E0FC0126A384
S1139F3089819A81FC01878D813031F589819A81EB
S1139F40FC0180A191A1AC014150510929813A81C0
S1139F50F90140A351A3892BB9F48B819C81FC01A5
S1139F60108A89819A8123E0FC0123A789819A813F
S1139F7024E0FC01218F89819A81FC01178E89815B
S1139F809A8121E0FC0126A300002596CDBFDEBF07
S1139F90DF91CF910895CF93DF93CDB7DEB72897A4
S1139FA0CDBFDEBF88878885282F30E046E1429FF9
S1139FB0C001439F900D11248056994B89839A8345
S1139FC089819A81FC01828193818B839C8388851A
S1139FD0282F30E044E3429FC001439F900D112499
S1139FE08459994B8D839E838B819C810196FC01BE
S1139FF080818F708F838F81873008F053C08D816B
S113A0009E81FC01178E8D819E8121E0FC0123A796
S113A0108D819E81FC01138614868D819E81FC01B5
S113A020158616868D819E81FC01108A118A8D8188
S113A0309E81FC0117868B819C81FC0180818E3777
S113A04031F48D819E8126E0FC0126A305C08D811B
S113A0509E8125E0FC0126A38D819E81AC01455F94
S113A0605F4F8B819C8121E0BC0188850E944D5506
S113A0708D819E8121E0FC0125A38D819E8121E0BB
S113A080FC0124A388850E94BB548D819E81FC0120
S113A09084A5882319F088850E94D9568D819E81D4
S113A0A0FC0115A600002896CDBFDEBFDF91CF913D
S113A0B00895CF93DF93CDB7DEB72997CDBFDEBF29
S113A0C089878985282F30E044E3429FC001439F5C
S113A0D0900D11248459994B89839A838985282F5B
S113A0E030E046E1429FC001439F900D11248E55FC
S113A0F0994BFC01808191818B839C838985282FD6
S113A10030E04CE1429FC001439F900D11248656DC
S113A1109D4B8D839E838B819C810196FC01808164
S113A120882F90E08F709927382F22278B819C816C
S113A1300296FC018081882F90E0820F931F8F8309
S113A14098878F819885079708F4B3C08D819E8185
S113A150FC01228D338D8F8198852817390708F4E7
S113A160A8C08D819E81FC01938181E08927882389
S113A17079F189819A8125E0FC0126A38D819E8154
S113A180FC018081882321F58985282F30E04CE16A
S113A190429FC001439F900D112484559D4BFC01A7
S113A1A08081282F30E044E2429FC001439F900DFC
S113A1B011248D569D4BFC012081318189819A8126
S113A1C0FC0120A331A389819A8122E0FC01278F1D
S113A1D089819A81FC011386148689819A81FC0104
S113A1E01586168689819A81FC01108A118A8981D3
S113A1F09A81FC01178689819A81AC01455F5F4F82
S113A2008B819C8121E0BC0189850E944D558F8101
S113A2109885AC01455051099A01ABEABAEA0E940B
S113A220E5789C013695279536952795C901880FC1
S113A230991F820F931F880F991F9A01281B390BAE
S113A240232B91F48F81988505979C01ABEABAEA98
S113A2500E94E5789695879596958795282F89810C
S113A2609A81FC0124A312C08F81988505979C01D3
S113A270ABEABAEA0E94E578969587959695879514
S113A28021E0280F89819A81FC0124A389819A8184
S113A29021E0FC0125A389819A81FC0113A689810F
S113A2A09A8121E0FC0125A789819A81FC0110A6ED
S113A2B011A600002996CDBFDEBFDF91CF9108958E
S113A2C0CF93DF93CDB7DEB72697CDBFDEBF8E83A6
S113A2D08E81282F30E044E3429FC001439F900DBC
S113A2E011248459994B89839A838E81282F30E0D5
S113A2F046E1429FC001439F900D11248E55994B16
S113A300FC01808191818B839C838E81282F30E096
S113A3104CE1429FC001439F900D112486569D4BF2
S113A320FC018081882321F58E81282F30E04CE1C7
S113A330429FC001439F900D112484559D4BFC0105
S113A3408081282F30E044E2429FC001439F900D5A
S113A35011248D569D4BFC012081318189819A8184
S113A360FC0120A331A389819A8122E0FC01278F7B
S113A3708B819C810196FC0180818F708D83898102
S113A3809A81FC0195A18D81981781F589819A8123
S113A390FC0185A121E0280F89819A81FC0125A374
S113A3A089819A81FC0185A1803120F089819A817B
S113A3B0FC0115A289819A81FC0184A12FEF280F49
S113A3C089819A81FC0124A389819A81AC01455F2A
S113A3D05F4F8B819C8121E0BC018E810E944D5591
S113A3E089819A8125E0FC0126A31CC089819A8178
S113A3F0FC0184A5882321F089819A81FC0114A69B
S113A40089819A81FC0115A689819A8126E0FC0143
S113A410268B89819A81FC01178E89819A8121E09A
S113A420FC0126A389819A81FC0184A18823C9F4B3
S113A43089819A81FC01178E89819A8121E0FC012E
S113A44023A78E810E94BB5489819A81FC0184A533
S113A450882319F08E810E94D95689819A81FC0142
S113A46015A600002696CDBFDEBFDF91CF910895DB
S113A470CF93DF93CDB7DEB72697CDBFDEBF8C83F6
S113A4806D837E838C81282F30E044E3429FC0019A
S113A490439F900D11248459994B89839A838C810D
S113A4A0282F30E04CE1429FC001439F900D1124BE
S113A4B083569D4BFC01908181E08927882309F113
S113A4C08C81282F30E044E3429FC001439F900DCC
S113A4D011248A56994BFC01108289819A8125E0C6
S113A4E0FC01248389819A81FC0115821682898169
