S02000006D6963726F636869705F73747564696F5F70726F6A6563742E73726563F9
S11348000C949F240C94BC240C94BC240C94182564
S11348100C94BC240C94BC240C94BC240C94BC2494
S11348200C94BC240C94BC240C94BC240C94BC2484
S11348300C943F250C9495250C94BC240C94BC2416
S11348400C94BC240C94BC240C94BC240C94BC2464
S11348500C94BC240C94BC240C94BC240C94BC2454
S11348600C94F64E0C94BC240C94BC240C94804EF2
S11348700C94BC240C94BC240C94BC240C94BC2434
S11348800C94BC240C94BC240C94BC240C94BC2424
S11348900C94BC240C94BC240C94BC240C94BC2414
S11348A00C94BC240C94BC240C94BC240C94BC2404
S11348B00C94BC240C94BC240C94BC240C94BC24F4
S11348C00C94BC240C94BC240C94BC240C94BC24E4
S11348D00C94BC240C94BC240C94BC240C94C324CD
S11348E00C94BC240C94BC240C94BC240C94BC24C4
S11348F00C94BC240C94BC240C94BC240C94BC24B4
S113490066269826CD260227372769279E27D32790
S113491008283D28E941FF41E3418A41FF41CD4157
S11349208541A941C741C141BB41AF41B541B34CE8
S1134930B74CDB4CDF4CE34CE84CEC4C904C112472
S11349401FBECFEFCDBFDFE7DEBF14E6A0E0B0E6C9
S1134950E0EEF0EC02C005900D92AC31B107D9F74E
S113496029E6ACE1B4E601C01D92A830B207E1F734
S11349700E94B72C0C946E600C9400240E94F54F96
S11349800E94F64D08951F920F920FB60F921124B4
S11349902F933F934F935F936F937F938F939F9343
S11349A0AF93BF93EF93FF9380918408887090E056
S11349B0959587959595879595958795813061F41B
S11349C04FEF60E070E0CB010E94C73FE0E8F8E001
S11349D08481886084831BC08091810880FD0CC021
S11349E041E060E070E0CB010E94C73FE0E8F8E0FE
S11349F08481886084830BC040E060E070E0CB0178
S1134A000E94C73FE0E8F8E0848188608483FF91D6
S1134A10EF91BF91AF919F918F917F916F915F9132
S1134A204F913F912F910F900FBE0F901F901895AB
S1134A301F920F920FB60F9211242F933F934F930F
S1134A405F936F937F938F939F93AF93BF93EF93F2
S1134A50FF930E943B4E82E080934301FF91EF91CC
S1134A60BF91AF919F918F917F916F915F914F9182
S1134A703F912F910F900FBE0F901F9018951F928A
S1134A800F920FB60F9211242F933F934F935F937E
S1134A906F937F938F939F93AF93BF93EF93FF9302
S1134AA080E00E943C448091626790916367019624
S1134AB0809362679093636781E08093060BFF9114
S1134AC0EF91BF91AF919F918F917F916F915F9182
S1134AD04F913F912F910F900FBE0F901F901895FB
S1134AE080911C64813001F580911D6490911E6455
S1134AF08533910598F4880F991FFC01EA5FFF49FB
S1134B00808191810E943B4F80911D6490911E642D
S1134B10019680931D6490931E64089510921D6401
S1134B2010921E6410921C6408951F920F920FB687
S1134B300F9211242F933F934F935F936F937F931F
S1134B408F939F93AF93BF93EF93FF930E9470252E
S1134B5081E08093160BFF91EF91BF91AF919F91EC
S1134B608F917F916F915F914F913F912F910F9012
S1134B700FBE0F901F9018956093290A08958130F5
S1134B8049F461E082E00E94752C60E083E00E94B9
S1134B90752C089560E082E00E94752C61E083E04A
S1134BA00E94752C0895813049F461E084E00E94EC
S1134BB0752C60E085E00E94752C089560E084E027
S1134BC00E94752C61E085E00E94752C0895CF93B6
S1134BD0DF93809124648093236480E090E00E94BA
S1134BE04C4E80788093246491E09093AA6088234B
S1134BF039F080912364811103C081E08093A8601F
S1134C00C0E0D0E008C08C2F90E00E944C4E882376
S1134C100CF4D1E0CF5FC630B0F3C0E007C08C2FF6
S1134C2090E00E945B4E8111D1E0CF5FC230B8F3B7
S1134C30D093A9600E94A42ADF91CF910895809116
S1134C4022648093216483E090E00E944C4E80783B
S1134C508093226491E09093A260882339F080913C
S1134C602164811103C081E08093A1600E94BA2B6A
S1134C7008958091DC6082958F7059F08091DC609A
S1134C80982F92959F708091A060807F892B80934C
S1134C90A060E8EDF0E690818091A06090FB85F93A
S1134CA08093A060958190FB84F98093A06008951F
S1134CB020E018C2822F90E0FC013497EA30F1051D
S1134CC008F00FC2E058FB4D0C94035F822F90E074
S1134CD0FC01EE0FFF1FE80FF91FEB59F849308173
S1134CE03323D9F0FC01EE0FFF1F8E0F9F1FFC0131
S1134CF0EB59F84931503083A8EDB0E618969C91F1
S1134D0018978181987F8770892B18968C93E5ED8D
S1134D10F0E681818E7F8183E4C1E8EDF0E6808551
S1134D20887F8087E5EDF0E681818E7F8183D9C11C
S1134D30822F90E0FC01EE0FFF1FE80FF91FEB59E3
S1134D40F84930813323F1F0FC01EE0FFF1F8E0F81
S1134D509F1FFC01EB59F84931503083A8EDB0E6B0
S1134D6018968C9118979181990F990F990F9873B0
S1134D70877C892B18968C93E5EDF0E681818D7FF5
S1134D808183AFC1E8EDF0E68085877C8087E5ED1F
S1134D90F0E681818D7F8183A4C1822F90E0FC01A4
S1134DA0EE0FFF1FE80FF91FEB59F8493081332349
S1134DB0F1F0FC01EE0FFF1F8E0F9F1FFC01EB595A
S1134DC0F849315030838181882331F0E8EDF0E6F1
S1134DD080858064808705C0E8EDF0E680858F7B60
S1134DE08087E5EDF0E681818B7F81837AC1E8EDF0
S1134DF0F0E680858F7B8087E5EDF0E681818B7F0F
S1134E0081836FC1822F90E0FC01EE0FFF1FE80F3A
S1134E10F91FEB59F84930813323F1F0FC01EE0F0F
S1134E20FF1F8E0F9F1FFC01EB59F849315030834F
S1134E308181882331F0E8EDF0E680858068808701
S1134E4005C0E8EDF0E680858F778087E5EDF0E634
S1134E508181877F818345C1E8EDF0E680858F7786
S1134E608087E5EDF0E68181877F81833AC1822FD7
S1134E7090E0FC01EE0FFF1FE80FF91FEB59F84912
S1134E8030813323D9F0FC01EE0FFF1F8E0F9F1FDB
S1134E90FC01EB59F84931503083A8EDB0E619967E
S1134EA09C9119978181987F8770892B19968C938F
S1134EB0E5EDF0E681818F7E818313C1E8EDF0E6B4
S1134EC08185887F8187E5EDF0E681818F7E81830E
S1134ED008C1822F90E0FC01EE0FFF1FE80FF91FBD
S1134EE0EB59F84930813323F1F0FC01EE0FFF1F39
S1134EF08E0F9F1FFC01EB59F84931503083A8ED08
S1134F00B0E619968C9119979181990F990F990F81
S1134F109873877C892B19968C93E5EDF0E6818153
S1134F208F7D8183DEC0E8EDF0E68185877C818713
S1134F30E5EDF0E681818F7D8183D3C0822F90E0FF
S1134F40FC01EE0FFF1FE80FF91FEB59F849308100
S1134F503323F1F0FC01EE0FFF1F8E0F9F1FFC01A6
S1134F60EB59F849315030838181882331F0E8EDE1
S1134F70F0E681858064818705C0E8EDF0E68185EF
S1134F808F7B8187E5EDF0E681818F7B8183A9C0EA
S1134F90E8EDF0E681858F7B8187E5EDF0E68181A0
S1134FA08F7B81839EC0822F90E0FC01EE0FFF1F58
S1134FB0E80FF91FEB59F84930813323F1F0FC0174
S1134FC0EE0FFF1F8E0F9F1FFC01EB59F849315064
S1134FD030838181882331F0E8EDF0E682858160B9
S1134FE0828705C0E8EDF0E682858E7F8287E5ED55
S1134FF0F0E681818F77818374C0E8EDF0E68285E5
S11350008E7F8287E5EDF0E681818F77818369C0A9
S1135010822F90E0FC01EE0FFF1FE80FF91FEB5900
S1135020F84930813323F1F0FC01EE0FFF1F8E0F9E
S11350309F1FFC01EB59F84931503083818188234B
S113504031F0E8EDF0E682858260828705C0E8ED04
S1135050F0E682858D7F8287E5EDF0E682818E7FA2
S113506082833FC0E8EDF0E682858D7F8287E5ED9F
S1135070F0E682818E7F828334C0822F90E0FC012F
S1135080EE0FFF1FE80FF91FEB59F8493081332366
S1135090F1F0FC01EE0FFF1F8E0F9F1FFC01EB5977
S11350A0F849315030838181882331F0E8EDF0E60E
S11350B082858460828705C0E8EDF0E682858B7F77
S11350C08287E5EDF0E682818D7F82830AC0E8ED78
S11350D0F0E682858B7F8287E5EDF0E682818D7F25
S11350E082832F5F2E3008F4E5CD089590E0FC0113
S11350F0EE0FFF1F8E0F9F1FFC01EB59F8496083D1
S11351004183089541E063E086E00E947628089593
S11351109091A760911106C0482F63E084E00E943B
S113512076280895482F63E088E00E947628089541
S11351309091A760911106C0482F63E085E00E941A
S113514076280895482F63E089E00E947628089520
S1135150FC0110821182128213821482158216823B
S11351601782108611861286138614861586168673
S11351701786108A118A128A138A148A0895CF9383
S1135180DF939091206490931F648091A760809333
S11351902064981721F087E890E60E94A828C7E8C1
S11351A0D0E68C818B8385E090E00E944C4E807821
S11351B08C838E818D8384E090E00E944C4E8078B5
S11351C08E839C81998B8A8B992341F020918A60EC
S11351D0211104C019821A8222E028832091876059
S11351E02230C1F4E7E8F0E6218132812F5F3F4F9E
S11351F02183328341E0448746872F30310510F004
S113520010928760911106C0E7E8F0E610821486D8
S113521091E09687882351F090918C60911106C09B
S1135220E7E8F0E61182128293E090839091876020
S11352309330C1F4E7E8F0E6218132812F5F3F4FDC
S11352402183328391E0948795872F30310510F0C4
S113525010928760811106C0E7E8F0E61082148698
S113526081E08587C7E8D0E688858F8381E090E078
S11352700E945B4E88878B8B81E090E00E946D4E8C
S11352808A87988191110FC090918F60992309F4B6
S113529066C090918E60911162C019821A8294E066
S11352A0988389875CC0943009F051C090918F60D5
S11352B0911119C0E7E8F0E610829185943638F42C
S11352C0873908F44CC0148681E0878748C0973931
S11352D008F445C0843608F042C0E7E8F0E61486D6
S11352E081E0808B3CC0E7E8F0E6218132812F5FCA
S11352F03F4F21833283992391F1909190609436AA
S113530088F4873960F12F30310530F081E08787E8
S113531095E09083848723C0E7E8F0E681E08787FF
S113532084871DC09739D8F08436C8F42F303105EE
S113533040F0E7E8F0E685E0808381E08487808BB5
S11353400EC0E7E8F0E681E08487808B08C09530E2
S113535031F480918F60811102C01092876082E9DC
S113536090E60E940E2B90911F6480912064981700
S113537021F080E790E60E94A828C0E7D0E68C815F
S11353808B8382E090E00E944C4E80788C838E81E7
S11353908D8381E090E00E944C4E80788E839C81C6
S11353A0998B8A8B992341F020917360211104C059
S11353B019821A8222E02883209170602230C1F47D
S11353C0E0E7F0E6218132812F5F3F4F2183328372
S11353D041E0448746872F30310510F01092706009
S11353E0911106C0E0E7F0E61082148691E09687FA
S11353F0882351F090917560911106C0E0E7F0E6C2
S11354001182128293E09083909170609330C1F482
S1135410E0E7F0E6218132812F5F3F4F2183328321
S113542091E0948795872F30310510F010927060C9
S1135430811106C0E0E7F0E61082148681E08587DA
S1135440C0E7D0E688858F8380E090E00E945B4EC1
S113545088878B8B80E090E00E946D4E8A879881CC
S113546091110FC090917860992309F466C09091CE
S11354707760911162C019821A8294E098838987B7
S11354805CC0943009F051C090917860911119C0BA
S1135490E0E7F0E610829185943638F4873908F411
S11354A04CC0148681E0878748C0973908F445C00A
S11354B0843608F042C0E0E7F0E6148681E0808B91
S11354C03CC0E0E7F0E6218132812F5F3F4F21832A
S11354D03283992391F190917960943688F48739D5
S11354E060F12F30310530F081E0878795E09083BB
S11354F0848723C0E0E7F0E681E0878784871DC0C6
S11355009739D8F08436C8F42F30310540F0E0E7FD
S1135510F0E685E0808381E08487808B0EC0E0E73D
S1135520F0E681E08487808B08C0953031F4809167
S11355307860811102C0109270608BE790E60E943F
S11355400E2BDF91CF9108958091A760882319F0E5
S11355508130D9F008958091A860813009F05DC050
S1135560E7EAF0E611828381813009F056C01382A4
S1135570808314821582168217820084F185E02DBF
S1135580309709F44AC0099508958091A960813043
S113559049F41092AB601092AC601092AD6010921E
S11355A0AE600DC0E7EAF0E684819581A681B781FB
S11355B00196A11DB11D84839583A683B783809131
S11355C0AB609091AC60A091AD60B091AE60883B4F
S11355D09B40A105B10570F0E7EAF0E6148215825C
S11355E01682178210820084F185E02D309711F025
S11355F080E009958091A860813079F4E7EAF0E6CB
S113560011828381813049F4138210820084F185F0
S1135610E02D309711F080E009950895CF93DF9342
S1135620EC018881813009F46CC020F0823009F4E7
S11356308DC09DC019868B818130B1F41B82898114
S1135640813049F48987EA85FB85309709F009950B
S113565081E088838CC083E08987EA85FB85309765
S113566009F485C0099583C08A818130B9F41A820E
S11356708981813051F482E08987EA85FB853097FE
S113568009F0099581E0888372C084E08987EA85FE
S1135690FB85309709F46BC0099569C08C81813012
S11356A0B1F41C828981813049F48987EA85FB85BC
S11356B0309709F0099582E0888359C083E089878F
S11356C0EA85FB85309709F452C0099550C08D8155
S11356D0813009F04CC01D828981813051F482E00F
S11356E08987EA85FB85309709F0099582E08883EC
S11356F03EC084E08987EA85FB853097C1F109952E
S113570036C08985823081F49F81992331F0EA85FE
S1135710FB85309761F109952AC0EA85FB853097AE
S113572009F00995188223C0813009F59E819923D7
S113573031F0EA85FB853097D1F0099518C0EA85E8
S1135740FB85309709F00995188211C08885882354
S113575039F0EA85FB85309751F08985099507C0B2
S1135760EA85FB85309711F0898509951882DF91C8
S1135770CF9108958091A160813069F4E1EAF0E667
S113578010828181813039F411820480F581E02D09
S1135790309709F00995E091A360F091A4603097E7
S11357A029F08091A0608295817009950895809177
S11357B0A06085FF07C08F7090E022E330E040E0F6
S11357C050E008C089E090E0A0E0B0E024E630E0DA
S11357D040E050E0880F991F880F991FFC01E050AA
S11357E0FD4960817181828193810E94D15E9B0118
S11357F0AC01AAE4B0E00E94185F20E137E240E087
S113580050E00E94E15EE0919E60F0919F603097CD
S113581019F0CA01B9010995089581B18E7F81B942
S1135820F894E0E8F8E085818B7785838681897335
S1135830868380B3816080BB81B38E7F81BB0895F2
S1135840CF93DF9300D0CDB7DEB7DC0119821A8283
S113585090E012C0E62FF0E03197292F30E0E21BF0
S1135860F30BEA0FFB1F8081E1E0F0E0EC0FFD1F7A
S1135870E20FF31F80839F5F961760F320E028C038
S1135880822F869586958695E1E0F0E0EC0FFD1F6A
S1135890E80FF11D308167E070E0922F9770691B6B
S11358A0710981E090E002C0880F991F6A95E2F7C0
S11358B0832321F081B1886081B903C081B1877FDE
S11358C081B989B18F7789B989B1806889B92F5F26
S11358D02417B0F281B18B7F81B981B1846081B921
S11358E00F900F90DF91CF910895E82FF0E0EE0F25
S11358F0FF1FE85DFC4980812181613099F4E82F24
S1135900F0E081E090E0A0E0B0E004C0880F991FCF
S1135910AA1FBB1F2A95D2F7EF54FF492081822B7F
S113592080830895E82FF0E081E090E0A0E0B0E00B
S113593004C0880F991FAA1FBB1F2A95D2F7EF54E2
S1135940FF498095908189238083089540E162E036
S113595081EB90E60E94202C089589B18F7B89B950
S113596040E162E081EB90E60E94202C08950E94C1
S1135970BE2478940E94AD2C67EE75E284E190E039
S11359800E94A44E6FE176E284E190E00E94A44E6E
S11359906FEB78E284E190E00E94A44E66EA7CE238
S11359A082E390E00E94A44E69E376E28AE090E00C
S11359B00E94A44E67ED7BE284E690E00E94A44E30
S11359C00E94022D80E00E94042D80E00E94864502
S11359D00E94C94E0E94FE4D80912F668130C1F70E
S11359E010922F666AEA80E090E00E94365080911F
S11359F002108370E1F741E068ED81E490E00E94D9
S1135A005250E6CF80E0089596E1899FF001112479
S1135A10E953F849108A0E94284208952CE1829F94
S1135A20C0011124FC01E85BFC494681578170E008
S1135A30FB01EE0FFF1F660F771F660F771F660FC0
S1135A40771FE60FF71FE40FF51F808181110EC049
S1135A5025813681678108C0D901AB52BF499FEFC8
S1135A609C932F5F3F4F8F5F8617B0F38081813007
S1135A7029F50084F185E02D0180F281E02D8081FB
S1135A8090E0FC01EE0FFF1F880F991F880F991FEC
S1135A90880F991F8E0F9F1FFA01E80FF91F2581A8
S1135AA03681478180E008C0F901EB52FF499FEF3E
S1135AB090832F5F3F4F8F5F8417B0F30895CF9388
S1135AC0C82F90E02CE1289FF001299FF00D1124AC
S1135AD0E85BFC492381211111C02CE1289FF001CE
S1135AE0299FF00D1124E85BFC498081882311F083
S1135AF0833021F468E08C2F0E9434328C2F0E9472
S1135B008843CF910895482F50E08CE1849FF001A1
S1135B10859FF00D1124E85BFC4994811DC02CE1A4
S1135B20249FF001259FF00D1124E85BFC490284B9
S1135B30F385E02DE90FF11D208126130CC08CE1C3
S1135B40849FF001859FF00D1124E85BFC49858159
S1135B50890F8150089591509111E1CF8FEF0895ED
S1135B60EF92FF920F931F93CF93DF93182F062F7B
S1135B70C82FD0E086E18C9FF0018D9FF00D112499
S1135B80E953F84981E0858382858F3F51F096E19E
S1135B909C9FF0019D9FF00D1124E953F8498F5FFC
S1135BA0828786E18C9FF0018D9FF00D1124E953CB
S1135BB0F84982858230A8F086E18C9FF0018D9FA0
S1135BC0F00D1124E953F849838581110AC086E157
S1135BD08C9FF0018D9FF00D1124E953F84981E069
S1135BE0838786E18C9FF0018D9FF00D1124E9538A
S1135BF0F8498589882351F086E18C9FF0018D9FB7
S1135C00F00D1124E953F8491682158A602F812F6B
S1135C100E94832DE82E8CE18C9FF0018D9FF00D66
S1135C201124E85BFC49F380FF2069F00C3359F43C
S1135C3086E18C9FF0018D9FF00D1124E953F84902
S1135C408089813021F0F11007C00D3329F4402FF1
S1135C5062E0812F0E94804C83E08E1550F06E2DFF
S1135C60812F0E940E2DEE2DF0E0EC5CF94981E0CD
S1135C708083F11015C08CE18C9FF0018D9FF00D95
S1135C801124E85BFC498081882311F0833041F4BE
S1135C906E2D812F0E94953261E0812F0E94343253
S1135CA0DF91CF911F910F91FF90EF900895EF92A4
S1135CB0FF920F931F93CF93DF93182F062FE42E99
S1135CC0C82FD0E0642F0E94832DF82E86E18C9F8C
S1135CD0F0018D9FF00D1124E953F84982858F3F1F
S1135CE051F096E19C9FF0019D9FF00D1124E95322
S1135CF0F8498F5F828786E18C9FF0018D9FF00DBC
S1135D001124E953F84982858230A8F086E18C9FFA
S1135D10F0018D9FF00D1124E953F8498385811119
S1135D200AC086E18C9FF0018D9FF00D1124E95388
S1135D30F84981E083878CEF800F843080F58CE113
S1135D408C9FF0018D9FF00D1124E85BFC492681A6
S1135D5037818F2D90E0FC01EE0FFF1F880F991FF4
S1135D60880F991F880F991F8E0F9F1FF901E80F45
S1135D70F91F8081813099F086E18C9FF0018D9F1D
S1135D80F00D1124E953F84981E0868384EC8E0DEB
S1135D90823028F44E2D64E0812F0E94804C8CE1E7
S1135DA08C9FF0018D9FF00D1124E85BFC498381E9
S1135DB0811120C08CE18C9FF0018D9FF00D112486
S1135DC0E85BFC498081882311F0833099F486E1F3
S1135DD08C9FF0018D9FF00D1124E953F8498681C1
S1135DE0813021F46F2D812F0E949532602F812FF5
S1135DF00E943432DF91CF911F910F91FF90EF9069
S1135E0008950F931F93CF93DF93162F042FC82F5A
S1135E10D0E00E94832D8F3F09F4BBC096E19C9F84
S1135E20D0019D9FB00D1124A953B84912964D91EC
S1135E305C9113979CE19C9FF0019D9FF00D1124B0
S1135E40E85BFC4966817781282F30E0F901EE0F89
S1135E50FF1F220F331F220F331F220F331F2E0F5A
S1135E603F1FFB01E20FF31F318114963C936381C2
S1135E707481011172C09C9FF0019D9FF00D11244B
S1135E80E85BFC499381911184C09CE19C9FF001E3
S1135E909D9FF00D1124E85BFC49228930E090E0DD
S1135EA01CC0A4E2A29FF001A39FF00D1124EC59A1
S1135EB0FC490484F585E02DE90FF11DE0811E13F2
S1135EC00BC096E19C9FF0019D9FF00D1124E953B6
S1135ED0F84991E0958B0CC09F5FA4E2A29FF0016A
S1135EE0A39FF00D1124EC59FC49E6859E17C8F2D6
S1135EF0E82FF0E0E05DF949A08180E022C0E82FBE
S1135F00F0E02A2F30E0082E02C0369527950A9437
S1135F10E2F720FF08C0E85CF9499081FA01E80F34
S1135F20F11D90830DC0282F30E08A01020F131F4A
S1135F30260F371FF901E852FF499081F801908339
S1135F408F5F96E19C9FF0019D9FF00D1124E95312
S1135F50F8499481891798F21CC08CE18C9FF00158
S1135F608D9FF00D1124E85BFC498381811111C0E0
S1135F7020E00DC0822F90E0FB01E80FF91FDA0149
S1135F80A80FB91F8C91E852FF4980832F5F231714
S1135F9088F3DF91CF911F910F910895AF92BF9233
S1135FA0CF92DF92EF92FF920F931F93CF93DF93E1
S1135FB01F92CDB7DEB7B82EA62EE82EF12C0E9484
S1135FC0832D9CE19E9DF0019F9DF00D1124E85BC3
S1135FD0FC49C680D780282F30E08901000F111FAB
S1135FE0220F331F220F331F220F331F020F131FE1
S1135FF00C0D1D1D8F3F09F4B9C060E08A2D0E946D
S1136000254296E19E9DF0019F9DF00D1124E953D8
S1136010F8498187D8018C91813081F020F0813159
S113602009F470C0A5C0F80182818111A3C040E0C9
S11360306A2D8B2D0E94012F82E0A5C08CE18E9DDC
S1136040F0018F9DF00D1124E85BFC4983818111DF
S113605093C0D8011896ED91FC9119970180F281B3
S1136060E02D80818983898190E0FC01EE0FFF1F80
S1136070880F991F880F991F880F991FE80FF91F20
S1136080EC0DFD1D85819681298130E0A901440F25
S1136090551F220F331F220F331F220F331F240FCC
S11360A0351FF601E20FF31F378120E027C0AC0152
S11360B04F5F5F4FFC01EB52FF4980818F3FE1F05E
S11360C08CE18E9DD0018F9DB00D1124A85BBC493D
S11360D01A962D913C911B97898115969C91E82FD6
S11360E0F0E0E91BF1093196E20FF31F60818B2D7B
S11360F00E947C3382E047C02F5FCA012317B8F2A5
S113610081E041C08CE18E9DF0018F9DF00D112442
S1136110E85BFC498081823089F1F8018281811138
S11361201EC0FCE3AF1212C086E18E9DF0018F9D6C
S1136130F00D1124E953F8498089813009F54A2D7D
S113614060E08B2D0E94804C82E01DC04A2D61E0EE
S11361508B2D0E94804C8130A9F082E014C04A2D1E
S113616067E08B2D0E94804C81E00DC080E00BC065
S113617081E009C081E007C081E005C080E003C080
S113618082E001C080E0813019F0823041F00DC01E
S1136190D80111966C918B2D0E94EC4309C0F80133
S11361A061818B2D0E949C4303C08B2D0E947443FC
S11361B00F90DF91CF911F910F91FF90EF90DF909F
S11361C0CF90BF90AF900895DF92EF92FF920F931C
S11361D01F93CF93DF93F82ED62EC82FD0E086E1FD
S11361E08C9FF0018D9FF00D1124E953F84981E053
S11361F0858382858F3F51F096E19C9FF0019D9F9E
S1136200F00D1124E953F8498F5F828786E18C9F52
S1136210F0018D9FF00D1124E953F84982858230F5
S1136220A8F086E18C9FF0018D9FF00D1124E953B5
S1136230F849838581110AC086E18C9FF0018D9F06
S1136240F00D1124E953F84981E083876D2D8F2DDA
S11362500E94832DE82E83E08E1508F4B4C08CE1EF
S11362608C9FF0018D9FF00D1124E85BFC490681A1
S113627017818E2D90E0FC01EE0FFF1F880F991FF0
S1136280880F991F880F991FE80FF91FE00FF11F5E
S11362908081813051F018F0813101F140C041E03A
S11362A06D2D8F2D0E94012F3AC06D2D8F2D0E94D0
S11362B00C3386E18C9FF0018D9FF00D1124E9537E
S11362C0F8490280F381E02D61E080810E9425423B
S11362D0682F8F2D0E94832DE82E21C086E18C9F8C
S11362E0F0018D9FF00D1124E953F8490280F381E8
S11362F0E02D808181110EC086E18C9FF0018D9F7D
S1136300F00D1124E953F84981E087838F2D0E9411
S1136310884305C04D2D63E08F2D0E94804C83E09F
S11363208E1578F1EE2DF0E0EC5CF94981E0808384
S11363308CE18C9FF0018D9FF00D1124E85BFC49EA
S1136340838181111EC08E2D90E0FC01EE0FFF1F92
S1136350880F991F880F991F880F991FE80FF91F3D
S1136360E00FF11F25813681478180E008C0F901E3
S1136370EB52FF499FEF90832F5F3F4F8F5F84174E
S1136380B0F38CE18C9FF0018D9FF00D1124E85B3C
S1136390FC498381811117C08CE18C9FF0018D9F92
S11363A0F00D1124E85BFC498081882311F08330CF
S11363B029F462E08F2D0E94343205C0813019F433
S11363C08F2D0E940A32DF91CF911F910F91FF9080
S11363D0EF90DF900895623099F028F4662341F03D
S11363E0613051F00895683090F0683069F0089594
S11363F0642F0E94CE2F0895642F0E94B02D08951B
S1136400642F0E94E43008950E945F2D08950E9435
S1136410572E0895282F30E086E1829FD001839F74
S1136420B00D1124FD01E953F84946811682858196
S11364305385AD52B8499C91692F6170462B40FB3E
S113644090F991FB442740F9842B80FB91F950FB90
S113645092F99C93818585878781882321F0FD01AA
S1136460892F886080830895282F30E086E1829FF9
S1136470F001839FF00D1124E953F84946811682F7
S113648085819785992311F051E001C050E096E190
S1136490929FF001939FF00D1124DF01A953B84995
S11364A01B967C911B97ED52F849908170FB92F9F1
S11364B0792F7170472B40FB90F991FB442740F9E9
S11364C0842B80FB91F9908319968C9119971D96D2
S11364D08C931D9717968C91882359F086E1829F9F
S11364E0F001839FF00D1124ED52F849892F886043
S11364F08083683059F086E1829FF001839FF00D1C
S11365001124ED52F84980818061808386E1829F65
S1136510F001839FF00D1124ED52F84980818F7DA5
S113652050FB86F98F77808308951F93CF93DF9371
S113653090E026E1289FF001299FF00D1124E953F2
S1136540F84916812CE1289FF001299FF00D1124B0
S1136550E85BFC49428950E0643008F059C0289F48
S1136560F001299FF00D1124E85BFC498681978195
S113657070E0FB01EE0FFF1F660F771F660F771F9A
S1136580660F771F6E0F7F1FFC01E60FF71F8081D8
S1136590813091F53DC084E2849FF001859FF00D28
S11365A01124EC59FC49A089B189862F90E09C0103
S11365B0220F331F2A0F3B1FA289B389A80FB91FCB
S11365C0E901E881F981E852FF497081AC9121E049
S11365D030E00A2E02C0220F331F0A94E2F7812F03
S11365E090E002C0880F991FAA95E2F7209527230F
S11365F0822B80836F5F01C060E084E2849FF0019E
S1136600859FF00D1124EC59FC498685681718F212
S1136610DF91CF911F910895CF92DF92EF92FF9275
S11366200F931F93CF93DF93182FC82FD0E00E94AE
S1136630832D082F8F3F09F456C086E18C9FF0010B
S11366408D9FF00D1124E953F8490280F381E02D68
S113665061E080810E9425429CE19C9FF0019D9F06
S1136660F00D1124E85BFC4946815781202F30E06E
S1136670F901EE0FFF1F220F331F220F331F220FCA
S1136680331F2E0F3F1FFA01E20FF31FE084F18442
S113669020E025C09CE19C9FD0019D9FB00D11245A
S11366A0A85BBC491A96CD90DC901B97F7014181F9
S11366B05281FA01E20FF11D908115963C91E92F68
S11366C0F0E0E31BF109EC0DFD1D9181891306C077
S11366D041E0682F812F0E94012F05C02F5FF70131
S11366E090812917B8F2DF91CF911F910F91FF90FC
S11366F0EF90DF90CF9008950F931F93CF93DF9384
S1136700C82FD62F40E00E94012F86E1C89FF001D8
S11367101124E953F8490281138160E08D2F0E940E
S11367202542F8018083DF91CF911F910F91089545
S1136730AF92BF92CF92DF92EF92FF920F931F938B
S1136740CF93DF93CDB7DEB72D97CDBFDEBF082F34
S113675010E09CE1909FF001919FF00D1124E85B03
S1136760FC49E288F12C94E3909FD001919FB00DF5
S11367701124AD56B8495496CD90DC9055971B968C
S1136780ED91FC911C97EE0FFF1FEE0FFF1FEE0F14
S1136790FF1FEC0DFD1D90819E3709F4D8C0D82E43
S11367A084E28E9DD0018F9DB00D1124AC59BC495B
S11367B0AD90BC90D5018C91898383E08A838FE767
S11367C08B836C832D839FEF9E839F839887623B8B
S11367D091F038F4603B09F479C0613B09F46BC073
S11367E0A5C0663B09F491C0673B09F496C0633BBE
S11367F009F09CC082C0413009F098C086E08A83C9
S1136800605C6B83211113C084E28E9DF0018F9D27
S1136810F00D1124EC59FC49938184819C838D8370
S1136820958186819E838F83878188877FC021306D
S113683099F484E28E9DF0018F9DF00D1124EC59A2
S1136840FC4980858C8381858D8382858E838385B5
S11368508F8385E08A836AC085E0EBEFF2E6DE0190
S1136860199601900D928A95E1F7AE01475F5F4F4B
S1136870622F802F0E94793D89858C838A858D8340
S11368808B858E838C858F838D85888785E010C06A
S1136890E82FF0E0319729E030E02C0F3D1FE20FA4
S11368A0F31F90819F3F19F08F5F8A833FC081500F
S11368B08111EECF3BC0D5018C91898381E08A831D
S11368C081EF8B838FEF8C838D8330C024E22E9DE8
S11368D0C0012F9D900D11248C599C49DC01129606
S11368E08C9189838781F501808381E08A8380EF9D
S11368F08B838FEF8C838D8319C081E08A8383EF30
S11369008B838FEF8C838D8311C081E08A83605CDD
S11369106B838FEF8C838D8309C0413039F481E020
S11369208A83605C6B838FEF8C838D83BE016F5F82
S11369307F4F8D2D0E940F4684E3809FF001819F3D
S1136940F00D1124ED56F84982E086A30AC084E3D1
S1136950809FF001819FF00D1124ED56F84981E0EC
S113696086A32D96CDBFDEBFDF91CF911F910F91EE
S1136970FF90EF90DF90CF90BF90AF900895CF92AB
S1136980DF92EF92FF920F931F93CF93DF93CDB7D4
S1136990DEB72597CDBFDEBFE82EF12C9CE19E9D8E
S11369A0F0019F9DF00D1124E85BFC49028910E081
S11369B094E2909F9001919F300D1124F901E959BF
S11369C0FC4995E0DE01119601900D929A95E1F74C
S11369D0D901AC59BC49FD0138961896CC90D180A8
S11369E05281438194E39E9DD0019F9DB00D11245B
S11369F0AD56B84954962D913C9155971B96ED91FF
S1136A00FC911C97EE0FFF1FEE0FFF1FEE0FFF1FF1
S1136A10E20FF31F3381948175816681332319F06A
S1136A203130C1F154C02FEF290F253008F051C087
S1136A30223090F449815A81292F30E02150304E80
S1136A40220F331F220F331F220F331F02C056950C
S1136A5047952A95E2F719C02DEF290F2230A0F4AB
S1136A602B813C81492F50E04350504E440F551F19
S1136A70440F551F440F551FF90102C0F695E795C1
S1136A804A95E2F7AF0101C04D814627472319F12A
S1136A9090E026C02FEF290F2430F8F4923059F0FB
S1136AA018F4913031F00CC0933039F0943039F04F
S1136AB007C09C2D05C09D2D03C0952F01C0942FA8
S1136AC0292F2627472F422351F090E009C090E058
S1136AD007C090E005C091E003C090E001C091E0E0
S1136AE0992351F120E041E063EB0E94983384E262
S1136AF0809FF001819FF00D1124EC59FC498081A5
S1136B00918124E32E9DD0012F9DB00D1124AD560B
S1136B10B84954962D913C9155971B96ED91FC9153
S1136B201C97EE0FFF1FEE0FFF1FEE0FFF1FE20F6C
S1136B30F31F2781FC0120832596CDBFDEBFDF91A3
S1136B40CF911F910F91FF90EF90DF90CF90089518
S1136B50CF93DF93CDB7DEB72D97CDBFDEBF482FE0
S1136B6050E09CE1949FF001959FF00D1124E85BA7
S1136B70FC49E28994E2E99FF0011124E959FC49B6
S1136B8095E0DE01199601900D929A95E1F790E057
S1136B9025C024E3249FD001259FB00D1124AD56B8
S1136BA0B84954962D913C9155971B96ED91FC91C3
S1136BB01C97EE0FFF1FEE0FFF1FEE0FFF1FE20FDC
S1136BC0F31F292F30E0E20FF31F6081E1E0F0E0D2
S1136BD0EC0FFD1FE20FF31F60839F5F9830C8F234
S1136BE02D8130E0322F22279C81292B6F8170E088
S1136BF0762F66279E81692BE985FA852E173F0734
S1136C0019F02F3F3F4741F42B853C8562177307EA
S1136C1069F06F3F7F4F51F084E3849FF001859FBB
S1136C20F00D1124ED56F84912A605C020E041E00C
S1136C3060EB0E9498332D96CDBFDEBFDF91CF91DC
S1136C400895AF92BF92DF92EF92FF920F931F933A
S1136C50CF93DF93CDB7DEB72897CDBFDEBFF82E35
S1136C60082F10E020E025C084E3809FD001819F9D
S1136C70B00D1124AD56B84954968D919C915597F9
S1136C801B96ED91FC911C97EE0FFF1FEE0FFF1F5B
S1136C90EE0FFF1FE80FF91F822F90E0E80FF91F96
S1136CA03081E1E0F0E0EC0FFD1FE80FF91F3083C5
S1136CB02F5F2830C8F2EC8090E081E002C09F5F33
S1136CC0842F2CE1209FF001219FF00D1124E85B1B
S1136CD0FC492085318541E0480FE82FF0E0EE0FB4
S1136CE0FF1FE20FF31F208131812F3F3F4F39F700
S1136CF06DEF690F4E2D54E017C091E0950FE1E060
S1136D00F0E0EC0FFD1FE50FF11D80818F3F51F086
S1136D10641740F420E140E067EB8F2D0E94983324
S1136D2080E00BC04F5F592F242F30E08E2D90E070
S1136D3004962817390708F381E08130F1F531C052
S1136D40E1E0F0E0EC0FFD1FED0DF11D80818823E3
S1136D5019F08F3F21F111C0E3948CE1809FF00181
S1136D60819FF00D1124E85BFC490284F385E02D3A
S1136D70EE0DF11D8FEF808312C0E3949CE1909F90
S1136D80F001919FF00D1124E85BFC49A284B384C7
S1136D90AE0CB11C61E00E942542F5018083D394BE
S1136DA003C06894DD24D2F8F7E0FD1548F620E02E
S1136DB041E067EB8F2D0E9498332896CDBFDEBF4C
S1136DC0DF91CF911F910F91FF90EF90DF90BF90D3
S1136DD0AF900895EF92FF920F931F93CF93DF9399
S1136DE0CDB7DEB76297CDBFDEBF082F10E09CE1C0
S1136DF0909FF001919FF00D1124E85BFC494289BA
S1136E0050E090E025C024E3209FD001219FB00DE5
S1136E101124AD56B84954962D913C9155971B9623
S1136E20ED91FC911C97EE0FFF1FEE0FFF1FEE0F6D
S1136E30FF1FE20FF31F292F30E0E20FF31F6081E1
S1136E40E6E0F0E0EC0FFD1FE20FF31F60839F5FAD
S1136E509830C8F294E2949FF001959FF00D1124AC
S1136E60E959FC4995E0DE01119601900D929A953D
S1136E70E1F72B8530E0322F22279A85292B4D8587
S1136E8050E0542F44279C85492B69817A81261729
S1136E90370719F02F3F3F4741F42B813C814217BC
S1136EA0530769F04F3F5F4F51F084E3809FF00137
S1136EB0819FF00D1124ED56F84912A666C0F82EF4
S1136EC0E984EE2021F081E0E81639F00DC02E2D82
S1136ED041E062EB0E94983358C02E2D41E062EBF2
S1136EE08F2D0E94983351C080EE8E0D803208F0B1
S1136EF046C085E0EBEFF2E6DE011E9601900D92AE
S1136F008A95E1F7AE01425F5F4F6E2D8F2D0E948F
S1136F10793D8435F9F402C08F5F01C080E085308B
S1136F2048F4EEE0F0E0EC0FFD1FE80FF11D908156
S1136F309F3F91F3853038F42E2D41E062EB8F2D85
S1136F400E94983322C022E140E062EB8F2D0E9420
S1136F5098331BC0833539F422E140E062EB8F2D76
S1136F600E94983312C084E3809FF001819FF00D4A
S1136F701124ED56F84912A682E083A706C022E147
S1136F8040E062EB8F2D0E9498336296CDBFDEBF46
S1136F90DF91CF911F910F91FF90EF900895AF92E1
S1136FA0BF92CF92DF92EF92FF920F931F93CF93F2
S1136FB0DF93CDB7DEB72897CDBFDEBFF82E082FFD
S1136FC010E08CE1809FF001819FF00D1124E85BBB
S1136FD0FC49228930E040E025C084E3809FD00151
S1136FE0819FB00D1124AD56B84954968D919C9152
S1136FF055971B96ED91FC911C97EE0FFF1FEE0F1A
S1137000FF1FEE0FFF1FE80FF91F842F90E0E80F1A
S1137010F91F5081E1E0F0E0EC0FFD1FE80FF91FCC
S113702050834F5F4830C8F28C8190E0982F8827B6
S11370304D81842B4B81813951EF950709F4DBC0D5
S113704048F48038F1EF9F0709F491C08838914FD4
S113705059F014C18839E1EF9E0709F415C1893943
S1137060914F09F445C00AC184E2829FF001839FD5
S1137070F00D1124EC59FC49A080B180F501808108
S1137080898380E18A838AE08B83405C4C8381EF2F
S11370908D8388E88E830F2EF0E3EF2EF02DEF82A0
S11370A00F2EF2E3DF2EF02DD886BE016F5F7F4FE7
S11370B08F2D0E940F46F5018081898381E28A83A6
S11370C08EE28B83EC82DD828E83EF82E886BE01C2
S11370D06F5F7F4F8F2D0E940F4684E3809FF001E6
S11370E0819FF00D1124ED56F84982E086A3CCC0AF
S11370F084E2829FF001839FF00D1124EC59FC4936
S1137100C080D180F6018081898380E18A8396E002
S11371109B83405C4C8391EF9D8399E99E8394E12A
S11371209F838887BE016F5F7F4F8F2D0E940F461C
S1137130F6018081898381E28A838BE08B838CE0F2
S11371408C838FEF8D838E838F838887BE016F5FDF
S11371507F4F8F2D0E940F4684E3809FF001819F13
S1137160F00D1124ED56F84982E086A38DC084E227
S1137170829FF001839FF00D1124EC59FC49A080FB
S1137180B180F5018081898380E18A838AE08B83E1
S1137190405C4C8381EF8D8380E88E830F2EF0E377
S11371A0EF2EF02DEF820F2EF2E3DF2EF02DD88696
S11371B0BE016F5F7F4F8F2D0E940F46F5018081C6
S11371C0898381E28A838EE28B83EC82DD828E83E3
S11371D0EF82E886BE016F5F7F4F8F2D0E940F46BE
S11371E084E3809FF001819FF00D1124ED56F8494E
S11371F082E086A349C084E2829FF001839FF00D60
S11372001124EC59FC49C080D180F6018081898326
S113721080E18A8387E08B83405C4C8381EF8D839C
S113722081E98E8388E48F830F2EF1E2EF2EF02D17
S1137230E886BE016F5F7F4F8F2D0E940F46F601D7
S113724080818983EA828EE28B8380E38C8381E36D
S11372508D838FEF8E838F838887BE016F5F7F4F0F
S11372608F2D0E940F4684E3809FF001819FF00DD3
S11372701124ED56F84982E086A306C020E040E0E0
S113728062E28F2D0E9498332896CDBFDEBFDF9136
S1137290CF911F910F91FF90EF90DF90CF90BF900F
S11372A0AF900895FF920F931F93CF93DF93CDB7C1
S11372B0DEB72897CDBFDEBF082F10E09CE1909F7A
S11372C0F001919FF00D1124E85BFC49228930E024
S11372D094E3909FD001919FB00D1124AD56B8490D
S11372E054964D915C9155971B96ED91FC911C978A
S11372F0EE0FFF1FEE0FFF1FEE0FFF1FE40FF51F32
S1137300438191819F70923009F085C0413069F1C9
S113731020F0423009F451C078C094E2929FF00109
S1137320939FF00D1124EC59FC490190F081E02D5C
S1137330908199836894FF24F1F8FA8290E59B8305
S11373404C839FEF9D839E839F839887BE016F5FCD
S11373507F4F0E940F4684E3809FF001819FF00DD0
S11373601124ED56F849F6A25BC094E2929FF00115
S1137370939FF00D1124EC59FC490190F081E02D0C
S1137380908199836894FF24F1F8FA8290E59B83B5
S11373904C839FEF9D839E839F839887BE016F5F7D
S11373A07F4F0E940F4684E3809FF001819FF00D80
S11373B01124ED56F849F6A233C094E2929FF001ED
S11373C0939FF00D1124EC59FC490190F081E02DBC
S11373D0908199836894FF24F1F8FA8290E59B8365
S11373E04C839FEF9D839E839F839887BE016F5F2D
S11373F07F4F0E940F4684E3809FF001819FF00D30
S11374001124ED56F849F6A20BC022E140E060E1F8
S11374100E94983305C023E140E060E10E94983364
S11374202896CDBFDEBFDF91CF911F910F91FF90C2
S113743008950F931F93CF93DF93CDB7DEB72897AB
S1137440CDBFDEBF082F10E09CE1909FF001919F1B
S1137450F00D1124E85BFC49428950E094E3909FCD
S1137460D001919FB00D1124AD56B84954962D9179
S11374703C9155971B96ED91FC911C97EE0FFF1FC5
S1137480EE0FFF1FEE0FFF1FE20FF31F9181929586
S11374909F7009F04CC0248130E0322F222795815F
S11374A0292B93819130F9F4233062E03607D9F423
S11374B094E2949FF001959FF00D1124EC59FC493E
S11374C00190F081E02D9081998395E09A8391E772
S11374D09B8391E09C8392E09D8323E02E839F8392
S11374E09FEF98874FC0933009F04CC0233032404F
S11374F009F048C094E2949FF001959FF00D112487
S1137500EC59FC490190F081E02D9081998395E03C
S11375109A8391E79B8323E02C8392E09D832E83BF
S11375209F839FEF988791E090932F662BC02581CE
S113753030E0322F22279681292B9481913011F546
S113754021153F4FF9F421E030E020932D6630936C
S11375502E6694E2949FF001959FF00D1124EC594E
S1137560FC490190F081E02D9081998395E09A8304
S113757091E79B8391E09C839FEF9D831E8222E091
S11375802F839887BE016F5F7F4F0E940F4684E36D
S1137590809FF001819FF00D1124ED56F84982E09F
S11375A086A32896CDBFDEBFDF91CF911F910F91A7
S11375B00895FF920F931F93CF93DF93CDB7DEB758
S11375C02897CDBFDEBF082F10E09CE1909FF0010B
S11375D0919FF00D1124E85BFC49228930E094E38B
S11375E0909FD001919FB00D1124AD56B849549687
S11375F04D915C9155971B96ED91FC911C97EE0F64
S1137600FF1FEE0FFF1FEE0FFF1FE40FF51F938107
S1137610913049F594E2929FF001939FF00D11246B
S1137620EC59FC490190F081E02D90819983689494
S1137630FF24F1F8FA8295EC9B8391E09C839FEF01
S11376409D839E839F839887BE016F5F7F4F0E94B7
S11376500F4684E3809FF001819FF00D1124ED56C5
S1137660F849F6A229C0923039F594E2929FF001CC
S1137670939FF00D1124EC59FC490190F081E02D09
S1137680908199836894FF24F1F8FA8295EC9B83A6
S1137690FC829FEF9D839E839F839887BE016F5FCB
S11376A07F4F0E940F4684E3809FF001819FF00D7D
S11376B01124ED56F849F6A22896CDBFDEBFDF911E
S11376C0CF911F910F91FF9008959F92AF92BF9217
S11376D0CF92DF92EF92FF920F931F93CF93DF939A
S11376E0CDB7DEB72897CDBFDEBFC0902764D0905A
S11376F02864082F10E09CE1909FF001919FF00D09
S11377001124E85BFC49E288F12C94E3909FF0019A
S1137710919FF00D1124ED56F849A489B58903848D
S1137720F485E02DEE0FFF1FEE0FFF1FEE0FFF1F7E
S1137730BF016A0F7B1FFB01918192959F7009F431
S1137740F0C0948042814250B09092679B10D2C0A6
S113775095819601275D3B49F9019083FB01968150
S11377609601265D3B49F901908396012D5F3F4FB9
S1137770FB019781F601E55DFB49908361E070E0D0
S113778090E074C0941788F49F5FFB01EE0FFF1F15
S1137790EE0FFF1FEE0FFF1FEA0FFB1FA280F90180
S11377A0E75DFB49A0822F5F3F4F941788F49F5FEA
S11377B0FB01EE0FFF1FEE0FFF1FEE0FFF1FEA0F7F
S11377C0FB1FA380F901E75DFB49A0822F5F3F4FB8
S11377D0941788F49F5FFB01EE0FFF1FEE0FFF1F4E
S11377E0EE0FFF1FEA0FFB1FA480F901E75DFB49C1
S11377F0A0822F5F3F4F941788F49F5FFB01EE0F29
S1137800FF1FEE0FFF1FEE0FFF1FEA0FFB1FA580E8
S1137810F901E75DFB49A0822F5F3F4F941788F47D
S11378209F5FFB01EE0FFF1FEE0FFF1FEE0FFF1F09
S1137830EA0FFB1FA680F901E75DFB49A0822F5FD9
S11378403F4F941788F49F5FFB01EE0FFF1FEE0F6D
S1137850FF1FEE0FFF1FEA0FFB1FA780F901E75D73
S1137860FB49A0822F5F3F4F6F5F7F4F54E3509FD0
S1137870F001519FF00D1124ED56F8490584F68569
S1137880E02DE617F70708F07DCFB394B092926726
S1137890242F30E0C20ED31EC0922764D0922864F5
S11378A06091256470912664260F371F2093256408
S11378B030932664C114F2E0DF0658F01092276476
S11378C01092286421E030E020932B6630932C66DC
S11378D011C0203D344570F0109227641092286442
S11378E021E030E020932B6630932C6620932966A8
S11378F030932A6694E29E9DF0019F9DF00D112421
S1137900EC59FC490190F081E02D9081998392E03B
S11379109A8396E79B839C829FEF9D839E839F839C
S11379209887BE016F5F7F4F0E940F4684E3809F5C
S1137930F001819FF00D1124ED56F84982E086A3F1
S11379402896CDBFDEBFDF91CF911F910F91FF909D
S1137950EF90DF90CF90BF90AF909F900895EF92FB
S1137960FF920F931F93CF93DF93C82FD0E09CE136
S11379709C9FF0019D9FF00D1124E85BFC49A289B6
S1137980B0E094E29A9FF0019B9FF00D1124EC5912
S1137990FC4900A111A1E2A0F3A090E00FC0292F9F
S11379A030E0F801E20FF31F4081461306C0F701EF
S11379B0E20FF31F91E090830DC09F5F34E23A9F82
S11379C0F0013B9FF00D1124EC59FC49378D9317BE
S11379D030F390E0992309F472C0653809F469C062
S11379E078F4623209F45FC020F4603109F458C0BD
S11379F079C0613309F45AC0663309F45DC072C0BA
S1137A00633B71F028F4603BE1F0623B31F06AC003
S1137A10663BB1F1673B31F165C00E94EA3662C052
S1137A209CE19C9FF0019D9FF00D1124E85BFC49B3
S1137A309081992319F0933009F054C00E94BF3407
S1137A4051C09CE19C9FF0019D9FF00D1124E85BC7
S1137A50FC499081992319F0933009F043C00E94A6
S1137A60A83540C09CE19C9FF0019D9FF00D11241E
S1137A70E85BFC499081911135C00E94213632C0E7
S1137A8096E19C9FF0019D9FF00D1124E953F84964
S1137A9091E0978720E041E066EB0E94983322C092
S1137AA00E9452391FC00E94CF371CC00E94193A4D
S1137AB019C00E94D93A16C00E94653B13C021E147
S1137AC040E00E94983384E38C9FF0018D9FF00D79
S1137AD01124ED56F8491786108A118A85859685F2
S1137AE083879487DF91CF911F910F91FF90EF903F
S1137AF008952CE1829FC0011124FC01E85BFC493C
S1137B008381811113C0603299F481E0860FFA01F8
S1137B10808382E0860F818383E0860F828384E002
S1137B20860F83836B5F648384E5089583E50895FA
S1137B3083E50895CF93DF93282F30E0E901D595AD
S1137B40C795A9015595479555954795F901F5951B
S1137B50E795F595E795F595E795F595E7959C2FC8
S1137B60982749274E2741704295440F440F407C83
S1137B70D901B595A795B595A795B595A7953595CB
S1137B8027953595279535952795359527953595D9
S1137B9027959C2F9A279E279227917090959795C9
S1137BA099279795242F292B613031F4982F907CB5
S1137BB0921304C08F7303C0822B01C08FEFDF9137
S1137BC0CF910895FC014C3341F04D3749F04E3FBD
S1137BD051F04F3B59F050E016C040E050E013C064
S1137BE040E050E010C040E050E00DC040E050E004
S1137BF00AC08191480F511D4F3F510519F010F0F3
S1137C004F5F510961506111F4CF842F809508951D
S1137C10CF92DF92EF92FF921F93CF93DF939B015A
S1137C20220F331FF901E45FF8490190F081E02D40
S1137C30D901A25FB849CD91DC912A89263059F542
S1137C402481211128C0142F6B017C0161E0842F51
S1137C500E949A3D8F87188B8F3FA9F086E0898B0D
S1137C608C85882331F087E08A8B81E08A87898735
S1137C7012C01A86ED85FE85309769F0AE01C70102
S1137C80B601099508C087E0898BED85FE85AE01B4
S1137C90C701B6010995DF91CF911F91FF90EF9035
S1137CA0DF90CF9008950F93CF93DF93EA01402F95
S1137CB0660F771FFB01E45FF8490190F081E02D26
S1137CC0A085B18552855F3F79F0109749F40FC0C4
S1137CD0FD01E90FF11D3081431741F09F5F01C0A1
S1137CE090E09517A8F303C040E001C040E0622F84
S1137CF0CE010E94E23DDF91CF910F9108951F9331
S1137D00CF93DF939B01220F331FF901E25FF84900
S1137D10C081D181F901E65FF8490190F081E02D3D
S1137D202D815C81322F351B313029F42F812413AE
S1137D3004C0A0E003C0A0E001C0A1E02A2F21708C
S1137D40A881B9811C91411721F0313021F440E020
S1137D5003C040E001C041E0342F317011F422230C
S1137D6039F029E0298B2B85211109C0188608C018
S1137D701196A883B9835F5F5C8321E001C020E092
S1137D80222361F12C813D812317A0F48D8190E0A1
S1137D90821B9109019739F40280F381E02DCE0111
S1137DA0079609951BC00280F381E02D8881998193
S1137DB0099514C02BE0298B2AE02A8BED85FE85DA
S1137DC0309711F0AE0109958B85811105C0188695
S1137DD0198A82E08A8B1A860E945826DF91CF91F5
S1137DE01F910895F901660F771FDB01A25FB8495F
S1137DF02D933C93DB01A45FB8494D935C93DB0165
S1137E00A65FB84983EB90E68D939C9382E0828BC6
S1137E1010861186128614861386178A138A148A8A
S1137E20158A168A80E090E00895660F771FFB019B
S1137E30E25FF8490190F081E02D118A82E0828BA3
S1137E40128680E090E00895CF92DF92EF92FF9245
S1137E500F93CF93DF93FB01EE0FFF1FE25FF8490F
S1137E60C081D1812E8130E05C81E52FF0E0319634
S1137E70E217F30750F4EA81FB8140832A813B81B6
S1137E802F5F3F4F2A833B8308C02E8130E0251BA0
S1137E9031092130310509F44F832C8131E0320F4F
S1137EA03C832E8132133DC06B017C018E8190E0B6
S1137EB001974A815B81481B590B4A835B832E815E
S1137EC021500889C701B6010E94533E9F8189133E
S1137ED019C08CE0898B88E08A8BED85FE8530970C
S1137EE021F0AE01C701B60109958C85811119C035
S1137EF01A8619868A898130A1F0C701B6010E94C9
S1137F00153F0FC08AE0898BED85FE85309721F0FF
S1137F10AE01C701B60109951986C701B6010E94D1
S1137F20153FDF91CF910F91FF90EF90DF90CF90AD
S1137F300895660F771FFB01E25FF8490190F08115
S1137F40E02D81E0828B0E940D2C80E090E008956A
S1137F50CF93DF93FB01EE0FFF1FE25FF849C0816F
S1137F60D1810E94153F1886198680E090E0DF9148
S1137F70CF910895660F771FFB01E25FF8490190E6
S1137F80F081E02D85859685458756870895CF92A3
S1137F90DF92EF92FF92CF93DF931F92CDB7DEB7BC
S1137FA06B017C01CB01880F991FFC01E45FF84948
S1137FB020813181FC01E25FF849A081B181FC019B
S1137FC0E65FF849608171814130D9F4F901848117
S1137FD0811157C081E01A968C931A9784E05196C8
S1137FE08C93519786E052968C93DB01ED91FC9132
S1137FF0CE01019609954981C701B6010E94083E48
S113800040C041112AC052968C91873039F018F43F
S11380108430B8F51BC0893069F018C0DB01ED91DC
S1138020FC91CE01019609954981C701B6010E94D0
S1138030243F27C0DB01ED91FC91CE010196099507
S11380404981C701B6010E947F3E1BC0DB01ED914F
S1138050FC91CE010196099514C04F3F91F485E03F
S113806051968C9351971D96ED91FC911E973097E4
S113807021F0AD01C701B6010995C701B6010E94FF
S1138080153F0F90DF91CF91FF90EF90DF90CF904D
S11380900895CF92DF92EF92FF920F931F93CF93A5
S11380A0DF93FB01EE0FFF1FDF01A25FB849CD9103
S11380B0DC91E65FF849C080D180EA893FEF320F56
S11380C0383008F5E13011F13A85311122C0122F10
S11380D07A0108890E94533E8F83E882F98221E065
S11380E0210F2D831C8289E08A8B198A81E08A877B
S11380F08887D6011296ED91FC911397C7010995D3
S113810080E090E008C081E090E005C081E090E06C
S113811002C082E090E0DF91CF911F910F91FF9018
S1138120EF90DF90CF900895660F771FFB01E25F19
S1138130F8490190F081E02D92898FEF820F883009
S1138140A0F49130A9F08285811115C04283538334
S11381502F5F2683148287E0828B118A81E08287D5
S11381608187148680E090E0089581E090E008958E
S113817081E090E0089582E090E00895CF92DF924C
S1138180EF92FF92CF93DF936B017C01FB01EE0F23
S1138190FF1FE25FF849C081D1818A89873051F19C
S11381A0893009F04DC08B899C89AD89BE89892BA2
S11381B08A2B8B2B99F481E08F8B8B85811140C0A6
S11381C0ED85FE85309721F0AE01C701B601099512
S11381D01886C701B6010E94153F32C08B899C895D
S11381E0AD89BE890197A109B1098B8B9C8BAD8B9D
S11381F0BE8B26C08B899C89AD89BE89892B8A2B2D
S11382008B2B99F481E08F8B8C85811119C0ED85BE
S1138210FE85309721F0AE01C701B6010995198694
S1138220C701B6010E94153F0BC08B899C89AD899B
S1138230BE890197A109B1098B8B9C8BAD8BBE8B39
S1138240DF91CF91FF90EF90DF90CF900895660F6C
S1138250771FFB01E25FF8490190F081E02D178A56
S1138260238B348B458B568B0895660F771FFB0148
S1138270E25FF8490190F081E02D86819481891BA9
S1138280DA018C939189911108C0882349F0878978
S1138290811109C082E090E0089580E090E00895A3
S11382A080E090E0089583E090E008954F925F921B
S11382B06F927F928F929F92AF92BF92CF92DF92F2
S11382C0EF92FF920F931F93CF93DF931F92CDB73B
S11382D0DEB7DA011F96CC901F971982FB01EC538D
S11382E0FC49D080ED2CF12C5196EC914E2E512C62
S11382F0BDE04B16510408F082C08A014B015C01B9
S1138300F201E657FB4D0C94035F4C2D60E08D2D7C
S11383100E94EB31F701E295F295F07FFE27E07FB2
S1138320FE27E55EF84926853785F701EE0FFF1F26
S1138330E55DF84980819181820F931F26E12E9D8E
S1138340F0012F9DF00D1124E953F849818B928B94
S113835056C04C2D63E08D2D0E94EB3150C04C2D46
S113836061E08D2D0E94EB314AC04C2D62E08D2DD1
S11383700E94EB3144C04C2D65E08D2D0E94EB3101
S11383803EC04C2D66E08D2D0E94EB3138C04C2D43
S113839064E08D2D0E94EB3132C0F701E295F29535
S11383A0F07FFE27E07FFE27E55EF8498685978506
S11383B026E12E9DF0012F9DF00D1124E953F8497B
S11383C0818B928B1CC081E0F701E65EF8498083C3
S11383D016C0FA018789882391F0AE014F5F5F4F81
S11383E0C501B4010E943541D80116969C9189813A
S11383F0891728F44C2D67E08D2D0E94EB318CE118
S11384008E9DF0018F9DF00D1124E85BFC4984855D
S1138410958526E12E9DF0012F9DF00D1124E95341
S1138420F849838B948B0F90DF91CF911F910F911B
S1138430FF90EF90DF90CF90BF90AF909F908F9080
S11384407F906F905F904F9008950E949A3D089599
S11384503F924F925F926F927F928F929F92AF92D0
S1138460BF92EF92FF920F931F93CF93DF93CDB7F9
S1138470DEB72697CDBFDEBF082F10E09801220F8C
S1138480331FC801880F991F880F991F880F991FE0
S1138490820F931F805F984926E1209FF001219F5E
S11384A0F00D1124E953F84982839383F801EE0F08
S11384B0FF1FEE0FFF1FE054FC4980809180A280D3
S11384C0B3808CE1809FF001819FF00D1124E85B63
S11384D0FC49E488F588F7018581882309F444C0C0
S11384E0F801EE0FFF1FE55DF84984E190E0808319
S11384F09183FF24F39434C08F2D90E09C0121508C
S1138500310929833A830196880F991FDC01AA0F48
S1138510BB1FAA0FBB1FAA0FBB1FA81BB90B20E4CC
S113852032E44FE050E00E94185F20E03FE944E26B
S113853050E00E94E15E2F5F3F4FC801880F991FF2
S1138540880F991F880F991F49815A81480F591F15
S1138550440F551F455E5849FA0120833183F39433
S1138560F8E0FF1548F666C0F701208131814281A9
S11385705381A8EEB3E00E94185F9B01AC0160E850
S113858071E586ED92E00E94E15E2F5F3F4FF801B6
S1138590EE0FFF1FE55DF8492083318333243394C4
S11385A045C0832D90E09C01215031092D833E83E9
S11385B0F70140805180628073800196880F991F73
S11385C0DC01AA0FBB1FAA0FBB1FAA0FBB1FA81B4E
S11385D0B90B20E432E44FE050E00E94185F698355
S11385E07A838B839C83A8EEB3E0A30192010E945B
S11385F0185F9B01AC0169817A818B819C810E9407
S1138600E15E2F5F3F4FC801880F991F880F991FA4
S1138610880F991F4D815E81480F591F440F551FC4
S1138620455E5849FA01208331833394F8E0F31509
S113863008F0B7CFF801E295F295F07FFE27E07FCE
S1138640FE27E55EF8498685978526E1209FD001BF
S1138650219FB00D1124A953B84951968D939C9331
S113866052978CE1809FF001819FF00D1124E85B0B
S1138670FC498485958553968D939C9354978EE1FC
S1138680809F9001819F300D1124235D38494489D6
S11386905589C501B4010E94F23E89839A83892BCE
S11386A051F446E551E4C501B4010E94BA3FF80112
S11386B0E65EF849108281E029813A81232B09F48E
S11386C080E02696CDBFDEBFDF91CF911F910F9141
S11386D0FF90EF90BF90AF909F908F907F906F909E
S11386E05F904F903F900895E82FF0E0EE0FFF1F4A
S11386F0EE0FFF1FE054FC496081718182819381F8
S11387000E94A83F892B11F480E008958FEF08950B
S1138710E82FF0E0EE0FFF1FEE0FFF1FE054FC49BF
S113872060817181828193810E94993F892B11F428
S113873080E008958FEF0895CF92DF92EF92FF9239
S11387400F931F93CF939FEF960F9830B0F5C62FDA
S113875090E026E1289FF001299FF00D1124E953B0
S1138760F84902811381DC01AA0FBB1FAA0FBB1FAA
S1138770A054BC49CD90DD90ED90FC906483E62F2D
S1138780F0E03197880F991F880F991F880F991F60
S1138790E80FF91FEE0FFF1FE55EF84920813181D4
S11387A040E050E0C701B6010E9427412C2FA801E8
S11387B0C701B6010E94494002C081E090E0892BC4
S11387C011F480E001C08FEFCF911F910F91FF90C2
S11387D0EF90DF90CF900895CF92DF92EF92FF92C7
S11387E01F93CF93DF93C82FD0E0FE01EE0FFF1F3E
S11387F0EE0FFF1FE054FC49C080D180E280F3807B
S11388008FEF860F883048F5162FE62FF0E031976A
S1138810CE01880F991F880F991F880F991FE80FA1
S1138820F91FEE0FFF1FE55EF8492081318140E01A
S113883050E0C701B6010E94274186E18C9FF001F8
S11388408D9FF00D1124E953F84942815381212F62
S1138850C701B6010E94944002C081E090E0892BD8
S113886011F480E001C08FEFDF91CF911F91FF9051
S1138870EF90DF90CF9008954F925F926F927F9226
S1138880BF92CF92DF92EF92FF920F931F93CF93F9
S1138890DF93CDB7DEB7A297CDBFDEBF182FE82E8A
S11388A0F12CF701EE0FFF1FEE0FFF1FE054FC4900
S11388B040805180628073808EE18E9DF0018F9D97
S11388C0F00D1124E35DF849DE01119601900D923B
S11388D08A95E1F7C301B2010E94BE4040E065E021
S11388E0812F0E94804C8B89873030F4833008F0CC
S11388F0A6C0823029F0F9C0893009F4CCC0F5C093
S113890086E18E9DF0018F9DF00D1124E953F84905
S1138910838994899C0121503109238B348B892BC1
S1138920E9F44FEF68E0812F0E94EB318CE18E9DDA
S1138930F0018F9DF00D1124E85BFC498485958539
S113894026E12E9DF0012F9DF00D1124E953F849E5
S1138950838B948BC301B2010E94993FF701E65EB9
S1138960F8498081882309F4C0C0F701E65EF8491C
S11389701082C0905C63D0905D63F60120813181E8
S113898042815381A8EEB3E00E94185F9B01AC01C1
S113899060E871E586ED92E00E94E15E2F5F3F4F53
S11389A0F701EE0FFF1FE55DF84920833183BB24F7
S11389B0B39440C08B2D90E08C0101501109F60155
S11389C040805180628073800196880F991FDC017A
S11389D0AA0FBB1FAA0FBB1FAA0FBB1FA81BB90B53
S11389E020E432E44FE050E00E94185F6F8F78A3D8
S11389F089A39AA3A8EEB3E0A30192010E94185F91
S1138A009B01AC016F8D78A189A19AA10E94E15EBE
S1138A102F5F3F4FF701EE0FFF1FEE0FFF1FEE0F0B
S1138A20FF1FE00FF11FEE0FFF1FE55EF8492083E3
S1138A303183B394F8E0FB1508F0BCCF56C086E14F
S1138A408E9DF0018F9DF00D1124E953F849818921
S1138A5092899C0121503109218B328B892B09F099
S1138A6044C0C301B2010E94153FF701E295F2959B
S1138A70F07FFE27E07FFE27E55EF849868597852F
S1138A8026E12E9DF0012F9DF00D1124E953F849A4
S1138A90818B928B2AC086E18E9DF0018F9DF00D13
S1138AA01124E953F849818992899C0121503109A3
S1138AB0218B328B892BC9F4C301B2010E94A83FD8
S1138AC0F701E295F295F07FFE27E07FFE27E55E51
S1138AD0F8498685978526E12E9DF0012F9DF00D9E
S1138AE01124E953F849818B928BA296CDBFDEBF46
S1138AF0DF91CF911F910F91FF90EF90DF90CF9076
S1138B00BF907F906F905F904F900895482F50E0F2
S1138B108CE1849FF001859FF00D1124E85BFC49F2
S1138B20228D338D2730310548F1F90135979F01A6
S1138B30ABEABAEA0E94095F969587959695879560
S1138B409C01220F331F820F931F880F991FE81770
S1138B50F90749F49F010E94095F969587959695B8
S1138B60879501960DC09F01ABEABAEA0E94095F9E
S1138B709695879596958795029602C081E090E038
S1138B802CE1249FD001259FB00D1124A85BBC4982
S1138B9056962D913C91579764E3649FF001659F2D
S1138BA0F00D1124ED56F8492187328758962D91FE
S1138BB03C915997248B358B9A01220F331F220F36
S1138BC0331F420F531F455B584942A353A3878366
S1138BD09087828B938B108211821282138285E09C
S1138BE08483158216821386148615861686178644
S1138BF0108A118A82E0868B818F148E158E168ED0
S1138C0015A214A212A6178E10A211A291E096A387
S1138C1083A717A210A611A615A614A60895282F97
S1138C2030E09CE1929FF001939FF00D1124E85BEA
S1138C30FC499381911128C09CE1929FF001939F7C
S1138C40F00D1124E85BFC49908191111DC09CE159
S1138C50929FF001939FF00D1124E85BFC49E28997
S1138C6094E2E99FF0011124EC59FC49438D548DA1
S1138C7094E3929FF001939FF00D1124ED56F8496F
S1138C8040A351A391E0978F94E3929FA001939FF7
S1138C90500D11244D565849FA0192A59F5F92A791
S1138CA020E00E94CE48089594E3899FA0011124F6
S1138CB04256584921E00E94004C089524E3829FC3
S1138CC0C0011124FC01ED56F8498785089590E010
S1138CD024E3289FF001299FF00D1124ED56F84953
S1138CE0278D223059F524E3289FF001299FF00DA8
S1138CF01124ED56F84920A131A1A901415051098F
S1138D0040A351A3232BD1F426E1289FF001299FEE
S1138D10F00D1124E953F849108A24E3289FF00147
S1138D20299FF00D1124ED56F84923E023A725E0EF
S1138D30268B14A615A6178E21E026A324E3289FCC
S1138D40F001299FF00D1124ED56F849278D2130AB
S1138D5049F524E3289FF001299FF00D1124ED56D5
S1138D60F84920A131A1A9014150510940A351A3BF
S1138D70232BC1F426E1289FF001299FF00D112433
S1138D80E953F849108A24E3289FF001299FF00D44
S1138D901124ED56F84983E083A784E0818F178E70
S1138DA081E086A3089590E06C3361F524E3289F65
S1138DB0F001299FF00D1124ED56F84923E0268B8C
S1138DC012A62CE1289FF001299FF00D1124E85BE5
S1138DD0FC49208121110BC024E3289FF001299F25
S1138DE0F00D1124ED56F84922E0278735C024E31D
S1138DF0289FF001299FF00D1124ED56F84927E032
S1138E0027872AC024E3289FF001299FF00D11240D
S1138E10ED56F84923E0218F2CE1289FF001299F8A
S1138E20F00D1124E85BFC49208121110BC024E3DF
S1138E30289FF001299FF00D1124ED56F84926E0F2
S1138E4024830AC024E3289FF001299FF00D1124F4
S1138E50ED56F84927E0248324E3289FF001299F55
S1138E60F00D1124ED56F84983E083A7178E089579
S1138E7090E024E3289FF001299FF00D1124ED5682
S1138E80F84910A611A625813681232B19F524E370
S1138E90289FF001299FF00D1124ED56F849178EF3
S1138EA022E0218F21E023A72CE1289FF001299FB4
S1138EB0F00D1124E85BFC49238121113EC024E319
S1138EC0289FF001299FF00D1124ED56F84981E007
S1138ED086A308952CE1289FF001299FF00D112409
S1138EE0E85BFC492381211128C02CE1289FF00173
S1138EF0299FF00D1124E85BFC49208121111DC03C
S1138F002CE1289FF001299FF00D1124E85BFC4916
S1138F10E28924E2E29FF0011124EC59FC49238DFB
S1138F20348D44E3489FF001499FF00D1124ED5620
S1138F30F84920A331A381E0878F08950F931F93ED
S1138F40CF93C82F082F10E084E3809FF001819F06
S1138F50F00D1124ED56F849158216821082118203
S1138F601282138285E084838C2F0E945E468130B6
S1138F7011F0833019F584E3809FD001819FB00DF7
S1138F801124AD56B84954968D919C9155971B96D2
S1138F90ED91FC911C97EE0FFF1FEE0FFF1FEE0FDC
S1138FA0FF1FE80FF91F818182958F70813011F4C2
S1138FB0638101C062818C2F0E94AF3CCF911F91CD
S1138FC00F9108959F92AF92BF92CF92DF92EF924A
S1138FD0FF920F931F93CF93DF93CDB7DEB72897FC
S1138FE0CDBFDEBFA82EB12C94E39A9DF0019B9DCA
S1138FF0F00D1124ED56F849E6A4F7A4C0A8D1A8B1
S113900002A913A99785992309F4B9C0982EBE0122
S11390106F5F7F4F8A2D0E9454468CE18A9DF00138
S11390208B9DF00D1124E85BFC498381882319F0A2
S11390308981F60180838A81982F92959F7019F017
S1139040913021F191C08F7090E0F80140815181FD
S1139050808391834817590708F0AC018B81F7018D
S1139060808381E090E00EC0D701A80FB91FFC01F6
S1139070329621E030E02C0F3D1FE20FF31F2081D8
S11390802C9301968417950778F36EC08F7090E047
S1139090982F88272B81820F911DF801C080D180E1
S11390A080839183C816D90608F06C018C81F7017E
S11390B0808381E090E00EC0D701A80FB91FFC01A6
S11390C0339621E030E02C0F3D1FE20FF31F208187
S11390D02C9301968530910578F335E0C31AD108B5
S11390E005E010E01EC0BE016F5F7F4F892D0E9416
S11390F0544622E030E00FC0D701A00FB11FE1E0D9
S1139100F0E0EC0FFD1FE20FF31F90819C930F5FC3
S11391101F4F2F5F3F4F2830310570F386E0C81A88
S1139120D108E7E0CE16D104F0F6C114D104E1F081
S1139130BE016F5F7F4F892D0E94544680E090E00E
S113914010C0D701A00FB11FFC01329621E030E01E
S11391502C0F3D1FE20FF31F20812C930F5F1F4F35
S113916001968C159D0568F384E38A9DF0018B9D1F
S1139170F00D1124ED56F84914A682E0868B28964A
S1139180CDBFDEBFDF91CF911F910F91FF90EF9084
S1139190DF90CF90BF90AF909F900895CF93DF93CF
S11391A0FA01C185D285458156818781908548170A
S11391B0590708F05FC0DB014C914E3771F4A08170
S11391C0B181AA0FBB1FAA0FBB1FAA0FBB1FAC0FF5
S11391D0BD1F3C913E3709F44DC03481353011F048
S11391E0311108C0211103C084E084831EC081E0D2
S11391F084831BC04E3771F421110CC0208131814E
S1139200232B11F480839183808191810197808342
S113921091830BC0228133812F5F3F4F228333839D
S11392208217930711F41282138250E015C08281D1
S11392309381880F991F880F991F880F991F8C0F8E
S11392409D1F252F30E0DB01A20FB31F4C91DC01E1
S1139250A20FB31F4C935F5F583048F3858196810A
S1139260019685839683278130858217930710F0B2
S113927083E08483DF91CF910895FF920F931F932E
S1139280CF93DF93082F10E096E1909FF001919F18
S1139290F00D1124E953F849A281B38111969C91F0
S11392A011979F70973008F050C094E3909FF0019D
S11392B0919FF00D1124ED56F849178E91E093A774
S11392C01386148615861686108A118A17869C9131
S11392D09E3759F494E3909FF001919FF00D11246F
S11392E0ED56F84996E096A30AC094E3909FF001E6
S11392F0919FF00D1124ED56F84995E096A3F82EB0
S113930084E3809FE001819FD00D1124AE01425679
S1139310584921E0BD018F2D0E94CE48CD56D84931
S113932081E08DA38CA38F2D0E949E478CA588235A
S113933019F08F2D0E94E24784E3809FF001819F02
S1139340F00D1124ED56F84915A6DF91CF911F9128
S11393500F91FF9008950F931F93CF93DF93082FDE
S113936010E096E1909FF001919FF00D1124E953D4
S1139370F8490280F381E02DC181CF70D0E0DC2F69
S1139380CC279281C90FD11DC730D10508F4B7C0CD
S11393909CE1909FD001919FB00D1124A85BBC4922
S11393A05A962D913C915B972C173D0708F4A7C062
S11393B0909FD001919FB00D1124A85BBC491396D6
S11393C09C91911139C094E3909FD001919FB00D6D
S11393D01124AD56B84995E096969C939CE1909FD4
S11393E0D001919FB00D1124A85BBC499C919111AF
S11393F023C09CE1909FD001919FB00D1124A85BE4
S1139400BC495296AC9194E2A99FD0011124AC5965
S1139410BC495D962D913C915E9794E3909FD00159
S1139420919FB00D1124AD56B84990962D933C935D
S1139430919792E05F969C9394E3909FA001919FF3
S1139440500D1124DA01AD56B8491B961D921C9299
S11394501C971D961D921C921E9750961D921C924D
S113946051971F961C924256584921E0BF010E9411
S1139470CE4825979E01ABEABAEA0E94095F969509
S11394808795969587959C01220F331F820F931F12
S1139490880F991FC817D90789F49E010E94095F94
S11394A0969587959695879594E3909FF001919F63
S11394B0F00D1124ED56F84984A313C09E01ABEAC4
S11394C0BAEA0E94095F96958795969587958F5F6E
S11394D094E3909FF001919FF00D1124ED56F8490B
S11394E084A384E3809FF001819FF00D1124ED5645
S11394F0F84981E085A313A685A710A611A6DF91DC
S1139500CF911F910F910895EF92FF921F93CF93E4
S1139510DF93182FC82FD0E086E18C9FF0018D9F38
S1139520F00D1124E953F849A281B3818CE18C9F99
S1139530F0018D9FF00D1124E85BFC4980818111BD
S11395401DC08CE18C9FF0018D9FF00D1124E85B10
S1139550FC49E28924E2E29FF0011124EC59FC4920
S1139560858D968D24E32C9FF0012D9FF00D112401
S1139570ED56F84980A391A382E0878F11968C91D0
S113958011978F7094E39C9FF0019D9FF00D11241F
S1139590ED56F84995A189132DC09F5F84E38C9FF4
S11395A0F0018D9FF00D1124ED56F84995A39031EB
S11395B040F08C9FF0018D9FF00D1124ED56F84979
S11395C015A284E38C9FA0018D9F500D1124CA0124
S11395D08D5698497C01FC0184A1815084A3425694
S11395E0584921E0BD01812F0E94CE4885E0F70152
S11395F086A322C084E38C9FF0018D9FF00D11247B
S1139600ED56F84984A5882349F084E38C9FF00142
S11396108D9FF00D1124ED56F84914A684E38C9F18
S1139620F0018D9FF00D1124ED56F84915A686E042
S1139630868B178E81E086A384E38C9FF0018D9F37
S1139640F00D1124ED56F84984A1811117C07F0152
S1139650178E81E083A7812F0E949E47F70184A57E
S1139660882319F0812F0E94E24784E38C9FF00144
S11396708D9FF00D1124ED56F84915A6DF91CF9179
S11396801F91FF90EF900895282F30E09CE1929F66
S1139690F001939FF00D1124E85BFC499381911133
S11396A011C094E3929FF001939FF00D1124ED56A5
S11396B0F84912A695E0948315821682228133819B
S11396C020833183FB01918192959F70913039F011
S11396D018F0923039F008950E943D4908950E948F
S11396E0AB4908950E94844A0895282F30E096E1FA
S11396F0929FF001939FF00D1124E953F849A28140
S1139700B3819CE1929FF001939FF00D1124E85BDB
S1139710FC49438141113DC0929FF001939FF00D9C
S11397201124E85BFC49628970E09C9152E8590F6E
S1139730523028F154E2569FF001579FF00D112446
S1139740EC59FC490190F081E02D5081951729F0E6
S113975012965C911297503BA1F454E2569FF0018B
S1139760579FF00D1124EC59FC495281951759F07B
S113977012969C911297903B41F090E007C090E0C4
S113978005C091E003C090E001C091E0592F5170F1
S113979001C050E011969C91119792959F704111D0
S11397A00EC0511102C0933050F084E3829FF00147
S11397B0839FF00D1124ED56F84912A6089544E351
S11397C0429FF001439FF00D1124ED56F84946A144
S11397D0453011F0423019F44C914E3781F044E396
S11397E0429FF001439FF00D1124ED56F84923A543
S11397F0233011F4923019F0BD010E94444B0895B6
S11398000F931F93CF93DF93EA0149855A858D8186
S11398109E81892BD1F10881198130E013C0832FF7
S113982090E0DB01A80FB91FF801EE0FFF1FEE0F48
S1139830FF1FEE0FFF1FE40FF51FE80FF91F8081D4
S11398408C933F5F383058F38D819E8101978D83CF
S11398509E83892B39F4211103C085E08C8315C0C4
S11398601C8213C0211103C084E08C8302C081E0F8
S11398708C83888199810196888399832F81388587
S11398808217930711F418821982DF91CF911F91E7
S11398900F910895CF93DF93282F30E094E3929FA4
S11398A0A001939F500D11244D56584996E1929F63
S11398B0E001939FD00D1124C953D8496A817B815B
S11398C020E00E94004C88E08C83DF91CF910895C2
S11398D0282F30E094E3929FA001939F500D112410
S11398E04D56584996E1929FF001939FF00D112433
S11398F0E953F8496281738120E00E94004C089585
S11399000F931F93E62F682F70E00E2F10E008309E
S1139910110508F061C0F801E956FB4D0C94035F92
S113992084E3869FF001879FF00D1124ED56F849DA
S11399308689813009F052C084E3869FF001879FB5
S1139940F00D1124ED56F84985A5811149C084E331
S1139950869FF001879FF00D1124ED56F84981E0B0
S113996084A780E042C00E944A4C80E03EC094E359
S1139970969FF001979FF00D1124ED56F84992A59A
S1139980992381F124E3269FF001279FF00D1124F0
S1139990ED56F84923A5233039F124E3269FF0013D
S11399A0279FF00D1124ED56F849915092A70E947B
S11399B0684C80E01AC00E94384780E016C00E94BC
S11399C0754B80E012C0642F0E94D34680E00DC026
S11399D00E94674680E009C080E007C080E005C0BF
S11399E080E003C081E001C081E01F910F910895E0
S11399F0E4E3F4E08081877F80838081887F8460D2
S1139A008083E5E3F4E08081877F80838081887FA1
S1139A1084608083E7E1F4E08081877F80838081B4
S1139A20887F84608083E7E7F4E08081877F808398
S1139A308081887F84608083E4E9F4E08081877F8B
S1139A4080838081887F84608083E2E7F4E0808182
S1139A50877F80838081887F84608083E5E1F4E070
S1139A608081877F80838081887F84608083E4E134
S1139A70F4E08081877F80838081887F8460808315
S1139A80E0E3F4E08081877F80838081887F846045
S1139A908083E1E3F4E08081877F80838081887F15
S1139AA084608083E2E3F4E08081877F8083808127
S1139AB0887F84608083E3E3F4E08081877F808310
S1139AC08081887F84608083E6E1F4E08081877F01
S1139AD080838081887F84608083E0E7F4E08081F4
S1139AE0877F80838081887F84608083E1E7F4E0DE
S1139AF08081877F80838081887F84608083E7E39F
S1139B00F4E08081877F80838081887F8460808384
S1139B10E6E3F4E08081877F80838081887F8460AE
S1139B208083E3E7F4E08081877F80838081887F7E
S1139B3084608083E4E7F4E08081877F8083808190
S1139B40887F84608083E5E7F4E08081877F808379
S1139B508081887F84608083089581E08093536747
S1139B6008958F5F809351670895CF93DF9381E5C4
S1139B7091E60E94A35C8AE598E60E945A5DC0E0E3
S1139B80D0E00BC0BE0181E591E60E94D45DBE0128
S1139B9081E591E60E94F35D2196C431D10590F3ED
S1139BA0C0E0D0E00FC0AE01440F551F440F551F55
S1139BB04C0F5D1F4C5158496C2F83E091E60E9475
S1139BC042512196C431D10570F388EE90E60E948B
S1139BD03055DF91CF9108959091410192FDFCCFD2
S1139BE090E080934A0190934B01089580E20E9493
S1139BF0EC4D0E94F84C0E94B54D08958091546735
S1139C00813051F46DEA7DE481E591E60E94645D62
S1139C10811102C01092546780915367813051F5CD
S1139C20109253670E94215A811113C083E091E678
S1139C300E946151882319F081E00E94B14D88EEA1
S1139C4090E60E947055882339F082E00E94B14D5D
S1139C5003C080E00E94B14DE0910361F091046182
S1139C608081882324F481E080935467089581E0FF
S1139C708093526708958091E3678F5F8093E367D1
S1139C80843148F01092E36781E08093546784E163
S1139C9090E00E9437510895E0910761F0910861C6
S1139CA09C01220F331F820F931F880F991FE80F07
S1139CB0F91F808108952091EC603091ED60FC01E2
S1139CC0EE0FFF1FEE0FFF1FEE0FFF1F8E0F9F1FE4
S1139CD0F901E80FF91F808108952091EC6030911B
S1139CE0ED60FC01EE0FFF1FEE0FFF1FEE0FFF1FD5
S1139CF08E0F9F1FF901E80FF91F85819681089542
S1139D001F920F920FB60F9211242F933F934F93EC
S1139D105F936F937F938F939F93AF93BF93EF93CF
S1139D20FF930E947A5EFF91EF91BF91AF919F9153
S1139D308F917F916F915F914F913F912F910F90F0
S1139D400FBE0F901F9018950F931F93CF93DF931F
S1139D508C01EB0188E090E00E944D5FFC01892BAF
S1139D6099F088E0DF011D928A95E9F70283138355
S1139D70C483D58380915567909156678683978372
S1139D80E0935567F0935667DF91CF911F910F9140
S1139D900895CF93DF93C0915567D091566716C04D
S1139DA0809162679091636728813981AC01421B7D
S1139DB0530B2A813B814217530728F088839983E8
S1139DC0EC81FD8109950E80DF81C02D209741F73C
S1139DD0DF91CF910895E0E0F6E087E0818381E0B0
S1139DE084879FE79583808380E008951F920F9274
S1139DF00FB60F9211242F933F934F935F936F935A
S1139E007F938F939F93AF93BF93EF93FF93E0E080
S1139E10F6E0858581608587E0915767F091586702
S1139E20309709F00995FF91EF91BF91AF919F9100
S1139E308F917F916F915F914F913F912F910F90EF
S1139E400FBE0F901F9018951092890080E008951E
S1139E5044E268ED88E690E00E94525080E0089564
S1139E60789480E00895E0EAF6E01282138281E4B7
S1139E70808380E0089500249695879507949695AD
S1139E8087950794982F802D8093A2069093A3061C
S1139E90089580E008C0E82FF0E0E05FFB4F908178
S1139EA0986090838F5F8830B0F380E008C0E82F1B
S1139EB0F0E0E05DFB4F9081986090838F5F883085
S1139EC0B0F380E008C0E82FF0E0E05BFB4F908146
S1139ED0986090838F5F8830B0F380E008C0E82FEB
S1139EE0F0E0E059FB4F9081986090838F5F883059
S1139EF0B0F380E008C0E82FF0E0E057FB4F90811A
S1139F00986090838F5F8830B0F380E008C0E82FBA
S1139F10F0E0E055FB4F9081986090838F5F88302C
S1139F20B0F380E008C0E82FF0E0E053FB4F9081ED
S1139F30986090838F5F8830B0F3089584B38D7FE9
S1139F4084BBE1EBF4E08081877F808385B38E7FDF
S1139F5085BB84B3816084BB0E949D50089580B307
S1139F608D7F80BBE1E9F4E08081877F808381B3CA
S1139F708E7F81BB80B3816080BB0E949150089525
S1139F80E6E7F4E08081887F846080838081877F36
S1139F9080830E94334F0895E6E9F4E08081887F4E
S1139FA0846080838081877F8083E7E9F4E0808117
S1139FB0887F846080838081877F80830E94EB4ECA
S1139FC0089589B1877F89B988B1886088B9E0EE3E
S1139FD0F5E08681826086830E94665008950E941F
S1139FE0755008950E94835008950E94494F81B18D
S1139FF0816081B980B1816080B981B18B7F81B981
S113A00080B1846080B981B1877F81B980B1886073
S113A01080B989B18F7B89B988B1806488B989B1E5
S113A0208F7789B988B1806888B981B38F7D81BB06
S113A03080B3806280BB0E94284F0E949E4F0E9482
S113A040AF4F0E9464500E94304F0E94C04F0E9444
S113A050CC4F0E94F24F0E94E14F0E9457500E9441
S113A060EF4F0E94C7500E94244F08951F93CF932F
S113A070DF93EC01162F809102108370E1F743E126
S113A0806DE980E090E10E945250DC5E188340E06C
S113A0906DE980E090E10E94525080E0DF91CF9121
S113A0A01F9108951BBEFC0164BF408308958091F5
S113A0B041018111FCCFE0E4F1E081E88083178263
S113A0C082E0828380E0089580E00895E0E0FAE091
S113A0D081E0838380E1818382838FE481A78AE4A2
S113A0E087A389E0808380E00895E0E0FBE08FEBC4
S113A0F09DE58487958712861386118281E0858386
S113A100808380E00895E0E1FBE080EE9EE28487B6
S113A110958712861386118281E08583808380E08F
S113A1200895E0E8F8E088E893E18087918784E87F
S113A130858386EC868380E00895E0E4F8E081E49A
S113A14093E08087918780EC86838CEE92E68093FF
S113A15004699093056980E008959091440895FFFF
S113A160FCCF8093420808950E94AD5080E090E0B7
S113A170089520918008FC01208380E090E00895F8
S113A180FC0180818093820880E090E00895E0EAF9
S113A190F0E085E88083828380E00895CF92DF92A7
S113A1A0FF920F931F93CF93DF93EC01AE81BF8196
S113A1B0EB01CC0FDD1FC60FD71FCA0FDB1FFA80C0
S113A1C0FC0144815581E6E0E69F9001E79F300D54
S113A1D011248A01020F131FF80122813381F9012E
S113A1E021813281F80104811581201B310BE88122
S113A1F02E1B3109EC01EA81FB8100811181FA01F6
S113A20040E050E04017510739F146175707F9F07D
S113A21012968C911297F8121AC080818558823058
S113A220E8F0C480D58082819381EC0189819A8190
S113A230C816D90660F48C199D09CC91D0E0C817D2
S113A240D90728F48C1B9D0B2817390738F04F5F6A
S113A2505F4F13963696D6CF80E001C081E0DF9140
S113A260CF911F910F91FF90DF90CF90089520918F
S113A270596730915A67820F931F8093596790935F
S113A2805A6708950097D9F041155105C1F026E0A9
S113A290629FB0011124DC011496ED91FC91159795
S113A2A0E60FF71F21E0208314968D919C9115975A
S113A2B0FC01E60FF71F4283538380E008958BE08F
S113A2C008952F923F924F925F926F927F928F9256
S113A2D09F92AF92BF92CF92DF92EF92FF920F9331
S113A2E01F93CF93DF93009709F47EC3EC01A12C55
S113A2F0B12C812C912C212CD12C5524539433E056
S113A300C32E45E8642E56E8752E62E0362E78E0BA
S113A310472EEA81FB81808191818816990608F095
S113A320A6C17501EE0CFF1CEC81FD81EE0DFF1D35
S113A330A281B3819C919E7109F050820C811D8190
S113A3400E0D1F1DD8018C91843009F49EC038F481
S113A3508230D1F008F045C0813059F081C1853890
S113A36009F4BFC0863809F4F5C0873009F078C114
S113A37036C1911167C1F80130828C819D81FC0145
S113A380EE0DFF1D41825EC1D80111962C911197EB
S113A390222329F11296ED91FC911397253018F0A0
S113A3A0818192810EC0D80114968D919C9115974C
S113A3B0418152818417950769F04817590730F491
S113A3C0019714968D939C93159704C00196F801F8
S113A3D0848395832150D80111962C9333C1F801BD
S113A3E02DC1D80114962D913C9115971296ED919B
S113A3F0FC911397418152812417350709F430C128
S113A4008E819F8142175307F8F4EA81FB81241B54
S113A410350BDC01AA0DBB1D8C9190E0058002C0B8
S113A420959587950A94E2F799272817390708F430
S113A43017C18481882309F413C187E0F80180835C
S113A440EA81FB8124811AC0FC01EA0DFB1D421B39
S113A450530B808190E04817590708F401C18281A9
S113A460882331F0B401CE010E94CE508111F8C08E
S113A470E4E0D801EC93EA81FB8122818C819D8107
S113A480FC01EE0DFF1D2183DDC0D80114962D9132
S113A4903C9115971296ED91FC91139781819281CD
S113A4A08217930708F4BBC0EE81FF81EA0DFB1D00
S113A4B0821B930B208130E02817390708F0C5C0B0
S113A4C08281882331F0B401CE010E94CE508111E3
S113A4D0C7C0F8018181882309F46AC0815081834F
