:100000000C9495000C94B2000C94B2000C94B200C5
:100010000C94B2000C94B2000C94B2000C94FC004E
:100020000C94B2000C94B2000C94B2000C94B20088
:100030000C94B2000C94B2000C94B2000C94B20078
:100040000C94B2000C94B2000C94B2000C94B20068
:100050000C94B2000C94B2000C94B2000C94B20058
:100060000C94B2000C94B2000C94B2000C94B20048
:100070000C94B2000C94B2000C94B2000C94B20038
:100080000C94B2000C94B2000C94B2000C94B20028
:100090000C94B2000C94B2000C94B2000C94B20018
:1000A0000C94B2000C94B2000C94B2000C94B20008
:1000B0000C94B2000C94B2000C94B2000C94B200F8
:1000C0000C94B2000C94B2000C94B2000C94B200E8
:1000D0000C94B2000C94B2000C94B2000C94B600D4
:1000E0000C94B2000C94B2000C94B2000C94B200C8
:1000F0000C94B2000C94B2000C94B2000C94B200B8
:10010000A010B3109A10B310B31082106D107010BD
:100110007F107C1079107310761024153E1562152F
:10012000A3155E179717E517131511241FBECFEF00
:10013000CDBFDFE7DEBF12E6A0E0B0E6E6EFF2E318
:1001400002C005900D92AE39B107D9F726E6AEE9A7
:10015000B2E601C01D92A232B207E1F70E94260169
:100160000C9479190C9400000C944C181F920F9267
:100170000FB60F9211242F933F934F935F936F937A
:100180007F938F939F93AF93BF93EF93FF93809150
:10019000840883FF0AC04FEF60E070E0CB010E944B
:1001A000BB0D8091840888600DC08091810880FD1E
:1001B0000CC041E060E070E0CB010E94BB0D80917B
:1001C000840880618093840806C040E060E070E0AD
:1001D000CB010E94BB0DFF91EF91BF91AF919F9119
:1001E0008F917F916F915F914F913F912F910F90E0
:1001F0000FBE0F901F9018951F920F920FB60F927F
:1002000011242F933F934F935F936F937F938F931B
:100210009F93AF93BF93EF93FF9381E080930B0A7B
:1002200060E070E0CB010E94BF0FFF91EF91BF91A2
:10023000AF919F918F917F916F915F914F913F917E
:100240002F910F900FBE0F901F901895F89440912A
:100250001001406468ED80E191E00E94F7180E946F
:10026000B40080E090E00E946318853541F440E0DE
:1002700068ED80E191E00E94F7180C9400240E9440
:100280003A180E944A1878940E94AB0280E00E94BB
:10029000AD0280E00E94A11288248A9472E0A72E09
:1002A000B12CC12CE8E4DE2EE12CF12CF3E03F2E42
:1002B000A2E09A2E8091B1649091B2640197A9F462
:1002C00060E074E280E090E00E94871865E572E6E5
:1002D00080E090E00E94841890E08093D365909332
:1002E000D465A092B164B092B2648091AF649091F1
:1002F000B0648130910521F56091056070910660D0
:1003000080910760909108604DEA52E60E94A8181B
:100310008091056090910660A0910760B09108609F
:100320009E5FAF4FBF4F8093056090930660A09390
:100330000760B09308601092AF641092B0642CC054
:10034000029751F5E091AB62F091AC62E355FD4943
:10035000CF018D5A92468115924014F48192F8CFC4
:1003600060910560709106608091076090910860CF
:100370004DEA52E60E94A8181092AF641092B06441
:100380001092AB621092AC62C0920560D09206608F
:10039000E0920760F092086080919F62813009F0DE
:1003A000C3C0C0920560D0920660E0920760F092F0
:1003B0000860CFEFDFEF8091A0629091A162A091E1
:1003C000A262B091A362811502E09007A105B10578
:1003D00008F452C0412C512C32018091056090915B
:1003E0000660A0910760B0910860BC01CD01640D6A
:1003F000751D861D971D0E9484183C2F22278D276E
:10040000E82FF0E0EE0FFF1FE75DFF49C081D181CB
:10041000C227D3272FEF421A520A620A720A4114E6
:1004200032E0530661047104C1F680910560909139
:100430000660A0910760B09108609E5FAF4FBF4F0C
:100440008093056090930660A0930760B093086066
:100450008091A0629091A162A091A262B091A362EA
:100460009250A109B1098093A0629093A162A093D8
:10047000A262B093A3629FCF892B8A2B8B2BC9F1E9
:1004800080E090E0DC012C013D012FEF421A520A7E
:10049000620A720A4091A0625091A1626091A262C8
:1004A0007091A36284179507A607B70710F54091CE
:1004B00005605091066060910760709108608C0142
:1004C0009D01040F151F261F371FC901B8010E9487
:1004D00084183C2F22278D27E82FF0E0EE0FFF1F16
:1004E000E75DFF49C081D181C227D327D301C20173
:1004F000CACFC0920560D0920660E0920760F09289
:1005000008608091D5659091D665C817D90751F4D8
:10051000CD2B41F090929F6265E580E090E00E94D3
:10052000671802C030929F628091AD649091AE6472
:10053000019709F0BFCE65E581E090E00E94671861
:100540001092AD641092AE6441E068ED81E490E0F9
:100550000E94F718AFCE80E0089596E1899FF001E0
:100560001124E45FF949108A0C94C110CF93DF93F2
:100570002CE1829FC0011124FC01E75DFD499481BB
:10058000EF012A96992369F0A881B981A90FB11DBD
:100590008C91861304C085818150890F03C09150CE
:1005A000F1CF8FEFDF91CF9108950F931F93CF93EA
:1005B000DF93162F042FC82FD0E00E94B6028F3F82
:1005C00009F48DC096E19C9FA0019D9F500D1124C0
:1005D000445F5949DA0112962D913C9113979CE1A1
:1005E0009C9FF0019D9FF00D1124E75DFD49A681C0
:1005F000B781BD019AE0899F600D711D1124DB0157
:1006000011969C91DA0114969C93DB0113964D91FF
:100610005C9114976381011151C0611160C0E2893E
:10062000B4E2EB9FF0011124EB5BFD49968560E09D
:1006300070E03C96691798F4A081B181A60FB71FAE
:10064000AC916F5F7F4F1A13F5CF96E19C9FF0013D
:100650009D9FF00D1124E45FF94991E0958BE82FFF
:10066000F0E0EA54FB49808160E096E19C9FD00174
:100670009D9FB00D1124A05FB949C82FD0E08C9187
:10068000681768F5862F90E08901080F191FFE0191
:10069000062E02C0F695E7950A94E2F7E0FF04C043
:1006A000FC01E554FB4905C0840F951FFC01E85D82
:1006B000FF498081F80180836F5FE1CF61110FC036
:1006C000F901421B530B8E2F821B891740F4DA016C
:1006D000AE0FBF1F8191A85DBF498C93F4CFDF910E
:1006E000CF911F910F9108958F929F92AF92BF92D9
:1006F000CF92DF92EF92FF920F931F93CF93DF93EE
:100700001F92CDB7DEB7182FF62E042F32E06317F5
:1007100009F466C1361738F0662371F041E06417BA
:1007200009F4ADC0B4C257E0561708F028C288E0FB
:10073000681709F40EC2ABC2642F0E94B6028F3F45
:1007400009F498C2812E912C9CE1199F90011124EB
:10075000D901A75DBD496D011696AD90BC90179764
:100760007501BAE08B9FE00CF11C112460E0802F32
:100770000E94BF1096E1989DF001999DF00D112403
:10078000E45FF9498187F7018081813071F020F0C1
:10079000813109F447C061C2828181115EC240E0AB
:1007A000602F812F0E94D5025FC2F60183818111E3
:1007B00054C2D7011896ED91FC9119970180F281EE
:1007C000E02D808189838981F501BAE08B9FE00D5E
:1007D000F11D1124858196812981F5013AE0239F3D
:1007E000E00DF11D11242781222309F436C2FC01FA
:1007F000E654FB4980818F3F09F42FC2E981F0E084
:10080000D60115968C9115973196E81BF1091A9629
:100810008D919C911B97E80FF91F6081812F0E9499
:10082000990722C2F6018081823009F423C2D701E0
:1008300012968C9181111DC00C3391F486E1889D34
:10084000F001899DF00D1124E45FF9498089813020
:1008500009F00AC24CE360E0812F0E94FE1404C23A
:10086000402F61E0812F0E94FE14813009F0FCC10D
:1008700001C2402F67E0812F0E94FE14EEC1C82EF6
:10088000D12CB6E18B9FF0011124E45FF949658317
:1008900082858F3F11F08F5F828786E18C9DF0010A
:1008A0008D9DF00D1124E45FF9498285823028F096
:1008B0008385811102C081E0838786E18C9DF001F0
:1008C0008D9DF00D1124E45FF9498589882311F08D
:1008D0001682158A602F812F0E94B602F82E8CE1B5
:1008E0008C9DF0018D9DF00D1124E75DFD49E380A5
:1008F000EE2081F00C3309F0C6C186E18C9DF00139
:100900008D9DF00D1124E45FF9498089813009F053
:10091000BAC103C00D3309F0B1C1402F62E0812F8D
:100920000E94FE14E1E0EF1508F444C08CE18C9DB8
:10093000F0018D9DF00D1124E75DFD490680F781E2
:10094000E02DDF013AE0F39EA00DB11D11248C9142
:1009500081110EC01596ED91FC91169717968C910A
:10096000882311F1E654FB499FEF90838230E0F039
:100970008130D1F418960D90BC91A02D11960D9058
:10098000BC91A02D8C914AE0849FE00DF11D1124B3
:10099000858196812781222339F0FC01E654FB49A9
:1009A0008FEF8083223020F7EF2DF0E0E854FB49F1
:1009B00081E08083E1106BC18CE18C9DF0018D9D05
:1009C000F00D1124E75DFD498081882319F0833003
:1009D00009F05DC16F2D812F0E94CB0661E0AEC092
:1009E000E82EF12C56E1859FF0011124E45FF949CE
:1009F00081E0858382858F3F11F08F5F828786E15A
:100A00008E9DF0018F9DF00D1124E45FF9498285E0
:100A1000823028F08385811102C081E08387602FB6
:100A2000812F0E94B602D82E81E08D1508F42FC1C7
:100A30008CE18E9DF0018F9DF00D1124E75DFD4945
:100A4000A680B780F5019AE0D99EE00DF11D112432
:100A50008081813051F018F0813119F13AC041E0C4
:100A6000602F812F0E94D50234C0602F812F0E94F9
:100A7000360786E18E9DF0018F9DF00D1124E45F15
:100A8000F9490280F381E02D61E080810E94BF106E
:100A9000682F812F0E94B602D82EA1E0A817E8F196
:100AA00018C086E18E9DF0018F9DF00D1124E45F4A
:100AB000F949A281B3818C91811106C081E08783BD
:100AC000812F0E94EA1105C0402F63E0812F0E9410
:100AD000FE14ED2DF0E0E854FB4981E080838CE1C9
:100AE0008E9DF0018F9DF00D1124E75DFD498381FE
:100AF000811113C0F501BAE0DB9EE00DF11D112458
:100B0000858196812781222341F0FC01E654FB492F
:100B10008FEF8083223008F02BCF8CE18E9DF00187
:100B20008F9DF00D1124E75DFD4983818111AFC0D8
:100B30008081882311F0833029F462E0812F0E94A4
:100B40007A06A5C0813009F0A2C0812F0E94550607
:100B50009EC03CE1139FF0011124E75DFD498381B4
:100B6000811109C08081882311F0833021F468E06D
:100B7000812F0E947A06812F0E94EA1188C0C82E18
:100B8000D12C642F0E94B602E82E86E18C9DF001E4
:100B90008D9DF00D1124E45FF94982858F3F11F09E
:100BA0008F5F828786E18C9DF0018D9DF00D112471
:100BB000E45FF9498285823028F08385811102C083
:100BC00081E083878CEF8F0D843030F58CE18C9D34
:100BD000F0018D9DF00D1124E75DFD490680F78140
:100BE000E02D4AE0E49EE00DF11D1124808181306A
:100BF00099F086E18C9DF0018D9DF00D1124E45F4C
:100C0000F94981E0868384EC800F823028F4402FFC
:100C100064E0812F0E94FE148CE18C9DF0018D9D7B
:100C2000F00D1124E75DFD498381811130C0808181
:100C3000882311F0833059F586E18C9DF0018D9D5C
:100C4000F00D1124E45FF9498681813021F46E2D85
:100C5000812F0E94CB066F2D71CFD70111966C9119
:100C6000812F0E94521213C0F7016181812F0E94CF
:100C7000FE110DC0812F0E94D61109C0F1E0FF15B1
:100C800008F49ACE53CE31E03F1508F04FCE0F90C6
:100C9000DF91CF911F910F91FF90EF90DF90CF9058
:100CA000BF90AF909F908F90089526E1829FC001E2
:100CB0001124FC01E45FF9493681168225814385C0
:100CC000DC01A85EB9499C91892F8170832B80FB40
:100CD00090F991FB882780F9822B80FB91F940FBEA
:100CE00092F99C93818585878781882311F098608C
:100CF0009C930895282F30E096E1899FF0011124FC
:100D0000DF01A45FB94916964C91169716961C926E
:100D1000169715968C9115971F965C911F97E85E14
:100D2000F94990811B967C911B9770FB92F9792F62
:100D30007170472B40FB90F991FB442740F9842BBD
:100D400080FB91F9908319968C9119971D968C933D
:100D50001D9717968C91882311F0986090836830C6
:100D600059F086E1829FF001839FF00D1124E85E27
:100D7000F94980818061808386E1829FF001839FB1
:100D8000F00D1124E85EF94980818F7D50FB86F9D2
:100D90008F7780830895CF92DF92FF920F931F93F6
:100DA000CF93DF93623008F059C0282F30E09CE1E8
:100DB000899FF0011124E75DFD49A681B7818AE092
:100DC000689FA00DB11D11248C91813009F446C09B
:100DD00086E1829FD001839FB00D1124A45FB949A1
:100DE00016962C91E28994E2E99FF0011124EB5BC5
:100DF000FD49F68480E090E0EF0160966F0132E1FA
:100E0000C30ED11C01E010E030E08F1538F5AC01C5
:100E1000440F551FA881B981A40FB51F0D90BC9137
:100E2000A02DA85DBF495C91F60160817181680FBA
:100E3000791FFB014081B801042E01C0660F0A949E
:100E4000EAF760956523F90102C0EE0FFF1F4A958E
:100E5000E2F7AF01462B4C930196D7CFDF91CF91AC
:100E60001F910F91FF90DF90CF900895EF92FF9226
:100E70000F931F93CF93DF93C82F0E94B602D82FF2
:100E80008F3F09F44FC00C2F10E086E1C89FF0019E
:100E90001124E45FF9490280F381E02D61E0808153
:100EA0000E94BF109CE1909FF001919FF00D1124D2
:100EB000E75DFD49A681B7819AE0D99FA00DB11DDC
:100EC000112418964D915C911997DA019C9120E0BC
:100ED00030E08F01065F1F4FDF011596291710F5CF
:100EE000FA0161817281FB01E20FF31FE081F0E002
:100EF0006C917F01E61AF108F80160817181F701B8
:100F0000E60FF71F61812F5F3F4F8613E7CF41E068
:100F1000682F8C2FDF91CF911F910F91FF90EF9051
:100F20000C94D502DF91CF911F910F91FF90EF901C
:100F300008950F931F93CF93DF93C82FD62F40E0D0
:100F40000E94D50286E1C89FF0011124E45FF949AF
:100F50000281138160E08D2F0E94BF10F801808311
:100F6000DF91CF911F910F910895EF92FF920F9310
:100F70001F93CF93DF93CDB7DEB72897CDBFDEBFEA
:100F8000082F10E094E3899FD0011124A852BA4998
:100F90001B96ED91FC911C9793E0EE0FFF1F9A9525
:100FA000E1F754962D913C9155977F01E20EF31E87
:100FB000F70190819E3709F455C09CE1909FD001C4
:100FC000919FB00D1124A75DBD495296AC91F4E2FA
:100FD000AF9FD0011124AB5BBD492D913C9111977E
:100FE000F9019081998393E09A839FE79B836C83B7
:100FF0004D839FEF9E839F839887613BB1F068F498
:10100000603B01F512964C914983F7014781F90144
:10101000408321E02A8320EF12C0633B69F0663BE6
:1010200089F421E02A8326EF0AC0F901208129836F
:1010300021E02A8321EF03C021E02A8323EF2B83C1
:101040009C839D83BE016F5F7F4F0E940A1384E3E0
:10105000809FF001819FF00D1124E852FA4982E04F
:1010600086A303C081E096968C932896CDBFDEBF01
:10107000DF91CF911F910F91FF90EF900895EF9224
:10108000FF921F93CF93DF93CDB7DEB72897CDBFE5
:10109000DEBF282F30E064E3869FA0011124DA012F
:1010A000A852BA497D011B96ED91FC911C9793E0E3
:1010B000EE0FFF1F9A95E1F754964D915C9155976D
:1010C000E40FF51F91819F70923061F5138112300A
:1010D00039F59CE1929FF001939FF00D1124E75D9B
:1010E000FD49E289B4E2EB9FF0011124EB5BFD497D
:1010F0000190F081E02D908199831A8390E59B8384
:101100001C839FEF9D839E839F839887BE016F5FA3
:101110007F4F0E940A13F70116A31093046006C0C4
:1011200042E101C043E160E10E94B5072896CDBFCE
:10113000DEBFDF91CF911F91FF90EF900895AF92A6
:10114000BF92DF92EF92FF920F931F93CF93DF93A3
:10115000CDB7DEB72897CDBFDEBF4CE1849FF0014D
:101160001124E75DFD49228930E0082F10E054E3A7
:10117000859FF0011124AF0148525A495A01FA01E2
:10118000A489B589E384F48493E0EE0CFF1C9A955E
:10119000E1F7BD016E0D7F1DFB01918192959F705E
:1011A00009F04FC044815581542745275427938126
:1011B0009230E9F441305F4F09F0F2C010929F6223
:1011C00044E2429FF001439FF00D1124EB5BFD4987
:1011D0000190F081E02D2081298325E02A8321E7F9
:1011E0002B839C839FEF9D8321E02E837BC09330D4
:1011F00009F0D6C041305F4F09F0D2C044E2429FAF
:10120000F001439FF00D1124EB5BFD490190F0814B
:10121000E02D2081298335E03A8321E72B839C83CD
:101220002FEF2D8341E04E83288720919F6221304C
:1012300011F49F83B5C0223011F42F83B1C03F83D6
:10124000AFC0FB014581568154274527542794811F
:10125000913039F54115FFEF5F0709F047C0409124
:10126000A862442309F49CC041E050E04093B1647B
:101270005093B26444E2429FF001439FF00D112469
:10128000EB5BFD490190F081E02D2081298325E071
:101290002A8321E72B839C839FEF9D831E8222E07C
:1012A00022C0933009F07CC041155F4F09F078C02F
:1012B0001092B1641092B26494E2929FF001939FF5
:1012C000F00D1124EB5BFD490190F081E02D908140
:1012D000998395E09A8391E79B8392E09C839FEFAB
:1012E0009D831E8224E02F8398875AC041305F4F30
:1012F00009F056C0F8E0EF0EF11CEA0EFB1EF701F4
:10130000D580468150E060E070E0BA01552744275F
:101310007D29F7805F294093A0625093A16260937A
:10132000A2627093A362F501E584F684F701EE0FE3
:10133000FF1FEE0FFF1FEE0FFF1FAE0FBF1F129616
:10134000EC9112974E2B4093A0625093A162609350
:10135000A2627093A36213964D915C9114975427E7
:10136000452754274093D5655093D66590939F6247
:1013700044E2429FF001439FF00D1124EB5BFD49D5
:101380000190F081E02D2081298325E02A8321E747
:101390002B839C832FEF2D839E8392E09F8328874E
:1013A000BE016F5F7F4F0E940A1384E3809FF001AC
:1013B000819FF00D1124E852FA4982E086A3289615
:1013C000CDBFDEBFDF91CF911F910F91FF90EF90C6
:1013D000DF90BF90AF9008954F925F926F927F928F
:1013E0008F929F92AF92BF92CF92DF92EF92FF9235
:1013F0000F931F93CF93DF93CDB7DEB72897CDBF61
:10140000DEBF082F10E024E3829FF0011124DF01EA
:10141000A852BA495D015496ED90FC9055971B96E1
:101420000D90BC91A02D23E0AA0FBB1F2A95E1F7D8
:10143000AE0DBF1D11969C91119792959F7009F466
:10144000FDC09091A862913009F0F8C090919E6221
:10145000913009F0F3C09CE1909F9001919F300D75
:101460001124275D3D49F901928814965C911497E7
:101470009091D7655913BEC06091AB627091AC6218
:1014800012964C911297425015969C9115979B017C
:1014900023553D49F901908316969C9116979183A7
:1014A0009B012D5F3F4F17969C919283D5011D960E
:1014B000AD90BC901E97F701CC24C394D12C90E042
:1014C000AC14BD0408F455C0941790F58824839497
:1014D000890E2901BFEF4B1A5B0A7284D901A3550B
:1014E000BD497C92841678F5B2E08B2E890E790185
:1014F000B2E0EB0EF11C7384D201A355BD497C927E
:10150000841670F5A3E08A2E890E2901A3E04A0E05
:10151000511C7484D701A355BD497C92841610F5E3
:101520009C5F2C5F3F4FF584D201A355BD49FC92CF
:101530009417D0F49F5FF684D901A355BD49FC925E
:101540002F5F3F4F02C09201982D941768F49F5F60
:10155000F784D901A355BD49FC922F5F3F4F04C0CA
:10156000970101C09201982DBFEFCB1ADB0A389684
:10157000A7CF91E0950F9093D765242F30E0620FAD
:10158000731F6093AB627093AC62C090A962D090FD
:10159000AA62C20ED31EC092A962D092AA6261153D
:1015A000724058F01092AB621092AC6221E030E0D1
:1015B0002093AF643093B0641DC00D2C000CEE0876
:1015C000FF084090A4625090A5626090A66270905F
:1015D000A762C414D504E604F70460F022E030E00A
:1015E0002093AF643093B0641092A9621092AA6203
:1015F0001092D76524E2929EF0011124EB5BFD4925
:101600000190F081E02D9081998392E0F92EFA8289
:1016100096E79B835C839FEF9D839E839F83988740
:10162000BE016F5F7F4F0E940A1384E3809FF00129
:10163000819FF00D1124E852FA49F6A22896CDBFF9
:10164000DEBFDF91CF911F910F91FF90EF90DF9060
:10165000CF90BF90AF909F908F907F906F905F9052
:101660004F900895FF920F931F93CF93DF93CDB7C1
:10167000DEB72897CDBFDEBF282F30E094E3899FE7
:101680008001112408521A49D8011B96ED91FC9152
:101690001C9743E0EE0FFF1F4A95E1F754964D91DA
:1016A0005C915597E40FF51F918192959F7009F019
:1016B00051C09381913171F54CE1429FF001439FFC
:1016C000F00D1124E75DFD49E289B4E2EB9FF001E2
:1016D0001124EB5BFD490190F081E02D20812983ED
:1016E00026E02A8327E62B839C83909100609D83CC
:1016F000909101609E83909102609F83909103601E
:101700009887BE016F5F7F4F0E940A1382E0F80145
:1017100086A320C09231F1F44481278130E0240F68
:10172000311D25303105B1F421E02093A86222E07B
:10173000F22EFA8227E62B839C839FEF9D839E8364
:101740009F839887BE016F5F7F4F0E940A13D80165
:101750009696FC922896CDBFDEBFDF91CF911F9168
:101760000F91FF9008950F931F93CF93DF93CDB701
:10177000DEB72897CDBFDEBF682F70E094E3899F66
:101780008001112408521A49D80154962D913C9198
:1017900055971B96ED91FC911C9793E0EE0FFF1F60
:1017A0009A95E1F7E20FF31F918192959F7009F4EA
:1017B00048C0482F8CE1869FF001879FF00D1124CF
:1017C000E75DFD4952891D960D90BC91A02D83E0E7
:1017D000AA0FBB1F8A95E1F7A20FB31F14966D9154
:1017E0007D918D919C9117970E9458196093A462E6
:1017F0007093A5628093A6629093A76281E0809324
:101800009E62B4E25B9FF0011124EB5BFD49019005
:10181000F081E02D8081898384E08A8384E78B8353
:1018200080E28C831D8280E48E838FEF8F83888794
:10183000BE016F5F7F4F842F0E940A1382E0F80180
:1018400086A32896CDBFDEBFDF91CF911F910F9168
:101850000895FF920F931F93CF93DF93CDB7DEB719
:101860002897CDBFDEBF082F10E09CE1899FF001D3
:101870001124E75DFD49E28994E2E99FF00111241A
:10188000EB5BFD490190F081E02D9081998392E01E
:10189000F92EFA8297E79B831C829FEF9D839E839C
:1018A0009F83988710929E62BE016F5F7F4F0E9458
:1018B0000A1384E3809FF001819FF00D1124E85208
:1018C000FA49F6A22896CDBFDEBFDF91CF911F91D6
:1018D0000F91FF900895CF93DF93C82FD0E09CE144
:1018E000899FF0011124E75DFD49E289AE2FB0E048
:1018F00094E2E99FF0011124EB5BFD49978D00A074
:10190000F1A1E02D20E030E0291708F043C0A90143
:1019100071912F5F3F4F7613F7CF94E29A9FF001BA
:101920009B9FF00D1124EB5BFD4902A0F3A1E02D7C
:10193000E40FF51F91E09083613301F150F46131C0
:1019400091F06732B9F06031B9F5DF91CF910C9425
:101950003F086633B9F06733C9F0643369F5DF9146
:10196000CF910C94B30B81E090E08093AD649093A1
:10197000AE6422C0DF91CF910C94320BDF91CF91F6
:101980000C949F08DF91CF910C94EC09DF91CF91DB
:101990000C94290C41E10E94B50784E38C9FF0016F
:1019A0008D9FF00D1124E852FA491786108A118A8A
:1019B0008585968583879487DF91CF910895482FF9
:1019C00050E0DA01B595A7959A0174E03595279511
:1019D0007A95E1F7FA01B3E0F595E795BA95E1F765
:1019E0003A2F32273E27FA0195E0F595E7959A952B
:1019F000E1F7E327E170E095E795EE27E795559548
:101A00004795559547959A2F942798279227917037
:101A10009295990F990F907C2E2F292B613031F4DC
:101A2000982F907C921304C08F730895822B089591
:101A30008FEF08954C3341F04D3731F04E3F21F098
:101A40004F3B11F050E00FC040E050E00CC0FC01F3
:101A50002191CF01420F511D4F3F510519F010F058
:101A60004F5F510961506111F2CF842F8095089525
:101A70000F93CF93DF93EA01402F660F771FFB018F
:101A8000E157FA490190F081E02D92859F3F69F07E
:101A9000A085B185109751F03A2FFD018E2F831B41
:101AA000891720F481914813F9CF40E0622FCE01CD
:101AB000DF91CF910F910C941A0DF901660F771FEA
:101AC000DB01AF56BA492D933C93DB01A157BA49CC
:101AD0004D935C93DB01A357BA4989E090E68D935F
:101AE0009C9382E0828B1086118612861486138660
:101AF000178A138A148A158A168A80E090E008955E
:101B0000660F771FFB01EF56FA490190F081E02D37
:101B1000118A82E0828B128680E090E00895660F41
:101B2000771FFB01EF56FA490190F081E02D81E02B
:101B3000828B80E090E00895CF93DF93FB01EE0F5E
:101B4000FF1FEF56FA49C081D1810E94800D18868F
:101B5000198680E090E0DF91CF910895660F771F9E
:101B6000FB01EF56FA490190F081E02D85859685BD
:101B70004587568708958F929F92AF92BF92CF92DA
:101B8000DF92EF92FF920F931F93CF93DF931F92F9
:101B9000CDB7DEB74B015C01D42E8B01000F111FB6
:101BA000C8018F569A497C01FC01A081B181F801DE
:101BB000E357FA4920813181F1E04F134DC00157BD
:101BC0001A49F80180819181FC01848181115BC1F6
:101BD0001A964C931A9784E051968C93519786E00D
:101BE00052968C93D901ED91FC91CE010196099505
:101BF000F701E080F180D7015296CC90B6E0CB128D
:101C000042C1D801ED91FC91848181113CC11981BF
:101C100061E0812F0E94DF0CF7018787108B8F3FD7
:101C200081F0C18A8485882329F087E0828BD2865F
:101C3000D18629C112860584F685E02D309739F4C6
:101C400022C187E0F701818B0584F685E02DA7018D
:101C5000C501B401099517C1411102C152968C9179
:101C6000873049F020F4843008F00DC1F2C089308B
:101C700009F487C0EEC0D901ED91FC91CE01019627
:101C800009954981F701E080F180D70116968C9182
:101C9000169714962C91149790E030E0B9016F5F7D
:101CA0007F4F6817790778F41296ED91FC9113979E
:101CB000408312968D919C911397019612968D9365
:101CC0009C93139708C0F701868190E0821B930BC9
:101CD000019709F44783D70114968C9114978F5F6D
:101CE00014968C93149716969C9116978913CBC0D3
:101CF00016968C91169790E0019712964D915C91F3
:101D00001397481B590B12964D935C931397169695
:101D10002C911697215050960C91C501B4010E9448
:101D2000380DF70197810584F685E02D891318C0D9
:101D30008CE0D70151968C93519788E052968C9302
:101D4000309721F0A701C501B4010995F7018485F9
:101D5000811199C0128611868289813069F493C0FD
:101D60008AE0D70151968C93309721F0A701C501E5
:101D7000B4010995F7011186C501B4010E94800DD7
:101D800082C0D901ED91FC91CE010196099529817E
:101D9000F701E080F180D70115963C9115971496D4
:101DA0009C911497391B313029F481E017964C919E
:101DB000421301C080E0D701ED91FC9140812417CE
:101DC00019F021E0313009F420E020FD02C080FF4D
:101DD00008C089E0F701818B8385811154C010868A
:101DE00052C0D801A357BA490D90BC91A02DAF01A4
:101DF0004F5F5F4FF701408351839F5F94838581DD
:101E0000981780F4258130E0291B31091296ED9155
:101E1000FC9113972130310519F4C70107961EC0B4
:101E2000CA011CC08BE0818B8AE0828B0584F68519
:101E3000E02D309721F0A701C501B4010995F70104
:101E40008385811120C01086118A82E0828B1286E0
:101E50001AC0D901ED91FC91CE010196099513C0EC
:101E6000EFEF4E1310C085E051968C9351971D965D
:101E7000ED91FC911E97309709F47ECFAD01C5011D
:101E8000B401099579CF0F90DF91CF911F910F91F8
:101E9000FF90EF90DF90CF90BF90AF909F908F908A
:101EA0000895CF92DF92EF92FF920F931F93CF93FB
:101EB000DF93FB01EE0FFF1FDF01AF56BA49CD9153
:101EC000DC913A89AFEFA20FA83020F5313011F143
:101ED0003A85311122C0122F7A01E357FA49C080A6
:101EE000D18008890E94380D8F83E882F9821F5FB4
:101EF0001D831C8289E08A8B198A81E08A87888702
:101F0000D6011296ED91FC911397C701099580E0D7
:101F100090E005C081E090E002C082E090E0DF91B7
:101F2000CF911F910F91FF90EF90DF90CF90089588
:101F3000660F771FFB01EF56FA490190F081E02D03
:101F400082899FEF920F9830A0F4813091F08285C2
:101F5000811112C0428353832F5F2683148287E04E
:101F6000828B118A81E082878187148680E090E0ED
:101F7000089581E090E0089582E090E00895CF9286
:101F8000DF92EF92FF92CF93DF936B017C01FB0115
:101F9000EE0FFF1FEF56FA49C081D1818A89873041
:101FA000D1F0893009F042C08B899C89AD89BE8906
:101FB000892B8A2B8B2B79F581E08F8B8B85811177
:101FC00035C0ED85FE85309721F0AE01C701B60121
:101FD0000995188616C08B899C89AD89BE89892B85
:101FE0008A2B8B2BC1F481E08F8B8C8581111EC0D5
:101FF000ED85FE85309721F0AE01C701B601099548
:102000001986C701B601DF91CF91FF90EF90DF9065
:10201000CF900C94800D8B899C89AD89BE890197E6
:10202000A109B1098B8B9C8BAD8BBE8BDF91CF91BE
:10203000FF90EF90DF90CF900895660F771FFB0120
:10204000EF56FA490190F081E02D178A238B348BEB
:10205000458B568B0895660F771FFB01EF56FA49A3
:102060000190F081E02D86819481891BDA018C93A7
:102070009189911108C0882331F08789882331F034
:1020800083E090E0089580E090E0089582E090E0A1
:1020900008958F929F92AF92BF92EF92FF920F930B
:1020A0001F93CF93DF931F92CDB7DEB7FA01078559
:1020B0001982FB01EF56FD491081A12FB0E0FA0112
:1020C0008188912CFDE08F16910408F04CC07A01B4
:1020D000F401E058FF4F0C945219402F60E040C0CB
:1020E000402F63E03DC0402F61E03AC0402F62E0E6
:1020F00037C0402F65E034C0402F66E031C0402F2C
:1021000064E02EC026E12A9FF0012B9FF00D1124E0
:10211000E45FF949CD0124E0880F991F2A95E1F782
:10212000DC01A256BA491E968D919C911F97818B16
:10213000928B19C0FD01E356FA4921E0208313C0B8
:10214000FA012789222379F0AE014F5F5F4F0E9489
:102150002B10F70196818981891728F4402F67E0B9
:10216000812F0E9474030F90DF91CF911F910F91E7
:10217000FF90EF90BF90AF909F908F9008950C9438
:10218000DF0C2F923F924F925F926F927F928F92CD
:102190009F92AF92BF92CF92DF92EF92FF920F93F6
:1021A0001F93CF93DF9300D000D0CDB7DEB726E1E9
:1021B000829FF0011124E45FF949482F50E04B83DE
:1021C0005C835AE0859FC00111248D569A49828311
:1021D0009383EB81FC81EE0FFF1FEE0FFF1FE35790
:1021E000FD4980809180A280B3808CE12B813C816D
:1021F000829FF001839FF00D1124E75DFD49248843
:102200003588F10185818901000F111F54E0220FEB
:10221000331F5A95E1F729833A83882309F46BC069
:10222000F801E255FA4988E290E08083918388E1E1
:1022300090E0F901E256FA498083918384E290E0CC
:10224000828393838FE290E0848395838BE390E095
:102250008683978387E490E08087918782E590E08A
:10226000828793878EE590E0848795878AE690E061
:102270008687978786E12B813C81829FF001839F2F
:10228000F00D1124E45FF949A981BA81A256BA4937
:102290001E968D919C911F97818B928B8CE1829FD2
:1022A000D001839FB00D1124A75DBD491C968D916F
:1022B0009C911D97838B948B8EE1A901849F900143
:1022C000859F300D112420553A49A101C501B40163
:1022D0000E945D0D8C01892B09F04EC049E450E14C
:1022E000C501B4010E94AE0D4B815C8143565A4931
:1022F000FA01108241C0F101208131814281538174
:10230000A4EFB1E00E945F192B013C0160E871E588
:1023100086ED92E0A30192010E9430192F5F3F4F9A
:10232000F801E255FA492083318309811A81025666
:102330001A49C12C8FE3D82E8BEAE82EFF24F394A0
:10234000C701B601A30192010E9430192F5F3F4FD0
:10235000F801219331938F01F0E8CF0EFFE9DF1EE2
:10236000F5EDEF1EF11CC1142BE3D20628E5E206C1
:1023700028E0F20629F77ECF81E0012B09F480E006
:102380002496CDBFDEBFDF91CF911F910F91FF90BB
:10239000EF90DF90CF90BF90AF909F908F907F9005
:1023A0006F905F904F903F902F90089524E0829F10
:1023B000C0011124FC01E357FD49608171818281D4
:1023C00093810E949C0D21E0892B09F420E0822F4B
:1023D0008195089524E0829FC0011124FC01E357F8
:1023E000FD4960817181828193810E948F0D21E07E
:1023F000892B09F420E0822F81950895CF92DF92F6
:10240000EF92FF921F93CF93DF939FEF960F983039
:1024100008F03FC0162F282F30E096E1899FD001A9
:102420001124A45FB9491296CD91DC911397C9018B
:10243000880F991F880F991F83579D49FC01C08001
:10244000D180E280F38014966C93862F90E053E065
:10245000220F331F5A95E1F7FC013197E20FF31F6A
:10246000EE0FFF1FE256FA492081318140E050E033
:10247000C701B6010E941D10212FAE01C701B60190
:102480000E94510F21E0892B09F420E0822F8195D1
:1024900001C08FEFDF91CF911F91FF90EF90DF9000
:1024A000CF900895CF92DF92EF92FF921F93CF9338
:1024B000DF939FEF960F9830D8F5162FC82FD0E0F6
:1024C000FE01EE0FFF1FEE0FFF1FE357FD49C08017
:1024D000D180E280F380E62FF0E0CE0123E0880F88
:1024E000991F2A95E1F73197E80FF91FEE0FFF1FAB
:1024F000E256FA492081318140E050E0C701B6013F
:102500000E941D1086E18C9FF0018D9FF00D11241B
:10251000E45FF94942815381212FC701B6010E942E
:10252000980F21E0892B09F420E0822F819501C0CA
:102530008FEFDF91CF911F91FF90EF90DF90CF90C1
:102540000895282F30E09CE1899FF0011124E75D78
:10255000FD49828D938D8730910568F0059766E07F
:1025600070E00E941C19892B19F46F5F7F4F05C022
:102570006E5F7F4F02C061E070E084E3829FF001F4
:10258000839FF00D1124E852FA498CE1829FD0011B
:10259000839FB00D1124A75DBD4956968D919C91E6
:1025A00057978187928758968D919C915997848BE4
:1025B000958B45E0429FC001439F900D11248253AB
:1025C0009A4982A393A367837087628B738B10826F
:1025D0001182128213824483158216821386148616
:1025E000158616861786108A118A82E0868B818F5F
:1025F000148E158E168E15A214A212A6178E10A276
:1026000011A291E096A383A717A210A611A615A662
:1026100014A60895282F30E09CE1899FF001112431
:10262000E75DFD49938191111BC09081911118C004
:1026300094E3929FD001939FB00D1124A852BA4900
:10264000E28994E2E99FF0011124EB5BFD49438D9F
:10265000548D90964D935C93919791E05F969C93E7
:1026600094E3929FA001939F500D112448525A4920
:10267000FA0192A59F5F92A720E00C94551494E371
:10268000899FA00111244D515A4921E00C94C11495
:1026900024E3829FC0011124FC01E852FA49878596
:1026A00008951F93CF93DF93182F84E3189FE001C1
:1026B0001124C852DA491D821E82188219821A8298
:1026C0001B8285E08C83812F0E9448138D7F81308F
:1026D000C9F4EB85FC8583E0EE0FFF1F8A95E1F7D7
:1026E0008C899D89E80FF91F818182958F708130D7
:1026F00011F4638101C06281812FDF91CF911F911D
:102700000C946B0CDF91CF911F9108955F926F92A3
:102710007F928F929F92AF92BF92CF92DF92EF9271
:10272000FF920F931F93CF93DF93CDB7DEB7289718
:10273000CDBFDEBF682E712C94E3899FF001112478
:10274000E852FA499785992309F49CC0582EA6A40B
:10275000B7A400A911A9E2A8F3A8BE016F5F7F4F3B
:10276000862D0E943F138CE1869DF001879DF00D20
:102770001124E75DFD498381882319F08981F801DF
:1027800080830A81802F82958F7019F08130D9F073
:102790006EC0802F90E0F70120813181808391838A
:1027A0002817390708F4C9012B81F5012193DE01AF
:1027B00014969F012A193B092817390708F057C0BA
:1027C0002D912193F6CF802F8F70082F10E0102FBE
:1027D00000278B81080F111DF701808191810083F3
:1027E00011838017910708F48C018C81F501819386
:1027F000DE0115964E0189E0880E911C8D91819322
:10280000A815B905D9F785E0E82EF12C6801CE1896
:10281000DF08E7E0CE16D104A0F0BE016F5F7F4F66
:10282000852D0E943F13FE013396D501AE0DBF1DCD
:1028300081918D93E815F905D9F796E0E90EF11C21
:10284000E5CFC114D10499F0BE016F5F7F4F852D94
:102850000E943F13FE013196D501AE0DBF1DCE0E75
:10286000DF1E82818D933196EC15FD05D1F784E34F
:10287000869DF001879DF00D1124E852FA4914A6B7
:1028800082E0868B2896CDBFDEBFDF91CF911F916E
:102890000F91FF90EF90DF90CF90BF90AF909F90FF
:1028A0008F907F906F905F900895CF93DF93FA01A0
:1028B00047815085858196818417950708F05EC011
:1028C00081859285DB013C913E3769F4A081B1811D
:1028D000C3E0AA0FBB1FCA95E1F7A80FB91FAC91BF
:1028E000AE3709F44BC0A481A53011F0A1110AC084
:1028F000211102C024E001C021E02483EB0120E08B
:1029000030E01EC03E3779F421110DC020813181A5
:10291000232B11F4408351832081318121503109CF
:1029200020833183EBCF228133812F5F3F4F4217CA
:10293000530719F022833383E1CF12821382DECF53
:102940004991A281B38153E0AA0FBB1F5A95E1F7C9
:10295000A80FB91FA20FB31F4C932F5F3F4F283012
:10296000310571F78581968101968583968327814C
:1029700030858217930710F083E08483DF91CF9135
:102980000895CF93DF93FA0185819681892B99F180
:10299000A081B18183E0AA0FBB1F8A95E1F78185F1
:1029A0009285A80FB91FEB01CD0108963D9139938F
:1029B000A817B907D9F785819681019785839683F2
:1029C000892B39F4211103C085E0848314C014825B
:1029D00012C0211102C084E001C081E084838081A3
:1029E0009181019680839183278130858217930797
:1029F00011F410821182DF91CF910895CF92DF926E
:102A0000FF920F931F93CF93DF93C82FD0E0062F31
:102A100010E00830110508F0D8C2F82EF801E3578D
:102A2000FF4F0C94521984E38C9FF0018D9FF00DA1
:102A30001124E852FA498689813009F0C6C295A569
:102A40009111C3C284A7C1C284E38C9FA0018D9F52
:102A5000500D112448525A4926E12C9FC0012D9F48
:102A6000900D1124EC01C45FD9496A817B8120E07B
:102A70008F2D0E94C11488E08C83A7C284E38C9FB1
:102A8000F0018D9FF00D1124E852FA4982A58823A8
:102A900009F499C293A5933009F495C2815082A795
:102AA00086E18C9FD0018D9FB00D1124A45FB949A0
:102AB00012966D917C91139720E0AF018C2F0E94AC
:102AC000C11483C284E38C9FF0018D9FF00D11240B
:102AD000E852FA4910A611A685819681892B91F4B6
:102AE000178E82E0818F81E083A79CE19C9FD001BB
:102AF0009D9FB00D1124A75DBD4913969C91911126
:102B000064C25FC28CE18C9FD0018D9FB00D1124F7
:102B1000A75DBD4913968C911397811156C28C9174
:102B2000811153C25296AC9124E2A29FD00111248C
:102B3000AB5BBD495B968D919C915C9780A391A303
:102B400081E0878F42C286E18C9FF0018D9FF00D5E
:102B50001124E45FF949A281B3818CE18C9FF001DB
:102B60008D9FF00D1124E75DFD492381211130C0B7
:102B70008C9192E8980F923040F1E2894E2F50E00C
:102B800094E2E99FF0011124EB5BFD490190F08193
:102B9000E02D9081891729F012969C911297903B15
:102BA00091F494E2949FF001959FF00D1124EB5B5A
:102BB000FD499281891749F091E012968C91129704
:102BC000803B19F403C091E001C090E0917001C016
:102BD00090E011968C91119782958F7021110EC003
:102BE000911102C0833050F084E38C9FF0018D9FDF
:102BF000F00D1124E852FA4912A6E7C194E39C9F14
:102C0000F0019D9FF00D1124E852FA4996A19530EC
:102C100011F0923021F49C919E3709F4D6C194E3CF
:102C20009C9FF0019D9FF00D1124E852FA4993A555
:102C3000933019F4823009F4C8C1211111C084E322
:102C40008C9FF0018D9FF00D1124E852FA4912A6D5
:102C500085E08483158216828281938180839183AB
:102C600011960C911197302F32953F703130B1F1A0
:102C700020F0323009F4A2C0A8C1073008F0A5C185
:102C800084E38C9FF0018D9FF00D1124E852FA49E6
:102C9000178E81E083A71386148615861686108A00
:102CA000118A17868C918E3711F486E001C085E079
:102CB00086A384E38C9F80018D9F100D1124A801B1
:102CC0004D515A4921E0BD018F2D0E9455140852E3
:102CD0001A4981E0F80185A384A3DCC00F7010E0DD
:102CE000102F002712968C911297080F111D073094
:102CF000110508F46AC13CE13C9FC0013D9F900D65
:102D00001124875D9D49FC01428D538D4017510769
:102D100008F45BC121111FC024E32C9FF0012D9FFB
:102D2000F00D1124AF0148525A4925E0FA0126A3BB
:102D3000FC01208121110FC08289F4E28F9FC00124
:102D400011248B5B9D49FC01858D968DFA0180A332
:102D500091A382E0878F84E38C9FA0018D9F500D0B
:102D60001124CA0188529A496C01FC011386148609
:102D700015861686108A118A17864D515A4921E008
:102D8000BD018F2D0E945514C801059766E070E0C3
:102D90000E941C19892B09F06F5FF60164A384E37C
:102DA0008C9FF0018D9FF00D1124E852FA4981E0CB
:102DB00085A313A685A710A611A607C18CE18C9F39
:102DC000F0018D9FF00D1124E75DFD498081811197
:102DD00015C024E32C9FC0012D9F900D1124885213
:102DE0009A49E28924E2E29FF0011124EB5BFD495C
:102DF000458D568DFC0140A351A3378F11968C91C0
:102E000011978F7094E39C9FF0019D9FF00D11240A
:102E1000E852FA4995A189131DC08F5F803111F0E6
:102E200085A301C015A284E38C9FA0018D9F500D46
:102E300011248A0108521A49F80184A1815084A3FF
:102E40004D515A4921E0BD018F2D0E94551485E056
:102E5000F80110C084A5811114A684E38C9FF001B1
:102E60008D9FF00D1124E852FA4915A686E0868B55
:102E7000178E81E086A384E38C9F80018D9F100DC7
:102E8000112408521A49F80184A181119EC0178E9D
:102E900081E083A78F2D0E945113F80184A5882318
:102EA00019F08F2D0E94861384E38C9FF0018D9F73
:102EB000F00D1124E852FA4915A687C084E38C9FCF
:102EC000F0018D9FF00D1124E852FA4983E04C3354
:102ED00091F4868B12A68CE18C9FD0018D9FB00D52
:102EE0001124A75DBD498C91811102C082E001C00F
:102EF00087E0878710C0818F8CE18C9FD0018D9FE8
:102F0000B00D1124A75DBD498C91811102C086E0EE
:102F100001C087E0848384E38C9FF0018D9FF00DD6
:102F20001124E852FA4983E083A7178E4EC084E348
:102F30008C9FF0018D9FF00D1124E852FA49878D86
:102F40008230E1F480A191A19C012150310920A39C
:102F500031A3892BD1F586E18C9FD0018D9FB00DD7
:102F60001124A45FB94950961C9283E083A785E0A1
:102F7000868B14A615A6178E81E086A384E38C9F0A
:102F8000F0018D9FF00D1124E852FA49878D8130B0
:102F9000E1F420A131A1A9014150510940A351A35D
:102FA000232B99F496E19C9FD0019D9FB00D112495
:102FB000A45FB94950961C9293E093A794E0918F37
:102FC000178E86A302C081E001C080E0DF91CF911F
:102FD0001F910F91FF90DF90CF900895109289007C
:102FE00080E0089544E268ED88E690E00E94F718DA
:102FF00080E00895E0E1F4E0808188608193E83129
:1030000084E0F807C9F7E0E3F4E080818860819309
:10301000E83384E0F807C9F7E0E5F4E080818860F0
:103020008193E83584E0F807C9F7E0E7F4E08081B0
:1030300088608193E83784E0F807C9F7E0E9F4E0B5
:10304000808188608193E83984E0F807C9F7E0EB74
:10305000F4E0808188608193E83B84E0F807C9F759
:10306000E0EDF4E0808188608193E83D84E0F8073A
:10307000C9F7089588E893E18093880890938908B8
:103080008198E1E9F4E08081877F80838898809A45
:103090000C940A190C94FE180E94FA17A99AA19A86
:1030A0000E94F2170E94FC180E945E180C94EE1702
:1030B000482F6DE980E090E10C94F71881E080934F
:1030C000011080E008959C5EFC01808108951F93AB
:1030D000CF93DF93EC01162F809102108370E1F7FC
:1030E00083E10E945818DC5E188380E00E94581823
:1030F00080E0DF91CF911F9108950F920A01FB01AB
:10310000E89511240F900895FB0184910895CF92C2
:10311000DF92EF92FF926B017C018091021083702D
:10312000E1F788E00E94581840E050E0C701B6017E
:103130000E947D1880E00E945818909102109077AC
:1031400081E009F480E0FF90EF90DF90CF90089548
:10315000CF92DF92EF92FF920F931F93CF93DF9363
:103160008B019C01117022273327012B022B032B8B
:10317000A1F5209102102370E1F78A016B017C0117
:1031800088E00E94581840E050E0C701B6010E9454
:103190007D188091021080FDFCCF80E00E945818BD
:1031A00082E00E945818E8011E5F49915991C701B9
:1031B000B6010E947D1882E0C80ED11CE11CF11CF2
:1031C000C017D10791F780E00E9458189091021023
:1031D000907781E019F480E001C081E0DF91CF9128
:1031E0001F910F91FF90EF90DF90CF9008951BBE3D
:1031F000FC0164BF4083089580E00895E0E0FAE0B8
:1032000081E082878BED95E086A397A387E080839A
:1032100080E00895E0E8F8E084E8858386EC868322
:1032200080E0089520918008FC0120830895FC012E
:103230008081809382080895AA1BBB1B51E107C0BF
:10324000AA1FBB1FA617B70710F0A61BB70B881F36
:10325000991F5A95A9F780959095BC01CD010895C5
:10326000A1E21A2EAA1BBB1BFD010DC0AA1FBB1F8A
:10327000EE1FFF1FA217B307E407F50720F0A21BFC
:10328000B30BE40BF50B661F771F881F991F1A9469
:1032900069F760957095809590959B01AC01BD0193
:1032A000CF010895EE0FFF1F0590F491E02D0994D2
:1032B00069279627692778278727782708950E9406
:1032C0006A19A59F900DB49F900DA49F800D911D2C
:1032D00011240895A29FB001B39FC001A39F700D58
:1032E000811D1124911DB29F700D811D1124911D0E
:0632F0000895F894FFCFE1
:1032F6000102030402004800001219171900000019
:10330600000000004B0000000100000000002150FA
:10331600003C3DFF00000000FF000021104220633A
:10332600308440A550C660E770088129914AA16B98
:10333600B18CC1ADD1CEE1EFF13112100273325230
:1033460022B5529442F772D662399318837BB35AE8
:10335600A3BDD39CC3FFF3DEE36224433420040100
:1033660014E664C774A44485546AA54BB528850938
:1033760095EEE5CFF5ACC58DD553367226111630D0
:1033860006D776F6669556B4465BB77AA719973888
:1033960087DFF7FEE79DD7BCC7C448E5588668A710
:1033A600784008611802282338CCC9EDD98EE9AFD8
:1033B600F9488969990AA92BB9F55AD44AB77A9670
:1033C6006A711A500A333A122AFDDBDCCBBFFB9E28
:1033D600EB799B588B3BBB1AABA66C877CE44CC540
:1033E6005C222C033C600C411CAEED8FFDECCDCD78
:1033F600DD2AAD0BBD688D499D977EB66ED55EF410
:103406004E133E322E511E700E9FFFBEEFDDDFFCC7
:10341600CF1BBF3AAF599F788F8891A981CAB1EB6C
:10342600A10CD12DC14EF16FE18010A100C230E395
:10343600200450254046706760B9839893FBA3DA51
:10344600B33DC31CD37FE35EF3B1029012F322D2E5
:10345600323542145277625672EAB5CBA5A89589E1
:10346600856EF54FE52CD50DC5E234C324A0148135
:10347600046674476424540544DBA7FAB79987B8F1
:10348600975FE77EF71DC73CD7D326F2369106B085
:103496001657667676154634564CD96DC90EF92FF1
:1034A600E9C899E9898AB9ABA944586548067827D5
:1034B60068C018E1088238A3287DCB5CDB3FEB1E91
:1034C600FBF98BD89BBBAB9ABB754A545A376A1625
:1034D6007AF10AD01AB32A923A2EFD0FED6CDD4D21
:1034E600CDAABD8BADE89DC98D267C076C645C4575
:1034F6004CA23C832CE01CC10C1FEF3EFF5DCF7C31
:10350600DF9BAFBABFD98FF89F176E367E554E74C4
:103516005E932EB23ED10EF01E000003000200792B
:10352600626962206010270000000000FF1360231C
:1035360065C36445001F60500000000000010101E2
:10354600011E600103B464B364000000640014004B
:10355600D007D0070A9362836500003C003D00FF58
:10356600FF0000000000000000110801000000003C
:10357600000000110800000000000000000000002C
:0E3586000000FF1011272E313436373E0000B2
:00000001FF
